{
  "contractName": "BlockSendToken",
  "abi": [
    {
      "inputs": [],
      "stateMutability": "nonpayable",
      "type": "constructor"
    },
    {
      "anonymous": false,
      "inputs": [
        {
          "indexed": true,
          "internalType": "address",
          "name": "owner",
          "type": "address"
        },
        {
          "indexed": true,
          "internalType": "address",
          "name": "spender",
          "type": "address"
        },
        {
          "indexed": false,
          "internalType": "uint256",
          "name": "value",
          "type": "uint256"
        }
      ],
      "name": "Approval",
      "type": "event"
    },
    {
      "anonymous": false,
      "inputs": [
        {
          "indexed": true,
          "internalType": "address",
          "name": "previousOwner",
          "type": "address"
        },
        {
          "indexed": true,
          "internalType": "address",
          "name": "newOwner",
          "type": "address"
        }
      ],
      "name": "OwnershipTransferred",
      "type": "event"
    },
    {
      "anonymous": false,
      "inputs": [
        {
          "indexed": false,
          "internalType": "address",
          "name": "account",
          "type": "address"
        }
      ],
      "name": "Paused",
      "type": "event"
    },
    {
      "anonymous": false,
      "inputs": [
        {
          "indexed": true,
          "internalType": "address",
          "name": "from",
          "type": "address"
        },
        {
          "indexed": true,
          "internalType": "address",
          "name": "to",
          "type": "address"
        },
        {
          "indexed": false,
          "internalType": "uint256",
          "name": "value",
          "type": "uint256"
        }
      ],
      "name": "Transfer",
      "type": "event"
    },
    {
      "anonymous": false,
      "inputs": [
        {
          "indexed": false,
          "internalType": "address",
          "name": "account",
          "type": "address"
        }
      ],
      "name": "Unpaused",
      "type": "event"
    },
    {
      "inputs": [],
      "name": "DOMAIN_SEPARATOR",
      "outputs": [
        {
          "internalType": "bytes32",
          "name": "",
          "type": "bytes32"
        }
      ],
      "stateMutability": "view",
      "type": "function"
    },
    {
      "inputs": [
        {
          "internalType": "address",
          "name": "owner",
          "type": "address"
        },
        {
          "internalType": "address",
          "name": "spender",
          "type": "address"
        }
      ],
      "name": "allowance",
      "outputs": [
        {
          "internalType": "uint256",
          "name": "",
          "type": "uint256"
        }
      ],
      "stateMutability": "view",
      "type": "function"
    },
    {
      "inputs": [
        {
          "internalType": "address",
          "name": "spender",
          "type": "address"
        },
        {
          "internalType": "uint256",
          "name": "amount",
          "type": "uint256"
        }
      ],
      "name": "approve",
      "outputs": [
        {
          "internalType": "bool",
          "name": "",
          "type": "bool"
        }
      ],
      "stateMutability": "nonpayable",
      "type": "function"
    },
    {
      "inputs": [
        {
          "internalType": "address",
          "name": "account",
          "type": "address"
        }
      ],
      "name": "balanceOf",
      "outputs": [
        {
          "internalType": "uint256",
          "name": "",
          "type": "uint256"
        }
      ],
      "stateMutability": "view",
      "type": "function"
    },
    {
      "inputs": [
        {
          "internalType": "uint256",
          "name": "amount",
          "type": "uint256"
        }
      ],
      "name": "burn",
      "outputs": [],
      "stateMutability": "nonpayable",
      "type": "function"
    },
    {
      "inputs": [
        {
          "internalType": "address",
          "name": "account",
          "type": "address"
        },
        {
          "internalType": "uint256",
          "name": "amount",
          "type": "uint256"
        }
      ],
      "name": "burnFrom",
      "outputs": [],
      "stateMutability": "nonpayable",
      "type": "function"
    },
    {
      "inputs": [],
      "name": "decimals",
      "outputs": [
        {
          "internalType": "uint8",
          "name": "",
          "type": "uint8"
        }
      ],
      "stateMutability": "view",
      "type": "function"
    },
    {
      "inputs": [
        {
          "internalType": "address",
          "name": "spender",
          "type": "address"
        },
        {
          "internalType": "uint256",
          "name": "subtractedValue",
          "type": "uint256"
        }
      ],
      "name": "decreaseAllowance",
      "outputs": [
        {
          "internalType": "bool",
          "name": "",
          "type": "bool"
        }
      ],
      "stateMutability": "nonpayable",
      "type": "function"
    },
    {
      "inputs": [
        {
          "internalType": "address",
          "name": "spender",
          "type": "address"
        },
        {
          "internalType": "uint256",
          "name": "addedValue",
          "type": "uint256"
        }
      ],
      "name": "increaseAllowance",
      "outputs": [
        {
          "internalType": "bool",
          "name": "",
          "type": "bool"
        }
      ],
      "stateMutability": "nonpayable",
      "type": "function"
    },
    {
      "inputs": [],
      "name": "name",
      "outputs": [
        {
          "internalType": "string",
          "name": "",
          "type": "string"
        }
      ],
      "stateMutability": "view",
      "type": "function"
    },
    {
      "inputs": [
        {
          "internalType": "address",
          "name": "owner",
          "type": "address"
        }
      ],
      "name": "nonces",
      "outputs": [
        {
          "internalType": "uint256",
          "name": "",
          "type": "uint256"
        }
      ],
      "stateMutability": "view",
      "type": "function"
    },
    {
      "inputs": [],
      "name": "owner",
      "outputs": [
        {
          "internalType": "address",
          "name": "",
          "type": "address"
        }
      ],
      "stateMutability": "view",
      "type": "function"
    },
    {
      "inputs": [],
      "name": "paused",
      "outputs": [
        {
          "internalType": "bool",
          "name": "",
          "type": "bool"
        }
      ],
      "stateMutability": "view",
      "type": "function"
    },
    {
      "inputs": [
        {
          "internalType": "address",
          "name": "owner",
          "type": "address"
        },
        {
          "internalType": "address",
          "name": "spender",
          "type": "address"
        },
        {
          "internalType": "uint256",
          "name": "value",
          "type": "uint256"
        },
        {
          "internalType": "uint256",
          "name": "deadline",
          "type": "uint256"
        },
        {
          "internalType": "uint8",
          "name": "v",
          "type": "uint8"
        },
        {
          "internalType": "bytes32",
          "name": "r",
          "type": "bytes32"
        },
        {
          "internalType": "bytes32",
          "name": "s",
          "type": "bytes32"
        }
      ],
      "name": "permit",
      "outputs": [],
      "stateMutability": "nonpayable",
      "type": "function"
    },
    {
      "inputs": [],
      "name": "renounceOwnership",
      "outputs": [],
      "stateMutability": "nonpayable",
      "type": "function"
    },
    {
      "inputs": [],
      "name": "symbol",
      "outputs": [
        {
          "internalType": "string",
          "name": "",
          "type": "string"
        }
      ],
      "stateMutability": "view",
      "type": "function"
    },
    {
      "inputs": [],
      "name": "totalSupply",
      "outputs": [
        {
          "internalType": "uint256",
          "name": "",
          "type": "uint256"
        }
      ],
      "stateMutability": "view",
      "type": "function"
    },
    {
      "inputs": [
        {
          "internalType": "address",
          "name": "to",
          "type": "address"
        },
        {
          "internalType": "uint256",
          "name": "amount",
          "type": "uint256"
        }
      ],
      "name": "transfer",
      "outputs": [
        {
          "internalType": "bool",
          "name": "",
          "type": "bool"
        }
      ],
      "stateMutability": "nonpayable",
      "type": "function"
    },
    {
      "inputs": [
        {
          "internalType": "address",
          "name": "from",
          "type": "address"
        },
        {
          "internalType": "address",
          "name": "to",
          "type": "address"
        },
        {
          "internalType": "uint256",
          "name": "amount",
          "type": "uint256"
        }
      ],
      "name": "transferFrom",
      "outputs": [
        {
          "internalType": "bool",
          "name": "",
          "type": "bool"
        }
      ],
      "stateMutability": "nonpayable",
      "type": "function"
    },
    {
      "inputs": [
        {
          "internalType": "address",
          "name": "newOwner",
          "type": "address"
        }
      ],
      "name": "transferOwnership",
      "outputs": [],
      "stateMutability": "nonpayable",
      "type": "function"
    },
    {
      "inputs": [],
      "name": "pause",
      "outputs": [],
      "stateMutability": "nonpayable",
      "type": "function"
    },
    {
      "inputs": [],
      "name": "unpause",
      "outputs": [],
      "stateMutability": "nonpayable",
      "type": "function"
    },
    {
      "inputs": [
        {
          "internalType": "address",
          "name": "_minter",
          "type": "address"
        }
      ],
      "name": "setMinter",
      "outputs": [],
      "stateMutability": "nonpayable",
      "type": "function"
    },
    {
      "inputs": [
        {
          "internalType": "address",
          "name": "to",
          "type": "address"
        },
        {
          "internalType": "uint256",
          "name": "amount",
          "type": "uint256"
        }
      ],
      "name": "mint",
      "outputs": [],
      "stateMutability": "nonpayable",
      "type": "function"
    }
  ],
  "bytecode": "0x6101406040523480156200001257600080fd5b506040518060400160405280600e81526020017f426c6f636b53656e64546f6b656e000000000000000000000000000000000000815250806040518060400160405280600181526020017f31000000000000000000000000000000000000000000000000000000000000008152506040518060400160405280600e81526020017f426c6f636b53656e64546f6b656e0000000000000000000000000000000000008152506040518060400160405280600481526020017f424b5344000000000000000000000000000000000000000000000000000000008152508160039080519060200190620001049291906200031e565b5080600490805190602001906200011d9291906200031e565b5050506000600560006101000a81548160ff0219169083151502179055506200015b6200014f6200021460201b60201c565b6200021c60201b60201c565b60008280519060200120905060008280519060200120905060007f8b73c3c69bb8fe3d512ecc4cf759cc79239f7b179b0ffacaa9a75d522b39400f90508260e081815250508161010081815250504660a08181525050620001c4818484620002e260201b60201c565b608081815250503073ffffffffffffffffffffffffffffffffffffffff1660c08173ffffffffffffffffffffffffffffffffffffffff16815250508061012081815250505050505050506200050a565b600033905090565b6000600560019054906101000a900473ffffffffffffffffffffffffffffffffffffffff16905081600560016101000a81548173ffffffffffffffffffffffffffffffffffffffff021916908373ffffffffffffffffffffffffffffffffffffffff1602179055508173ffffffffffffffffffffffffffffffffffffffff168173ffffffffffffffffffffffffffffffffffffffff167f8be0079c531659141344cd1fd0a4f28419497f9722a3daafe3b4186f6b6457e060405160405180910390a35050565b60008383834630604051602001620002ff95949392919062000449565b6040516020818303038152906040528051906020012090509392505050565b8280546200032c90620004d5565b90600052602060002090601f0160209004810192826200035057600085556200039c565b82601f106200036b57805160ff19168380011785556200039c565b828001600101855582156200039c579182015b828111156200039b5782518255916020019190600101906200037e565b5b509050620003ab9190620003af565b5090565b5b80821115620003ca576000816000905550600101620003b0565b5090565b6000819050919050565b620003e381620003ce565b82525050565b6000819050919050565b620003fe81620003e9565b82525050565b600073ffffffffffffffffffffffffffffffffffffffff82169050919050565b6000620004318262000404565b9050919050565b620004438162000424565b82525050565b600060a082019050620004606000830188620003d8565b6200046f6020830187620003d8565b6200047e6040830186620003d8565b6200048d6060830185620003f3565b6200049c608083018462000438565b9695505050505050565b7f4e487b7100000000000000000000000000000000000000000000000000000000600052602260045260246000fd5b60006002820490506001821680620004ee57607f821691505b602082108103620005045762000503620004a6565b5b50919050565b60805160a05160c05160e0516101005161012051612bda6200055a60003960006110da0152600061111c015260006110fb0152600061103001526000611086015260006110af0152612bda6000f3fe608060405234801561001057600080fd5b50600436106101585760003560e01c8063715018a6116100c3578063a457c2d71161007c578063a457c2d714610391578063a9059cbb146103c1578063d505accf146103f1578063dd62ed3e1461040d578063f2fde38b1461043d578063fca3b5aa1461045957610158565b8063715018a6146102f557806379cc6790146102ff5780637ecebe001461031b5780638456cb591461034b5780638da5cb5b1461035557806395d89b411461037357610158565b8063395093511161011557806339509351146102355780633f4ba83a1461026557806340c10f191461026f57806342966c681461028b5780635c975abb146102a757806370a08231146102c557610158565b806306fdde031461015d578063095ea7b31461017b57806318160ddd146101ab57806323b872dd146101c9578063313ce567146101f95780633644e51514610217575b600080fd5b610165610475565b6040516101729190611b25565b60405180910390f35b61019560048036038101906101909190611be0565b610507565b6040516101a29190611c3b565b60405180910390f35b6101b361052a565b6040516101c09190611c65565b60405180910390f35b6101e360048036038101906101de9190611c80565b610534565b6040516101f09190611c3b565b60405180910390f35b610201610563565b60405161020e9190611cef565b60405180910390f35b61021f61056c565b60405161022c9190611d23565b60405180910390f35b61024f600480360381019061024a9190611be0565b61057b565b60405161025c9190611c3b565b60405180910390f35b61026d6105b2565b005b61028960048036038101906102849190611be0565b6105c4565b005b6102a560048036038101906102a09190611d3e565b610662565b005b6102af610676565b6040516102bc9190611c3b565b60405180910390f35b6102df60048036038101906102da9190611d6b565b61068d565b6040516102ec9190611c65565b60405180910390f35b6102fd6106d5565b005b61031960048036038101906103149190611be0565b6106e9565b005b61033560048036038101906103309190611d6b565b610709565b6040516103429190611c65565b60405180910390f35b610353610759565b005b61035d61076b565b60405161036a9190611da7565b60405180910390f35b61037b610795565b6040516103889190611b25565b60405180910390f35b6103ab60048036038101906103a69190611be0565b610827565b6040516103b89190611c3b565b60405180910390f35b6103db60048036038101906103d69190611be0565b61089e565b6040516103e89190611c3b565b60405180910390f35b61040b60048036038101906104069190611e1a565b6108c1565b005b61042760048036038101906104229190611ebc565b610a03565b6040516104349190611c65565b60405180910390f35b61045760048036038101906104529190611d6b565b610a8a565b005b610473600480360381019061046e9190611d6b565b610b0d565b005b60606003805461048490611f2b565b80601f01602080910402602001604051908101604052809291908181526020018280546104b090611f2b565b80156104fd5780601f106104d2576101008083540402835291602001916104fd565b820191906000526020600020905b8154815290600101906020018083116104e057829003601f168201915b5050505050905090565b600080610512610b59565b905061051f818585610b61565b600191505092915050565b6000600254905090565b60008061053f610b59565b905061054c858285610d2a565b610557858585610db6565b60019150509392505050565b60006012905090565b600061057661102c565b905090565b600080610586610b59565b90506105a78185856105988589610a03565b6105a29190611f8b565b610b61565b600191505092915050565b6105ba611146565b6105c26111c4565b565b600860009054906101000a900473ffffffffffffffffffffffffffffffffffffffff1673ffffffffffffffffffffffffffffffffffffffff163373ffffffffffffffffffffffffffffffffffffffff1614610654576040517f08c379a000000000000000000000000000000000000000000000000000000000815260040161064b9061202d565b60405180910390fd5b61065e8282611227565b5050565b61067361066d610b59565b8261137d565b50565b6000600560009054906101000a900460ff16905090565b60008060008373ffffffffffffffffffffffffffffffffffffffff1673ffffffffffffffffffffffffffffffffffffffff168152602001908152602001600020549050919050565b6106dd611146565b6106e7600061154a565b565b6106fb826106f5610b59565b83610d2a565b610705828261137d565b5050565b6000610752600660008473ffffffffffffffffffffffffffffffffffffffff1673ffffffffffffffffffffffffffffffffffffffff168152602001908152602001600020611610565b9050919050565b610761611146565b61076961161e565b565b6000600560019054906101000a900473ffffffffffffffffffffffffffffffffffffffff16905090565b6060600480546107a490611f2b565b80601f01602080910402602001604051908101604052809291908181526020018280546107d090611f2b565b801561081d5780601f106107f25761010080835404028352916020019161081d565b820191906000526020600020905b81548152906001019060200180831161080057829003601f168201915b5050505050905090565b600080610832610b59565b905060006108408286610a03565b905083811015610885576040517f08c379a000000000000000000000000000000000000000000000000000000000815260040161087c906120bf565b60405180910390fd5b6108928286868403610b61565b60019250505092915050565b6000806108a9610b59565b90506108b6818585610db6565b600191505092915050565b83421115610904576040517f08c379a00000000000000000000000000000000000000000000000000000000081526004016108fb9061212b565b60405180910390fd5b60007f6e71edae12b1b97f4d1f60370fef10105fa2faae0126114a169c64845d6126c98888886109338c611681565b896040516020016109499695949392919061214b565b604051602081830303815290604052805190602001209050600061096c826116df565b9050600061097c828787876116f9565b90508973ffffffffffffffffffffffffffffffffffffffff168173ffffffffffffffffffffffffffffffffffffffff16146109ec576040517f08c379a00000000000000000000000000000000000000000000000000000000081526004016109e3906121f8565b60405180910390fd5b6109f78a8a8a610b61565b50505050505050505050565b6000600160008473ffffffffffffffffffffffffffffffffffffffff1673ffffffffffffffffffffffffffffffffffffffff16815260200190815260200160002060008373ffffffffffffffffffffffffffffffffffffffff1673ffffffffffffffffffffffffffffffffffffffff16815260200190815260200160002054905092915050565b610a92611146565b600073ffffffffffffffffffffffffffffffffffffffff168173ffffffffffffffffffffffffffffffffffffffff1603610b01576040517f08c379a0000000000000000000000000000000000000000000000000000000008152600401610af89061228a565b60405180910390fd5b610b0a8161154a565b50565b610b15611146565b80600860006101000a81548173ffffffffffffffffffffffffffffffffffffffff021916908373ffffffffffffffffffffffffffffffffffffffff16021790555050565b600033905090565b600073ffffffffffffffffffffffffffffffffffffffff168373ffffffffffffffffffffffffffffffffffffffff1603610bd0576040517f08c379a0000000000000000000000000000000000000000000000000000000008152600401610bc79061231c565b60405180910390fd5b600073ffffffffffffffffffffffffffffffffffffffff168273ffffffffffffffffffffffffffffffffffffffff1603610c3f576040517f08c379a0000000000000000000000000000000000000000000000000000000008152600401610c36906123ae565b60405180910390fd5b80600160008573ffffffffffffffffffffffffffffffffffffffff1673ffffffffffffffffffffffffffffffffffffffff16815260200190815260200160002060008473ffffffffffffffffffffffffffffffffffffffff1673ffffffffffffffffffffffffffffffffffffffff168152602001908152602001600020819055508173ffffffffffffffffffffffffffffffffffffffff168373ffffffffffffffffffffffffffffffffffffffff167f8c5be1e5ebec7d5bd14f71427d1e84f3dd0314c0f7b2291e5b200ac8c7c3b92583604051610d1d9190611c65565b60405180910390a3505050565b6000610d368484610a03565b90507fffffffffffffffffffffffffffffffffffffffffffffffffffffffffffffffff8114610db05781811015610da2576040517f08c379a0000000000000000000000000000000000000000000000000000000008152600401610d999061241a565b60405180910390fd5b610daf8484848403610b61565b5b50505050565b600073ffffffffffffffffffffffffffffffffffffffff168373ffffffffffffffffffffffffffffffffffffffff1603610e25576040517f08c379a0000000000000000000000000000000000000000000000000000000008152600401610e1c906124ac565b60405180910390fd5b600073ffffffffffffffffffffffffffffffffffffffff168273ffffffffffffffffffffffffffffffffffffffff1603610e94576040517f08c379a0000000000000000000000000000000000000000000000000000000008152600401610e8b9061253e565b60405180910390fd5b610e9f838383611724565b60008060008573ffffffffffffffffffffffffffffffffffffffff1673ffffffffffffffffffffffffffffffffffffffff16815260200190815260200160002054905081811015610f25576040517f08c379a0000000000000000000000000000000000000000000000000000000008152600401610f1c906125d0565b60405180910390fd5b8181036000808673ffffffffffffffffffffffffffffffffffffffff1673ffffffffffffffffffffffffffffffffffffffff16815260200190815260200160002081905550816000808573ffffffffffffffffffffffffffffffffffffffff1673ffffffffffffffffffffffffffffffffffffffff168152602001908152602001600020600082825401925050819055508273ffffffffffffffffffffffffffffffffffffffff168473ffffffffffffffffffffffffffffffffffffffff167fddf252ad1be2c89b69c2b068fc378daa952ba7f163c4a11628f55a4df523b3ef846040516110139190611c65565b60405180910390a3611026848484611729565b50505050565b60007f000000000000000000000000000000000000000000000000000000000000000073ffffffffffffffffffffffffffffffffffffffff163073ffffffffffffffffffffffffffffffffffffffff161480156110a857507f000000000000000000000000000000000000000000000000000000000000000046145b156110d5577f00000000000000000000000000000000000000000000000000000000000000009050611143565b6111407f00000000000000000000000000000000000000000000000000000000000000007f00000000000000000000000000000000000000000000000000000000000000007f000000000000000000000000000000000000000000000000000000000000000061172e565b90505b90565b61114e610b59565b73ffffffffffffffffffffffffffffffffffffffff1661116c61076b565b73ffffffffffffffffffffffffffffffffffffffff16146111c2576040517f08c379a00000000000000000000000000000000000000000000000000000000081526004016111b99061263c565b60405180910390fd5b565b6111cc611768565b6000600560006101000a81548160ff0219169083151502179055507f5db9ee0a495bf2e6ff9c91a7834c1ba4fdd244a5e8aa4e537bd38aeae4b073aa611210610b59565b60405161121d9190611da7565b60405180910390a1565b600073ffffffffffffffffffffffffffffffffffffffff168273ffffffffffffffffffffffffffffffffffffffff1603611296576040517f08c379a000000000000000000000000000000000000000000000000000000000815260040161128d906126a8565b60405180910390fd5b6112a260008383611724565b80600260008282546112b49190611f8b565b92505081905550806000808473ffffffffffffffffffffffffffffffffffffffff1673ffffffffffffffffffffffffffffffffffffffff168152602001908152602001600020600082825401925050819055508173ffffffffffffffffffffffffffffffffffffffff16600073ffffffffffffffffffffffffffffffffffffffff167fddf252ad1be2c89b69c2b068fc378daa952ba7f163c4a11628f55a4df523b3ef836040516113659190611c65565b60405180910390a361137960008383611729565b5050565b600073ffffffffffffffffffffffffffffffffffffffff168273ffffffffffffffffffffffffffffffffffffffff16036113ec576040517f08c379a00000000000000000000000000000000000000000000000000000000081526004016113e39061273a565b60405180910390fd5b6113f882600083611724565b60008060008473ffffffffffffffffffffffffffffffffffffffff1673ffffffffffffffffffffffffffffffffffffffff1681526020019081526020016000205490508181101561147e576040517f08c379a0000000000000000000000000000000000000000000000000000000008152600401611475906127cc565b60405180910390fd5b8181036000808573ffffffffffffffffffffffffffffffffffffffff1673ffffffffffffffffffffffffffffffffffffffff1681526020019081526020016000208190555081600260008282540392505081905550600073ffffffffffffffffffffffffffffffffffffffff168373ffffffffffffffffffffffffffffffffffffffff167fddf252ad1be2c89b69c2b068fc378daa952ba7f163c4a11628f55a4df523b3ef846040516115319190611c65565b60405180910390a361154583600084611729565b505050565b6000600560019054906101000a900473ffffffffffffffffffffffffffffffffffffffff16905081600560016101000a81548173ffffffffffffffffffffffffffffffffffffffff021916908373ffffffffffffffffffffffffffffffffffffffff1602179055508173ffffffffffffffffffffffffffffffffffffffff168173ffffffffffffffffffffffffffffffffffffffff167f8be0079c531659141344cd1fd0a4f28419497f9722a3daafe3b4186f6b6457e060405160405180910390a35050565b600081600001549050919050565b6116266117b1565b6001600560006101000a81548160ff0219169083151502179055507f62e78cea01bee320cd4e420270b5ea74000d11b0c9f74754ebdbfc544b05a25861166a610b59565b6040516116779190611da7565b60405180910390a1565b600080600660008473ffffffffffffffffffffffffffffffffffffffff1673ffffffffffffffffffffffffffffffffffffffff16815260200190815260200160002090506116ce81611610565b91506116d9816117fb565b50919050565b60006116f26116ec61102c565b83611811565b9050919050565b600080600061170a87878787611844565b9150915061171781611926565b8192505050949350505050565b505050565b505050565b600083838346306040516020016117499594939291906127ec565b6040516020818303038152906040528051906020012090509392505050565b611770610676565b6117af576040517f08c379a00000000000000000000000000000000000000000000000000000000081526004016117a69061288b565b60405180910390fd5b565b6117b9610676565b156117f9576040517f08c379a00000000000000000000000000000000000000000000000000000000081526004016117f0906128f7565b60405180910390fd5b565b6001816000016000828254019250508190555050565b6000828260405160200161182692919061298f565b60405160208183030381529060405280519060200120905092915050565b6000807f7fffffffffffffffffffffffffffffff5d576e7357a4501ddfe92f46681b20a08360001c111561187f57600060039150915061191d565b6000600187878787604051600081526020016040526040516118a494939291906129c6565b6020604051602081039080840390855afa1580156118c6573d6000803e3d6000fd5b505050602060405103519050600073ffffffffffffffffffffffffffffffffffffffff168173ffffffffffffffffffffffffffffffffffffffff16036119145760006001925092505061191d565b80600092509250505b94509492505050565b6000600481111561193a57611939612a0b565b5b81600481111561194d5761194c612a0b565b5b0315611a89576001600481111561196757611966612a0b565b5b81600481111561197a57611979612a0b565b5b036119ba576040517f08c379a00000000000000000000000000000000000000000000000000000000081526004016119b190612a86565b60405180910390fd5b600260048111156119ce576119cd612a0b565b5b8160048111156119e1576119e0612a0b565b5b03611a21576040517f08c379a0000000000000000000000000000000000000000000000000000000008152600401611a1890612af2565b60405180910390fd5b60036004811115611a3557611a34612a0b565b5b816004811115611a4857611a47612a0b565b5b03611a88576040517f08c379a0000000000000000000000000000000000000000000000000000000008152600401611a7f90612b84565b60405180910390fd5b5b50565b600081519050919050565b600082825260208201905092915050565b60005b83811015611ac6578082015181840152602081019050611aab565b83811115611ad5576000848401525b50505050565b6000601f19601f8301169050919050565b6000611af782611a8c565b611b018185611a97565b9350611b11818560208601611aa8565b611b1a81611adb565b840191505092915050565b60006020820190508181036000830152611b3f8184611aec565b905092915050565b600080fd5b600073ffffffffffffffffffffffffffffffffffffffff82169050919050565b6000611b7782611b4c565b9050919050565b611b8781611b6c565b8114611b9257600080fd5b50565b600081359050611ba481611b7e565b92915050565b6000819050919050565b611bbd81611baa565b8114611bc857600080fd5b50565b600081359050611bda81611bb4565b92915050565b60008060408385031215611bf757611bf6611b47565b5b6000611c0585828601611b95565b9250506020611c1685828601611bcb565b9150509250929050565b60008115159050919050565b611c3581611c20565b82525050565b6000602082019050611c506000830184611c2c565b92915050565b611c5f81611baa565b82525050565b6000602082019050611c7a6000830184611c56565b92915050565b600080600060608486031215611c9957611c98611b47565b5b6000611ca786828701611b95565b9350506020611cb886828701611b95565b9250506040611cc986828701611bcb565b9150509250925092565b600060ff82169050919050565b611ce981611cd3565b82525050565b6000602082019050611d046000830184611ce0565b92915050565b6000819050919050565b611d1d81611d0a565b82525050565b6000602082019050611d386000830184611d14565b92915050565b600060208284031215611d5457611d53611b47565b5b6000611d6284828501611bcb565b91505092915050565b600060208284031215611d8157611d80611b47565b5b6000611d8f84828501611b95565b91505092915050565b611da181611b6c565b82525050565b6000602082019050611dbc6000830184611d98565b92915050565b611dcb81611cd3565b8114611dd657600080fd5b50565b600081359050611de881611dc2565b92915050565b611df781611d0a565b8114611e0257600080fd5b50565b600081359050611e1481611dee565b92915050565b600080600080600080600060e0888a031215611e3957611e38611b47565b5b6000611e478a828b01611b95565b9750506020611e588a828b01611b95565b9650506040611e698a828b01611bcb565b9550506060611e7a8a828b01611bcb565b9450506080611e8b8a828b01611dd9565b93505060a0611e9c8a828b01611e05565b92505060c0611ead8a828b01611e05565b91505092959891949750929550565b60008060408385031215611ed357611ed2611b47565b5b6000611ee185828601611b95565b9250506020611ef285828601611b95565b9150509250929050565b7f4e487b7100000000000000000000000000000000000000000000000000000000600052602260045260246000fd5b60006002820490506001821680611f4357607f821691505b602082108103611f5657611f55611efc565b5b50919050565b7f4e487b7100000000000000000000000000000000000000000000000000000000600052601160045260246000fd5b6000611f9682611baa565b9150611fa183611baa565b9250827fffffffffffffffffffffffffffffffffffffffffffffffffffffffffffffffff03821115611fd657611fd5611f5c565b5b828201905092915050565b7f4f6e6c79206d696e7465722063616e206d696e74000000000000000000000000600082015250565b6000612017601483611a97565b915061202282611fe1565b602082019050919050565b600060208201905081810360008301526120468161200a565b9050919050565b7f45524332303a2064656372656173656420616c6c6f77616e63652062656c6f7760008201527f207a65726f000000000000000000000000000000000000000000000000000000602082015250565b60006120a9602583611a97565b91506120b48261204d565b604082019050919050565b600060208201905081810360008301526120d88161209c565b9050919050565b7f45524332305065726d69743a206578706972656420646561646c696e65000000600082015250565b6000612115601d83611a97565b9150612120826120df565b602082019050919050565b6000602082019050818103600083015261214481612108565b9050919050565b600060c0820190506121606000830189611d14565b61216d6020830188611d98565b61217a6040830187611d98565b6121876060830186611c56565b6121946080830185611c56565b6121a160a0830184611c56565b979650505050505050565b7f45524332305065726d69743a20696e76616c6964207369676e61747572650000600082015250565b60006121e2601e83611a97565b91506121ed826121ac565b602082019050919050565b60006020820190508181036000830152612211816121d5565b9050919050565b7f4f776e61626c653a206e6577206f776e657220697320746865207a65726f206160008201527f6464726573730000000000000000000000000000000000000000000000000000602082015250565b6000612274602683611a97565b915061227f82612218565b604082019050919050565b600060208201905081810360008301526122a381612267565b9050919050565b7f45524332303a20617070726f76652066726f6d20746865207a65726f2061646460008201527f7265737300000000000000000000000000000000000000000000000000000000602082015250565b6000612306602483611a97565b9150612311826122aa565b604082019050919050565b60006020820190508181036000830152612335816122f9565b9050919050565b7f45524332303a20617070726f766520746f20746865207a65726f20616464726560008201527f7373000000000000000000000000000000000000000000000000000000000000602082015250565b6000612398602283611a97565b91506123a38261233c565b604082019050919050565b600060208201905081810360008301526123c78161238b565b9050919050565b7f45524332303a20696e73756666696369656e7420616c6c6f77616e6365000000600082015250565b6000612404601d83611a97565b915061240f826123ce565b602082019050919050565b60006020820190508181036000830152612433816123f7565b9050919050565b7f45524332303a207472616e736665722066726f6d20746865207a65726f20616460008201527f6472657373000000000000000000000000000000000000000000000000000000602082015250565b6000612496602583611a97565b91506124a18261243a565b604082019050919050565b600060208201905081810360008301526124c581612489565b9050919050565b7f45524332303a207472616e7366657220746f20746865207a65726f206164647260008201527f6573730000000000000000000000000000000000000000000000000000000000602082015250565b6000612528602383611a97565b9150612533826124cc565b604082019050919050565b600060208201905081810360008301526125578161251b565b9050919050565b7f45524332303a207472616e7366657220616d6f756e742065786365656473206260008201527f616c616e63650000000000000000000000000000000000000000000000000000602082015250565b60006125ba602683611a97565b91506125c58261255e565b604082019050919050565b600060208201905081810360008301526125e9816125ad565b9050919050565b7f4f776e61626c653a2063616c6c6572206973206e6f7420746865206f776e6572600082015250565b6000612626602083611a97565b9150612631826125f0565b602082019050919050565b6000602082019050818103600083015261265581612619565b9050919050565b7f45524332303a206d696e7420746f20746865207a65726f206164647265737300600082015250565b6000612692601f83611a97565b915061269d8261265c565b602082019050919050565b600060208201905081810360008301526126c181612685565b9050919050565b7f45524332303a206275726e2066726f6d20746865207a65726f2061646472657360008201527f7300000000000000000000000000000000000000000000000000000000000000602082015250565b6000612724602183611a97565b915061272f826126c8565b604082019050919050565b6000602082019050818103600083015261275381612717565b9050919050565b7f45524332303a206275726e20616d6f756e7420657863656564732062616c616e60008201527f6365000000000000000000000000000000000000000000000000000000000000602082015250565b60006127b6602283611a97565b91506127c18261275a565b604082019050919050565b600060208201905081810360008301526127e5816127a9565b9050919050565b600060a0820190506128016000830188611d14565b61280e6020830187611d14565b61281b6040830186611d14565b6128286060830185611c56565b6128356080830184611d98565b9695505050505050565b7f5061757361626c653a206e6f7420706175736564000000000000000000000000600082015250565b6000612875601483611a97565b91506128808261283f565b602082019050919050565b600060208201905081810360008301526128a481612868565b9050919050565b7f5061757361626c653a2070617573656400000000000000000000000000000000600082015250565b60006128e1601083611a97565b91506128ec826128ab565b602082019050919050565b60006020820190508181036000830152612910816128d4565b9050919050565b600081905092915050565b7f1901000000000000000000000000000000000000000000000000000000000000600082015250565b6000612958600283612917565b915061296382612922565b600282019050919050565b6000819050919050565b61298961298482611d0a565b61296e565b82525050565b600061299a8261294b565b91506129a68285612978565b6020820191506129b68284612978565b6020820191508190509392505050565b60006080820190506129db6000830187611d14565b6129e86020830186611ce0565b6129f56040830185611d14565b612a026060830184611d14565b95945050505050565b7f4e487b7100000000000000000000000000000000000000000000000000000000600052602160045260246000fd5b7f45434453413a20696e76616c6964207369676e61747572650000000000000000600082015250565b6000612a70601883611a97565b9150612a7b82612a3a565b602082019050919050565b60006020820190508181036000830152612a9f81612a63565b9050919050565b7f45434453413a20696e76616c6964207369676e6174757265206c656e67746800600082015250565b6000612adc601f83611a97565b9150612ae782612aa6565b602082019050919050565b60006020820190508181036000830152612b0b81612acf565b9050919050565b7f45434453413a20696e76616c6964207369676e6174757265202773272076616c60008201527f7565000000000000000000000000000000000000000000000000000000000000602082015250565b6000612b6e602283611a97565b9150612b7982612b12565b604082019050919050565b60006020820190508181036000830152612b9d81612b61565b905091905056fea26469706673582212205ced933ae8bb9da5473515c407f72509e10fb1fe1f0bf94a9339230e2b2f242e64736f6c634300080e0033",
  "immutableReferences": {
    "3566": [
      {
        "length": 32,
        "start": 4271
      }
    ],
    "3568": [
      {
        "length": 32,
        "start": 4230
      }
    ],
    "3570": [
      {
        "length": 32,
        "start": 4144
      }
    ],
    "3572": [
      {
        "length": 32,
        "start": 4347
      }
    ],
    "3574": [
      {
        "length": 32,
        "start": 4380
      }
    ],
    "3576": [
      {
        "length": 32,
        "start": 4314
      }
    ]
  },
  "source": "// SPDX-License-Identifier: MIT\npragma solidity ^0.8.13;\n\nimport \"../node_modules/@openzeppelin/contracts/token/ERC20/ERC20.sol\";\nimport \"../node_modules/@openzeppelin/contracts/token/ERC20/extensions/ERC20Burnable.sol\";\nimport \"../node_modules/@openzeppelin/contracts/security/Pausable.sol\";\nimport \"../node_modules/@openzeppelin/contracts/access/Ownable.sol\";\nimport \"../node_modules/@openzeppelin/contracts/token/ERC20/extensions/draft-ERC20Permit.sol\";\n\ncontract BlockSendToken is\n    ERC20,\n    ERC20Burnable,\n    Pausable,\n    Ownable,\n    ERC20Permit\n{\n    address private minter;\n\n    constructor()\n        ERC20(\"BlockSendToken\", \"BKSD\")\n        ERC20Permit(\"BlockSendToken\")\n    {}\n\n    modifier onlyMinter() {\n        require(msg.sender == minter, \"Only minter can mint\");\n        _;\n    }\n\n    function pause() public onlyOwner {\n        _pause();\n    }\n\n    function unpause() public onlyOwner {\n        _unpause();\n    }\n\n    function setMinter(address _minter) public onlyOwner {\n        minter = _minter;\n    }\n\n    function mint(address to, uint256 amount) public onlyMinter {\n        _mint(to, amount);\n    }\n}\n",
  "sourcePath": "/Users/fabricepayet/Workspace/blocksend/blocksend/truffle/contracts/BlockSendToken.sol",
  "compiler": {
    "name": "solc",
    "version": "0.8.14+commit.80d49f37.Emscripten.clang"
  },
  "schemaVersion": "3.4.10",
  "updatedAt": "2022-12-12T06:06:40.977Z",
  "devdoc": {
    "kind": "dev",
    "methods": {
      "DOMAIN_SEPARATOR()": {
        "details": "See {IERC20Permit-DOMAIN_SEPARATOR}."
      },
      "allowance(address,address)": {
        "details": "See {IERC20-allowance}."
      },
      "approve(address,uint256)": {
        "details": "See {IERC20-approve}. NOTE: If `amount` is the maximum `uint256`, the allowance is not updated on `transferFrom`. This is semantically equivalent to an infinite approval. Requirements: - `spender` cannot be the zero address."
      },
      "balanceOf(address)": {
        "details": "See {IERC20-balanceOf}."
      },
      "burn(uint256)": {
        "details": "Destroys `amount` tokens from the caller. See {ERC20-_burn}."
      },
      "burnFrom(address,uint256)": {
        "details": "Destroys `amount` tokens from `account`, deducting from the caller's allowance. See {ERC20-_burn} and {ERC20-allowance}. Requirements: - the caller must have allowance for ``accounts``'s tokens of at least `amount`."
      },
      "decimals()": {
        "details": "Returns the number of decimals used to get its user representation. For example, if `decimals` equals `2`, a balance of `505` tokens should be displayed to a user as `5.05` (`505 / 10 ** 2`). Tokens usually opt for a value of 18, imitating the relationship between Ether and Wei. This is the value {ERC20} uses, unless this function is overridden; NOTE: This information is only used for _display_ purposes: it in no way affects any of the arithmetic of the contract, including {IERC20-balanceOf} and {IERC20-transfer}."
      },
      "decreaseAllowance(address,uint256)": {
        "details": "Atomically decreases the allowance granted to `spender` by the caller. This is an alternative to {approve} that can be used as a mitigation for problems described in {IERC20-approve}. Emits an {Approval} event indicating the updated allowance. Requirements: - `spender` cannot be the zero address. - `spender` must have allowance for the caller of at least `subtractedValue`."
      },
      "increaseAllowance(address,uint256)": {
        "details": "Atomically increases the allowance granted to `spender` by the caller. This is an alternative to {approve} that can be used as a mitigation for problems described in {IERC20-approve}. Emits an {Approval} event indicating the updated allowance. Requirements: - `spender` cannot be the zero address."
      },
      "name()": {
        "details": "Returns the name of the token."
      },
      "nonces(address)": {
        "details": "See {IERC20Permit-nonces}."
      },
      "owner()": {
        "details": "Returns the address of the current owner."
      },
      "paused()": {
        "details": "Returns true if the contract is paused, and false otherwise."
      },
      "permit(address,address,uint256,uint256,uint8,bytes32,bytes32)": {
        "details": "See {IERC20Permit-permit}."
      },
      "renounceOwnership()": {
        "details": "Leaves the contract without owner. It will not be possible to call `onlyOwner` functions anymore. Can only be called by the current owner. NOTE: Renouncing ownership will leave the contract without an owner, thereby removing any functionality that is only available to the owner."
      },
      "symbol()": {
        "details": "Returns the symbol of the token, usually a shorter version of the name."
      },
      "totalSupply()": {
        "details": "See {IERC20-totalSupply}."
      },
      "transfer(address,uint256)": {
        "details": "See {IERC20-transfer}. Requirements: - `to` cannot be the zero address. - the caller must have a balance of at least `amount`."
      },
      "transferFrom(address,address,uint256)": {
        "details": "See {IERC20-transferFrom}. Emits an {Approval} event indicating the updated allowance. This is not required by the EIP. See the note at the beginning of {ERC20}. NOTE: Does not update the allowance if the current allowance is the maximum `uint256`. Requirements: - `from` and `to` cannot be the zero address. - `from` must have a balance of at least `amount`. - the caller must have allowance for ``from``'s tokens of at least `amount`."
      },
      "transferOwnership(address)": {
        "details": "Transfers ownership of the contract to a new account (`newOwner`). Can only be called by the current owner."
      }
    },
    "version": 1
  },
  "userdoc": {
    "kind": "user",
    "methods": {},
    "version": 1
  }
}