{
  "contractName": "BlockSendStakingRewards",
  "abi": [
    {
      "inputs": [
        {
          "internalType": "address",
          "name": "_blocksSendTokenAdress",
          "type": "address"
        },
        {
          "internalType": "uint256",
          "name": "_startDate",
          "type": "uint256"
        },
        {
          "internalType": "uint256",
          "name": "_endDate",
          "type": "uint256"
        }
      ],
      "stateMutability": "nonpayable",
      "type": "constructor"
    },
    {
      "anonymous": false,
      "inputs": [
        {
          "indexed": true,
          "internalType": "address",
          "name": "previousOwner",
          "type": "address"
        },
        {
          "indexed": true,
          "internalType": "address",
          "name": "newOwner",
          "type": "address"
        }
      ],
      "name": "OwnershipTransferred",
      "type": "event"
    },
    {
      "anonymous": false,
      "inputs": [
        {
          "indexed": false,
          "internalType": "address",
          "name": "staker",
          "type": "address"
        },
        {
          "indexed": false,
          "internalType": "uint256",
          "name": "_amount",
          "type": "uint256"
        }
      ],
      "name": "Staked",
      "type": "event"
    },
    {
      "anonymous": false,
      "inputs": [
        {
          "indexed": false,
          "internalType": "address",
          "name": "staker",
          "type": "address"
        },
        {
          "indexed": false,
          "internalType": "uint256",
          "name": "_amount",
          "type": "uint256"
        }
      ],
      "name": "Unstaked",
      "type": "event"
    },
    {
      "anonymous": false,
      "inputs": [
        {
          "indexed": false,
          "internalType": "address",
          "name": "staker",
          "type": "address"
        },
        {
          "indexed": false,
          "internalType": "uint256",
          "name": "rewards",
          "type": "uint256"
        }
      ],
      "name": "WithdrawRewards",
      "type": "event"
    },
    {
      "inputs": [],
      "name": "endDate",
      "outputs": [
        {
          "internalType": "uint256",
          "name": "",
          "type": "uint256"
        }
      ],
      "stateMutability": "view",
      "type": "function"
    },
    {
      "inputs": [],
      "name": "owner",
      "outputs": [
        {
          "internalType": "address",
          "name": "",
          "type": "address"
        }
      ],
      "stateMutability": "view",
      "type": "function"
    },
    {
      "inputs": [],
      "name": "renounceOwnership",
      "outputs": [],
      "stateMutability": "nonpayable",
      "type": "function"
    },
    {
      "inputs": [
        {
          "internalType": "uint256",
          "name": "",
          "type": "uint256"
        }
      ],
      "name": "rewards",
      "outputs": [
        {
          "internalType": "uint256",
          "name": "",
          "type": "uint256"
        }
      ],
      "stateMutability": "view",
      "type": "function"
    },
    {
      "inputs": [
        {
          "internalType": "address",
          "name": "",
          "type": "address"
        }
      ],
      "name": "rewardsAlreadyClaimed",
      "outputs": [
        {
          "internalType": "bool",
          "name": "",
          "type": "bool"
        }
      ],
      "stateMutability": "view",
      "type": "function"
    },
    {
      "inputs": [],
      "name": "startDate",
      "outputs": [
        {
          "internalType": "uint256",
          "name": "",
          "type": "uint256"
        }
      ],
      "stateMutability": "view",
      "type": "function"
    },
    {
      "inputs": [],
      "name": "totalPowers",
      "outputs": [
        {
          "internalType": "uint256",
          "name": "",
          "type": "uint256"
        }
      ],
      "stateMutability": "view",
      "type": "function"
    },
    {
      "inputs": [],
      "name": "totalRewards",
      "outputs": [
        {
          "internalType": "uint256",
          "name": "",
          "type": "uint256"
        }
      ],
      "stateMutability": "view",
      "type": "function"
    },
    {
      "inputs": [
        {
          "internalType": "address",
          "name": "newOwner",
          "type": "address"
        }
      ],
      "name": "transferOwnership",
      "outputs": [],
      "stateMutability": "nonpayable",
      "type": "function"
    },
    {
      "inputs": [
        {
          "internalType": "address",
          "name": "",
          "type": "address"
        }
      ],
      "name": "userAdditionalLock",
      "outputs": [
        {
          "internalType": "uint256",
          "name": "",
          "type": "uint256"
        }
      ],
      "stateMutability": "view",
      "type": "function"
    },
    {
      "inputs": [],
      "name": "userPower",
      "outputs": [
        {
          "internalType": "uint256",
          "name": "",
          "type": "uint256"
        }
      ],
      "stateMutability": "view",
      "type": "function"
    },
    {
      "inputs": [
        {
          "internalType": "address",
          "name": "",
          "type": "address"
        }
      ],
      "name": "userPowerStaked",
      "outputs": [
        {
          "internalType": "uint256",
          "name": "",
          "type": "uint256"
        }
      ],
      "stateMutability": "view",
      "type": "function"
    },
    {
      "inputs": [
        {
          "internalType": "address",
          "name": "",
          "type": "address"
        }
      ],
      "name": "userTokensStaked",
      "outputs": [
        {
          "internalType": "uint256",
          "name": "",
          "type": "uint256"
        }
      ],
      "stateMutability": "view",
      "type": "function"
    },
    {
      "inputs": [
        {
          "internalType": "uint256",
          "name": "_amount",
          "type": "uint256"
        },
        {
          "internalType": "uint256",
          "name": "_additionalDuration",
          "type": "uint256"
        }
      ],
      "name": "stake",
      "outputs": [],
      "stateMutability": "nonpayable",
      "type": "function"
    },
    {
      "inputs": [],
      "name": "claimRewards",
      "outputs": [],
      "stateMutability": "nonpayable",
      "type": "function"
    },
    {
      "inputs": [],
      "name": "unstake",
      "outputs": [],
      "stateMutability": "nonpayable",
      "type": "function"
    },
    {
      "inputs": [],
      "name": "getMyStakedTokens",
      "outputs": [
        {
          "internalType": "uint256",
          "name": "",
          "type": "uint256"
        }
      ],
      "stateMutability": "view",
      "type": "function"
    },
    {
      "inputs": [],
      "name": "getMyUSDCRewards",
      "outputs": [
        {
          "internalType": "uint256",
          "name": "",
          "type": "uint256"
        }
      ],
      "stateMutability": "view",
      "type": "function"
    },
    {
      "inputs": [
        {
          "internalType": "address",
          "name": "_router",
          "type": "address"
        }
      ],
      "name": "setRouter",
      "outputs": [],
      "stateMutability": "nonpayable",
      "type": "function"
    },
    {
      "inputs": [
        {
          "internalType": "uint256",
          "name": "_amount",
          "type": "uint256"
        }
      ],
      "name": "addRewards",
      "outputs": [],
      "stateMutability": "nonpayable",
      "type": "function"
    }
  ],
  "bytecode": "0x60c0604052732791bca1f2de4661ed88a30c99a7a9449aa84174600160006101000a81548173ffffffffffffffffffffffffffffffffffffffff021916908373ffffffffffffffffffffffffffffffffffffffff1602179055503480156200006657600080fd5b5060405162001ef938038062001ef983398181016040528101906200008c9190620002be565b620000ac620000a06200014d60201b60201c565b6200015560201b60201c565b8273ffffffffffffffffffffffffffffffffffffffff1660808173ffffffffffffffffffffffffffffffffffffffff1681525050600160009054906101000a900473ffffffffffffffffffffffffffffffffffffffff1673ffffffffffffffffffffffffffffffffffffffff1660a08173ffffffffffffffffffffffffffffffffffffffff168152505081600281905550806003819055505050506200031a565b600033905090565b60008060009054906101000a900473ffffffffffffffffffffffffffffffffffffffff169050816000806101000a81548173ffffffffffffffffffffffffffffffffffffffff021916908373ffffffffffffffffffffffffffffffffffffffff1602179055508173ffffffffffffffffffffffffffffffffffffffff168173ffffffffffffffffffffffffffffffffffffffff167f8be0079c531659141344cd1fd0a4f28419497f9722a3daafe3b4186f6b6457e060405160405180910390a35050565b600080fd5b600073ffffffffffffffffffffffffffffffffffffffff82169050919050565b60006200024b826200021e565b9050919050565b6200025d816200023e565b81146200026957600080fd5b50565b6000815190506200027d8162000252565b92915050565b6000819050919050565b620002988162000283565b8114620002a457600080fd5b50565b600081519050620002b8816200028d565b92915050565b600080600060608486031215620002da57620002d962000219565b5b6000620002ea868287016200026c565b9350506020620002fd86828701620002a7565b92505060406200031086828701620002a7565b9150509250925092565b60805160a051611ba462000355600039600081816105990152610a3a01526000818161072301528181610c2a0152610cc90152611ba46000f3fe608060405234801561001057600080fd5b506004361061012c5760003560e01c80637b0472f0116100ad578063beceed3911610071578063beceed39146102fd578063c0d7865514610319578063c24a0f8b14610335578063f2fde38b14610353578063f301af421461036f5761012c565b80637b0472f014610245578063810aa9e2146102615780638da5cb5b14610291578063b7e053ed146102af578063ba3d154e146102df5761012c565b8063372500ab116100f4578063372500ab146101c557806348c56b5e146101cf5780636267e72b146101ff5780636917c5011461021d578063715018a61461023b5761012c565b80630b97bc86146101315780630e15561a1461014f57806311faeefd1461016d578063177659b91461018b5780632def6620146101bb575b600080fd5b61013961039f565b604051610146919061139b565b60405180910390f35b6101576103a5565b604051610164919061139b565b60405180910390f35b6101756103ab565b604051610182919061139b565b60405180910390f35b6101a560048036038101906101a09190611419565b6103b1565b6040516101b29190611461565b60405180910390f35b6101c36103d1565b005b6101cd610903565b005b6101e960048036038101906101e49190611419565b610b6b565b6040516101f6919061139b565b60405180910390f35b610207610b83565b604051610214919061139b565b60405180910390f35b610225610bca565b604051610232919061139b565b60405180910390f35b610243610bd0565b005b61025f600480360381019061025a91906114a8565b610be4565b005b61027b60048036038101906102769190611419565b610f7a565b604051610288919061139b565b60405180910390f35b610299610f92565b6040516102a691906114f7565b60405180910390f35b6102c960048036038101906102c49190611419565b610fbb565b6040516102d6919061139b565b60405180910390f35b6102e7610fd3565b6040516102f4919061139b565b60405180910390f35b61031760048036038101906103129190611512565b611034565b005b610333600480360381019061032e9190611419565b61114b565b005b61033d611197565b60405161034a919061139b565b60405180910390f35b61036d60048036038101906103689190611419565b61119d565b005b61038960048036038101906103849190611512565b611220565b604051610396919061139b565b60405180910390f35b60025481565b60055481565b60065481565b600a6020528060005260406000206000915054906101000a900460ff1681565b600b60003373ffffffffffffffffffffffffffffffffffffffff1673ffffffffffffffffffffffffffffffffffffffff1681526020019081526020016000205460035461041e919061156e565b421161045f576040517f08c379a000000000000000000000000000000000000000000000000000000000815260040161045690611621565b60405180910390fd5b6000600760003373ffffffffffffffffffffffffffffffffffffffff1673ffffffffffffffffffffffffffffffffffffffff16815260200190815260200160002054116104e1576040517f08c379a00000000000000000000000000000000000000000000000000000000081526004016104d89061168d565b60405180910390fd5b60001515600a60003373ffffffffffffffffffffffffffffffffffffffff1673ffffffffffffffffffffffffffffffffffffffff16815260200190815260200160002060009054906101000a900460ff161515036106c9576000600554600454600860003373ffffffffffffffffffffffffffffffffffffffff1673ffffffffffffffffffffffffffffffffffffffff1681526020019081526020016000205461058b91906116dc565b610595919061170d565b90507f000000000000000000000000000000000000000000000000000000000000000073ffffffffffffffffffffffffffffffffffffffff1663a9059cbb33836040518363ffffffff1660e01b81526004016105f2929190611767565b6020604051808303816000875af1158015610611573d6000803e3d6000fd5b505050506040513d601f19601f8201168201806040525081019061063591906117bc565b507faa1377f7ec93c239e959efa811f7b8554c036fd7a706c23e58024626a8f3db963382604051610667929190611767565b60405180910390a16001600a60003373ffffffffffffffffffffffffffffffffffffffff1673ffffffffffffffffffffffffffffffffffffffff16815260200190815260200160002060006101000a81548160ff021916908315150217905550505b600860003373ffffffffffffffffffffffffffffffffffffffff1673ffffffffffffffffffffffffffffffffffffffff168152602001908152602001600020546004600082825461071a91906117e9565b925050819055507f000000000000000000000000000000000000000000000000000000000000000073ffffffffffffffffffffffffffffffffffffffff1663a9059cbb33600760003373ffffffffffffffffffffffffffffffffffffffff1673ffffffffffffffffffffffffffffffffffffffff168152602001908152602001600020546040518363ffffffff1660e01b81526004016107bb929190611767565b6020604051808303816000875af11580156107da573d6000803e3d6000fd5b505050506040513d601f19601f820116820180604052508101906107fe91906117bc565b507f0f5bb82176feb1b5e747e28471aa92156a04d9f3ab9f45f28e2d704232b93f7533600760003373ffffffffffffffffffffffffffffffffffffffff1673ffffffffffffffffffffffffffffffffffffffff1681526020019081526020016000205460405161086f929190611767565b60405180910390a16000600760003373ffffffffffffffffffffffffffffffffffffffff1673ffffffffffffffffffffffffffffffffffffffff168152602001908152602001600020819055506000600860003373ffffffffffffffffffffffffffffffffffffffff1673ffffffffffffffffffffffffffffffffffffffff16815260200190815260200160002081905550565b6003544211610947576040517f08c379a000000000000000000000000000000000000000000000000000000000815260040161093e90611869565b60405180910390fd5b60001515600a60003373ffffffffffffffffffffffffffffffffffffffff1673ffffffffffffffffffffffffffffffffffffffff16815260200190815260200160002060009054906101000a900460ff161515146109da576040517f08c379a00000000000000000000000000000000000000000000000000000000081526004016109d1906118d5565b60405180910390fd5b6000600554600454600860003373ffffffffffffffffffffffffffffffffffffffff1673ffffffffffffffffffffffffffffffffffffffff16815260200190815260200160002054610a2c91906116dc565b610a36919061170d565b90507f000000000000000000000000000000000000000000000000000000000000000073ffffffffffffffffffffffffffffffffffffffff1663a9059cbb33836040518363ffffffff1660e01b8152600401610a93929190611767565b6020604051808303816000875af1158015610ab2573d6000803e3d6000fd5b505050506040513d601f19601f82011682018060405250810190610ad691906117bc565b507faa1377f7ec93c239e959efa811f7b8554c036fd7a706c23e58024626a8f3db963382604051610b08929190611767565b60405180910390a16001600a60003373ffffffffffffffffffffffffffffffffffffffff1673ffffffffffffffffffffffffffffffffffffffff16815260200190815260200160002060006101000a81548160ff02191690831515021790555050565b600b6020528060005260406000206000915090505481565b6000600760003373ffffffffffffffffffffffffffffffffffffffff1673ffffffffffffffffffffffffffffffffffffffff16815260200190815260200160002054905090565b60045481565b610bd8611238565b610be260006112b6565b565b6002544210610c28576040517f08c379a0000000000000000000000000000000000000000000000000000000008152600401610c1f90611941565b60405180910390fd5b7f000000000000000000000000000000000000000000000000000000000000000073ffffffffffffffffffffffffffffffffffffffff1663095ea7b330846040518363ffffffff1660e01b8152600401610c83929190611767565b6020604051808303816000875af1158015610ca2573d6000803e3d6000fd5b505050506040513d601f19601f82011682018060405250810190610cc691906117bc565b507f000000000000000000000000000000000000000000000000000000000000000073ffffffffffffffffffffffffffffffffffffffff166323b872dd3330856040518463ffffffff1660e01b8152600401610d2493929190611961565b6020604051808303816000875af1158015610d43573d6000803e3d6000fd5b505050506040513d601f19601f82011682018060405250810190610d6791906117bc565b5081600760003373ffffffffffffffffffffffffffffffffffffffff1673ffffffffffffffffffffffffffffffffffffffff1681526020019081526020016000206000828254610db7919061156e565b9250508190555060006001905062278d00821115610dd457600390505b624f1a00821115610de457600590505b8060ff1683610df3919061170d565b600681905550600654600860003373ffffffffffffffffffffffffffffffffffffffff1673ffffffffffffffffffffffffffffffffffffffff1681526020019081526020016000206000828254610e4a919061156e565b92505081905550600b60003373ffffffffffffffffffffffffffffffffffffffff1673ffffffffffffffffffffffffffffffffffffffff16815260200190815260200160002054821115610edd5781600860003373ffffffffffffffffffffffffffffffffffffffff1673ffffffffffffffffffffffffffffffffffffffff168152602001908152602001600020819055505b81600b60003373ffffffffffffffffffffffffffffffffffffffff1673ffffffffffffffffffffffffffffffffffffffff1681526020019081526020016000208190555060065460046000828254610f35919061156e565b925050819055507f9e71bc8eea02a63969f509818f2dafb9254532904319f9dbda79b67bd34a5f3d3384604051610f6d929190611767565b60405180910390a1505050565b60086020528060005260406000206000915090505481565b60008060009054906101000a900473ffffffffffffffffffffffffffffffffffffffff16905090565b60076020528060005260406000206000915090505481565b6000600554600454600860003373ffffffffffffffffffffffffffffffffffffffff1673ffffffffffffffffffffffffffffffffffffffff1681526020019081526020016000205461102591906116dc565b61102f919061170d565b905090565b600c60009054906101000a900473ffffffffffffffffffffffffffffffffffffffff1673ffffffffffffffffffffffffffffffffffffffff163373ffffffffffffffffffffffffffffffffffffffff16146110c4576040517f08c379a00000000000000000000000000000000000000000000000000000000081526004016110bb906119e4565b60405180910390fd5b60025442101580156110d857506003544211155b611117576040517f08c379a000000000000000000000000000000000000000000000000000000000815260040161110e90611a50565b60405180910390fd5b8060056000828254611129919061156e565b9250508190555080600960004281526020019081526020016000208190555050565b611153611238565b80600c60006101000a81548173ffffffffffffffffffffffffffffffffffffffff021916908373ffffffffffffffffffffffffffffffffffffffff16021790555050565b60035481565b6111a5611238565b600073ffffffffffffffffffffffffffffffffffffffff168173ffffffffffffffffffffffffffffffffffffffff1603611214576040517f08c379a000000000000000000000000000000000000000000000000000000000815260040161120b90611ae2565b60405180910390fd5b61121d816112b6565b50565b60096020528060005260406000206000915090505481565b61124061137a565b73ffffffffffffffffffffffffffffffffffffffff1661125e610f92565b73ffffffffffffffffffffffffffffffffffffffff16146112b4576040517f08c379a00000000000000000000000000000000000000000000000000000000081526004016112ab90611b4e565b60405180910390fd5b565b60008060009054906101000a900473ffffffffffffffffffffffffffffffffffffffff169050816000806101000a81548173ffffffffffffffffffffffffffffffffffffffff021916908373ffffffffffffffffffffffffffffffffffffffff1602179055508173ffffffffffffffffffffffffffffffffffffffff168173ffffffffffffffffffffffffffffffffffffffff167f8be0079c531659141344cd1fd0a4f28419497f9722a3daafe3b4186f6b6457e060405160405180910390a35050565b600033905090565b6000819050919050565b61139581611382565b82525050565b60006020820190506113b0600083018461138c565b92915050565b600080fd5b600073ffffffffffffffffffffffffffffffffffffffff82169050919050565b60006113e6826113bb565b9050919050565b6113f6816113db565b811461140157600080fd5b50565b600081359050611413816113ed565b92915050565b60006020828403121561142f5761142e6113b6565b5b600061143d84828501611404565b91505092915050565b60008115159050919050565b61145b81611446565b82525050565b60006020820190506114766000830184611452565b92915050565b61148581611382565b811461149057600080fd5b50565b6000813590506114a28161147c565b92915050565b600080604083850312156114bf576114be6113b6565b5b60006114cd85828601611493565b92505060206114de85828601611493565b9150509250929050565b6114f1816113db565b82525050565b600060208201905061150c60008301846114e8565b92915050565b600060208284031215611528576115276113b6565b5b600061153684828501611493565b91505092915050565b7f4e487b7100000000000000000000000000000000000000000000000000000000600052601160045260246000fd5b600061157982611382565b915061158483611382565b9250827fffffffffffffffffffffffffffffffffffffffffffffffffffffffffffffffff038211156115b9576115b861153f565b5b828201905092915050565b600082825260208201905092915050565b7f546f6f20736f6f6e20746f20756e7374616b6521000000000000000000000000600082015250565b600061160b6014836115c4565b9150611616826115d5565b602082019050919050565b6000602082019050818103600083015261163a816115fe565b9050919050565b7f4e6f207374616b656420746f6b656e7321000000000000000000000000000000600082015250565b60006116776011836115c4565b915061168282611641565b602082019050919050565b600060208201905081810360008301526116a68161166a565b9050919050565b7f4e487b7100000000000000000000000000000000000000000000000000000000600052601260045260246000fd5b60006116e782611382565b91506116f283611382565b925082611702576117016116ad565b5b828204905092915050565b600061171882611382565b915061172383611382565b9250817fffffffffffffffffffffffffffffffffffffffffffffffffffffffffffffffff048311821515161561175c5761175b61153f565b5b828202905092915050565b600060408201905061177c60008301856114e8565b611789602083018461138c565b9392505050565b61179981611446565b81146117a457600080fd5b50565b6000815190506117b681611790565b92915050565b6000602082840312156117d2576117d16113b6565b5b60006117e0848285016117a7565b91505092915050565b60006117f482611382565b91506117ff83611382565b9250828210156118125761181161153f565b5b828203905092915050565b7f546f6f20736f6f6e20746f20636c61696d207265776172647321000000000000600082015250565b6000611853601a836115c4565b915061185e8261181d565b602082019050919050565b6000602082019050818103600083015261188281611846565b9050919050565b7f416c726561647920636c61696d65642072657761726473210000000000000000600082015250565b60006118bf6018836115c4565b91506118ca82611889565b602082019050919050565b600060208201905081810360008301526118ee816118b2565b9050919050565b7f737461636b696e6720696d706f737369626c6521000000000000000000000000600082015250565b600061192b6014836115c4565b9150611936826118f5565b602082019050919050565b6000602082019050818103600083015261195a8161191e565b9050919050565b600060608201905061197660008301866114e8565b61198360208301856114e8565b611990604083018461138c565b949350505050565b7f4f6e6c7920726f757465722063616e2061646420726577617264730000000000600082015250565b60006119ce601b836115c4565b91506119d982611998565b602082019050919050565b600060208201905081810360008301526119fd816119c1565b9050919050565b7f616464207265776172647320696d706f737369626c6521000000000000000000600082015250565b6000611a3a6017836115c4565b9150611a4582611a04565b602082019050919050565b60006020820190508181036000830152611a6981611a2d565b9050919050565b7f4f776e61626c653a206e6577206f776e657220697320746865207a65726f206160008201527f6464726573730000000000000000000000000000000000000000000000000000602082015250565b6000611acc6026836115c4565b9150611ad782611a70565b604082019050919050565b60006020820190508181036000830152611afb81611abf565b9050919050565b7f4f776e61626c653a2063616c6c6572206973206e6f7420746865206f776e6572600082015250565b6000611b386020836115c4565b9150611b4382611b02565b602082019050919050565b60006020820190508181036000830152611b6781611b2b565b905091905056fea26469706673582212209ccb4d6d3b16e95e731f048b1cc2f06fa42cf710fa6793c94135e98cd6689e3e64736f6c634300080e0033",
  "immutableReferences": {
    "1112": [
      {
        "length": 32,
        "start": 1827
      },
      {
        "length": 32,
        "start": 3114
      },
      {
        "length": 32,
        "start": 3273
      }
    ],
    "1115": [
      {
        "length": 32,
        "start": 1433
      },
      {
        "length": 32,
        "start": 2618
      }
    ]
  },
  "source": "// SPDX-License-Identifier: MIT\r\npragma solidity ^0.8.13;\r\n\r\nimport \"../node_modules/@openzeppelin/contracts/token/ERC20/ERC20.sol\";\r\nimport \"../node_modules/@openzeppelin/contracts/access/Ownable.sol\";\r\n\r\ncontract BlockSendStakingRewards is Ownable {\r\n    address private USDC_TOKEN_CONTRACT =\r\n        0x2791Bca1f2de4661ED88A30C99A7a9449Aa84174;\r\n\r\n    IERC20 private immutable BKSDToken;\r\n    IERC20 private immutable USDCToken;\r\n\r\n    event Staked(address staker, uint256 _amount);\r\n    event Unstaked(address staker, uint256 _amount);\r\n    event WithdrawRewards(address staker, uint256 rewards);\r\n\r\n    uint256 public startDate;\r\n    uint256 public endDate;\r\n\r\n    uint256 public totalPowers;\r\n    uint256 public totalRewards;\r\n    uint256 public userPower;\r\n\r\n    mapping(address => uint256) public userTokensStaked;\r\n    mapping(address => uint256) public userPowerStaked;\r\n    mapping(uint256 => uint256) public rewards;\r\n    mapping(address => bool) public rewardsAlreadyClaimed;\r\n    mapping(address => uint256) public userAdditionalLock;\r\n\r\n    address private router;\r\n\r\n    constructor(\r\n        address _blocksSendTokenAdress,\r\n        uint256 _startDate,\r\n        uint256 _endDate\r\n    ) {\r\n        BKSDToken = IERC20(_blocksSendTokenAdress);\r\n        USDCToken = IERC20(USDC_TOKEN_CONTRACT);\r\n        startDate = _startDate;\r\n        endDate = _endDate;\r\n    }\r\n\r\n    modifier onlyRouter() {\r\n        require(msg.sender == router, \"Only router can add rewards\");\r\n        _;\r\n    }\r\n\r\n    function stake(uint256 _amount, uint256 _additionalDuration) external {\r\n        require(block.timestamp < startDate, \"stacking impossible!\");\r\n\r\n        BKSDToken.approve(address(this), _amount);\r\n        BKSDToken.transferFrom(msg.sender, address(this), _amount);\r\n        userTokensStaked[msg.sender] += _amount;\r\n\r\n        uint8 coeff = 1;\r\n        // The user choose to lock an additional month\r\n        if (_additionalDuration > (86400 * 30)) {\r\n            coeff = 3;\r\n        }\r\n\r\n        // The user choose to lock 2 additional months\r\n        if (_additionalDuration > (86400 * 60)) {\r\n            coeff = 5;\r\n        }\r\n\r\n        userPower = _amount * coeff;\r\n        userPowerStaked[msg.sender] += userPower;\r\n\r\n        // If the user has already lock some tokens, we choose the longest duration\r\n        if (_additionalDuration > userAdditionalLock[msg.sender]) {\r\n            userPowerStaked[msg.sender] = _additionalDuration;\r\n        }\r\n\r\n        userAdditionalLock[msg.sender] = _additionalDuration;\r\n        totalPowers += userPower;\r\n\r\n        // totalStaked += _amount;\r\n        emit Staked(msg.sender, _amount);\r\n    }\r\n\r\n    function claimRewards() external {\r\n        require(block.timestamp > endDate, \"Too soon to claim rewards!\");\r\n        require(\r\n            rewardsAlreadyClaimed[msg.sender] == false,\r\n            \"Already claimed rewards!\"\r\n        );\r\n\r\n        //  We calculate the rewards and send them to the user\r\n        uint256 USDCRewards = (userPowerStaked[msg.sender] / totalPowers) *\r\n            totalRewards;\r\n        USDCToken.transfer(msg.sender, USDCRewards);\r\n        emit WithdrawRewards(msg.sender, USDCRewards);\r\n        rewardsAlreadyClaimed[msg.sender] = true;\r\n    }\r\n\r\n    function unstake() external {\r\n        require(\r\n            block.timestamp > (endDate + userAdditionalLock[msg.sender]),\r\n            \"Too soon to unstake!\"\r\n        );\r\n        require(userTokensStaked[msg.sender] > 0, \"No staked tokens!\");\r\n\r\n        if (rewardsAlreadyClaimed[msg.sender] == false) {\r\n            //  We calculate the rewards and send them to the user\r\n            uint256 USDCRewards = (userPowerStaked[msg.sender] / totalPowers) *\r\n                totalRewards;\r\n            USDCToken.transfer(msg.sender, USDCRewards);\r\n            emit WithdrawRewards(msg.sender, USDCRewards);\r\n            rewardsAlreadyClaimed[msg.sender] = true;\r\n        }\r\n\r\n        //  We send the staked tokens back to the user\r\n        totalPowers -= userPowerStaked[msg.sender];\r\n        BKSDToken.transfer(msg.sender, userTokensStaked[msg.sender]);\r\n        emit Unstaked(msg.sender, userTokensStaked[msg.sender]);\r\n        userTokensStaked[msg.sender] = 0;\r\n        userPowerStaked[msg.sender] = 0;\r\n    }\r\n\r\n    function getMyStakedTokens() external view returns (uint256) {\r\n        return userTokensStaked[msg.sender];\r\n    }\r\n\r\n    function getMyUSDCRewards() external view returns (uint256) {\r\n        return (userPowerStaked[msg.sender] / totalPowers) * totalRewards;\r\n    }\r\n\r\n    function setRouter(address _router) public onlyOwner {\r\n        router = _router;\r\n    }\r\n\r\n    // TODO: Change the modifier here\r\n    function addRewards(uint256 _amount) external onlyRouter {\r\n        require(\r\n            block.timestamp >= startDate && block.timestamp <= endDate,\r\n            \"add rewards impossible!\"\r\n        );\r\n        totalRewards += _amount;\r\n        rewards[block.timestamp] = _amount;\r\n    }\r\n}\r\n",
  "sourcePath": "C:\\Users\\zguai\\Desktop\\Repos\\BlockSend\\truffle\\contracts\\BlockSendStakingRewards.sol",
  "compiler": {
    "name": "solc",
    "version": "0.8.14+commit.80d49f37.Emscripten.clang"
  },
  "schemaVersion": "3.4.10",
  "updatedAt": "2022-12-12T01:25:38.860Z",
  "devdoc": {
    "kind": "dev",
    "methods": {
      "owner()": {
        "details": "Returns the address of the current owner."
      },
      "renounceOwnership()": {
        "details": "Leaves the contract without owner. It will not be possible to call `onlyOwner` functions anymore. Can only be called by the current owner. NOTE: Renouncing ownership will leave the contract without an owner, thereby removing any functionality that is only available to the owner."
      },
      "transferOwnership(address)": {
        "details": "Transfers ownership of the contract to a new account (`newOwner`). Can only be called by the current owner."
      }
    },
    "version": 1
  },
  "userdoc": {
    "kind": "user",
    "methods": {},
    "version": 1
  }
}