{
  "contractName": "BlockSendStakingRewards",
  "abi": [
    {
      "inputs": [
        {
          "internalType": "address",
          "name": "_blocksSendTokenAdress",
          "type": "address"
        },
        {
          "internalType": "uint256",
          "name": "_startDate",
          "type": "uint256"
        },
        {
          "internalType": "uint256",
          "name": "_endDate",
          "type": "uint256"
        }
      ],
      "stateMutability": "nonpayable",
      "type": "constructor"
    },
    {
      "anonymous": false,
      "inputs": [
        {
          "indexed": true,
          "internalType": "address",
          "name": "previousOwner",
          "type": "address"
        },
        {
          "indexed": true,
          "internalType": "address",
          "name": "newOwner",
          "type": "address"
        }
      ],
      "name": "OwnershipTransferred",
      "type": "event"
    },
    {
      "anonymous": false,
      "inputs": [
        {
          "indexed": false,
          "internalType": "address",
          "name": "staker",
          "type": "address"
        },
        {
          "indexed": false,
          "internalType": "uint256",
          "name": "_amount",
          "type": "uint256"
        }
      ],
      "name": "Staked",
      "type": "event"
    },
    {
      "anonymous": false,
      "inputs": [
        {
          "indexed": false,
          "internalType": "address",
          "name": "staker",
          "type": "address"
        },
        {
          "indexed": false,
          "internalType": "uint256",
          "name": "_amount",
          "type": "uint256"
        }
      ],
      "name": "UnStaked",
      "type": "event"
    },
    {
      "anonymous": false,
      "inputs": [
        {
          "indexed": false,
          "internalType": "address",
          "name": "staker",
          "type": "address"
        },
        {
          "indexed": false,
          "internalType": "uint256",
          "name": "rewards",
          "type": "uint256"
        }
      ],
      "name": "WithdrawRewards",
      "type": "event"
    },
    {
      "inputs": [],
      "name": "endDate",
      "outputs": [
        {
          "internalType": "uint256",
          "name": "",
          "type": "uint256"
        }
      ],
      "stateMutability": "view",
      "type": "function"
    },
    {
      "inputs": [],
      "name": "owner",
      "outputs": [
        {
          "internalType": "address",
          "name": "",
          "type": "address"
        }
      ],
      "stateMutability": "view",
      "type": "function"
    },
    {
      "inputs": [],
      "name": "renounceOwnership",
      "outputs": [],
      "stateMutability": "nonpayable",
      "type": "function"
    },
    {
      "inputs": [
        {
          "internalType": "uint256",
          "name": "",
          "type": "uint256"
        }
      ],
      "name": "rewards",
      "outputs": [
        {
          "internalType": "uint256",
          "name": "",
          "type": "uint256"
        }
      ],
      "stateMutability": "view",
      "type": "function"
    },
    {
      "inputs": [],
      "name": "startDate",
      "outputs": [
        {
          "internalType": "uint256",
          "name": "",
          "type": "uint256"
        }
      ],
      "stateMutability": "view",
      "type": "function"
    },
    {
      "inputs": [],
      "name": "totalRewards",
      "outputs": [
        {
          "internalType": "uint256",
          "name": "",
          "type": "uint256"
        }
      ],
      "stateMutability": "view",
      "type": "function"
    },
    {
      "inputs": [],
      "name": "totalStaked",
      "outputs": [
        {
          "internalType": "uint256",
          "name": "",
          "type": "uint256"
        }
      ],
      "stateMutability": "view",
      "type": "function"
    },
    {
      "inputs": [
        {
          "internalType": "address",
          "name": "newOwner",
          "type": "address"
        }
      ],
      "name": "transferOwnership",
      "outputs": [],
      "stateMutability": "nonpayable",
      "type": "function"
    },
    {
      "inputs": [],
      "name": "userPower",
      "outputs": [
        {
          "internalType": "uint256",
          "name": "",
          "type": "uint256"
        }
      ],
      "stateMutability": "view",
      "type": "function"
    },
    {
      "inputs": [
        {
          "internalType": "address",
          "name": "",
          "type": "address"
        }
      ],
      "name": "userTokensStaked",
      "outputs": [
        {
          "internalType": "uint256",
          "name": "",
          "type": "uint256"
        }
      ],
      "stateMutability": "view",
      "type": "function"
    },
    {
      "inputs": [
        {
          "internalType": "uint256",
          "name": "_amount",
          "type": "uint256"
        }
      ],
      "name": "stake",
      "outputs": [],
      "stateMutability": "nonpayable",
      "type": "function"
    },
    {
      "inputs": [
        {
          "internalType": "uint256",
          "name": "_amount",
          "type": "uint256"
        }
      ],
      "name": "unStake",
      "outputs": [],
      "stateMutability": "nonpayable",
      "type": "function"
    },
    {
      "inputs": [],
      "name": "withdrawRewards",
      "outputs": [],
      "stateMutability": "nonpayable",
      "type": "function"
    },
    {
      "inputs": [],
      "name": "getUserStakedTokens",
      "outputs": [
        {
          "internalType": "uint256",
          "name": "",
          "type": "uint256"
        }
      ],
      "stateMutability": "view",
      "type": "function"
    },
    {
      "inputs": [
        {
          "internalType": "uint256",
          "name": "_amount",
          "type": "uint256"
        }
      ],
      "name": "addRewards",
      "outputs": [],
      "stateMutability": "nonpayable",
      "type": "function"
    }
  ],
  "bytecode": "0x60c0604052732791bca1f2de4661ed88a30c99a7a9449aa84174600160006101000a81548173ffffffffffffffffffffffffffffffffffffffff021916908373ffffffffffffffffffffffffffffffffffffffff1602179055503480156200006657600080fd5b506040516200188e3803806200188e83398181016040528101906200008c9190620002be565b620000ac620000a06200014d60201b60201c565b6200015560201b60201c565b8273ffffffffffffffffffffffffffffffffffffffff1660808173ffffffffffffffffffffffffffffffffffffffff1681525050600160009054906101000a900473ffffffffffffffffffffffffffffffffffffffff1673ffffffffffffffffffffffffffffffffffffffff1660a08173ffffffffffffffffffffffffffffffffffffffff168152505081600281905550806003819055505050506200031a565b600033905090565b60008060009054906101000a900473ffffffffffffffffffffffffffffffffffffffff169050816000806101000a81548173ffffffffffffffffffffffffffffffffffffffff021916908373ffffffffffffffffffffffffffffffffffffffff1602179055508173ffffffffffffffffffffffffffffffffffffffff168173ffffffffffffffffffffffffffffffffffffffff167f8be0079c531659141344cd1fd0a4f28419497f9722a3daafe3b4186f6b6457e060405160405180910390a35050565b600080fd5b600073ffffffffffffffffffffffffffffffffffffffff82169050919050565b60006200024b826200021e565b9050919050565b6200025d816200023e565b81146200026957600080fd5b50565b6000815190506200027d8162000252565b92915050565b6000819050919050565b620002988162000283565b8114620002a457600080fd5b50565b600081519050620002b8816200028d565b92915050565b600080600060608486031215620002da57620002d962000219565b5b6000620002ea868287016200026c565b9350506020620002fd86828701620002a7565b92505060406200031086828701620002a7565b9150509250925092565b60805160a0516115406200034e60003960006109f30152600081816103d9015281816105b5015261065401526115406000f3fe608060405234801561001057600080fd5b50600436106100f55760003560e01c8063a694fc3a11610097578063c24a0f8b11610066578063c24a0f8b1461023c578063c7b8981c1461025a578063f2fde38b14610264578063f301af4214610280576100f5565b8063a694fc3a146101b6578063b41aa81f146101d2578063b7e053ed146101f0578063beceed3914610220576100f5565b80635d3eea91116100d35780635d3eea9114610154578063715018a614610170578063817b1cd21461017a5780638da5cb5b14610198576100f5565b80630b97bc86146100fa5780630e15561a1461011857806311faeefd14610136575b600080fd5b6101026102b0565b60405161010f9190610d0f565b60405180910390f35b6101206102b6565b60405161012d9190610d0f565b60405180910390f35b61013e6102bc565b60405161014b9190610d0f565b60405180910390f35b61016e60048036038101906101699190610d5b565b6102c2565b005b61017861052c565b005b610182610540565b60405161018f9190610d0f565b60405180910390f35b6101a0610546565b6040516101ad9190610dc9565b60405180910390f35b6101d060048036038101906101cb9190610d5b565b61056f565b005b6101da61079e565b6040516101e79190610d0f565b60405180910390f35b61020a60048036038101906102059190610e10565b6107e5565b6040516102179190610d0f565b60405180910390f35b61023a60048036038101906102359190610d5b565b6107fd565b005b610244610884565b6040516102519190610d0f565b60405180910390f35b61026261088a565b005b61027e60048036038101906102799190610e10565b610b11565b005b61029a60048036038101906102959190610d5b565b610b94565b6040516102a79190610d0f565b60405180910390f35b60025481565b60055481565b60065481565b6003544211806102d3575060025442105b610312576040517f08c379a000000000000000000000000000000000000000000000000000000000815260040161030990610e9a565b60405180910390fd5b60008111610355576040517f08c379a000000000000000000000000000000000000000000000000000000000815260040161034c90610f06565b60405180910390fd5b600760003373ffffffffffffffffffffffffffffffffffffffff1673ffffffffffffffffffffffffffffffffffffffff168152602001908152602001600020548111156103d7576040517f08c379a00000000000000000000000000000000000000000000000000000000081526004016103ce90610f98565b60405180910390fd5b7f000000000000000000000000000000000000000000000000000000000000000073ffffffffffffffffffffffffffffffffffffffff1663a9059cbb33836040518363ffffffff1660e01b8152600401610432929190610fb8565b6020604051808303816000875af1158015610451573d6000803e3d6000fd5b505050506040513d601f19601f820116820180604052508101906104759190611019565b5080600760003373ffffffffffffffffffffffffffffffffffffffff1673ffffffffffffffffffffffffffffffffffffffff16815260200190815260200160002060008282546104c59190611075565b925050819055506003544211156104f05780600460008282546104e89190611075565b925050819055505b7f79d3df6837cc49ff0e09fd3258e6e45594e0703445bb06825e9d75156eaee8f03382604051610521929190610fb8565b60405180910390a150565b610534610bac565b61053e6000610c2a565b565b60045481565b60008060009054906101000a900473ffffffffffffffffffffffffffffffffffffffff16905090565b60025442106105b3576040517f08c379a00000000000000000000000000000000000000000000000000000000081526004016105aa906110f5565b60405180910390fd5b7f000000000000000000000000000000000000000000000000000000000000000073ffffffffffffffffffffffffffffffffffffffff1663095ea7b330836040518363ffffffff1660e01b815260040161060e929190610fb8565b6020604051808303816000875af115801561062d573d6000803e3d6000fd5b505050506040513d601f19601f820116820180604052508101906106519190611019565b507f000000000000000000000000000000000000000000000000000000000000000073ffffffffffffffffffffffffffffffffffffffff166323b872dd3330846040518463ffffffff1660e01b81526004016106af93929190611115565b6020604051808303816000875af11580156106ce573d6000803e3d6000fd5b505050506040513d601f19601f820116820180604052508101906106f29190611019565b5080600760003373ffffffffffffffffffffffffffffffffffffffff1673ffffffffffffffffffffffffffffffffffffffff1681526020019081526020016000206000828254610742919061114c565b92505081905550806004600082825461075b919061114c565b925050819055507f9e71bc8eea02a63969f509818f2dafb9254532904319f9dbda79b67bd34a5f3d3382604051610793929190610fb8565b60405180910390a150565b6000600760003373ffffffffffffffffffffffffffffffffffffffff1673ffffffffffffffffffffffffffffffffffffffff16815260200190815260200160002054905090565b60076020528060005260406000206000915090505481565b600254421015801561081157506003544211155b610850576040517f08c379a0000000000000000000000000000000000000000000000000000000008152600401610847906111ee565b60405180910390fd5b8060056000828254610862919061114c565b9250508190555080600860004281526020019081526020016000208190555050565b60035481565b60035442116108ce576040517f08c379a00000000000000000000000000000000000000000000000000000000081526004016108c59061125a565b60405180910390fd5b6000600760003373ffffffffffffffffffffffffffffffffffffffff1673ffffffffffffffffffffffffffffffffffffffff1681526020019081526020016000205411610950576040517f08c379a0000000000000000000000000000000000000000000000000000000008152600401610947906112c6565b60405180910390fd5b6000600760003373ffffffffffffffffffffffffffffffffffffffff1673ffffffffffffffffffffffffffffffffffffffff168152602001908152602001600020546004546005546109a29190611315565b6109ac9190611346565b9050600081116109f1576040517f08c379a00000000000000000000000000000000000000000000000000000000081526004016109e8906113ec565b60405180910390fd5b7f000000000000000000000000000000000000000000000000000000000000000073ffffffffffffffffffffffffffffffffffffffff1663a9059cbb33836040518363ffffffff1660e01b8152600401610a4c929190610fb8565b6020604051808303816000875af1158015610a6b573d6000803e3d6000fd5b505050506040513d601f19601f82011682018060405250810190610a8f9190611019565b506000600760003373ffffffffffffffffffffffffffffffffffffffff1673ffffffffffffffffffffffffffffffffffffffff168152602001908152602001600020819055507faa1377f7ec93c239e959efa811f7b8554c036fd7a706c23e58024626a8f3db963382604051610b06929190610fb8565b60405180910390a150565b610b19610bac565b600073ffffffffffffffffffffffffffffffffffffffff168173ffffffffffffffffffffffffffffffffffffffff1603610b88576040517f08c379a0000000000000000000000000000000000000000000000000000000008152600401610b7f9061147e565b60405180910390fd5b610b9181610c2a565b50565b60086020528060005260406000206000915090505481565b610bb4610cee565b73ffffffffffffffffffffffffffffffffffffffff16610bd2610546565b73ffffffffffffffffffffffffffffffffffffffff1614610c28576040517f08c379a0000000000000000000000000000000000000000000000000000000008152600401610c1f906114ea565b60405180910390fd5b565b60008060009054906101000a900473ffffffffffffffffffffffffffffffffffffffff169050816000806101000a81548173ffffffffffffffffffffffffffffffffffffffff021916908373ffffffffffffffffffffffffffffffffffffffff1602179055508173ffffffffffffffffffffffffffffffffffffffff168173ffffffffffffffffffffffffffffffffffffffff167f8be0079c531659141344cd1fd0a4f28419497f9722a3daafe3b4186f6b6457e060405160405180910390a35050565b600033905090565b6000819050919050565b610d0981610cf6565b82525050565b6000602082019050610d246000830184610d00565b92915050565b600080fd5b610d3881610cf6565b8114610d4357600080fd5b50565b600081359050610d5581610d2f565b92915050565b600060208284031215610d7157610d70610d2a565b5b6000610d7f84828501610d46565b91505092915050565b600073ffffffffffffffffffffffffffffffffffffffff82169050919050565b6000610db382610d88565b9050919050565b610dc381610da8565b82525050565b6000602082019050610dde6000830184610dba565b92915050565b610ded81610da8565b8114610df857600080fd5b50565b600081359050610e0a81610de4565b92915050565b600060208284031215610e2657610e25610d2a565b5b6000610e3484828501610dfb565b91505092915050565b600082825260208201905092915050565b7f756e737461636b696e6720696d706f737369626c652100000000000000000000600082015250565b6000610e84601683610e3d565b9150610e8f82610e4e565b602082019050919050565b60006020820190508181036000830152610eb381610e77565b9050919050565b7f616d6f756e74206e6f742076616c696421000000000000000000000000000000600082015250565b6000610ef0601183610e3d565b9150610efb82610eba565b602082019050919050565b60006020820190508181036000830152610f1f81610ee3565b9050919050565b7f796f7572207374616b656420746f6b656e73206c657373207468616e2074686560008201527f20696e707574205f616d6f756e74000000000000000000000000000000000000602082015250565b6000610f82602e83610e3d565b9150610f8d82610f26565b604082019050919050565b60006020820190508181036000830152610fb181610f75565b9050919050565b6000604082019050610fcd6000830185610dba565b610fda6020830184610d00565b9392505050565b60008115159050919050565b610ff681610fe1565b811461100157600080fd5b50565b60008151905061101381610fed565b92915050565b60006020828403121561102f5761102e610d2a565b5b600061103d84828501611004565b91505092915050565b7f4e487b7100000000000000000000000000000000000000000000000000000000600052601160045260246000fd5b600061108082610cf6565b915061108b83610cf6565b92508282101561109e5761109d611046565b5b828203905092915050565b7f737461636b696e6720696d706f737369626c6521000000000000000000000000600082015250565b60006110df601483610e3d565b91506110ea826110a9565b602082019050919050565b6000602082019050818103600083015261110e816110d2565b9050919050565b600060608201905061112a6000830186610dba565b6111376020830185610dba565b6111446040830184610d00565b949350505050565b600061115782610cf6565b915061116283610cf6565b9250827fffffffffffffffffffffffffffffffffffffffffffffffffffffffffffffffff0382111561119757611196611046565b5b828201905092915050565b7f616464207265776172647320696d706f737369626c6521000000000000000000600082015250565b60006111d8601783610e3d565b91506111e3826111a2565b602082019050919050565b60006020820190508181036000830152611207816111cb565b9050919050565b7f776974686472617720696d706f737369626c6521000000000000000000000000600082015250565b6000611244601483610e3d565b915061124f8261120e565b602082019050919050565b6000602082019050818103600083015261127381611237565b9050919050565b7f6e6f207374616b656420746f6b656e7300000000000000000000000000000000600082015250565b60006112b0601083610e3d565b91506112bb8261127a565b602082019050919050565b600060208201905081810360008301526112df816112a3565b9050919050565b7f4e487b7100000000000000000000000000000000000000000000000000000000600052601260045260246000fd5b600061132082610cf6565b915061132b83610cf6565b92508261133b5761133a6112e6565b5b828204905092915050565b600061135182610cf6565b915061135c83610cf6565b9250817fffffffffffffffffffffffffffffffffffffffffffffffffffffffffffffffff048311821515161561139557611394611046565b5b828202905092915050565b7f6e6f2072657761726473206561726e6564207965740000000000000000000000600082015250565b60006113d6601583610e3d565b91506113e1826113a0565b602082019050919050565b60006020820190508181036000830152611405816113c9565b9050919050565b7f4f776e61626c653a206e6577206f776e657220697320746865207a65726f206160008201527f6464726573730000000000000000000000000000000000000000000000000000602082015250565b6000611468602683610e3d565b91506114738261140c565b604082019050919050565b600060208201905081810360008301526114978161145b565b9050919050565b7f4f776e61626c653a2063616c6c6572206973206e6f7420746865206f776e6572600082015250565b60006114d4602083610e3d565b91506114df8261149e565b602082019050919050565b60006020820190508181036000830152611503816114c7565b905091905056fea2646970667358221220635887d0896621172f9572d0af44674e5d0aabe7a6604b5034601c565b57486d64736f6c634300080e0033",
  "immutableReferences": {
    "1068": [
      {
        "length": 32,
        "start": 985
      },
      {
        "length": 32,
        "start": 1461
      },
      {
        "length": 32,
        "start": 1620
      }
    ],
    "1071": [
      {
        "length": 32,
        "start": 2547
      }
    ]
  },
  "source": "// SPDX-License-Identifier: MIT\r\npragma solidity ^0.8.9;\r\n\r\nimport \"../node_modules/@openzeppelin/contracts/token/ERC20/ERC20.sol\";\r\nimport \"../node_modules/@openzeppelin/contracts/access/Ownable.sol\";\r\n\r\ncontract BlockSendStakingRewards is Ownable {\r\n    address private USDC_TOKEN_CONTRACT = 0x2791Bca1f2de4661ED88A30C99A7a9449Aa84174;\r\n\r\n    IERC20 private immutable BKSDToken;\r\n    IERC20 private immutable USDCToken;\r\n\r\n    event Staked(address staker, uint256 _amount);\r\n    event UnStaked(address staker, uint256 _amount);\r\n    event WithdrawRewards(address staker, uint256 rewards);\r\n\r\n    uint256 public startDate;\r\n    uint256 public endDate;\r\n    \r\n    uint256 public totalStaked;\r\n    uint256 public totalRewards;\r\n    uint256 public userPower;\r\n\r\n    mapping(address => uint256) public userTokensStaked;\r\n    mapping(uint256 => uint256) public rewards;\r\n\r\n    constructor(address _blocksSendTokenAdress, uint256 _startDate, uint256 _endDate) {\r\n        BKSDToken = IERC20(_blocksSendTokenAdress);\r\n        USDCToken = IERC20(USDC_TOKEN_CONTRACT);\r\n        startDate = _startDate;\r\n        endDate = _endDate;\r\n    }\r\n\r\n    function stake(uint256 _amount) external {\r\n        require(block.timestamp < startDate, \"stacking impossible!\");\r\n\r\n        BKSDToken.approve(address(this), _amount);\r\n        BKSDToken.transferFrom(msg.sender, address(this), _amount);\r\n        userTokensStaked[msg.sender] += _amount;\r\n        totalStaked += _amount;\r\n        emit Staked(msg.sender, _amount);\r\n    }\r\n\r\n    function unStake(uint256 _amount) external {\r\n        require(block.timestamp > endDate || block.timestamp < startDate, \"unstacking impossible!\");\r\n        require(_amount > 0, \"amount not valid!\");\r\n        require(_amount <= userTokensStaked[msg.sender], \"your staked tokens less than the input _amount\");\r\n\r\n        BKSDToken.transfer(msg.sender, _amount);\r\n        userTokensStaked[msg.sender] -= _amount;\r\n        if(block.timestamp > endDate) {\r\n            totalStaked -= _amount;\r\n        }\r\n        \r\n        emit UnStaked(msg.sender, _amount);\r\n    }\r\n\r\n    function withdrawRewards() external {\r\n        require(block.timestamp > endDate, \"withdraw impossible!\");\r\n        require(userTokensStaked[msg.sender] > 0, \"no staked tokens\");\r\n\r\n        uint256 reward = totalRewards / totalStaked * userTokensStaked[msg.sender];\r\n        require(reward > 0, \"no rewards earned yet\");\r\n\r\n        USDCToken.transfer(msg.sender, reward);\r\n        userTokensStaked[msg.sender] = 0;\r\n        \r\n        emit WithdrawRewards(msg.sender, reward);\r\n    }\r\n\r\n    function getUserStakedTokens() public view returns (uint256) {\r\n        return userTokensStaked[msg.sender];\r\n    }\r\n\r\n    function addRewards(uint256 _amount) external {\r\n        require(block.timestamp >= startDate && block.timestamp <= endDate, \"add rewards impossible!\");\r\n        totalRewards += _amount;\r\n        rewards[block.timestamp] = _amount;\r\n    }\r\n}\r\n",
  "sourcePath": "C:\\Users\\zguai\\Desktop\\Repos\\BlockSend\\truffle\\contracts\\BlockSendStakingRewards.sol",
  "compiler": {
    "name": "solc",
    "version": "0.8.14+commit.80d49f37.Emscripten.clang"
  },
  "schemaVersion": "3.4.10",
  "updatedAt": "2022-12-11T13:53:02.946Z",
  "devdoc": {
    "kind": "dev",
    "methods": {
      "owner()": {
        "details": "Returns the address of the current owner."
      },
      "renounceOwnership()": {
        "details": "Leaves the contract without owner. It will not be possible to call `onlyOwner` functions anymore. Can only be called by the current owner. NOTE: Renouncing ownership will leave the contract without an owner, thereby removing any functionality that is only available to the owner."
      },
      "transferOwnership(address)": {
        "details": "Transfers ownership of the contract to a new account (`newOwner`). Can only be called by the current owner."
      }
    },
    "version": 1
  },
  "userdoc": {
    "kind": "user",
    "methods": {},
    "version": 1
  }
}