{
  "contractName": "BlockSendRouter",
  "abi": [
    {
      "inputs": [
        {
          "internalType": "address",
          "name": "_BKSD_TOKEN_CONTRACT",
          "type": "address"
        }
      ],
      "stateMutability": "nonpayable",
      "type": "constructor"
    },
    {
      "anonymous": false,
      "inputs": [
        {
          "indexed": false,
          "internalType": "address",
          "name": "user",
          "type": "address"
        },
        {
          "indexed": false,
          "internalType": "uint256",
          "name": "tokenAmount",
          "type": "uint256"
        }
      ],
      "name": "ClaimTransferRewardEvent",
      "type": "event"
    },
    {
      "anonymous": false,
      "inputs": [
        {
          "indexed": true,
          "internalType": "address",
          "name": "previousOwner",
          "type": "address"
        },
        {
          "indexed": true,
          "internalType": "address",
          "name": "newOwner",
          "type": "address"
        }
      ],
      "name": "OwnershipTransferred",
      "type": "event"
    },
    {
      "anonymous": false,
      "inputs": [
        {
          "indexed": false,
          "internalType": "string",
          "name": "transferId",
          "type": "string"
        },
        {
          "indexed": false,
          "internalType": "uint256",
          "name": "userAmount",
          "type": "uint256"
        },
        {
          "indexed": false,
          "internalType": "uint256",
          "name": "blocksendAmount",
          "type": "uint256"
        }
      ],
      "name": "TransferFinalized",
      "type": "event"
    },
    {
      "anonymous": false,
      "inputs": [
        {
          "indexed": false,
          "internalType": "string",
          "name": "transferId",
          "type": "string"
        },
        {
          "indexed": false,
          "internalType": "uint256",
          "name": "amount",
          "type": "uint256"
        }
      ],
      "name": "TransferInitilized",
      "type": "event"
    },
    {
      "inputs": [],
      "name": "owner",
      "outputs": [
        {
          "internalType": "address",
          "name": "",
          "type": "address"
        }
      ],
      "stateMutability": "view",
      "type": "function"
    },
    {
      "inputs": [],
      "name": "renounceOwnership",
      "outputs": [],
      "stateMutability": "nonpayable",
      "type": "function"
    },
    {
      "inputs": [
        {
          "internalType": "address",
          "name": "newOwner",
          "type": "address"
        }
      ],
      "name": "transferOwnership",
      "outputs": [],
      "stateMutability": "nonpayable",
      "type": "function"
    },
    {
      "inputs": [
        {
          "internalType": "string",
          "name": "",
          "type": "string"
        }
      ],
      "name": "transfers",
      "outputs": [
        {
          "internalType": "address",
          "name": "sender",
          "type": "address"
        },
        {
          "internalType": "uint256",
          "name": "amount_EURe",
          "type": "uint256"
        },
        {
          "internalType": "uint256",
          "name": "amount_jEUR",
          "type": "uint256"
        },
        {
          "internalType": "uint256",
          "name": "amount_USDC",
          "type": "uint256"
        },
        {
          "internalType": "uint256",
          "name": "rate_EUR_USDC",
          "type": "uint256"
        },
        {
          "internalType": "uint256",
          "name": "userAmount_USDC",
          "type": "uint256"
        },
        {
          "internalType": "uint256",
          "name": "blocksendAmount_USDC",
          "type": "uint256"
        },
        {
          "internalType": "uint256",
          "name": "jarvisFees_USDC",
          "type": "uint256"
        },
        {
          "internalType": "enum BlockSendRouter.TransferStatus",
          "name": "status",
          "type": "uint8"
        }
      ],
      "stateMutability": "view",
      "type": "function"
    },
    {
      "inputs": [
        {
          "internalType": "string",
          "name": "transferId",
          "type": "string"
        },
        {
          "internalType": "address",
          "name": "userWallet",
          "type": "address"
        },
        {
          "internalType": "uint256",
          "name": "amount",
          "type": "uint256"
        }
      ],
      "name": "initializeTransfer",
      "outputs": [
        {
          "internalType": "bool",
          "name": "ok",
          "type": "bool"
        }
      ],
      "stateMutability": "nonpayable",
      "type": "function"
    },
    {
      "inputs": [],
      "name": "getMyTranferRewardsBalance",
      "outputs": [
        {
          "internalType": "uint256",
          "name": "",
          "type": "uint256"
        }
      ],
      "stateMutability": "view",
      "type": "function"
    },
    {
      "inputs": [],
      "name": "claimTransferRewards",
      "outputs": [],
      "stateMutability": "nonpayable",
      "type": "function"
    },
    {
      "inputs": [
        {
          "internalType": "string",
          "name": "_transferId",
          "type": "string"
        }
      ],
      "name": "remittanceStatus",
      "outputs": [
        {
          "internalType": "enum BlockSendRouter.TransferStatus",
          "name": "",
          "type": "uint8"
        }
      ],
      "stateMutability": "view",
      "type": "function"
    },
    {
      "inputs": [
        {
          "internalType": "address",
          "name": "_newAddress",
          "type": "address"
        }
      ],
      "name": "setWrapperContract",
      "outputs": [],
      "stateMutability": "nonpayable",
      "type": "function"
    },
    {
      "inputs": [
        {
          "internalType": "address",
          "name": "_newAddress",
          "type": "address"
        }
      ],
      "name": "setSyntheriumContract",
      "outputs": [],
      "stateMutability": "nonpayable",
      "type": "function"
    },
    {
      "inputs": [
        {
          "internalType": "address",
          "name": "_newAddress",
          "type": "address"
        }
      ],
      "name": "setEURETokenContract",
      "outputs": [],
      "stateMutability": "nonpayable",
      "type": "function"
    },
    {
      "inputs": [
        {
          "internalType": "address",
          "name": "_newAddress",
          "type": "address"
        }
      ],
      "name": "setJEURToken_Contract",
      "outputs": [],
      "stateMutability": "nonpayable",
      "type": "function"
    },
    {
      "inputs": [
        {
          "internalType": "address",
          "name": "_newAddress",
          "type": "address"
        }
      ],
      "name": "setUSDCTokenContract",
      "outputs": [],
      "stateMutability": "nonpayable",
      "type": "function"
    },
    {
      "inputs": [
        {
          "internalType": "address",
          "name": "_newAddress",
          "type": "address"
        }
      ],
      "name": "setHUB2Wallet",
      "outputs": [],
      "stateMutability": "nonpayable",
      "type": "function"
    },
    {
      "inputs": [
        {
          "internalType": "address",
          "name": "_newAddress",
          "type": "address"
        }
      ],
      "name": "setBlockSend_Wallet",
      "outputs": [],
      "stateMutability": "nonpayable",
      "type": "function"
    },
    {
      "inputs": [
        {
          "internalType": "address",
          "name": "_addr",
          "type": "address"
        }
      ],
      "name": "AllowAddress",
      "outputs": [],
      "stateMutability": "nonpayable",
      "type": "function"
    },
    {
      "inputs": [],
      "name": "get_EUR_USD_LatestPrice",
      "outputs": [
        {
          "internalType": "uint256",
          "name": "",
          "type": "uint256"
        }
      ],
      "stateMutability": "view",
      "type": "function"
    },
    {
      "inputs": [],
      "name": "get_USDC_USD_LatestPrice",
      "outputs": [
        {
          "internalType": "uint256",
          "name": "",
          "type": "uint256"
        }
      ],
      "stateMutability": "view",
      "type": "function"
    }
  ],
  "bytecode": "0x608060405273b07cb016440331be4d2f532b20d892a420476ad0600860006101000a81548173ffffffffffffffffffffffffffffffffffffffff021916908373ffffffffffffffffffffffffffffffffffffffff1602179055507365a7b4ff684c2d08c115d55a4b089bf4e92f5003600960006101000a81548173ffffffffffffffffffffffffffffffffffffffff021916908373ffffffffffffffffffffffffffffffffffffffff1602179055507318ec0a6e18e5bc3784fdd3a3634b31245ab704f6600a60006101000a81548173ffffffffffffffffffffffffffffffffffffffff021916908373ffffffffffffffffffffffffffffffffffffffff160217905550734e3decbb3645551b8a19f0ea1678079fcb33fb4c600b60006101000a81548173ffffffffffffffffffffffffffffffffffffffff021916908373ffffffffffffffffffffffffffffffffffffffff160217905550732791bca1f2de4661ed88a30c99a7a9449aa84174600c60006101000a81548173ffffffffffffffffffffffffffffffffffffffff021916908373ffffffffffffffffffffffffffffffffffffffff1602179055507373366fe0aa0ded304479862808e02506fe556a98600d60006101000a81548173ffffffffffffffffffffffffffffffffffffffff021916908373ffffffffffffffffffffffffffffffffffffffff16021790555073fe4a8cc5b5b2366c1b58bea3858e81843581b2f7600e60006101000a81548173ffffffffffffffffffffffffffffffffffffffff021916908373ffffffffffffffffffffffffffffffffffffffff16021790555073ed85caeb52c34bd35dfeeb2d4e0bc936a0db0923600f60006101000a81548173ffffffffffffffffffffffffffffffffffffffff021916908373ffffffffffffffffffffffffffffffffffffffff16021790555073913cd67da3b17be7f66e865158cdf9a5c4f2a850601060006101000a81548173ffffffffffffffffffffffffffffffffffffffff021916908373ffffffffffffffffffffffffffffffffffffffff160217905550737f3ee84fd13d815ff1005b7904cd67084d8f353f601160006101000a81548173ffffffffffffffffffffffffffffffffffffffff021916908373ffffffffffffffffffffffffffffffffffffffff1602179055503480156200036357600080fd5b506040516200300738038062003007833981810160405281019062000389919062000790565b620003a96200039d6200065a60201b60201c565b6200066260201b60201c565b600160136000601060009054906101000a900473ffffffffffffffffffffffffffffffffffffffff1673ffffffffffffffffffffffffffffffffffffffff1673ffffffffffffffffffffffffffffffffffffffff16815260200190815260200160002060006101000a81548160ff021916908315150217905550600860009054906101000a900473ffffffffffffffffffffffffffffffffffffffff16600160006101000a81548173ffffffffffffffffffffffffffffffffffffffff021916908373ffffffffffffffffffffffffffffffffffffffff160217905550600960009054906101000a900473ffffffffffffffffffffffffffffffffffffffff16600260006101000a81548173ffffffffffffffffffffffffffffffffffffffff021916908373ffffffffffffffffffffffffffffffffffffffff160217905550600a60009054906101000a900473ffffffffffffffffffffffffffffffffffffffff16600360006101000a81548173ffffffffffffffffffffffffffffffffffffffff021916908373ffffffffffffffffffffffffffffffffffffffff160217905550600b60009054906101000a900473ffffffffffffffffffffffffffffffffffffffff16600460006101000a81548173ffffffffffffffffffffffffffffffffffffffff021916908373ffffffffffffffffffffffffffffffffffffffff160217905550600c60009054906101000a900473ffffffffffffffffffffffffffffffffffffffff16600560006101000a81548173ffffffffffffffffffffffffffffffffffffffff021916908373ffffffffffffffffffffffffffffffffffffffff16021790555080600660006101000a81548173ffffffffffffffffffffffffffffffffffffffff021916908373ffffffffffffffffffffffffffffffffffffffff16021790555050620007c2565b600033905090565b60008060009054906101000a900473ffffffffffffffffffffffffffffffffffffffff169050816000806101000a81548173ffffffffffffffffffffffffffffffffffffffff021916908373ffffffffffffffffffffffffffffffffffffffff1602179055508173ffffffffffffffffffffffffffffffffffffffff168173ffffffffffffffffffffffffffffffffffffffff167f8be0079c531659141344cd1fd0a4f28419497f9722a3daafe3b4186f6b6457e060405160405180910390a35050565b600080fd5b600073ffffffffffffffffffffffffffffffffffffffff82169050919050565b600062000758826200072b565b9050919050565b6200076a816200074b565b81146200077657600080fd5b50565b6000815190506200078a816200075f565b92915050565b600060208284031215620007a957620007a862000726565b5b6000620007b98482850162000779565b91505092915050565b61283580620007d26000396000f3fe608060405234801561001057600080fd5b50600436106101165760003560e01c806360640249116100a2578063b2413bef11610071578063b2413bef146102ad578063ea45efbf146102cb578063eead6fd8146102e7578063f11283a214610303578063f2fde38b1461031f57610116565b8063606402491461022f578063715018a61461024d57806384a1c233146102575780638da5cb5b1461028f57610116565b8063381ea9c5116100e9578063381ea9c5146101a157806343dafdbe146101bd5780634b8cc80d146101d95780634e558127146102095780635aeee3f01461022557610116565b80631dfe08191461011b57806325a976051461014b5780632918396814610167578063335bafa214610185575b600080fd5b61013560048036038101906101309190611c93565b61033b565b6040516101429190611d22565b60405180910390f35b61016560048036038101906101609190611d3d565b610544565b005b61016f6105f3565b60405161017c9190611d79565b60405180910390f35b61019f600480360381019061019a9190611d3d565b61063a565b005b6101bb60048036038101906101b69190611d3d565b6106e9565b005b6101d760048036038101906101d29190611d3d565b610735565b005b6101f360048036038101906101ee9190611d94565b610781565b6040516102009190611e58565b60405180910390f35b610223600480360381019061021e9190611d3d565b6107bc565b005b61022d61086b565b005b6102376109bf565b6040516102449190611d79565b60405180910390f35b610255610a6d565b005b610271600480360381019061026c9190611fb4565b610a81565b6040516102869998979695949392919061200c565b60405180910390f35b610297610b12565b6040516102a49190612099565b60405180910390f35b6102b5610b3b565b6040516102c29190611d79565b60405180910390f35b6102e560048036038101906102e09190611d3d565b610be9565b005b61030160048036038101906102fc9190611d3d565b610c98565b005b61031d60048036038101906103189190611d3d565b610d47565b005b61033960048036038101906103349190611d3d565b610daa565b005b6000601360003373ffffffffffffffffffffffffffffffffffffffff1673ffffffffffffffffffffffffffffffffffffffff16815260200190815260200160002060009054906101000a900460ff166103c9576040517f08c379a00000000000000000000000000000000000000000000000000000000081526004016103c090612137565b60405180910390fd5b6103d585858585610e2d565b60006103e386868686610f1c565b905080610401576103f686868686610fd5565b50600091505061053c565b600080610410888887886110cd565b915091508115806104215750600081145b1561043f5761043288888888610fd5565b506000935050505061053c565b6000806000806104508c8c8761124a565b9350935093509350831580610463575082155b8061046e5750600082145b156104905761047f8c8c8c8c610fd5565b50600097505050505050505061053c565b600061049e8d8d8585611508565b9050806104c3576104b18d8d8d8d610fd5565b5060009850505050505050505061053c565b60028a6104d091906121b5565b600760008d73ffffffffffffffffffffffffffffffffffffffff1673ffffffffffffffffffffffffffffffffffffffff168152602001908152602001600020600082825461051e91906121e6565b9250508190555061052f8d8d6116cb565b6001985050505050505050505b949350505050565b61054c61179e565b80600a60006101000a81548173ffffffffffffffffffffffffffffffffffffffff021916908373ffffffffffffffffffffffffffffffffffffffff160217905550600a60009054906101000a900473ffffffffffffffffffffffffffffffffffffffff16600360006101000a81548173ffffffffffffffffffffffffffffffffffffffff021916908373ffffffffffffffffffffffffffffffffffffffff16021790555050565b6000600760003373ffffffffffffffffffffffffffffffffffffffff1673ffffffffffffffffffffffffffffffffffffffff16815260200190815260200160002054905090565b61064261179e565b80600960006101000a81548173ffffffffffffffffffffffffffffffffffffffff021916908373ffffffffffffffffffffffffffffffffffffffff160217905550600960009054906101000a900473ffffffffffffffffffffffffffffffffffffffff16600260006101000a81548173ffffffffffffffffffffffffffffffffffffffff021916908373ffffffffffffffffffffffffffffffffffffffff16021790555050565b6106f161179e565b80600f60006101000a81548173ffffffffffffffffffffffffffffffffffffffff021916908373ffffffffffffffffffffffffffffffffffffffff16021790555050565b61073d61179e565b80601160006101000a81548173ffffffffffffffffffffffffffffffffffffffff021916908373ffffffffffffffffffffffffffffffffffffffff16021790555050565b60006012838360405161079592919061226c565b908152602001604051809103902060080160009054906101000a900460ff16905092915050565b6107c461179e565b80600860006101000a81548173ffffffffffffffffffffffffffffffffffffffff021916908373ffffffffffffffffffffffffffffffffffffffff160217905550600860009054906101000a900473ffffffffffffffffffffffffffffffffffffffff16600160006101000a81548173ffffffffffffffffffffffffffffffffffffffff021916908373ffffffffffffffffffffffffffffffffffffffff16021790555050565b6000600760003373ffffffffffffffffffffffffffffffffffffffff1673ffffffffffffffffffffffffffffffffffffffff1681526020019081526020016000205490506000600760003373ffffffffffffffffffffffffffffffffffffffff1673ffffffffffffffffffffffffffffffffffffffff16815260200190815260200160002081905550600660009054906101000a900473ffffffffffffffffffffffffffffffffffffffff1673ffffffffffffffffffffffffffffffffffffffff166340c10f1933836040518363ffffffff1660e01b8152600401610951929190612285565b600060405180830381600087803b15801561096b57600080fd5b505af115801561097f573d6000803e3d6000fd5b505050507f58cc09a5cd7d0483d99e31e50feb38f39841b055573f462989aea4ad8783c6da33826040516109b4929190612285565b60405180910390a150565b600080600d60009054906101000a900473ffffffffffffffffffffffffffffffffffffffff1673ffffffffffffffffffffffffffffffffffffffff1663feaf968c6040518163ffffffff1660e01b815260040160a060405180830381865afa158015610a2f573d6000803e3d6000fd5b505050506040513d601f19601f82011682018060405250810190610a53919061233b565b5050509150506103e881610a6791906123b6565b91505090565b610a7561179e565b610a7f600061181c565b565b6012818051602081018201805184825260208301602085012081835280955050505050506000915090508060000160009054906101000a900473ffffffffffffffffffffffffffffffffffffffff16908060010154908060020154908060030154908060040154908060050154908060060154908060070154908060080160009054906101000a900460ff16905089565b60008060009054906101000a900473ffffffffffffffffffffffffffffffffffffffff16905090565b600080600e60009054906101000a900473ffffffffffffffffffffffffffffffffffffffff1673ffffffffffffffffffffffffffffffffffffffff1663feaf968c6040518163ffffffff1660e01b815260040160a060405180830381865afa158015610bab573d6000803e3d6000fd5b505050506040513d601f19601f82011682018060405250810190610bcf919061233b565b5050509150506103e881610be391906123b6565b91505090565b610bf161179e565b80600b60006101000a81548173ffffffffffffffffffffffffffffffffffffffff021916908373ffffffffffffffffffffffffffffffffffffffff160217905550600b60009054906101000a900473ffffffffffffffffffffffffffffffffffffffff16600460006101000a81548173ffffffffffffffffffffffffffffffffffffffff021916908373ffffffffffffffffffffffffffffffffffffffff16021790555050565b610ca061179e565b80600c60006101000a81548173ffffffffffffffffffffffffffffffffffffffff021916908373ffffffffffffffffffffffffffffffffffffffff160217905550600c60009054906101000a900473ffffffffffffffffffffffffffffffffffffffff16600560006101000a81548173ffffffffffffffffffffffffffffffffffffffff021916908373ffffffffffffffffffffffffffffffffffffffff16021790555050565b610d4f61179e565b6001601360008373ffffffffffffffffffffffffffffffffffffffff1673ffffffffffffffffffffffffffffffffffffffff16815260200190815260200160002060006101000a81548160ff02191690831515021790555050565b610db261179e565b600073ffffffffffffffffffffffffffffffffffffffff168173ffffffffffffffffffffffffffffffffffffffff1603610e21576040517f08c379a0000000000000000000000000000000000000000000000000000000008152600401610e1890612492565b60405180910390fd5b610e2a8161181c565b50565b8160128585604051610e4092919061226c565b908152602001604051809103902060000160006101000a81548173ffffffffffffffffffffffffffffffffffffffff021916908373ffffffffffffffffffffffffffffffffffffffff160217905550600060128585604051610ea392919061226c565b908152602001604051809103902060080160006101000a81548160ff02191690836006811115610ed657610ed5611de1565b5b02179055507f9f99091afbc24bd9abfd7adca3533b5457ad5307a86351e337bcee2fb1f364de848483604051610f0e939291906124df565b60405180910390a150505050565b6000600360009054906101000a900473ffffffffffffffffffffffffffffffffffffffff1673ffffffffffffffffffffffffffffffffffffffff166323b872dd8430856040518463ffffffff1660e01b8152600401610f7d93929190612511565b6020604051808303816000875af1158015610f9c573d6000803e3d6000fd5b505050506040513d601f19601f82011682018060405250810190610fc09190612574565b9050610fcd8585846118e0565b949350505050565b6000600660128686604051610feb92919061226c565b908152602001604051809103902060080160006101000a81548160ff0219169083600681111561101e5761101d611de1565b5b0217905550600360009054906101000a900473ffffffffffffffffffffffffffffffffffffffff1673ffffffffffffffffffffffffffffffffffffffff1663a9059cbb84846040518363ffffffff1660e01b8152600401611080929190612285565b6020604051808303816000875af115801561109f573d6000803e3d6000fd5b505050506040513d601f19601f820116820180604052508101906110c39190612574565b9050949350505050565b600080600360009054906101000a900473ffffffffffffffffffffffffffffffffffffffff1673ffffffffffffffffffffffffffffffffffffffff1663095ea7b3600860009054906101000a900473ffffffffffffffffffffffffffffffffffffffff16866040518363ffffffff1660e01b815260040161114f929190612285565b6020604051808303816000875af115801561116e573d6000803e3d6000fd5b505050506040513d601f19601f820116820180604052508101906111929190612574565b9150600160009054906101000a900473ffffffffffffffffffffffffffffffffffffffff1673ffffffffffffffffffffffffffffffffffffffff166313bac82084306040518363ffffffff1660e01b81526004016111f19291906125a1565b6020604051808303816000875af1158015611210573d6000803e3d6000fd5b505050506040513d601f19601f8201168201806040525081019061123491906125ca565b9050611241868683611959565b94509492505050565b600080600080600062019bb890506000678ac7230489e80000828861126f91906125f7565b61127991906121b5565b9050600460009054906101000a900473ffffffffffffffffffffffffffffffffffffffff1673ffffffffffffffffffffffffffffffffffffffff1663095ea7b3600960009054906101000a900473ffffffffffffffffffffffffffffffffffffffff16896040518363ffffffff1660e01b81526004016112fa929190612285565b6020604051808303816000875af1158015611319573d6000803e3d6000fd5b505050506040513d601f19601f8201168201806040525081019061133d9190612574565b9550600560009054906101000a900473ffffffffffffffffffffffffffffffffffffffff1673ffffffffffffffffffffffffffffffffffffffff1663095ea7b3600960009054906101000a900473ffffffffffffffffffffffffffffffffffffffff16836040518363ffffffff1660e01b81526004016113be929190612285565b6020604051808303816000875af11580156113dd573d6000803e3d6000fd5b505050506040513d601f19601f820116820180604052508101906114019190612574565b945060006040518060800160405280898152602001838152602001601e4261142991906121e6565b81526020013073ffffffffffffffffffffffffffffffffffffffff168152509050600260009054906101000a900473ffffffffffffffffffffffffffffffffffffffff1673ffffffffffffffffffffffffffffffffffffffff1663525e6b11826040518263ffffffff1660e01b81526004016114a591906126c4565b60408051808303816000875af11580156114c3573d6000803e3d6000fd5b505050506040513d601f19601f820116820180604052508101906114e791906126df565b80955081965050506114fc8a8a8786886119d2565b50505093509350935093565b60008060006115178585611a9d565b915091506000600560009054906101000a900473ffffffffffffffffffffffffffffffffffffffff1673ffffffffffffffffffffffffffffffffffffffff1663a9059cbb601160009054906101000a900473ffffffffffffffffffffffffffffffffffffffff16856040518363ffffffff1660e01b815260040161159c929190612285565b6020604051808303816000875af11580156115bb573d6000803e3d6000fd5b505050506040513d601f19601f820116820180604052508101906115df9190612574565b90506000600560009054906101000a900473ffffffffffffffffffffffffffffffffffffffff1673ffffffffffffffffffffffffffffffffffffffff1663a9059cbb600f60009054906101000a900473ffffffffffffffffffffffffffffffffffffffff16856040518363ffffffff1660e01b8152600401611662929190612285565b6020604051808303816000875af1158015611681573d6000803e3d6000fd5b505050506040513d601f19601f820116820180604052508101906116a59190612574565b90506116b389898587611adc565b8080156116bd5750815b945050505050949350505050565b6005601283836040516116df92919061226c565b908152602001604051809103902060080160006101000a81548160ff0219169083600681111561171257611711611de1565b5b02179055507fb068bfa73b9623ba0d319b003df0377fa326e109678625e7ad23230855b856b482826012858560405161174c92919061226c565b9081526020016040518091039020600501546012868660405161177092919061226c565b908152602001604051809103902060060154604051611792949392919061271f565b60405180910390a15050565b6117a6611b7e565b73ffffffffffffffffffffffffffffffffffffffff166117c4610b12565b73ffffffffffffffffffffffffffffffffffffffff161461181a576040517f08c379a0000000000000000000000000000000000000000000000000000000008152600401611811906127ab565b60405180910390fd5b565b60008060009054906101000a900473ffffffffffffffffffffffffffffffffffffffff169050816000806101000a81548173ffffffffffffffffffffffffffffffffffffffff021916908373ffffffffffffffffffffffffffffffffffffffff1602179055508173ffffffffffffffffffffffffffffffffffffffff168173ffffffffffffffffffffffffffffffffffffffff167f8be0079c531659141344cd1fd0a4f28419497f9722a3daafe3b4186f6b6457e060405160405180910390a35050565b6001601284846040516118f492919061226c565b908152602001604051809103902060080160006101000a81548160ff0219169083600681111561192757611926611de1565b5b0217905550806012848460405161193f92919061226c565b908152602001604051809103902060010181905550505050565b60026012848460405161196d92919061226c565b908152602001604051809103902060080160006101000a81548160ff021916908360068111156119a05761199f611de1565b5b021790555080601284846040516119b892919061226c565b908152602001604051809103902060020181905550505050565b6003601286866040516119e692919061226c565b908152602001604051809103902060080160006101000a81548160ff02191690836006811115611a1957611a18611de1565b5b02179055508260128686604051611a3192919061226c565b9081526020016040518091039020600301819055508160128686604051611a5992919061226c565b9081526020016040518091039020600401819055508060128686604051611a8192919061226c565b9081526020016040518091039020600701819055505050505050565b600080826103e8601386611ab191906125f7565b611abb91906121b5565b611ac591906127cb565b91508184611ad391906127cb565b90509250929050565b600460128585604051611af092919061226c565b908152602001604051809103902060080160006101000a81548160ff02191690836006811115611b2357611b22611de1565b5b02179055508160128585604051611b3b92919061226c565b9081526020016040518091039020600501819055508060128585604051611b6392919061226c565b90815260200160405180910390206006018190555050505050565b600033905090565b6000604051905090565b600080fd5b600080fd5b600080fd5b600080fd5b600080fd5b60008083601f840112611bbf57611bbe611b9a565b5b8235905067ffffffffffffffff811115611bdc57611bdb611b9f565b5b602083019150836001820283011115611bf857611bf7611ba4565b5b9250929050565b600073ffffffffffffffffffffffffffffffffffffffff82169050919050565b6000611c2a82611bff565b9050919050565b611c3a81611c1f565b8114611c4557600080fd5b50565b600081359050611c5781611c31565b92915050565b6000819050919050565b611c7081611c5d565b8114611c7b57600080fd5b50565b600081359050611c8d81611c67565b92915050565b60008060008060608587031215611cad57611cac611b90565b5b600085013567ffffffffffffffff811115611ccb57611cca611b95565b5b611cd787828801611ba9565b94509450506020611cea87828801611c48565b9250506040611cfb87828801611c7e565b91505092959194509250565b60008115159050919050565b611d1c81611d07565b82525050565b6000602082019050611d376000830184611d13565b92915050565b600060208284031215611d5357611d52611b90565b5b6000611d6184828501611c48565b91505092915050565b611d7381611c5d565b82525050565b6000602082019050611d8e6000830184611d6a565b92915050565b60008060208385031215611dab57611daa611b90565b5b600083013567ffffffffffffffff811115611dc957611dc8611b95565b5b611dd585828601611ba9565b92509250509250929050565b7f4e487b7100000000000000000000000000000000000000000000000000000000600052602160045260246000fd5b60078110611e2157611e20611de1565b5b50565b6000819050611e3282611e10565b919050565b6000611e4282611e24565b9050919050565b611e5281611e37565b82525050565b6000602082019050611e6d6000830184611e49565b92915050565b600080fd5b6000601f19601f8301169050919050565b7f4e487b7100000000000000000000000000000000000000000000000000000000600052604160045260246000fd5b611ec182611e78565b810181811067ffffffffffffffff82111715611ee057611edf611e89565b5b80604052505050565b6000611ef3611b86565b9050611eff8282611eb8565b919050565b600067ffffffffffffffff821115611f1f57611f1e611e89565b5b611f2882611e78565b9050602081019050919050565b82818337600083830152505050565b6000611f57611f5284611f04565b611ee9565b905082815260208101848484011115611f7357611f72611e73565b5b611f7e848285611f35565b509392505050565b600082601f830112611f9b57611f9a611b9a565b5b8135611fab848260208601611f44565b91505092915050565b600060208284031215611fca57611fc9611b90565b5b600082013567ffffffffffffffff811115611fe857611fe7611b95565b5b611ff484828501611f86565b91505092915050565b61200681611c1f565b82525050565b600061012082019050612022600083018c611ffd565b61202f602083018b611d6a565b61203c604083018a611d6a565b6120496060830189611d6a565b6120566080830188611d6a565b61206360a0830187611d6a565b61207060c0830186611d6a565b61207d60e0830185611d6a565b61208b610100830184611e49565b9a9950505050505050505050565b60006020820190506120ae6000830184611ffd565b92915050565b600082825260208201905092915050565b7f596f7527726520616c6c6f77656420746f20696e69746961746520612074726160008201527f6e73666572000000000000000000000000000000000000000000000000000000602082015250565b60006121216025836120b4565b915061212c826120c5565b604082019050919050565b6000602082019050818103600083015261215081612114565b9050919050565b7f4e487b7100000000000000000000000000000000000000000000000000000000600052601260045260246000fd5b7f4e487b7100000000000000000000000000000000000000000000000000000000600052601160045260246000fd5b60006121c082611c5d565b91506121cb83611c5d565b9250826121db576121da612157565b5b828204905092915050565b60006121f182611c5d565b91506121fc83611c5d565b9250827fffffffffffffffffffffffffffffffffffffffffffffffffffffffffffffffff0382111561223157612230612186565b5b828201905092915050565b600081905092915050565b6000612253838561223c565b9350612260838584611f35565b82840190509392505050565b6000612279828486612247565b91508190509392505050565b600060408201905061229a6000830185611ffd565b6122a76020830184611d6a565b9392505050565b600069ffffffffffffffffffff82169050919050565b6122cd816122ae565b81146122d857600080fd5b50565b6000815190506122ea816122c4565b92915050565b6000819050919050565b612303816122f0565b811461230e57600080fd5b50565b600081519050612320816122fa565b92915050565b60008151905061233581611c67565b92915050565b600080600080600060a0868803121561235757612356611b90565b5b6000612365888289016122db565b955050602061237688828901612311565b945050604061238788828901612326565b935050606061239888828901612326565b92505060806123a9888289016122db565b9150509295509295909350565b60006123c1826122f0565b91506123cc836122f0565b9250826123dc576123db612157565b5b600160000383147f80000000000000000000000000000000000000000000000000000000000000008314161561241557612414612186565b5b828205905092915050565b7f4f776e61626c653a206e6577206f776e657220697320746865207a65726f206160008201527f6464726573730000000000000000000000000000000000000000000000000000602082015250565b600061247c6026836120b4565b915061248782612420565b604082019050919050565b600060208201905081810360008301526124ab8161246f565b9050919050565b60006124be83856120b4565b93506124cb838584611f35565b6124d483611e78565b840190509392505050565b600060408201905081810360008301526124fa8185876124b2565b90506125096020830184611d6a565b949350505050565b60006060820190506125266000830186611ffd565b6125336020830185611ffd565b6125406040830184611d6a565b949350505050565b61255181611d07565b811461255c57600080fd5b50565b60008151905061256e81612548565b92915050565b60006020828403121561258a57612589611b90565b5b60006125988482850161255f565b91505092915050565b60006040820190506125b66000830185611d6a565b6125c36020830184611ffd565b9392505050565b6000602082840312156125e0576125df611b90565b5b60006125ee84828501612326565b91505092915050565b600061260282611c5d565b915061260d83611c5d565b9250817fffffffffffffffffffffffffffffffffffffffffffffffffffffffffffffffff048311821515161561264657612645612186565b5b828202905092915050565b61265a81611c5d565b82525050565b61266981611c1f565b82525050565b6080820160008201516126856000850182612651565b5060208201516126986020850182612651565b5060408201516126ab6040850182612651565b5060608201516126be6060850182612660565b50505050565b60006080820190506126d9600083018461266f565b92915050565b600080604083850312156126f6576126f5611b90565b5b600061270485828601612326565b925050602061271585828601612326565b9150509250929050565b6000606082019050818103600083015261273a8186886124b2565b90506127496020830185611d6a565b6127566040830184611d6a565b95945050505050565b7f4f776e61626c653a2063616c6c6572206973206e6f7420746865206f776e6572600082015250565b60006127956020836120b4565b91506127a08261275f565b602082019050919050565b600060208201905081810360008301526127c481612788565b9050919050565b60006127d682611c5d565b91506127e183611c5d565b9250828210156127f4576127f3612186565b5b82820390509291505056fea2646970667358221220cf2337820249d8b30f8d7b93847a0f2145e70c36f3b0bd641fb05bfcebd14a7764736f6c634300080e0033",
  "immutableReferences": {},
  "source": "// SPDX-License-Identifier: MIT\r\npragma solidity ^0.8.9;\r\n\r\nimport \"../node_modules/@chainlink/contracts/src/v0.8/interfaces/AggregatorV3Interface.sol\";\r\nimport \"../node_modules/@openzeppelin/contracts/access/Ownable.sol\";\r\nimport \"../node_modules/@openzeppelin/contracts/token/ERC20/IERC20.sol\";\r\nimport \"./interfaces/IFixedRateWrapper.sol\";\r\nimport \"./interfaces/ISynthereum.sol\";\r\nimport \"./BlockSendToken.sol\";\r\n\r\ncontract BlockSendRouter is Ownable {\r\n    IFixedRateWrapper private jarvisWrapper;\r\n    ISynthereum private jarvisSynthereum;\r\n    IERC20 private moneriumEURemoney;\r\n    IERC20 private jEURToken;\r\n    IERC20 private USDCToken;\r\n    BlockSendToken private BKSDToken;\r\n    mapping(address => uint256) private transferRewardsBalance;\r\n\r\n    address private WRAPPER_CONTRACT =\r\n        0xb07Cb016440331be4D2f532b20d892a420476AD0;\r\n    address private SYNTHEREUM_CONTRACT =\r\n        0x65a7b4Ff684C2d08c115D55a4B089bf4E92F5003;\r\n    address private EURE_TOKEN_CONTRACT =\r\n        0x18ec0A6E18E5bc3784fDd3a3634b31245ab704F6;\r\n    address private JEUR_TOKEN_CONTRACT =\r\n        0x4e3Decbb3645551B8A19f0eA1678079FCB33fB4c;\r\n    address private USDC_TOKEN_CONTRACT =\r\n        0x2791Bca1f2de4661ED88A30C99A7a9449Aa84174;\r\n    // address private BKSD_TOKEN_CONTRACT =\r\n    //     0x8d587d2Eaac88e6E228300180c921674a27ABFf3; // TODO: change this\r\n\r\n    address private EUR_USD_AGGREGATOR =\r\n        0x73366Fe0AA0Ded304479862808e02506FE556a98;\r\n    address private USDC_USD_AGGREGATOR =\r\n        0xfE4A8cc5b5B2366C1B58Bea3858e81843581b2F7;\r\n\r\n    address private HUB2_WALLET = 0xeD85CAeb52C34bD35dfeEB2d4e0bC936a0Db0923;\r\n    address private BLOCKSEND_BACKEND =\r\n        0x913Cd67dA3b17be7f66E865158cDF9a5c4F2a850;\r\n    address private BLOCKSEND_WALLET =\r\n        0x7f3eE84Fd13D815ff1005B7904Cd67084D8f353F;\r\n\r\n    mapping(string => Remittance) public transfers;\r\n    struct Remittance {\r\n        address sender;\r\n        uint256 amount_EURe;\r\n        uint256 amount_jEUR;\r\n        uint256 amount_USDC;\r\n        uint256 rate_EUR_USDC;\r\n        uint256 userAmount_USDC;\r\n        uint256 blocksendAmount_USDC;\r\n        uint256 jarvisFees_USDC;\r\n        TransferStatus status;\r\n    }\r\n\r\n    enum TransferStatus {\r\n        INITIALIZED,\r\n        EURE_RECEIVED,\r\n        JEUR_WRAPPED,\r\n        USDC_RECEIVED,\r\n        USDC_SENT,\r\n        FINALIZED,\r\n        TRANSFER_STUCK\r\n    }\r\n\r\n    mapping(address => bool) private allowed;\r\n\r\n    event TransferInitilized(string transferId, uint256 amount);\r\n    event TransferFinalized(\r\n        string transferId,\r\n        uint256 userAmount,\r\n        uint256 blocksendAmount\r\n    );\r\n    event ClaimTransferRewardEvent(address user, uint256 tokenAmount);\r\n\r\n    modifier onlyAllowed() {\r\n        require(allowed[msg.sender], \"You're allowed to initiate a transfer\");\r\n        _;\r\n    }\r\n\r\n    constructor(address _BKSD_TOKEN_CONTRACT) {\r\n        allowed[BLOCKSEND_BACKEND] = true;\r\n        jarvisWrapper = IFixedRateWrapper(WRAPPER_CONTRACT);\r\n        jarvisSynthereum = ISynthereum(SYNTHEREUM_CONTRACT);\r\n        moneriumEURemoney = IERC20(EURE_TOKEN_CONTRACT);\r\n        jEURToken = IERC20(JEUR_TOKEN_CONTRACT);\r\n        USDCToken = IERC20(USDC_TOKEN_CONTRACT);\r\n        BKSDToken = BlockSendToken(_BKSD_TOKEN_CONTRACT);\r\n    }\r\n\r\n    /**\r\n     * @notice Iinitialise a transfer of an amount of EURe\r\n     * @notice First Step: On-Ramp:\r\n     * @notice 1- Transfer EURe from user's wallet\r\n     * @notice 2- Wrap EURe to jEUR (Jarvis wrapper)\r\n     * @notice 3- Get jEUR/USDC Rate (Aggregator Chainlink)\r\n     * @notice 4- Redeem USDC from jEUR (Jarvis Redeem)\r\n     * @notice Secod Step: Calculate 1,9% of fees\r\n     * @notice Third Step: Off-Ramp: Using HUB2\r\n     * @notice if any error: Sent money to users wallet back\r\n     * @param transferId Input parameters transferId\r\n     * @param amount Input parameters for for transfered amount\r\n     * @param userWallet Input parameters for user wallet\r\n     * @return ok a boolean value indicating whether the operation succeeded.\r\n     *\r\n     * Emits a {TransferStatusChanged} event with the current status of the transfer.\r\n     */\r\n    function initializeTransfer(\r\n        string calldata transferId,\r\n        address userWallet,\r\n        uint256 amount\r\n    ) external onlyAllowed returns (bool ok) {\r\n        // require(amount >= 5 * 10e17, \"insufficient amount\");\r\n\r\n        initilizeTransferData(transferId, userWallet, amount);\r\n\r\n        bool okGetEURe = transferFrom(transferId, userWallet, amount);\r\n        if (!okGetEURe) {\r\n            TransferStuck(transferId, userWallet, amount);\r\n            return false;\r\n        }\r\n\r\n        (bool okApproveWrap, uint256 amountJEUR) = routage_jEURfromEURe(\r\n            transferId,\r\n            amount,\r\n            amount\r\n        );\r\n        if (!okApproveWrap || amountJEUR == 0) {\r\n            TransferStuck(transferId, userWallet, amount);\r\n            return false;\r\n        }\r\n\r\n        (\r\n            bool okApprouveJEUR,\r\n            bool okApprouveUSDC,\r\n            uint256 collateralRedeemed,\r\n            uint256 feePaid\r\n        ) = routage_USDCfromjEUR(transferId, amountJEUR);\r\n        if (!okApprouveJEUR || !okApprouveUSDC || collateralRedeemed == 0) {\r\n            TransferStuck(transferId, userWallet, amount);\r\n            return false;\r\n        }\r\n\r\n        bool okTransferWallet = transferUSDC(\r\n            transferId,\r\n            collateralRedeemed,\r\n            feePaid\r\n        );\r\n        if (!okTransferWallet) {\r\n            TransferStuck(transferId, userWallet, amount);\r\n            return false;\r\n        }\r\n\r\n        transferRewardsBalance[userWallet] += amount / 2;\r\n\r\n        finalizeTransfer(transferId);\r\n\r\n        return true;\r\n    }\r\n\r\n    function getMyTranferRewardsBalance() external view returns (uint256) {\r\n        return transferRewardsBalance[msg.sender];\r\n    }\r\n\r\n    function claimTransferRewards() external {\r\n        // TODO: Add a require if necessary to avoid claim small amount of BSKD\r\n        uint256 amount = transferRewardsBalance[msg.sender];\r\n        transferRewardsBalance[msg.sender] = 0;\r\n        BKSDToken.mint(msg.sender, amount);\r\n        emit ClaimTransferRewardEvent(msg.sender, amount);\r\n    }\r\n\r\n    /**\r\n     * Returns the current status of a specific remmitance.\r\n     */\r\n    function remittanceStatus(\r\n        string calldata _transferId\r\n    ) public view virtual returns (TransferStatus) {\r\n        return transfers[_transferId].status;\r\n    }\r\n\r\n    // *********************** Manage Status changed ************************************\r\n    function initilizeTransferData(\r\n        string calldata _transferId,\r\n        address _userWallet,\r\n        uint256 _amount\r\n    ) internal {\r\n        transfers[_transferId].sender = _userWallet;\r\n        transfers[_transferId].status = TransferStatus.INITIALIZED;\r\n\r\n        emit TransferInitilized(_transferId, _amount);\r\n    }\r\n\r\n    function finalizeTransfer(string calldata _transferId) internal {\r\n        transfers[_transferId].status = TransferStatus.FINALIZED;\r\n\r\n        emit TransferFinalized(\r\n            _transferId,\r\n            transfers[_transferId].userAmount_USDC,\r\n            transfers[_transferId].blocksendAmount_USDC\r\n        );\r\n    }\r\n\r\n    function amountReceived(\r\n        string calldata _transferId,\r\n        uint256 _amount\r\n    ) internal {\r\n        transfers[_transferId].status = TransferStatus.EURE_RECEIVED;\r\n        transfers[_transferId].amount_EURe = _amount;\r\n    }\r\n\r\n    function amountWrapped(\r\n        string calldata _transferId,\r\n        uint256 _amount\r\n    ) internal {\r\n        transfers[_transferId].status = TransferStatus.JEUR_WRAPPED;\r\n        transfers[_transferId].amount_jEUR = _amount;\r\n    }\r\n\r\n    function redeemCollateral(\r\n        string calldata _transferId,\r\n        uint256 _collateral,\r\n        uint256 _rate,\r\n        uint256 _feePaid\r\n    ) internal {\r\n        transfers[_transferId].status = TransferStatus.USDC_RECEIVED;\r\n        transfers[_transferId].amount_USDC = _collateral;\r\n        transfers[_transferId].rate_EUR_USDC = _rate;\r\n        transfers[_transferId].jarvisFees_USDC = _feePaid;\r\n    }\r\n\r\n    function collateralSent(\r\n        string calldata _transferId,\r\n        uint256 _userAmount,\r\n        uint256 _blockSendAmount\r\n    ) internal {\r\n        transfers[_transferId].status = TransferStatus.USDC_SENT;\r\n        transfers[_transferId].userAmount_USDC = _userAmount;\r\n        transfers[_transferId].blocksendAmount_USDC = _blockSendAmount;\r\n    }\r\n\r\n    function TransferStuck(\r\n        string calldata _transferId,\r\n        address _userWallet,\r\n        uint256 _amount\r\n    ) internal returns (bool ok) {\r\n        transfers[_transferId].status = TransferStatus.TRANSFER_STUCK;\r\n\r\n        ok = moneriumEURemoney.transfer(_userWallet, _amount);\r\n    }\r\n\r\n    // *********************************************************************************\r\n\r\n    // *********************** GET EURe from user's wallet *****************************\r\n    function transferFrom(\r\n        string calldata _transferId,\r\n        address _userWallet,\r\n        uint256 _amount\r\n    ) internal returns (bool ok) {\r\n        ok = moneriumEURemoney.transferFrom(\r\n            _userWallet,\r\n            address(this),\r\n            _amount\r\n        );\r\n\r\n        amountReceived(_transferId, _amount);\r\n    }\r\n\r\n    // *********************************************************************************\r\n\r\n    // *********************** Wrap EURe to JEUR ***************************************\r\n    function routage_jEURfromEURe(\r\n        string calldata _transferId,\r\n        uint256 _amount,\r\n        uint256 _collateral\r\n    ) internal returns (bool ok, uint256 amountTokens) {\r\n        ok = moneriumEURemoney.approve(WRAPPER_CONTRACT, _amount);\r\n        amountTokens = jarvisWrapper.wrap(_collateral, address(this));\r\n\r\n        amountWrapped(_transferId, amountTokens);\r\n    }\r\n\r\n    // *********************************************************************************\r\n\r\n    // *********************** Wurn & Mint (Redeem) UCDS from JEUR *********************\r\n    function routage_USDCfromjEUR(\r\n        string calldata _transferId,\r\n        uint256 _numToken\r\n    )\r\n        internal\r\n        returns (\r\n            bool okApprouveJEUR,\r\n            bool okApprouveUSDC,\r\n            uint256 collateralRedeemed,\r\n            uint256 feePaid\r\n        )\r\n    {\r\n        uint256 price = 105400;\r\n        uint256 collateralUSDC = uint256((_numToken * price) / 10e18);\r\n\r\n        okApprouveJEUR = jEURToken.approve(SYNTHEREUM_CONTRACT, _numToken);\r\n        okApprouveUSDC = USDCToken.approve(SYNTHEREUM_CONTRACT, collateralUSDC);\r\n\r\n        ISynthereum.RedeemParams memory params = ISynthereum.RedeemParams({\r\n            numTokens: _numToken,\r\n            minCollateral: collateralUSDC,\r\n            expiration: block.timestamp + 30,\r\n            recipient: address(this)\r\n        });\r\n\r\n        (collateralRedeemed, feePaid) = jarvisSynthereum.redeem(params);\r\n\r\n        redeemCollateral(_transferId, collateralRedeemed, price, feePaid);\r\n    }\r\n\r\n    // *********************************************************************************\r\n\r\n    // *********************** Transfer USDC to HUB2 Wallet & BlockSend Wallet *********\r\n    function transferUSDC(\r\n        string calldata _transferId,\r\n        uint256 _collateralRedeemed,\r\n        uint256 _feePaid\r\n    ) internal returns (bool ok) {\r\n        (uint256 blocksendAmount, uint256 userAmount) = calculateBlockSendFees(\r\n            _collateralRedeemed,\r\n            _feePaid\r\n        );\r\n\r\n        bool okBlocksend = USDCToken.transfer(\r\n            BLOCKSEND_WALLET,\r\n            blocksendAmount\r\n        );\r\n        bool okHUB2 = USDCToken.transfer(HUB2_WALLET, userAmount);\r\n\r\n        collateralSent(_transferId, userAmount, blocksendAmount);\r\n\r\n        return okHUB2 && okBlocksend;\r\n    }\r\n\r\n    // *********************************************************************************\r\n\r\n    // *********************** Calculate 1,9% fees *************************************\r\n    function calculateBlockSendFees(\r\n        uint256 _amount,\r\n        uint256 _feePaid\r\n    ) internal pure returns (uint256 blocksendAmount, uint256 userAmount) {\r\n        blocksendAmount = ((_amount * 19) / 1000) - _feePaid;\r\n        userAmount = _amount - blocksendAmount;\r\n    }\r\n\r\n    // *********************************************************************************\r\n\r\n    // *********************** Update Contracts Addresses ******************************\r\n    function setWrapperContract(address _newAddress) external onlyOwner {\r\n        WRAPPER_CONTRACT = _newAddress;\r\n        jarvisWrapper = IFixedRateWrapper(WRAPPER_CONTRACT);\r\n    }\r\n\r\n    function setSyntheriumContract(address _newAddress) external onlyOwner {\r\n        SYNTHEREUM_CONTRACT = _newAddress;\r\n        jarvisSynthereum = ISynthereum(SYNTHEREUM_CONTRACT);\r\n    }\r\n\r\n    function setEURETokenContract(address _newAddress) external onlyOwner {\r\n        EURE_TOKEN_CONTRACT = _newAddress;\r\n        moneriumEURemoney = IERC20(EURE_TOKEN_CONTRACT);\r\n    }\r\n\r\n    function setJEURToken_Contract(address _newAddress) external onlyOwner {\r\n        JEUR_TOKEN_CONTRACT = _newAddress;\r\n        jEURToken = IERC20(JEUR_TOKEN_CONTRACT);\r\n    }\r\n\r\n    function setUSDCTokenContract(address _newAddress) external onlyOwner {\r\n        USDC_TOKEN_CONTRACT = _newAddress;\r\n        USDCToken = IERC20(USDC_TOKEN_CONTRACT);\r\n    }\r\n\r\n    function setHUB2Wallet(address _newAddress) external onlyOwner {\r\n        HUB2_WALLET = _newAddress;\r\n    }\r\n\r\n    function setBlockSend_Wallet(address _newAddress) external onlyOwner {\r\n        BLOCKSEND_WALLET = _newAddress;\r\n    }\r\n\r\n    function AllowAddress(address _addr) external onlyOwner {\r\n        allowed[_addr] = true;\r\n    }\r\n\r\n    // *********************************************************************************\r\n\r\n    // *********************** Get the latest rate *************************************\r\n    function get_EUR_USD_LatestPrice() public view returns (uint256) {\r\n        (, int256 price, , , ) = AggregatorV3Interface(EUR_USD_AGGREGATOR)\r\n            .latestRoundData();\r\n        return uint256(price / 1000);\r\n    }\r\n\r\n    function get_USDC_USD_LatestPrice() public view returns (uint256) {\r\n        (, int256 price, , , ) = AggregatorV3Interface(USDC_USD_AGGREGATOR)\r\n            .latestRoundData();\r\n        return uint256(price / 1000);\r\n    }\r\n    // *********************************************************************************\r\n}\r\n",
  "sourcePath": "C:\\Users\\zguai\\Desktop\\Repos\\BlockSend\\truffle\\contracts\\BlockSendRouter.sol",
  "compiler": {
    "name": "solc",
    "version": "0.8.14+commit.80d49f37.Emscripten.clang"
  },
  "schemaVersion": "3.4.10",
  "updatedAt": "2022-12-10T12:53:46.281Z",
  "devdoc": {
    "kind": "dev",
    "methods": {
      "initializeTransfer(string,address,uint256)": {
        "params": {
          "amount": "Input parameters for for transfered amount",
          "transferId": "Input parameters transferId",
          "userWallet": "Input parameters for user wallet"
        },
        "returns": {
          "ok": "a boolean value indicating whether the operation succeeded. Emits a {TransferStatusChanged} event with the current status of the transfer."
        }
      },
      "owner()": {
        "details": "Returns the address of the current owner."
      },
      "renounceOwnership()": {
        "details": "Leaves the contract without owner. It will not be possible to call `onlyOwner` functions anymore. Can only be called by the current owner. NOTE: Renouncing ownership will leave the contract without an owner, thereby removing any functionality that is only available to the owner."
      },
      "transferOwnership(address)": {
        "details": "Transfers ownership of the contract to a new account (`newOwner`). Can only be called by the current owner."
      }
    },
    "version": 1
  },
  "userdoc": {
    "kind": "user",
    "methods": {
      "initializeTransfer(string,address,uint256)": {
        "notice": "Iinitialise a transfer of an amount of EUReFirst Step: On-Ramp:1- Transfer EURe from user's wallet2- Wrap EURe to jEUR (Jarvis wrapper)3- Get jEUR/USDC Rate (Aggregator Chainlink)4- Redeem USDC from jEUR (Jarvis Redeem)Secod Step: Calculate 1,9% of feesThird Step: Off-Ramp: Using HUB2if any error: Sent money to users wallet back"
      },
      "remittanceStatus(string)": {
        "notice": "Returns the current status of a specific remmitance."
      }
    },
    "version": 1
  }
}