{
  "contractName": "BlockSendRouter",
  "abi": [
    {
      "inputs": [
        {
          "internalType": "address",
          "name": "_BKSD_TOKEN_CONTRACT",
          "type": "address"
        },
        {
          "internalType": "address",
          "name": "_BKSD_REWARDS_CONTRACT",
          "type": "address"
        }
      ],
      "stateMutability": "nonpayable",
      "type": "constructor"
    },
    {
      "anonymous": false,
      "inputs": [
        {
          "indexed": false,
          "internalType": "address",
          "name": "user",
          "type": "address"
        },
        {
          "indexed": false,
          "internalType": "uint256",
          "name": "tokenAmount",
          "type": "uint256"
        }
      ],
      "name": "ClaimTransferRewardEvent",
      "type": "event"
    },
    {
      "anonymous": false,
      "inputs": [
        {
          "indexed": true,
          "internalType": "address",
          "name": "previousOwner",
          "type": "address"
        },
        {
          "indexed": true,
          "internalType": "address",
          "name": "newOwner",
          "type": "address"
        }
      ],
      "name": "OwnershipTransferred",
      "type": "event"
    },
    {
      "anonymous": false,
      "inputs": [
        {
          "indexed": false,
          "internalType": "string",
          "name": "transferId",
          "type": "string"
        },
        {
          "indexed": false,
          "internalType": "uint256",
          "name": "userAmount",
          "type": "uint256"
        },
        {
          "indexed": false,
          "internalType": "uint256",
          "name": "blocksendAmount",
          "type": "uint256"
        }
      ],
      "name": "TransferFinalized",
      "type": "event"
    },
    {
      "anonymous": false,
      "inputs": [
        {
          "indexed": false,
          "internalType": "string",
          "name": "transferId",
          "type": "string"
        },
        {
          "indexed": false,
          "internalType": "uint256",
          "name": "amount",
          "type": "uint256"
        }
      ],
      "name": "TransferInitilized",
      "type": "event"
    },
    {
      "inputs": [],
      "name": "owner",
      "outputs": [
        {
          "internalType": "address",
          "name": "",
          "type": "address"
        }
      ],
      "stateMutability": "view",
      "type": "function",
      "constant": true
    },
    {
      "inputs": [],
      "name": "renounceOwnership",
      "outputs": [],
      "stateMutability": "nonpayable",
      "type": "function"
    },
    {
      "inputs": [
        {
          "internalType": "address",
          "name": "newOwner",
          "type": "address"
        }
      ],
      "name": "transferOwnership",
      "outputs": [],
      "stateMutability": "nonpayable",
      "type": "function"
    },
    {
      "inputs": [
        {
          "internalType": "address",
          "name": "",
          "type": "address"
        }
      ],
      "name": "transferRewardsBalance",
      "outputs": [
        {
          "internalType": "uint256",
          "name": "",
          "type": "uint256"
        }
      ],
      "stateMutability": "view",
      "type": "function",
      "constant": true
    },
    {
      "inputs": [
        {
          "internalType": "string",
          "name": "",
          "type": "string"
        }
      ],
      "name": "transfers",
      "outputs": [
        {
          "internalType": "address",
          "name": "sender",
          "type": "address"
        },
        {
          "internalType": "uint256",
          "name": "amount_EURe",
          "type": "uint256"
        },
        {
          "internalType": "uint256",
          "name": "amount_jEUR",
          "type": "uint256"
        },
        {
          "internalType": "uint256",
          "name": "amount_USDC",
          "type": "uint256"
        },
        {
          "internalType": "uint256",
          "name": "rate_EUR_USDC",
          "type": "uint256"
        },
        {
          "internalType": "uint256",
          "name": "userAmount_USDC",
          "type": "uint256"
        },
        {
          "internalType": "uint256",
          "name": "blocksendAmount_USDC",
          "type": "uint256"
        },
        {
          "internalType": "uint256",
          "name": "jarvisFees_USDC",
          "type": "uint256"
        },
        {
          "internalType": "enum BlockSendRouter.TransferStatus",
          "name": "status",
          "type": "uint8"
        }
      ],
      "stateMutability": "view",
      "type": "function",
      "constant": true
    },
    {
      "inputs": [
        {
          "internalType": "string",
          "name": "transferId",
          "type": "string"
        },
        {
          "internalType": "address",
          "name": "userWallet",
          "type": "address"
        },
        {
          "internalType": "uint256",
          "name": "amount",
          "type": "uint256"
        }
      ],
      "name": "initializeTransfer",
      "outputs": [
        {
          "internalType": "bool",
          "name": "ok",
          "type": "bool"
        }
      ],
      "stateMutability": "nonpayable",
      "type": "function"
    },
    {
      "inputs": [],
      "name": "getMyTranferRewardsBalance",
      "outputs": [
        {
          "internalType": "uint256",
          "name": "",
          "type": "uint256"
        }
      ],
      "stateMutability": "view",
      "type": "function",
      "constant": true
    },
    {
      "inputs": [],
      "name": "claimTransferRewards",
      "outputs": [],
      "stateMutability": "nonpayable",
      "type": "function"
    },
    {
      "inputs": [
        {
          "internalType": "string",
          "name": "_transferId",
          "type": "string"
        }
      ],
      "name": "getTransfer",
      "outputs": [
        {
          "internalType": "address",
          "name": "sender",
          "type": "address"
        },
        {
          "internalType": "uint256",
          "name": "amount_EURe",
          "type": "uint256"
        },
        {
          "internalType": "uint256",
          "name": "amount_jEUR",
          "type": "uint256"
        },
        {
          "internalType": "uint256",
          "name": "amount_USDC",
          "type": "uint256"
        },
        {
          "internalType": "uint256",
          "name": "rate_EUR_USDC",
          "type": "uint256"
        },
        {
          "internalType": "uint256",
          "name": "userAmount_USDC",
          "type": "uint256"
        },
        {
          "internalType": "uint256",
          "name": "blocksendAmount_USDC",
          "type": "uint256"
        },
        {
          "internalType": "uint256",
          "name": "jarvisFees_USDC",
          "type": "uint256"
        },
        {
          "internalType": "enum BlockSendRouter.TransferStatus",
          "name": "status",
          "type": "uint8"
        }
      ],
      "stateMutability": "view",
      "type": "function",
      "constant": true
    },
    {
      "inputs": [
        {
          "internalType": "address",
          "name": "_newAddress",
          "type": "address"
        }
      ],
      "name": "setWrapperContract",
      "outputs": [],
      "stateMutability": "nonpayable",
      "type": "function"
    },
    {
      "inputs": [
        {
          "internalType": "address",
          "name": "_newAddress",
          "type": "address"
        }
      ],
      "name": "setSyntheriumContract",
      "outputs": [],
      "stateMutability": "nonpayable",
      "type": "function"
    },
    {
      "inputs": [
        {
          "internalType": "address",
          "name": "_newAddress",
          "type": "address"
        }
      ],
      "name": "setEURETokenContract",
      "outputs": [],
      "stateMutability": "nonpayable",
      "type": "function"
    },
    {
      "inputs": [
        {
          "internalType": "address",
          "name": "_newAddress",
          "type": "address"
        }
      ],
      "name": "setJEURToken_Contract",
      "outputs": [],
      "stateMutability": "nonpayable",
      "type": "function"
    },
    {
      "inputs": [
        {
          "internalType": "address",
          "name": "_newAddress",
          "type": "address"
        }
      ],
      "name": "setUSDCTokenContract",
      "outputs": [],
      "stateMutability": "nonpayable",
      "type": "function"
    },
    {
      "inputs": [
        {
          "internalType": "address",
          "name": "_newAddress",
          "type": "address"
        }
      ],
      "name": "setHUB2Wallet",
      "outputs": [],
      "stateMutability": "nonpayable",
      "type": "function"
    },
    {
      "inputs": [
        {
          "internalType": "address",
          "name": "_newAddress",
          "type": "address"
        }
      ],
      "name": "setBlockSend_Wallet",
      "outputs": [],
      "stateMutability": "nonpayable",
      "type": "function"
    },
    {
      "inputs": [
        {
          "internalType": "address",
          "name": "_addr",
          "type": "address"
        }
      ],
      "name": "AllowAddress",
      "outputs": [],
      "stateMutability": "nonpayable",
      "type": "function"
    },
    {
      "inputs": [],
      "name": "get_EUR_USD_LatestPrice",
      "outputs": [
        {
          "internalType": "uint256",
          "name": "",
          "type": "uint256"
        }
      ],
      "stateMutability": "view",
      "type": "function",
      "constant": true
    },
    {
      "inputs": [],
      "name": "get_USDC_USD_LatestPrice",
      "outputs": [
        {
          "internalType": "uint256",
          "name": "",
          "type": "uint256"
        }
      ],
      "stateMutability": "view",
      "type": "function",
      "constant": true
    }
  ],
  "bytecode": "0x608060405273b07cb016440331be4d2f532b20d892a420476ad0600960006101000a81548173ffffffffffffffffffffffffffffffffffffffff021916908373ffffffffffffffffffffffffffffffffffffffff1602179055507365a7b4ff684c2d08c115d55a4b089bf4e92f5003600a60006101000a81548173ffffffffffffffffffffffffffffffffffffffff021916908373ffffffffffffffffffffffffffffffffffffffff1602179055507318ec0a6e18e5bc3784fdd3a3634b31245ab704f6600b60006101000a81548173ffffffffffffffffffffffffffffffffffffffff021916908373ffffffffffffffffffffffffffffffffffffffff160217905550734e3decbb3645551b8a19f0ea1678079fcb33fb4c600c60006101000a81548173ffffffffffffffffffffffffffffffffffffffff021916908373ffffffffffffffffffffffffffffffffffffffff160217905550732791bca1f2de4661ed88a30c99a7a9449aa84174600d60006101000a81548173ffffffffffffffffffffffffffffffffffffffff021916908373ffffffffffffffffffffffffffffffffffffffff1602179055507373366fe0aa0ded304479862808e02506fe556a98600e60006101000a81548173ffffffffffffffffffffffffffffffffffffffff021916908373ffffffffffffffffffffffffffffffffffffffff16021790555073fe4a8cc5b5b2366c1b58bea3858e81843581b2f7600f60006101000a81548173ffffffffffffffffffffffffffffffffffffffff021916908373ffffffffffffffffffffffffffffffffffffffff16021790555073ed85caeb52c34bd35dfeeb2d4e0bc936a0db0923601060006101000a81548173ffffffffffffffffffffffffffffffffffffffff021916908373ffffffffffffffffffffffffffffffffffffffff16021790555073913cd67da3b17be7f66e865158cdf9a5c4f2a850601160006101000a81548173ffffffffffffffffffffffffffffffffffffffff021916908373ffffffffffffffffffffffffffffffffffffffff160217905550737f3ee84fd13d815ff1005b7904cd67084d8f353f601260006101000a81548173ffffffffffffffffffffffffffffffffffffffff021916908373ffffffffffffffffffffffffffffffffffffffff160217905550737f3ee84fd13d815ff1005b7904cd67084d8f353f601360006101000a81548173ffffffffffffffffffffffffffffffffffffffff021916908373ffffffffffffffffffffffffffffffffffffffff160217905550348015620003b857600080fd5b5060405162003475380380620034758339818101604052810190620003de919062000827565b620003fe620003f2620006f160201b60201c565b620006f960201b60201c565b600160156000601160009054906101000a900473ffffffffffffffffffffffffffffffffffffffff1673ffffffffffffffffffffffffffffffffffffffff1673ffffffffffffffffffffffffffffffffffffffff16815260200190815260200160002060006101000a81548160ff021916908315150217905550600960009054906101000a900473ffffffffffffffffffffffffffffffffffffffff16600160006101000a81548173ffffffffffffffffffffffffffffffffffffffff021916908373ffffffffffffffffffffffffffffffffffffffff160217905550600a60009054906101000a900473ffffffffffffffffffffffffffffffffffffffff16600260006101000a81548173ffffffffffffffffffffffffffffffffffffffff021916908373ffffffffffffffffffffffffffffffffffffffff160217905550600b60009054906101000a900473ffffffffffffffffffffffffffffffffffffffff16600360006101000a81548173ffffffffffffffffffffffffffffffffffffffff021916908373ffffffffffffffffffffffffffffffffffffffff160217905550600c60009054906101000a900473ffffffffffffffffffffffffffffffffffffffff16600460006101000a81548173ffffffffffffffffffffffffffffffffffffffff021916908373ffffffffffffffffffffffffffffffffffffffff160217905550600d60009054906101000a900473ffffffffffffffffffffffffffffffffffffffff16600560006101000a81548173ffffffffffffffffffffffffffffffffffffffff021916908373ffffffffffffffffffffffffffffffffffffffff16021790555081600660006101000a81548173ffffffffffffffffffffffffffffffffffffffff021916908373ffffffffffffffffffffffffffffffffffffffff16021790555080600760006101000a81548173ffffffffffffffffffffffffffffffffffffffff021916908373ffffffffffffffffffffffffffffffffffffffff16021790555050506200086e565b600033905090565b60008060009054906101000a900473ffffffffffffffffffffffffffffffffffffffff169050816000806101000a81548173ffffffffffffffffffffffffffffffffffffffff021916908373ffffffffffffffffffffffffffffffffffffffff1602179055508173ffffffffffffffffffffffffffffffffffffffff168173ffffffffffffffffffffffffffffffffffffffff167f8be0079c531659141344cd1fd0a4f28419497f9722a3daafe3b4186f6b6457e060405160405180910390a35050565b600080fd5b600073ffffffffffffffffffffffffffffffffffffffff82169050919050565b6000620007ef82620007c2565b9050919050565b6200080181620007e2565b81146200080d57600080fd5b50565b6000815190506200082181620007f6565b92915050565b60008060408385031215620008415762000840620007bd565b5b6000620008518582860162000810565b9250506020620008648582860162000810565b9150509250929050565b612bf7806200087e6000396000f3fe608060405234801561001057600080fd5b50600436106101215760003560e01c806360640249116100ad578063b2413bef11610071578063b2413bef146102f0578063ea45efbf1461030e578063eead6fd81461032a578063f11283a214610346578063f2fde38b1461036257610121565b8063606402491461023a578063715018a6146102585780637ec6cfca1461026257806384a1c2331461029a5780638da5cb5b146102d257610121565b8063335bafa2116100f4578063335bafa2146101c0578063381ea9c5146101dc57806343dafdbe146101f85780634e558127146102145780635aeee3f01461023057610121565b80631640fb86146101265780631dfe08191461015657806325a976051461018657806329183968146101a2575b600080fd5b610140600480360381019061013b9190611fd5565b61037e565b60405161014d919061201b565b60405180910390f35b610170600480360381019061016b91906120c7565b610396565b60405161017d9190612156565b60405180910390f35b6101a0600480360381019061019b9190611fd5565b61059f565b005b6101aa61064e565b6040516101b7919061201b565b60405180910390f35b6101da60048036038101906101d59190611fd5565b610695565b005b6101f660048036038101906101f19190611fd5565b610744565b005b610212600480360381019061020d9190611fd5565b610790565b005b61022e60048036038101906102299190611fd5565b6107dc565b005b61023861088b565b005b610242610a80565b60405161024f919061201b565b60405180910390f35b610260610b2e565b005b61027c60048036038101906102779190612171565b610b42565b60405161029199989796959493929190612244565b60405180910390f35b6102b460048036038101906102af9190612412565b610ce0565b6040516102c999989796959493929190612244565b60405180910390f35b6102da610d71565b6040516102e7919061245b565b60405180910390f35b6102f8610d9a565b604051610305919061201b565b60405180910390f35b61032860048036038101906103239190611fd5565b610e48565b005b610344600480360381019061033f9190611fd5565b610ef7565b005b610360600480360381019061035b9190611fd5565b610fa6565b005b61037c60048036038101906103779190611fd5565b611009565b005b60086020528060005260406000206000915090505481565b6000601560003373ffffffffffffffffffffffffffffffffffffffff1673ffffffffffffffffffffffffffffffffffffffff16815260200190815260200160002060009054906101000a900460ff16610424576040517f08c379a000000000000000000000000000000000000000000000000000000000815260040161041b906124f9565b60405180910390fd5b6104308585858561108c565b600061043e8686868661117b565b90508061045c5761045186868686611234565b506000915050610597565b60008061046b8888878861132c565b9150915081158061047c5750600081145b1561049a5761048d88888888611234565b5060009350505050610597565b6000806000806104ab8c8c876114a9565b93509350935093508315806104be575082155b806104c95750600082145b156104eb576104da8c8c8c8c611234565b506000975050505050505050610597565b60006104f98d8d858561176b565b90508061051e5761050c8d8d8d8d611234565b50600098505050505050505050610597565b60028a61052b9190612577565b600860008d73ffffffffffffffffffffffffffffffffffffffff1673ffffffffffffffffffffffffffffffffffffffff168152602001908152602001600020600082825461057991906125a8565b9250508190555061058a8d8d611a72565b6001985050505050505050505b949350505050565b6105a7611b45565b80600b60006101000a81548173ffffffffffffffffffffffffffffffffffffffff021916908373ffffffffffffffffffffffffffffffffffffffff160217905550600b60009054906101000a900473ffffffffffffffffffffffffffffffffffffffff16600360006101000a81548173ffffffffffffffffffffffffffffffffffffffff021916908373ffffffffffffffffffffffffffffffffffffffff16021790555050565b6000600860003373ffffffffffffffffffffffffffffffffffffffff1673ffffffffffffffffffffffffffffffffffffffff16815260200190815260200160002054905090565b61069d611b45565b80600a60006101000a81548173ffffffffffffffffffffffffffffffffffffffff021916908373ffffffffffffffffffffffffffffffffffffffff160217905550600a60009054906101000a900473ffffffffffffffffffffffffffffffffffffffff16600260006101000a81548173ffffffffffffffffffffffffffffffffffffffff021916908373ffffffffffffffffffffffffffffffffffffffff16021790555050565b61074c611b45565b80601060006101000a81548173ffffffffffffffffffffffffffffffffffffffff021916908373ffffffffffffffffffffffffffffffffffffffff16021790555050565b610798611b45565b80601260006101000a81548173ffffffffffffffffffffffffffffffffffffffff021916908373ffffffffffffffffffffffffffffffffffffffff16021790555050565b6107e4611b45565b80600960006101000a81548173ffffffffffffffffffffffffffffffffffffffff021916908373ffffffffffffffffffffffffffffffffffffffff160217905550600960009054906101000a900473ffffffffffffffffffffffffffffffffffffffff16600160006101000a81548173ffffffffffffffffffffffffffffffffffffffff021916908373ffffffffffffffffffffffffffffffffffffffff16021790555050565b6000600860003373ffffffffffffffffffffffffffffffffffffffff1673ffffffffffffffffffffffffffffffffffffffff1681526020019081526020016000205490506000600860003373ffffffffffffffffffffffffffffffffffffffff1673ffffffffffffffffffffffffffffffffffffffff16815260200190815260200160002081905550600660009054906101000a900473ffffffffffffffffffffffffffffffffffffffff1673ffffffffffffffffffffffffffffffffffffffff166340c10f1930836040518363ffffffff1660e01b81526004016109719291906125fe565b600060405180830381600087803b15801561098b57600080fd5b505af115801561099f573d6000803e3d6000fd5b50505050600660009054906101000a900473ffffffffffffffffffffffffffffffffffffffff1673ffffffffffffffffffffffffffffffffffffffff1663a9059cbb33836040518363ffffffff1660e01b8152600401610a009291906125fe565b6020604051808303816000875af1158015610a1f573d6000803e3d6000fd5b505050506040513d601f19601f82011682018060405250810190610a439190612653565b507f58cc09a5cd7d0483d99e31e50feb38f39841b055573f462989aea4ad8783c6da3382604051610a759291906125fe565b60405180910390a150565b600080600e60009054906101000a900473ffffffffffffffffffffffffffffffffffffffff1673ffffffffffffffffffffffffffffffffffffffff1663feaf968c6040518163ffffffff1660e01b815260040160a060405180830381865afa158015610af0573d6000803e3d6000fd5b505050506040513d601f19601f82011682018060405250810190610b14919061270d565b5050509150506103e881610b289190612788565b91505090565b610b36611b45565b610b406000611bc3565b565b600080600080600080600080600060148b8b604051610b62929190612822565b908152602001604051809103902060000160009054906101000a900473ffffffffffffffffffffffffffffffffffffffff16985060148b8b604051610ba8929190612822565b908152602001604051809103902060010154975060148b8b604051610bce929190612822565b908152602001604051809103902060020154965060148b8b604051610bf4929190612822565b908152602001604051809103902060030154955060148b8b604051610c1a929190612822565b908152602001604051809103902060040154945060148b8b604051610c40929190612822565b908152602001604051809103902060050154935060148b8b604051610c66929190612822565b908152602001604051809103902060060154925060148b8b604051610c8c929190612822565b908152602001604051809103902060070154915060148b8b604051610cb2929190612822565b908152602001604051809103902060080160009054906101000a900460ff1690509295985092959850929598565b6014818051602081018201805184825260208301602085012081835280955050505050506000915090508060000160009054906101000a900473ffffffffffffffffffffffffffffffffffffffff16908060010154908060020154908060030154908060040154908060050154908060060154908060070154908060080160009054906101000a900460ff16905089565b60008060009054906101000a900473ffffffffffffffffffffffffffffffffffffffff16905090565b600080600f60009054906101000a900473ffffffffffffffffffffffffffffffffffffffff1673ffffffffffffffffffffffffffffffffffffffff1663feaf968c6040518163ffffffff1660e01b815260040160a060405180830381865afa158015610e0a573d6000803e3d6000fd5b505050506040513d601f19601f82011682018060405250810190610e2e919061270d565b5050509150506103e881610e429190612788565b91505090565b610e50611b45565b80600c60006101000a81548173ffffffffffffffffffffffffffffffffffffffff021916908373ffffffffffffffffffffffffffffffffffffffff160217905550600c60009054906101000a900473ffffffffffffffffffffffffffffffffffffffff16600460006101000a81548173ffffffffffffffffffffffffffffffffffffffff021916908373ffffffffffffffffffffffffffffffffffffffff16021790555050565b610eff611b45565b80600d60006101000a81548173ffffffffffffffffffffffffffffffffffffffff021916908373ffffffffffffffffffffffffffffffffffffffff160217905550600d60009054906101000a900473ffffffffffffffffffffffffffffffffffffffff16600560006101000a81548173ffffffffffffffffffffffffffffffffffffffff021916908373ffffffffffffffffffffffffffffffffffffffff16021790555050565b610fae611b45565b6001601560008373ffffffffffffffffffffffffffffffffffffffff1673ffffffffffffffffffffffffffffffffffffffff16815260200190815260200160002060006101000a81548160ff02191690831515021790555050565b611011611b45565b600073ffffffffffffffffffffffffffffffffffffffff168173ffffffffffffffffffffffffffffffffffffffff1603611080576040517f08c379a0000000000000000000000000000000000000000000000000000000008152600401611077906128ad565b60405180910390fd5b61108981611bc3565b50565b816014858560405161109f929190612822565b908152602001604051809103902060000160006101000a81548173ffffffffffffffffffffffffffffffffffffffff021916908373ffffffffffffffffffffffffffffffffffffffff160217905550600060148585604051611102929190612822565b908152602001604051809103902060080160006101000a81548160ff02191690836006811115611135576111346121cd565b5b02179055507f9f99091afbc24bd9abfd7adca3533b5457ad5307a86351e337bcee2fb1f364de84848360405161116d939291906128fa565b60405180910390a150505050565b6000600360009054906101000a900473ffffffffffffffffffffffffffffffffffffffff1673ffffffffffffffffffffffffffffffffffffffff166323b872dd8430856040518463ffffffff1660e01b81526004016111dc9392919061292c565b6020604051808303816000875af11580156111fb573d6000803e3d6000fd5b505050506040513d601f19601f8201168201806040525081019061121f9190612653565b905061122c858584611c87565b949350505050565b600060066014868660405161124a929190612822565b908152602001604051809103902060080160006101000a81548160ff0219169083600681111561127d5761127c6121cd565b5b0217905550600360009054906101000a900473ffffffffffffffffffffffffffffffffffffffff1673ffffffffffffffffffffffffffffffffffffffff1663a9059cbb84846040518363ffffffff1660e01b81526004016112df9291906125fe565b6020604051808303816000875af11580156112fe573d6000803e3d6000fd5b505050506040513d601f19601f820116820180604052508101906113229190612653565b9050949350505050565b600080600360009054906101000a900473ffffffffffffffffffffffffffffffffffffffff1673ffffffffffffffffffffffffffffffffffffffff1663095ea7b3600960009054906101000a900473ffffffffffffffffffffffffffffffffffffffff16866040518363ffffffff1660e01b81526004016113ae9291906125fe565b6020604051808303816000875af11580156113cd573d6000803e3d6000fd5b505050506040513d601f19601f820116820180604052508101906113f19190612653565b9150600160009054906101000a900473ffffffffffffffffffffffffffffffffffffffff1673ffffffffffffffffffffffffffffffffffffffff166313bac82084306040518363ffffffff1660e01b8152600401611450929190612963565b6020604051808303816000875af115801561146f573d6000803e3d6000fd5b505050506040513d601f19601f82011682018060405250810190611493919061298c565b90506114a0868683611d00565b94509492505050565b60008060008060006114b9610a80565b90506000678ac7230489e8000082886114d291906129b9565b6114dc9190612577565b9050600460009054906101000a900473ffffffffffffffffffffffffffffffffffffffff1673ffffffffffffffffffffffffffffffffffffffff1663095ea7b3600a60009054906101000a900473ffffffffffffffffffffffffffffffffffffffff16896040518363ffffffff1660e01b815260040161155d9291906125fe565b6020604051808303816000875af115801561157c573d6000803e3d6000fd5b505050506040513d601f19601f820116820180604052508101906115a09190612653565b9550600560009054906101000a900473ffffffffffffffffffffffffffffffffffffffff1673ffffffffffffffffffffffffffffffffffffffff1663095ea7b3600a60009054906101000a900473ffffffffffffffffffffffffffffffffffffffff16836040518363ffffffff1660e01b81526004016116219291906125fe565b6020604051808303816000875af1158015611640573d6000803e3d6000fd5b505050506040513d601f19601f820116820180604052508101906116649190612653565b945060006040518060800160405280898152602001838152602001601e4261168c91906125a8565b81526020013073ffffffffffffffffffffffffffffffffffffffff168152509050600260009054906101000a900473ffffffffffffffffffffffffffffffffffffffff1673ffffffffffffffffffffffffffffffffffffffff1663525e6b11826040518263ffffffff1660e01b81526004016117089190612a86565b60408051808303816000875af1158015611726573d6000803e3d6000fd5b505050506040513d601f19601f8201168201806040525081019061174a9190612aa1565b809550819650505061175f8a8a878688611d79565b50505093509350935093565b60008060008061177b8686611e44565b925092509250600560009054906101000a900473ffffffffffffffffffffffffffffffffffffffff1673ffffffffffffffffffffffffffffffffffffffff1663a9059cbb601260009054906101000a900473ffffffffffffffffffffffffffffffffffffffff16856040518363ffffffff1660e01b81526004016118009291906125fe565b6020604051808303816000875af115801561181f573d6000803e3d6000fd5b505050506040513d601f19601f820116820180604052508101906118439190612653565b50600560009054906101000a900473ffffffffffffffffffffffffffffffffffffffff1673ffffffffffffffffffffffffffffffffffffffff1663a9059cbb601360009054906101000a900473ffffffffffffffffffffffffffffffffffffffff16836040518363ffffffff1660e01b81526004016118c39291906125fe565b6020604051808303816000875af11580156118e2573d6000803e3d6000fd5b505050506040513d601f19601f820116820180604052508101906119069190612653565b50600560009054906101000a900473ffffffffffffffffffffffffffffffffffffffff1673ffffffffffffffffffffffffffffffffffffffff1663a9059cbb601060009054906101000a900473ffffffffffffffffffffffffffffffffffffffff16846040518363ffffffff1660e01b81526004016119869291906125fe565b6020604051808303816000875af11580156119a5573d6000803e3d6000fd5b505050506040513d601f19601f820116820180604052508101906119c99190612653565b50600760009054906101000a900473ffffffffffffffffffffffffffffffffffffffff1673ffffffffffffffffffffffffffffffffffffffff1663beceed39826040518263ffffffff1660e01b8152600401611a25919061201b565b600060405180830381600087803b158015611a3f57600080fd5b505af1158015611a53573d6000803e3d6000fd5b50505050611a6388888486611eb9565b60019350505050949350505050565b600560148383604051611a86929190612822565b908152602001604051809103902060080160006101000a81548160ff02191690836006811115611ab957611ab86121cd565b5b02179055507fb068bfa73b9623ba0d319b003df0377fa326e109678625e7ad23230855b856b4828260148585604051611af3929190612822565b90815260200160405180910390206005015460148686604051611b17929190612822565b908152602001604051809103902060060154604051611b399493929190612ae1565b60405180910390a15050565b611b4d611f5b565b73ffffffffffffffffffffffffffffffffffffffff16611b6b610d71565b73ffffffffffffffffffffffffffffffffffffffff1614611bc1576040517f08c379a0000000000000000000000000000000000000000000000000000000008152600401611bb890612b6d565b60405180910390fd5b565b60008060009054906101000a900473ffffffffffffffffffffffffffffffffffffffff169050816000806101000a81548173ffffffffffffffffffffffffffffffffffffffff021916908373ffffffffffffffffffffffffffffffffffffffff1602179055508173ffffffffffffffffffffffffffffffffffffffff168173ffffffffffffffffffffffffffffffffffffffff167f8be0079c531659141344cd1fd0a4f28419497f9722a3daafe3b4186f6b6457e060405160405180910390a35050565b600160148484604051611c9b929190612822565b908152602001604051809103902060080160006101000a81548160ff02191690836006811115611cce57611ccd6121cd565b5b02179055508060148484604051611ce6929190612822565b908152602001604051809103902060010181905550505050565b600260148484604051611d14929190612822565b908152602001604051809103902060080160006101000a81548160ff02191690836006811115611d4757611d466121cd565b5b02179055508060148484604051611d5f929190612822565b908152602001604051809103902060020181905550505050565b600360148686604051611d8d929190612822565b908152602001604051809103902060080160006101000a81548160ff02191690836006811115611dc057611dbf6121cd565b5b02179055508260148686604051611dd8929190612822565b9081526020016040518091039020600301819055508160148686604051611e00929190612822565b9081526020016040518091039020600401819055508060148686604051611e28929190612822565b9081526020016040518091039020600701819055505050505050565b6000806000836103e8600e87611e5a91906129b9565b611e649190612577565b611e6e9190612b8d565b92506064601284611e7f91906129b9565b611e899190612577565b90508083611e979190612b8d565b9250808386611ea69190612b8d565b611eb09190612b8d565b91509250925092565b600460148585604051611ecd929190612822565b908152602001604051809103902060080160006101000a81548160ff02191690836006811115611f0057611eff6121cd565b5b02179055508160148585604051611f18929190612822565b9081526020016040518091039020600501819055508060148585604051611f40929190612822565b90815260200160405180910390206006018190555050505050565b600033905090565b6000604051905090565b600080fd5b600080fd5b600073ffffffffffffffffffffffffffffffffffffffff82169050919050565b6000611fa282611f77565b9050919050565b611fb281611f97565b8114611fbd57600080fd5b50565b600081359050611fcf81611fa9565b92915050565b600060208284031215611feb57611fea611f6d565b5b6000611ff984828501611fc0565b91505092915050565b6000819050919050565b61201581612002565b82525050565b6000602082019050612030600083018461200c565b92915050565b600080fd5b600080fd5b600080fd5b60008083601f84011261205b5761205a612036565b5b8235905067ffffffffffffffff8111156120785761207761203b565b5b60208301915083600182028301111561209457612093612040565b5b9250929050565b6120a481612002565b81146120af57600080fd5b50565b6000813590506120c18161209b565b92915050565b600080600080606085870312156120e1576120e0611f6d565b5b600085013567ffffffffffffffff8111156120ff576120fe611f72565b5b61210b87828801612045565b9450945050602061211e87828801611fc0565b925050604061212f878288016120b2565b91505092959194509250565b60008115159050919050565b6121508161213b565b82525050565b600060208201905061216b6000830184612147565b92915050565b6000806020838503121561218857612187611f6d565b5b600083013567ffffffffffffffff8111156121a6576121a5611f72565b5b6121b285828601612045565b92509250509250929050565b6121c781611f97565b82525050565b7f4e487b7100000000000000000000000000000000000000000000000000000000600052602160045260246000fd5b6007811061220d5761220c6121cd565b5b50565b600081905061221e826121fc565b919050565b600061222e82612210565b9050919050565b61223e81612223565b82525050565b60006101208201905061225a600083018c6121be565b612267602083018b61200c565b612274604083018a61200c565b612281606083018961200c565b61228e608083018861200c565b61229b60a083018761200c565b6122a860c083018661200c565b6122b560e083018561200c565b6122c3610100830184612235565b9a9950505050505050505050565b600080fd5b6000601f19601f8301169050919050565b7f4e487b7100000000000000000000000000000000000000000000000000000000600052604160045260246000fd5b61231f826122d6565b810181811067ffffffffffffffff8211171561233e5761233d6122e7565b5b80604052505050565b6000612351611f63565b905061235d8282612316565b919050565b600067ffffffffffffffff82111561237d5761237c6122e7565b5b612386826122d6565b9050602081019050919050565b82818337600083830152505050565b60006123b56123b084612362565b612347565b9050828152602081018484840111156123d1576123d06122d1565b5b6123dc848285612393565b509392505050565b600082601f8301126123f9576123f8612036565b5b81356124098482602086016123a2565b91505092915050565b60006020828403121561242857612427611f6d565b5b600082013567ffffffffffffffff81111561244657612445611f72565b5b612452848285016123e4565b91505092915050565b600060208201905061247060008301846121be565b92915050565b600082825260208201905092915050565b7f596f7527726520616c6c6f77656420746f20696e69746961746520612074726160008201527f6e73666572000000000000000000000000000000000000000000000000000000602082015250565b60006124e3602583612476565b91506124ee82612487565b604082019050919050565b60006020820190508181036000830152612512816124d6565b9050919050565b7f4e487b7100000000000000000000000000000000000000000000000000000000600052601260045260246000fd5b7f4e487b7100000000000000000000000000000000000000000000000000000000600052601160045260246000fd5b600061258282612002565b915061258d83612002565b92508261259d5761259c612519565b5b828204905092915050565b60006125b382612002565b91506125be83612002565b9250827fffffffffffffffffffffffffffffffffffffffffffffffffffffffffffffffff038211156125f3576125f2612548565b5b828201905092915050565b600060408201905061261360008301856121be565b612620602083018461200c565b9392505050565b6126308161213b565b811461263b57600080fd5b50565b60008151905061264d81612627565b92915050565b60006020828403121561266957612668611f6d565b5b60006126778482850161263e565b91505092915050565b600069ffffffffffffffffffff82169050919050565b61269f81612680565b81146126aa57600080fd5b50565b6000815190506126bc81612696565b92915050565b6000819050919050565b6126d5816126c2565b81146126e057600080fd5b50565b6000815190506126f2816126cc565b92915050565b6000815190506127078161209b565b92915050565b600080600080600060a0868803121561272957612728611f6d565b5b6000612737888289016126ad565b9550506020612748888289016126e3565b9450506040612759888289016126f8565b935050606061276a888289016126f8565b925050608061277b888289016126ad565b9150509295509295909350565b6000612793826126c2565b915061279e836126c2565b9250826127ae576127ad612519565b5b600160000383147f8000000000000000000000000000000000000000000000000000000000000000831416156127e7576127e6612548565b5b828205905092915050565b600081905092915050565b600061280983856127f2565b9350612816838584612393565b82840190509392505050565b600061282f8284866127fd565b91508190509392505050565b7f4f776e61626c653a206e6577206f776e657220697320746865207a65726f206160008201527f6464726573730000000000000000000000000000000000000000000000000000602082015250565b6000612897602683612476565b91506128a28261283b565b604082019050919050565b600060208201905081810360008301526128c68161288a565b9050919050565b60006128d98385612476565b93506128e6838584612393565b6128ef836122d6565b840190509392505050565b600060408201905081810360008301526129158185876128cd565b9050612924602083018461200c565b949350505050565b600060608201905061294160008301866121be565b61294e60208301856121be565b61295b604083018461200c565b949350505050565b6000604082019050612978600083018561200c565b61298560208301846121be565b9392505050565b6000602082840312156129a2576129a1611f6d565b5b60006129b0848285016126f8565b91505092915050565b60006129c482612002565b91506129cf83612002565b9250817fffffffffffffffffffffffffffffffffffffffffffffffffffffffffffffffff0483118215151615612a0857612a07612548565b5b828202905092915050565b612a1c81612002565b82525050565b612a2b81611f97565b82525050565b608082016000820151612a476000850182612a13565b506020820151612a5a6020850182612a13565b506040820151612a6d6040850182612a13565b506060820151612a806060850182612a22565b50505050565b6000608082019050612a9b6000830184612a31565b92915050565b60008060408385031215612ab857612ab7611f6d565b5b6000612ac6858286016126f8565b9250506020612ad7858286016126f8565b9150509250929050565b60006060820190508181036000830152612afc8186886128cd565b9050612b0b602083018561200c565b612b18604083018461200c565b95945050505050565b7f4f776e61626c653a2063616c6c6572206973206e6f7420746865206f776e6572600082015250565b6000612b57602083612476565b9150612b6282612b21565b602082019050919050565b60006020820190508181036000830152612b8681612b4a565b9050919050565b6000612b9882612002565b9150612ba383612002565b925082821015612bb657612bb5612548565b5b82820390509291505056fea26469706673582212200afdbaa8328ddbef002f4cb7c6433ef5cfb72f19b1e0d181fdce825896ba34be64736f6c634300080e0033",
  "immutableReferences": {},
  "source": "// SPDX-License-Identifier: MIT\r\npragma solidity ^0.8.13;\r\n\r\nimport \"../node_modules/@chainlink/contracts/src/v0.8/interfaces/AggregatorV3Interface.sol\";\r\nimport \"../node_modules/@openzeppelin/contracts/access/Ownable.sol\";\r\nimport \"../node_modules/@openzeppelin/contracts/token/ERC20/IERC20.sol\";\r\nimport \"./interfaces/IFixedRateWrapper.sol\";\r\nimport \"./interfaces/ISynthereum.sol\";\r\nimport \"./BlockSendToken.sol\";\r\nimport \"./BlockSendStakingRewards.sol\";\r\n\r\ncontract BlockSendRouter is Ownable {\r\n    IFixedRateWrapper private jarvisWrapper;\r\n    ISynthereum private jarvisSynthereum;\r\n    IERC20 private moneriumEURemoney;\r\n    IERC20 private jEURToken;\r\n    IERC20 private USDCToken;\r\n    BlockSendToken private BKSDToken;\r\n    BlockSendStakingRewards private BKSDRewards;\r\n    mapping(address => uint256) public transferRewardsBalance;\r\n\r\n    address private WRAPPER_CONTRACT = 0xb07Cb016440331be4D2f532b20d892a420476AD0;\r\n    address private SYNTHEREUM_CONTRACT = 0x65a7b4Ff684C2d08c115D55a4B089bf4E92F5003;\r\n    address private EURE_TOKEN_CONTRACT = 0x18ec0A6E18E5bc3784fDd3a3634b31245ab704F6;\r\n    address private JEUR_TOKEN_CONTRACT = 0x4e3Decbb3645551B8A19f0eA1678079FCB33fB4c;\r\n    address private USDC_TOKEN_CONTRACT = 0x2791Bca1f2de4661ED88A30C99A7a9449Aa84174;\r\n\r\n    address private EUR_USD_AGGREGATOR = 0x73366Fe0AA0Ded304479862808e02506FE556a98;\r\n    address private USDC_USD_AGGREGATOR = 0xfE4A8cc5b5B2366C1B58Bea3858e81843581b2F7;\r\n\r\n    address private HUB2_WALLET = 0xeD85CAeb52C34bD35dfeEB2d4e0bC936a0Db0923;\r\n    address private BLOCKSEND_BACKEND = 0x913Cd67dA3b17be7f66E865158cDF9a5c4F2a850;\r\n    address private BLOCKSEND_WALLET = 0x7f3eE84Fd13D815ff1005B7904Cd67084D8f353F;\r\n    address private BLOCKSEND_REWARDS_CONTRACT = 0x7f3eE84Fd13D815ff1005B7904Cd67084D8f353F;\r\n\r\n    mapping(string => Remittance) public transfers;\r\n    struct Remittance {\r\n        address sender;\r\n        uint256 amount_EURe;\r\n        uint256 amount_jEUR;\r\n        uint256 amount_USDC;\r\n        uint256 rate_EUR_USDC;\r\n        uint256 userAmount_USDC;\r\n        uint256 blocksendAmount_USDC;\r\n        uint256 jarvisFees_USDC;\r\n        TransferStatus status;\r\n    }\r\n\r\n    enum TransferStatus {\r\n        INITIALIZED,\r\n        EURE_RECEIVED,\r\n        JEUR_WRAPPED,\r\n        USDC_RECEIVED,\r\n        USDC_SENT,\r\n        FINALIZED,\r\n        TRANSFER_STUCK\r\n    }\r\n\r\n    mapping(address => bool) private allowed;\r\n\r\n    event TransferInitilized(string transferId, uint256 amount);\r\n    event TransferFinalized(\r\n        string transferId,\r\n        uint256 userAmount,\r\n        uint256 blocksendAmount\r\n    );\r\n    event ClaimTransferRewardEvent(address user, uint256 tokenAmount);\r\n\r\n    modifier onlyAllowed() {\r\n        require(allowed[msg.sender], \"You're allowed to initiate a transfer\");\r\n        _;\r\n    }\r\n\r\n    constructor(address _BKSD_TOKEN_CONTRACT, address _BKSD_REWARDS_CONTRACT) {\r\n        allowed[BLOCKSEND_BACKEND] = true;\r\n        jarvisWrapper = IFixedRateWrapper(WRAPPER_CONTRACT);\r\n        jarvisSynthereum = ISynthereum(SYNTHEREUM_CONTRACT);\r\n        moneriumEURemoney = IERC20(EURE_TOKEN_CONTRACT);\r\n        jEURToken = IERC20(JEUR_TOKEN_CONTRACT);\r\n        USDCToken = IERC20(USDC_TOKEN_CONTRACT);\r\n        BKSDToken = BlockSendToken(_BKSD_TOKEN_CONTRACT);\r\n        BKSDRewards = BlockSendStakingRewards(_BKSD_REWARDS_CONTRACT);\r\n    }\r\n\r\n    /**\r\n     * @notice Iinitialise a transfer of an amount of EURe\r\n     * @notice First Step: On-Ramp:\r\n     * @notice 1- Transfer EURe from user's wallet\r\n     * @notice 2- Wrap EURe to jEUR (Jarvis wrapper)\r\n     * @notice 3- Get jEUR/USDC Rate (Aggregator Chainlink)\r\n     * @notice 4- Redeem USDC from jEUR (Jarvis Redeem)\r\n     * @notice Secod Step: Calculate 1,9% of fees\r\n     * @notice Third Step: Off-Ramp: Using HUB2\r\n     * @notice if any error: Sent money to users wallet back\r\n     * @param transferId Input parameters transferId\r\n     * @param amount Input parameters for for transfered amount\r\n     * @param userWallet Input parameters for user wallet\r\n     * @return ok a boolean value indicating whether the operation succeeded.\r\n     *\r\n     * Emits a {TransferStatusChanged} event with the current status of the transfer.\r\n     */\r\n    function initializeTransfer(\r\n        string calldata transferId,\r\n        address userWallet,\r\n        uint256 amount\r\n    ) external onlyAllowed returns (bool ok) {\r\n        // require(amount >= 5 * 10e17, \"insufficient amount\");\r\n\r\n        initilizeTransferData(transferId, userWallet, amount);\r\n\r\n        bool okGetEURe = transferFrom(transferId, userWallet, amount);\r\n        if (!okGetEURe) {\r\n            TransferStuck(transferId, userWallet, amount);\r\n            return false;\r\n        }\r\n\r\n        (bool okApproveWrap, uint256 amountJEUR) = routage_jEURfromEURe(\r\n            transferId,\r\n            amount,\r\n            amount\r\n        );\r\n        if (!okApproveWrap || amountJEUR == 0) {\r\n            TransferStuck(transferId, userWallet, amount);\r\n            return false;\r\n        }\r\n\r\n        (\r\n            bool okApprouveJEUR,\r\n            bool okApprouveUSDC,\r\n            uint256 collateralRedeemed,\r\n            uint256 feePaid\r\n        ) = routage_USDCfromjEUR(transferId, amountJEUR);\r\n        if (!okApprouveJEUR || !okApprouveUSDC || collateralRedeemed == 0) {\r\n            TransferStuck(transferId, userWallet, amount);\r\n            return false;\r\n        }\r\n\r\n        bool okTransferWallet = transferUSDC(\r\n            transferId,\r\n            collateralRedeemed,\r\n            feePaid\r\n        );\r\n        if (!okTransferWallet) {\r\n            TransferStuck(transferId, userWallet, amount);\r\n            return false;\r\n        }\r\n\r\n        transferRewardsBalance[userWallet] += (amount / 2);\r\n\r\n        finalizeTransfer(transferId);\r\n\r\n        return true;\r\n    }\r\n\r\n    function getMyTranferRewardsBalance() external view returns (uint256) {\r\n        return transferRewardsBalance[msg.sender];\r\n    }\r\n\r\n    function claimTransferRewards() external {\r\n        uint256 amount = transferRewardsBalance[msg.sender];\r\n        transferRewardsBalance[msg.sender] = 0;\r\n        BKSDToken.mint(address(this), amount);\r\n        BKSDToken.transfer(msg.sender, amount);\r\n        emit ClaimTransferRewardEvent(msg.sender, amount);\r\n    }\r\n\r\n    /**\r\n     * Returns the current status of a specific remmitance.\r\n     */\r\n    function getTransfer(\r\n        string calldata _transferId\r\n    )\r\n        external\r\n        view\r\n        virtual\r\n        returns (\r\n            address sender,\r\n            uint256 amount_EURe,\r\n            uint256 amount_jEUR,\r\n            uint256 amount_USDC,\r\n            uint256 rate_EUR_USDC,\r\n            uint256 userAmount_USDC,\r\n            uint256 blocksendAmount_USDC,\r\n            uint256 jarvisFees_USDC,\r\n            TransferStatus status\r\n        )\r\n    {\r\n        sender = transfers[_transferId].sender;\r\n        amount_EURe = transfers[_transferId].amount_EURe;\r\n        amount_jEUR = transfers[_transferId].amount_jEUR;\r\n        amount_USDC = transfers[_transferId].amount_USDC;\r\n        rate_EUR_USDC = transfers[_transferId].rate_EUR_USDC;\r\n        userAmount_USDC = transfers[_transferId].userAmount_USDC;\r\n        blocksendAmount_USDC = transfers[_transferId].blocksendAmount_USDC;\r\n        jarvisFees_USDC = transfers[_transferId].jarvisFees_USDC;\r\n        status = transfers[_transferId].status;\r\n    }\r\n\r\n    // *********************** Manage Status changed ************************************\r\n    function initilizeTransferData(\r\n        string calldata _transferId,\r\n        address _userWallet,\r\n        uint256 _amount\r\n    ) internal {\r\n        transfers[_transferId].sender = _userWallet;\r\n        transfers[_transferId].status = TransferStatus.INITIALIZED;\r\n\r\n        emit TransferInitilized(_transferId, _amount);\r\n    }\r\n\r\n    function finalizeTransfer(string calldata _transferId) internal {\r\n        transfers[_transferId].status = TransferStatus.FINALIZED;\r\n\r\n        emit TransferFinalized(\r\n            _transferId,\r\n            transfers[_transferId].userAmount_USDC,\r\n            transfers[_transferId].blocksendAmount_USDC\r\n        );\r\n    }\r\n\r\n    function amountReceived(\r\n        string calldata _transferId,\r\n        uint256 _amount\r\n    ) internal {\r\n        transfers[_transferId].status = TransferStatus.EURE_RECEIVED;\r\n        transfers[_transferId].amount_EURe = _amount;\r\n    }\r\n\r\n    function amountWrapped(\r\n        string calldata _transferId,\r\n        uint256 _amount\r\n    ) internal {\r\n        transfers[_transferId].status = TransferStatus.JEUR_WRAPPED;\r\n        transfers[_transferId].amount_jEUR = _amount;\r\n    }\r\n\r\n    function redeemCollateral(\r\n        string calldata _transferId,\r\n        uint256 _collateral,\r\n        uint256 _rate,\r\n        uint256 _feePaid\r\n    ) internal {\r\n        transfers[_transferId].status = TransferStatus.USDC_RECEIVED;\r\n        transfers[_transferId].amount_USDC = _collateral;\r\n        transfers[_transferId].rate_EUR_USDC = _rate;\r\n        transfers[_transferId].jarvisFees_USDC = _feePaid;\r\n    }\r\n\r\n    function collateralSent(\r\n        string calldata _transferId,\r\n        uint256 _userAmount,\r\n        uint256 _blockSendAmount\r\n    ) internal {\r\n        transfers[_transferId].status = TransferStatus.USDC_SENT;\r\n        transfers[_transferId].userAmount_USDC = _userAmount;\r\n        transfers[_transferId].blocksendAmount_USDC = _blockSendAmount;\r\n    }\r\n\r\n    function TransferStuck(\r\n        string calldata _transferId,\r\n        address _userWallet,\r\n        uint256 _amount\r\n    ) internal returns (bool ok) {\r\n        transfers[_transferId].status = TransferStatus.TRANSFER_STUCK;\r\n\r\n        ok = moneriumEURemoney.transfer(_userWallet, _amount);\r\n    }\r\n\r\n    // *********************************************************************************\r\n\r\n    // *********************** GET EURe from user's wallet *****************************\r\n    function transferFrom(\r\n        string calldata _transferId,\r\n        address _userWallet,\r\n        uint256 _amount\r\n    ) internal returns (bool ok) {\r\n        ok = moneriumEURemoney.transferFrom(\r\n            _userWallet,\r\n            address(this),\r\n            _amount\r\n        );\r\n\r\n        amountReceived(_transferId, _amount);\r\n    }\r\n\r\n    // *********************************************************************************\r\n\r\n    // *********************** Wrap EURe to JEUR ***************************************\r\n    function routage_jEURfromEURe(\r\n        string calldata _transferId,\r\n        uint256 _amount,\r\n        uint256 _collateral\r\n    ) internal returns (bool ok, uint256 amountTokens) {\r\n        ok = moneriumEURemoney.approve(WRAPPER_CONTRACT, _amount);\r\n        amountTokens = jarvisWrapper.wrap(_collateral, address(this));\r\n\r\n        amountWrapped(_transferId, amountTokens);\r\n    }\r\n\r\n    // *********************************************************************************\r\n\r\n    // *********************** Wurn & Mint (Redeem) UCDS from JEUR *********************\r\n    function routage_USDCfromjEUR(\r\n        string calldata _transferId,\r\n        uint256 _numToken\r\n    )\r\n        internal\r\n        returns (\r\n            bool okApprouveJEUR,\r\n            bool okApprouveUSDC,\r\n            uint256 collateralRedeemed,\r\n            uint256 feePaid\r\n        )\r\n    {\r\n        uint256 price = get_EUR_USD_LatestPrice();\r\n        uint256 collateralUSDC = uint256((_numToken * price) / 10e18);\r\n\r\n        okApprouveJEUR = jEURToken.approve(SYNTHEREUM_CONTRACT, _numToken);\r\n        okApprouveUSDC = USDCToken.approve(SYNTHEREUM_CONTRACT, collateralUSDC);\r\n\r\n        ISynthereum.RedeemParams memory params = ISynthereum.RedeemParams({\r\n            numTokens: _numToken,\r\n            minCollateral: collateralUSDC,\r\n            expiration: block.timestamp + 30,\r\n            recipient: address(this)\r\n        });\r\n\r\n        (collateralRedeemed, feePaid) = jarvisSynthereum.redeem(params);\r\n\r\n        redeemCollateral(_transferId, collateralRedeemed, price, feePaid);\r\n    }\r\n\r\n    // *********************************************************************************\r\n\r\n    // *********************** Transfer USDC to HUB2 Wallet & BlockSend Wallet *********\r\n    function transferUSDC(\r\n        string calldata _transferId,\r\n        uint256 _collateralRedeemed,\r\n        uint256 _feePaid\r\n    ) internal returns (bool ok) {\r\n        (uint256 blocksendAmount, uint256 userAmount, uint256 rewardsAmount) = calculateBlockSendFees(\r\n            _collateralRedeemed,\r\n            _feePaid\r\n        );\r\n\r\n        USDCToken.transfer(BLOCKSEND_WALLET, blocksendAmount);\r\n        USDCToken.transfer(BLOCKSEND_REWARDS_CONTRACT, rewardsAmount);\r\n        USDCToken.transfer(HUB2_WALLET, userAmount);\r\n\r\n        BKSDRewards.addRewards(rewardsAmount);\r\n\r\n        collateralSent(_transferId, userAmount, blocksendAmount);\r\n\r\n        return true;\r\n    }\r\n\r\n    // *********************************************************************************\r\n\r\n    // *********************** Calculate 1,9% fees *************************************\r\n    function calculateBlockSendFees(\r\n        uint256 _amount,\r\n        uint256 _feePaid\r\n    ) internal pure returns (uint256 blocksendAmount, uint256 userAmount, uint256 rewardsAmount) {\r\n        blocksendAmount = ((_amount * 14) / 1000) - _feePaid;\r\n        rewardsAmount = ((blocksendAmount * 18) / 100);\r\n        blocksendAmount -= rewardsAmount;\r\n        userAmount = _amount - blocksendAmount - rewardsAmount;\r\n    }\r\n\r\n    // *********************************************************************************\r\n\r\n    // *********************** Update Contracts Addresses ******************************\r\n    function setWrapperContract(address _newAddress) external onlyOwner {\r\n        WRAPPER_CONTRACT = _newAddress;\r\n        jarvisWrapper = IFixedRateWrapper(WRAPPER_CONTRACT);\r\n    }\r\n\r\n    function setSyntheriumContract(address _newAddress) external onlyOwner {\r\n        SYNTHEREUM_CONTRACT = _newAddress;\r\n        jarvisSynthereum = ISynthereum(SYNTHEREUM_CONTRACT);\r\n    }\r\n\r\n    function setEURETokenContract(address _newAddress) external onlyOwner {\r\n        EURE_TOKEN_CONTRACT = _newAddress;\r\n        moneriumEURemoney = IERC20(EURE_TOKEN_CONTRACT);\r\n    }\r\n\r\n    function setJEURToken_Contract(address _newAddress) external onlyOwner {\r\n        JEUR_TOKEN_CONTRACT = _newAddress;\r\n        jEURToken = IERC20(JEUR_TOKEN_CONTRACT);\r\n    }\r\n\r\n    function setUSDCTokenContract(address _newAddress) external onlyOwner {\r\n        USDC_TOKEN_CONTRACT = _newAddress;\r\n        USDCToken = IERC20(USDC_TOKEN_CONTRACT);\r\n    }\r\n\r\n    function setHUB2Wallet(address _newAddress) external onlyOwner {\r\n        HUB2_WALLET = _newAddress;\r\n    }\r\n\r\n    function setBlockSend_Wallet(address _newAddress) external onlyOwner {\r\n        BLOCKSEND_WALLET = _newAddress;\r\n    }\r\n\r\n    function AllowAddress(address _addr) external onlyOwner {\r\n        allowed[_addr] = true;\r\n    }\r\n\r\n    // *********************************************************************************\r\n\r\n    // *********************** Get the latest rate *************************************\r\n    function get_EUR_USD_LatestPrice() public view returns (uint256) {\r\n        (, int256 price, , , ) = AggregatorV3Interface(EUR_USD_AGGREGATOR)\r\n            .latestRoundData();\r\n        return uint256(price / 1000);\r\n    }\r\n\r\n    function get_USDC_USD_LatestPrice() public view returns (uint256) {\r\n        (, int256 price, , , ) = AggregatorV3Interface(USDC_USD_AGGREGATOR)\r\n            .latestRoundData();\r\n        return uint256(price / 1000);\r\n    }\r\n    // *********************************************************************************\r\n}\r\n",
  "sourcePath": "C:\\Users\\zguai\\Desktop\\Repos\\BlockSend\\truffle\\contracts\\BlockSendRouter.sol",
  "compiler": {
    "name": "solc",
    "version": "0.8.14+commit.80d49f37.Emscripten.clang"
  },
  "schemaVersion": "3.4.10",
  "updatedAt": "2022-12-12T08:52:25.611Z",
  "networkType": "ethereum",
  "devdoc": {
    "kind": "dev",
    "methods": {
      "initializeTransfer(string,address,uint256)": {
        "params": {
          "amount": "Input parameters for for transfered amount",
          "transferId": "Input parameters transferId",
          "userWallet": "Input parameters for user wallet"
        },
        "returns": {
          "ok": "a boolean value indicating whether the operation succeeded. Emits a {TransferStatusChanged} event with the current status of the transfer."
        }
      },
      "owner()": {
        "details": "Returns the address of the current owner."
      },
      "renounceOwnership()": {
        "details": "Leaves the contract without owner. It will not be possible to call `onlyOwner` functions anymore. Can only be called by the current owner. NOTE: Renouncing ownership will leave the contract without an owner, thereby removing any functionality that is only available to the owner."
      },
      "transferOwnership(address)": {
        "details": "Transfers ownership of the contract to a new account (`newOwner`). Can only be called by the current owner."
      }
    },
    "version": 1
  },
  "userdoc": {
    "kind": "user",
    "methods": {
      "getTransfer(string)": {
        "notice": "Returns the current status of a specific remmitance."
      },
      "initializeTransfer(string,address,uint256)": {
        "notice": "Iinitialise a transfer of an amount of EUReFirst Step: On-Ramp:1- Transfer EURe from user's wallet2- Wrap EURe to jEUR (Jarvis wrapper)3- Get jEUR/USDC Rate (Aggregator Chainlink)4- Redeem USDC from jEUR (Jarvis Redeem)Secod Step: Calculate 1,9% of feesThird Step: Off-Ramp: Using HUB2if any error: Sent money to users wallet back"
      }
    },
    "version": 1
  }
}