{
  "contractName": "BlockSendToken",
  "abi": [
    {
      "inputs": [],
      "stateMutability": "nonpayable",
      "type": "constructor"
    },
    {
      "anonymous": false,
      "inputs": [
        {
          "indexed": true,
          "internalType": "address",
          "name": "owner",
          "type": "address"
        },
        {
          "indexed": true,
          "internalType": "address",
          "name": "spender",
          "type": "address"
        },
        {
          "indexed": false,
          "internalType": "uint256",
          "name": "value",
          "type": "uint256"
        }
      ],
      "name": "Approval",
      "type": "event"
    },
    {
      "anonymous": false,
      "inputs": [
        {
          "indexed": true,
          "internalType": "address",
          "name": "previousOwner",
          "type": "address"
        },
        {
          "indexed": true,
          "internalType": "address",
          "name": "newOwner",
          "type": "address"
        }
      ],
      "name": "OwnershipTransferred",
      "type": "event"
    },
    {
      "anonymous": false,
      "inputs": [
        {
          "indexed": false,
          "internalType": "address",
          "name": "account",
          "type": "address"
        }
      ],
      "name": "Paused",
      "type": "event"
    },
    {
      "anonymous": false,
      "inputs": [
        {
          "indexed": true,
          "internalType": "address",
          "name": "from",
          "type": "address"
        },
        {
          "indexed": true,
          "internalType": "address",
          "name": "to",
          "type": "address"
        },
        {
          "indexed": false,
          "internalType": "uint256",
          "name": "value",
          "type": "uint256"
        }
      ],
      "name": "Transfer",
      "type": "event"
    },
    {
      "anonymous": false,
      "inputs": [
        {
          "indexed": false,
          "internalType": "address",
          "name": "account",
          "type": "address"
        }
      ],
      "name": "Unpaused",
      "type": "event"
    },
    {
      "inputs": [],
      "name": "DOMAIN_SEPARATOR",
      "outputs": [
        {
          "internalType": "bytes32",
          "name": "",
          "type": "bytes32"
        }
      ],
      "stateMutability": "view",
      "type": "function"
    },
    {
      "inputs": [
        {
          "internalType": "address",
          "name": "owner",
          "type": "address"
        },
        {
          "internalType": "address",
          "name": "spender",
          "type": "address"
        }
      ],
      "name": "allowance",
      "outputs": [
        {
          "internalType": "uint256",
          "name": "",
          "type": "uint256"
        }
      ],
      "stateMutability": "view",
      "type": "function"
    },
    {
      "inputs": [
        {
          "internalType": "address",
          "name": "spender",
          "type": "address"
        },
        {
          "internalType": "uint256",
          "name": "amount",
          "type": "uint256"
        }
      ],
      "name": "approve",
      "outputs": [
        {
          "internalType": "bool",
          "name": "",
          "type": "bool"
        }
      ],
      "stateMutability": "nonpayable",
      "type": "function"
    },
    {
      "inputs": [
        {
          "internalType": "address",
          "name": "account",
          "type": "address"
        }
      ],
      "name": "balanceOf",
      "outputs": [
        {
          "internalType": "uint256",
          "name": "",
          "type": "uint256"
        }
      ],
      "stateMutability": "view",
      "type": "function"
    },
    {
      "inputs": [
        {
          "internalType": "uint256",
          "name": "amount",
          "type": "uint256"
        }
      ],
      "name": "burn",
      "outputs": [],
      "stateMutability": "nonpayable",
      "type": "function"
    },
    {
      "inputs": [
        {
          "internalType": "address",
          "name": "account",
          "type": "address"
        },
        {
          "internalType": "uint256",
          "name": "amount",
          "type": "uint256"
        }
      ],
      "name": "burnFrom",
      "outputs": [],
      "stateMutability": "nonpayable",
      "type": "function"
    },
    {
      "inputs": [],
      "name": "decimals",
      "outputs": [
        {
          "internalType": "uint8",
          "name": "",
          "type": "uint8"
        }
      ],
      "stateMutability": "view",
      "type": "function"
    },
    {
      "inputs": [
        {
          "internalType": "address",
          "name": "spender",
          "type": "address"
        },
        {
          "internalType": "uint256",
          "name": "subtractedValue",
          "type": "uint256"
        }
      ],
      "name": "decreaseAllowance",
      "outputs": [
        {
          "internalType": "bool",
          "name": "",
          "type": "bool"
        }
      ],
      "stateMutability": "nonpayable",
      "type": "function"
    },
    {
      "inputs": [
        {
          "internalType": "address",
          "name": "spender",
          "type": "address"
        },
        {
          "internalType": "uint256",
          "name": "addedValue",
          "type": "uint256"
        }
      ],
      "name": "increaseAllowance",
      "outputs": [
        {
          "internalType": "bool",
          "name": "",
          "type": "bool"
        }
      ],
      "stateMutability": "nonpayable",
      "type": "function"
    },
    {
      "inputs": [],
      "name": "name",
      "outputs": [
        {
          "internalType": "string",
          "name": "",
          "type": "string"
        }
      ],
      "stateMutability": "view",
      "type": "function"
    },
    {
      "inputs": [
        {
          "internalType": "address",
          "name": "owner",
          "type": "address"
        }
      ],
      "name": "nonces",
      "outputs": [
        {
          "internalType": "uint256",
          "name": "",
          "type": "uint256"
        }
      ],
      "stateMutability": "view",
      "type": "function"
    },
    {
      "inputs": [],
      "name": "owner",
      "outputs": [
        {
          "internalType": "address",
          "name": "",
          "type": "address"
        }
      ],
      "stateMutability": "view",
      "type": "function"
    },
    {
      "inputs": [],
      "name": "paused",
      "outputs": [
        {
          "internalType": "bool",
          "name": "",
          "type": "bool"
        }
      ],
      "stateMutability": "view",
      "type": "function"
    },
    {
      "inputs": [
        {
          "internalType": "address",
          "name": "owner",
          "type": "address"
        },
        {
          "internalType": "address",
          "name": "spender",
          "type": "address"
        },
        {
          "internalType": "uint256",
          "name": "value",
          "type": "uint256"
        },
        {
          "internalType": "uint256",
          "name": "deadline",
          "type": "uint256"
        },
        {
          "internalType": "uint8",
          "name": "v",
          "type": "uint8"
        },
        {
          "internalType": "bytes32",
          "name": "r",
          "type": "bytes32"
        },
        {
          "internalType": "bytes32",
          "name": "s",
          "type": "bytes32"
        }
      ],
      "name": "permit",
      "outputs": [],
      "stateMutability": "nonpayable",
      "type": "function"
    },
    {
      "inputs": [],
      "name": "renounceOwnership",
      "outputs": [],
      "stateMutability": "nonpayable",
      "type": "function"
    },
    {
      "inputs": [],
      "name": "symbol",
      "outputs": [
        {
          "internalType": "string",
          "name": "",
          "type": "string"
        }
      ],
      "stateMutability": "view",
      "type": "function"
    },
    {
      "inputs": [],
      "name": "totalSupply",
      "outputs": [
        {
          "internalType": "uint256",
          "name": "",
          "type": "uint256"
        }
      ],
      "stateMutability": "view",
      "type": "function"
    },
    {
      "inputs": [
        {
          "internalType": "address",
          "name": "to",
          "type": "address"
        },
        {
          "internalType": "uint256",
          "name": "amount",
          "type": "uint256"
        }
      ],
      "name": "transfer",
      "outputs": [
        {
          "internalType": "bool",
          "name": "",
          "type": "bool"
        }
      ],
      "stateMutability": "nonpayable",
      "type": "function"
    },
    {
      "inputs": [
        {
          "internalType": "address",
          "name": "from",
          "type": "address"
        },
        {
          "internalType": "address",
          "name": "to",
          "type": "address"
        },
        {
          "internalType": "uint256",
          "name": "amount",
          "type": "uint256"
        }
      ],
      "name": "transferFrom",
      "outputs": [
        {
          "internalType": "bool",
          "name": "",
          "type": "bool"
        }
      ],
      "stateMutability": "nonpayable",
      "type": "function"
    },
    {
      "inputs": [
        {
          "internalType": "address",
          "name": "newOwner",
          "type": "address"
        }
      ],
      "name": "transferOwnership",
      "outputs": [],
      "stateMutability": "nonpayable",
      "type": "function"
    },
    {
      "inputs": [],
      "name": "pause",
      "outputs": [],
      "stateMutability": "nonpayable",
      "type": "function"
    },
    {
      "inputs": [],
      "name": "unpause",
      "outputs": [],
      "stateMutability": "nonpayable",
      "type": "function"
    },
    {
      "inputs": [
        {
          "internalType": "address",
          "name": "to",
          "type": "address"
        },
        {
          "internalType": "uint256",
          "name": "amount",
          "type": "uint256"
        }
      ],
      "name": "mint",
      "outputs": [],
      "stateMutability": "nonpayable",
      "type": "function"
    }
  ],
  "bytecode": "0x6101406040523480156200001257600080fd5b506040518060400160405280600e81526020017f426c6f636b53656e64546f6b656e000000000000000000000000000000000000815250806040518060400160405280600181526020017f31000000000000000000000000000000000000000000000000000000000000008152506040518060400160405280600e81526020017f426c6f636b53656e64546f6b656e0000000000000000000000000000000000008152506040518060400160405280600481526020017f424b5344000000000000000000000000000000000000000000000000000000008152508160039080519060200190620001049291906200031e565b5080600490805190602001906200011d9291906200031e565b5050506000600560006101000a81548160ff0219169083151502179055506200015b6200014f6200021460201b60201c565b6200021c60201b60201c565b60008280519060200120905060008280519060200120905060007f8b73c3c69bb8fe3d512ecc4cf759cc79239f7b179b0ffacaa9a75d522b39400f90508260e081815250508161010081815250504660a08181525050620001c4818484620002e260201b60201c565b608081815250503073ffffffffffffffffffffffffffffffffffffffff1660c08173ffffffffffffffffffffffffffffffffffffffff16815250508061012081815250505050505050506200050a565b600033905090565b6000600560019054906101000a900473ffffffffffffffffffffffffffffffffffffffff16905081600560016101000a81548173ffffffffffffffffffffffffffffffffffffffff021916908373ffffffffffffffffffffffffffffffffffffffff1602179055508173ffffffffffffffffffffffffffffffffffffffff168173ffffffffffffffffffffffffffffffffffffffff167f8be0079c531659141344cd1fd0a4f28419497f9722a3daafe3b4186f6b6457e060405160405180910390a35050565b60008383834630604051602001620002ff95949392919062000449565b6040516020818303038152906040528051906020012090509392505050565b8280546200032c90620004d5565b90600052602060002090601f0160209004810192826200035057600085556200039c565b82601f106200036b57805160ff19168380011785556200039c565b828001600101855582156200039c579182015b828111156200039b5782518255916020019190600101906200037e565b5b509050620003ab9190620003af565b5090565b5b80821115620003ca576000816000905550600101620003b0565b5090565b6000819050919050565b620003e381620003ce565b82525050565b6000819050919050565b620003fe81620003e9565b82525050565b600073ffffffffffffffffffffffffffffffffffffffff82169050919050565b6000620004318262000404565b9050919050565b620004438162000424565b82525050565b600060a082019050620004606000830188620003d8565b6200046f6020830187620003d8565b6200047e6040830186620003d8565b6200048d6060830185620003f3565b6200049c608083018462000438565b9695505050505050565b7f4e487b7100000000000000000000000000000000000000000000000000000000600052602260045260246000fd5b60006002820490506001821680620004ee57607f821691505b602082108103620005045762000503620004a6565b5b50919050565b60805160a05160c05160e0516101005161012051612a736200055a6000396000610fdf015260006110210152600061100001526000610f3501526000610f8b01526000610fb40152612a736000f3fe608060405234801561001057600080fd5b506004361061014d5760003560e01c806370a08231116100c357806395d89b411161007c57806395d89b4114610368578063a457c2d714610386578063a9059cbb146103b6578063d505accf146103e6578063dd62ed3e14610402578063f2fde38b146104325761014d565b806370a08231146102ba578063715018a6146102ea57806379cc6790146102f45780637ecebe00146103105780638456cb59146103405780638da5cb5b1461034a5761014d565b80633644e515116101155780633644e5151461020c578063395093511461022a5780633f4ba83a1461025a57806340c10f191461026457806342966c68146102805780635c975abb1461029c5761014d565b806306fdde0314610152578063095ea7b31461017057806318160ddd146101a057806323b872dd146101be578063313ce567146101ee575b600080fd5b61015a61044e565b6040516101679190611a2a565b60405180910390f35b61018a60048036038101906101859190611ae5565b6104e0565b6040516101979190611b40565b60405180910390f35b6101a8610503565b6040516101b59190611b6a565b60405180910390f35b6101d860048036038101906101d39190611b85565b61050d565b6040516101e59190611b40565b60405180910390f35b6101f661053c565b6040516102039190611bf4565b60405180910390f35b610214610545565b6040516102219190611c28565b60405180910390f35b610244600480360381019061023f9190611ae5565b610554565b6040516102519190611b40565b60405180910390f35b61026261058b565b005b61027e60048036038101906102799190611ae5565b61059d565b005b61029a60048036038101906102959190611c43565b6105b3565b005b6102a46105c7565b6040516102b19190611b40565b60405180910390f35b6102d460048036038101906102cf9190611c70565b6105de565b6040516102e19190611b6a565b60405180910390f35b6102f2610626565b005b61030e60048036038101906103099190611ae5565b61063a565b005b61032a60048036038101906103259190611c70565b61065a565b6040516103379190611b6a565b60405180910390f35b6103486106aa565b005b6103526106bc565b60405161035f9190611cac565b60405180910390f35b6103706106e6565b60405161037d9190611a2a565b60405180910390f35b6103a0600480360381019061039b9190611ae5565b610778565b6040516103ad9190611b40565b60405180910390f35b6103d060048036038101906103cb9190611ae5565b6107ef565b6040516103dd9190611b40565b60405180910390f35b61040060048036038101906103fb9190611d1f565b610812565b005b61041c60048036038101906104179190611dc1565b610954565b6040516104299190611b6a565b60405180910390f35b61044c60048036038101906104479190611c70565b6109db565b005b60606003805461045d90611e30565b80601f016020809104026020016040519081016040528092919081815260200182805461048990611e30565b80156104d65780601f106104ab576101008083540402835291602001916104d6565b820191906000526020600020905b8154815290600101906020018083116104b957829003601f168201915b5050505050905090565b6000806104eb610a5e565b90506104f8818585610a66565b600191505092915050565b6000600254905090565b600080610518610a5e565b9050610525858285610c2f565b610530858585610cbb565b60019150509392505050565b60006012905090565b600061054f610f31565b905090565b60008061055f610a5e565b90506105808185856105718589610954565b61057b9190611e90565b610a66565b600191505092915050565b61059361104b565b61059b6110c9565b565b6105a561104b565b6105af828261112c565b5050565b6105c46105be610a5e565b82611282565b50565b6000600560009054906101000a900460ff16905090565b60008060008373ffffffffffffffffffffffffffffffffffffffff1673ffffffffffffffffffffffffffffffffffffffff168152602001908152602001600020549050919050565b61062e61104b565b610638600061144f565b565b61064c82610646610a5e565b83610c2f565b6106568282611282565b5050565b60006106a3600660008473ffffffffffffffffffffffffffffffffffffffff1673ffffffffffffffffffffffffffffffffffffffff168152602001908152602001600020611515565b9050919050565b6106b261104b565b6106ba611523565b565b6000600560019054906101000a900473ffffffffffffffffffffffffffffffffffffffff16905090565b6060600480546106f590611e30565b80601f016020809104026020016040519081016040528092919081815260200182805461072190611e30565b801561076e5780601f106107435761010080835404028352916020019161076e565b820191906000526020600020905b81548152906001019060200180831161075157829003601f168201915b5050505050905090565b600080610783610a5e565b905060006107918286610954565b9050838110156107d6576040517f08c379a00000000000000000000000000000000000000000000000000000000081526004016107cd90611f58565b60405180910390fd5b6107e38286868403610a66565b60019250505092915050565b6000806107fa610a5e565b9050610807818585610cbb565b600191505092915050565b83421115610855576040517f08c379a000000000000000000000000000000000000000000000000000000000815260040161084c90611fc4565b60405180910390fd5b60007f6e71edae12b1b97f4d1f60370fef10105fa2faae0126114a169c64845d6126c98888886108848c611586565b8960405160200161089a96959493929190611fe4565b60405160208183030381529060405280519060200120905060006108bd826115e4565b905060006108cd828787876115fe565b90508973ffffffffffffffffffffffffffffffffffffffff168173ffffffffffffffffffffffffffffffffffffffff161461093d576040517f08c379a000000000000000000000000000000000000000000000000000000000815260040161093490612091565b60405180910390fd5b6109488a8a8a610a66565b50505050505050505050565b6000600160008473ffffffffffffffffffffffffffffffffffffffff1673ffffffffffffffffffffffffffffffffffffffff16815260200190815260200160002060008373ffffffffffffffffffffffffffffffffffffffff1673ffffffffffffffffffffffffffffffffffffffff16815260200190815260200160002054905092915050565b6109e361104b565b600073ffffffffffffffffffffffffffffffffffffffff168173ffffffffffffffffffffffffffffffffffffffff1603610a52576040517f08c379a0000000000000000000000000000000000000000000000000000000008152600401610a4990612123565b60405180910390fd5b610a5b8161144f565b50565b600033905090565b600073ffffffffffffffffffffffffffffffffffffffff168373ffffffffffffffffffffffffffffffffffffffff1603610ad5576040517f08c379a0000000000000000000000000000000000000000000000000000000008152600401610acc906121b5565b60405180910390fd5b600073ffffffffffffffffffffffffffffffffffffffff168273ffffffffffffffffffffffffffffffffffffffff1603610b44576040517f08c379a0000000000000000000000000000000000000000000000000000000008152600401610b3b90612247565b60405180910390fd5b80600160008573ffffffffffffffffffffffffffffffffffffffff1673ffffffffffffffffffffffffffffffffffffffff16815260200190815260200160002060008473ffffffffffffffffffffffffffffffffffffffff1673ffffffffffffffffffffffffffffffffffffffff168152602001908152602001600020819055508173ffffffffffffffffffffffffffffffffffffffff168373ffffffffffffffffffffffffffffffffffffffff167f8c5be1e5ebec7d5bd14f71427d1e84f3dd0314c0f7b2291e5b200ac8c7c3b92583604051610c229190611b6a565b60405180910390a3505050565b6000610c3b8484610954565b90507fffffffffffffffffffffffffffffffffffffffffffffffffffffffffffffffff8114610cb55781811015610ca7576040517f08c379a0000000000000000000000000000000000000000000000000000000008152600401610c9e906122b3565b60405180910390fd5b610cb48484848403610a66565b5b50505050565b600073ffffffffffffffffffffffffffffffffffffffff168373ffffffffffffffffffffffffffffffffffffffff1603610d2a576040517f08c379a0000000000000000000000000000000000000000000000000000000008152600401610d2190612345565b60405180910390fd5b600073ffffffffffffffffffffffffffffffffffffffff168273ffffffffffffffffffffffffffffffffffffffff1603610d99576040517f08c379a0000000000000000000000000000000000000000000000000000000008152600401610d90906123d7565b60405180910390fd5b610da4838383611629565b60008060008573ffffffffffffffffffffffffffffffffffffffff1673ffffffffffffffffffffffffffffffffffffffff16815260200190815260200160002054905081811015610e2a576040517f08c379a0000000000000000000000000000000000000000000000000000000008152600401610e2190612469565b60405180910390fd5b8181036000808673ffffffffffffffffffffffffffffffffffffffff1673ffffffffffffffffffffffffffffffffffffffff16815260200190815260200160002081905550816000808573ffffffffffffffffffffffffffffffffffffffff1673ffffffffffffffffffffffffffffffffffffffff168152602001908152602001600020600082825401925050819055508273ffffffffffffffffffffffffffffffffffffffff168473ffffffffffffffffffffffffffffffffffffffff167fddf252ad1be2c89b69c2b068fc378daa952ba7f163c4a11628f55a4df523b3ef84604051610f189190611b6a565b60405180910390a3610f2b84848461162e565b50505050565b60007f000000000000000000000000000000000000000000000000000000000000000073ffffffffffffffffffffffffffffffffffffffff163073ffffffffffffffffffffffffffffffffffffffff16148015610fad57507f000000000000000000000000000000000000000000000000000000000000000046145b15610fda577f00000000000000000000000000000000000000000000000000000000000000009050611048565b6110457f00000000000000000000000000000000000000000000000000000000000000007f00000000000000000000000000000000000000000000000000000000000000007f0000000000000000000000000000000000000000000000000000000000000000611633565b90505b90565b611053610a5e565b73ffffffffffffffffffffffffffffffffffffffff166110716106bc565b73ffffffffffffffffffffffffffffffffffffffff16146110c7576040517f08c379a00000000000000000000000000000000000000000000000000000000081526004016110be906124d5565b60405180910390fd5b565b6110d161166d565b6000600560006101000a81548160ff0219169083151502179055507f5db9ee0a495bf2e6ff9c91a7834c1ba4fdd244a5e8aa4e537bd38aeae4b073aa611115610a5e565b6040516111229190611cac565b60405180910390a1565b600073ffffffffffffffffffffffffffffffffffffffff168273ffffffffffffffffffffffffffffffffffffffff160361119b576040517f08c379a000000000000000000000000000000000000000000000000000000000815260040161119290612541565b60405180910390fd5b6111a760008383611629565b80600260008282546111b99190611e90565b92505081905550806000808473ffffffffffffffffffffffffffffffffffffffff1673ffffffffffffffffffffffffffffffffffffffff168152602001908152602001600020600082825401925050819055508173ffffffffffffffffffffffffffffffffffffffff16600073ffffffffffffffffffffffffffffffffffffffff167fddf252ad1be2c89b69c2b068fc378daa952ba7f163c4a11628f55a4df523b3ef8360405161126a9190611b6a565b60405180910390a361127e6000838361162e565b5050565b600073ffffffffffffffffffffffffffffffffffffffff168273ffffffffffffffffffffffffffffffffffffffff16036112f1576040517f08c379a00000000000000000000000000000000000000000000000000000000081526004016112e8906125d3565b60405180910390fd5b6112fd82600083611629565b60008060008473ffffffffffffffffffffffffffffffffffffffff1673ffffffffffffffffffffffffffffffffffffffff16815260200190815260200160002054905081811015611383576040517f08c379a000000000000000000000000000000000000000000000000000000000815260040161137a90612665565b60405180910390fd5b8181036000808573ffffffffffffffffffffffffffffffffffffffff1673ffffffffffffffffffffffffffffffffffffffff1681526020019081526020016000208190555081600260008282540392505081905550600073ffffffffffffffffffffffffffffffffffffffff168373ffffffffffffffffffffffffffffffffffffffff167fddf252ad1be2c89b69c2b068fc378daa952ba7f163c4a11628f55a4df523b3ef846040516114369190611b6a565b60405180910390a361144a8360008461162e565b505050565b6000600560019054906101000a900473ffffffffffffffffffffffffffffffffffffffff16905081600560016101000a81548173ffffffffffffffffffffffffffffffffffffffff021916908373ffffffffffffffffffffffffffffffffffffffff1602179055508173ffffffffffffffffffffffffffffffffffffffff168173ffffffffffffffffffffffffffffffffffffffff167f8be0079c531659141344cd1fd0a4f28419497f9722a3daafe3b4186f6b6457e060405160405180910390a35050565b600081600001549050919050565b61152b6116b6565b6001600560006101000a81548160ff0219169083151502179055507f62e78cea01bee320cd4e420270b5ea74000d11b0c9f74754ebdbfc544b05a25861156f610a5e565b60405161157c9190611cac565b60405180910390a1565b600080600660008473ffffffffffffffffffffffffffffffffffffffff1673ffffffffffffffffffffffffffffffffffffffff16815260200190815260200160002090506115d381611515565b91506115de81611700565b50919050565b60006115f76115f1610f31565b83611716565b9050919050565b600080600061160f87878787611749565b9150915061161c8161182b565b8192505050949350505050565b505050565b505050565b6000838383463060405160200161164e959493929190612685565b6040516020818303038152906040528051906020012090509392505050565b6116756105c7565b6116b4576040517f08c379a00000000000000000000000000000000000000000000000000000000081526004016116ab90612724565b60405180910390fd5b565b6116be6105c7565b156116fe576040517f08c379a00000000000000000000000000000000000000000000000000000000081526004016116f590612790565b60405180910390fd5b565b6001816000016000828254019250508190555050565b6000828260405160200161172b929190612828565b60405160208183030381529060405280519060200120905092915050565b6000807f7fffffffffffffffffffffffffffffff5d576e7357a4501ddfe92f46681b20a08360001c1115611784576000600391509150611822565b6000600187878787604051600081526020016040526040516117a9949392919061285f565b6020604051602081039080840390855afa1580156117cb573d6000803e3d6000fd5b505050602060405103519050600073ffffffffffffffffffffffffffffffffffffffff168173ffffffffffffffffffffffffffffffffffffffff160361181957600060019250925050611822565b80600092509250505b94509492505050565b6000600481111561183f5761183e6128a4565b5b816004811115611852576118516128a4565b5b031561198e576001600481111561186c5761186b6128a4565b5b81600481111561187f5761187e6128a4565b5b036118bf576040517f08c379a00000000000000000000000000000000000000000000000000000000081526004016118b69061291f565b60405180910390fd5b600260048111156118d3576118d26128a4565b5b8160048111156118e6576118e56128a4565b5b03611926576040517f08c379a000000000000000000000000000000000000000000000000000000000815260040161191d9061298b565b60405180910390fd5b6003600481111561193a576119396128a4565b5b81600481111561194d5761194c6128a4565b5b0361198d576040517f08c379a000000000000000000000000000000000000000000000000000000000815260040161198490612a1d565b60405180910390fd5b5b50565b600081519050919050565b600082825260208201905092915050565b60005b838110156119cb5780820151818401526020810190506119b0565b838111156119da576000848401525b50505050565b6000601f19601f8301169050919050565b60006119fc82611991565b611a06818561199c565b9350611a168185602086016119ad565b611a1f816119e0565b840191505092915050565b60006020820190508181036000830152611a4481846119f1565b905092915050565b600080fd5b600073ffffffffffffffffffffffffffffffffffffffff82169050919050565b6000611a7c82611a51565b9050919050565b611a8c81611a71565b8114611a9757600080fd5b50565b600081359050611aa981611a83565b92915050565b6000819050919050565b611ac281611aaf565b8114611acd57600080fd5b50565b600081359050611adf81611ab9565b92915050565b60008060408385031215611afc57611afb611a4c565b5b6000611b0a85828601611a9a565b9250506020611b1b85828601611ad0565b9150509250929050565b60008115159050919050565b611b3a81611b25565b82525050565b6000602082019050611b556000830184611b31565b92915050565b611b6481611aaf565b82525050565b6000602082019050611b7f6000830184611b5b565b92915050565b600080600060608486031215611b9e57611b9d611a4c565b5b6000611bac86828701611a9a565b9350506020611bbd86828701611a9a565b9250506040611bce86828701611ad0565b9150509250925092565b600060ff82169050919050565b611bee81611bd8565b82525050565b6000602082019050611c096000830184611be5565b92915050565b6000819050919050565b611c2281611c0f565b82525050565b6000602082019050611c3d6000830184611c19565b92915050565b600060208284031215611c5957611c58611a4c565b5b6000611c6784828501611ad0565b91505092915050565b600060208284031215611c8657611c85611a4c565b5b6000611c9484828501611a9a565b91505092915050565b611ca681611a71565b82525050565b6000602082019050611cc16000830184611c9d565b92915050565b611cd081611bd8565b8114611cdb57600080fd5b50565b600081359050611ced81611cc7565b92915050565b611cfc81611c0f565b8114611d0757600080fd5b50565b600081359050611d1981611cf3565b92915050565b600080600080600080600060e0888a031215611d3e57611d3d611a4c565b5b6000611d4c8a828b01611a9a565b9750506020611d5d8a828b01611a9a565b9650506040611d6e8a828b01611ad0565b9550506060611d7f8a828b01611ad0565b9450506080611d908a828b01611cde565b93505060a0611da18a828b01611d0a565b92505060c0611db28a828b01611d0a565b91505092959891949750929550565b60008060408385031215611dd857611dd7611a4c565b5b6000611de685828601611a9a565b9250506020611df785828601611a9a565b9150509250929050565b7f4e487b7100000000000000000000000000000000000000000000000000000000600052602260045260246000fd5b60006002820490506001821680611e4857607f821691505b602082108103611e5b57611e5a611e01565b5b50919050565b7f4e487b7100000000000000000000000000000000000000000000000000000000600052601160045260246000fd5b6000611e9b82611aaf565b9150611ea683611aaf565b9250827fffffffffffffffffffffffffffffffffffffffffffffffffffffffffffffffff03821115611edb57611eda611e61565b5b828201905092915050565b7f45524332303a2064656372656173656420616c6c6f77616e63652062656c6f7760008201527f207a65726f000000000000000000000000000000000000000000000000000000602082015250565b6000611f4260258361199c565b9150611f4d82611ee6565b604082019050919050565b60006020820190508181036000830152611f7181611f35565b9050919050565b7f45524332305065726d69743a206578706972656420646561646c696e65000000600082015250565b6000611fae601d8361199c565b9150611fb982611f78565b602082019050919050565b60006020820190508181036000830152611fdd81611fa1565b9050919050565b600060c082019050611ff96000830189611c19565b6120066020830188611c9d565b6120136040830187611c9d565b6120206060830186611b5b565b61202d6080830185611b5b565b61203a60a0830184611b5b565b979650505050505050565b7f45524332305065726d69743a20696e76616c6964207369676e61747572650000600082015250565b600061207b601e8361199c565b915061208682612045565b602082019050919050565b600060208201905081810360008301526120aa8161206e565b9050919050565b7f4f776e61626c653a206e6577206f776e657220697320746865207a65726f206160008201527f6464726573730000000000000000000000000000000000000000000000000000602082015250565b600061210d60268361199c565b9150612118826120b1565b604082019050919050565b6000602082019050818103600083015261213c81612100565b9050919050565b7f45524332303a20617070726f76652066726f6d20746865207a65726f2061646460008201527f7265737300000000000000000000000000000000000000000000000000000000602082015250565b600061219f60248361199c565b91506121aa82612143565b604082019050919050565b600060208201905081810360008301526121ce81612192565b9050919050565b7f45524332303a20617070726f766520746f20746865207a65726f20616464726560008201527f7373000000000000000000000000000000000000000000000000000000000000602082015250565b600061223160228361199c565b915061223c826121d5565b604082019050919050565b6000602082019050818103600083015261226081612224565b9050919050565b7f45524332303a20696e73756666696369656e7420616c6c6f77616e6365000000600082015250565b600061229d601d8361199c565b91506122a882612267565b602082019050919050565b600060208201905081810360008301526122cc81612290565b9050919050565b7f45524332303a207472616e736665722066726f6d20746865207a65726f20616460008201527f6472657373000000000000000000000000000000000000000000000000000000602082015250565b600061232f60258361199c565b915061233a826122d3565b604082019050919050565b6000602082019050818103600083015261235e81612322565b9050919050565b7f45524332303a207472616e7366657220746f20746865207a65726f206164647260008201527f6573730000000000000000000000000000000000000000000000000000000000602082015250565b60006123c160238361199c565b91506123cc82612365565b604082019050919050565b600060208201905081810360008301526123f0816123b4565b9050919050565b7f45524332303a207472616e7366657220616d6f756e742065786365656473206260008201527f616c616e63650000000000000000000000000000000000000000000000000000602082015250565b600061245360268361199c565b915061245e826123f7565b604082019050919050565b6000602082019050818103600083015261248281612446565b9050919050565b7f4f776e61626c653a2063616c6c6572206973206e6f7420746865206f776e6572600082015250565b60006124bf60208361199c565b91506124ca82612489565b602082019050919050565b600060208201905081810360008301526124ee816124b2565b9050919050565b7f45524332303a206d696e7420746f20746865207a65726f206164647265737300600082015250565b600061252b601f8361199c565b9150612536826124f5565b602082019050919050565b6000602082019050818103600083015261255a8161251e565b9050919050565b7f45524332303a206275726e2066726f6d20746865207a65726f2061646472657360008201527f7300000000000000000000000000000000000000000000000000000000000000602082015250565b60006125bd60218361199c565b91506125c882612561565b604082019050919050565b600060208201905081810360008301526125ec816125b0565b9050919050565b7f45524332303a206275726e20616d6f756e7420657863656564732062616c616e60008201527f6365000000000000000000000000000000000000000000000000000000000000602082015250565b600061264f60228361199c565b915061265a826125f3565b604082019050919050565b6000602082019050818103600083015261267e81612642565b9050919050565b600060a08201905061269a6000830188611c19565b6126a76020830187611c19565b6126b46040830186611c19565b6126c16060830185611b5b565b6126ce6080830184611c9d565b9695505050505050565b7f5061757361626c653a206e6f7420706175736564000000000000000000000000600082015250565b600061270e60148361199c565b9150612719826126d8565b602082019050919050565b6000602082019050818103600083015261273d81612701565b9050919050565b7f5061757361626c653a2070617573656400000000000000000000000000000000600082015250565b600061277a60108361199c565b915061278582612744565b602082019050919050565b600060208201905081810360008301526127a98161276d565b9050919050565b600081905092915050565b7f1901000000000000000000000000000000000000000000000000000000000000600082015250565b60006127f16002836127b0565b91506127fc826127bb565b600282019050919050565b6000819050919050565b61282261281d82611c0f565b612807565b82525050565b6000612833826127e4565b915061283f8285612811565b60208201915061284f8284612811565b6020820191508190509392505050565b60006080820190506128746000830187611c19565b6128816020830186611be5565b61288e6040830185611c19565b61289b6060830184611c19565b95945050505050565b7f4e487b7100000000000000000000000000000000000000000000000000000000600052602160045260246000fd5b7f45434453413a20696e76616c6964207369676e61747572650000000000000000600082015250565b600061290960188361199c565b9150612914826128d3565b602082019050919050565b60006020820190508181036000830152612938816128fc565b9050919050565b7f45434453413a20696e76616c6964207369676e6174757265206c656e67746800600082015250565b6000612975601f8361199c565b91506129808261293f565b602082019050919050565b600060208201905081810360008301526129a481612968565b9050919050565b7f45434453413a20696e76616c6964207369676e6174757265202773272076616c60008201527f7565000000000000000000000000000000000000000000000000000000000000602082015250565b6000612a0760228361199c565b9150612a12826129ab565b604082019050919050565b60006020820190508181036000830152612a36816129fa565b905091905056fea2646970667358221220052c6a30762f1c93eb841a54a6ef8f8fc6fe9db1e85bcb5600103f74b58ba44064736f6c634300080e0033",
  "immutableReferences": {
    "2900": [
      {
        "length": 32,
        "start": 4020
      }
    ],
    "2902": [
      {
        "length": 32,
        "start": 3979
      }
    ],
    "2904": [
      {
        "length": 32,
        "start": 3893
      }
    ],
    "2906": [
      {
        "length": 32,
        "start": 4096
      }
    ],
    "2908": [
      {
        "length": 32,
        "start": 4129
      }
    ],
    "2910": [
      {
        "length": 32,
        "start": 4063
      }
    ]
  },
  "source": "// SPDX-License-Identifier: MIT\r\npragma solidity ^0.8.9;\r\n\r\nimport \"../node_modules/@openzeppelin/contracts/token/ERC20/ERC20.sol\";\r\nimport \"../node_modules/@openzeppelin/contracts/token/ERC20/extensions/ERC20Burnable.sol\";\r\nimport \"../node_modules/@openzeppelin/contracts/security/Pausable.sol\";\r\nimport \"../node_modules/@openzeppelin/contracts/access/Ownable.sol\";\r\nimport \"../node_modules/@openzeppelin/contracts/token/ERC20/extensions/draft-ERC20Permit.sol\";\r\n\r\ncontract BlockSendToken is ERC20, ERC20Burnable, Pausable, Ownable, ERC20Permit {\r\n    constructor() ERC20(\"BlockSendToken\", \"BKSD\") ERC20Permit(\"BlockSendToken\") {}\r\n\r\n    function pause() public onlyOwner {\r\n        _pause();\r\n    }\r\n\r\n    function unpause() public onlyOwner {\r\n        _unpause();\r\n    }\r\n\r\n    function mint(address to, uint256 amount) public onlyOwner {\r\n        _mint(to, amount);\r\n    }\r\n}",
  "sourcePath": "C:\\Users\\zguai\\Desktop\\Repos\\BlockSend\\truffle\\contracts\\BlockSendToken.sol",
  "compiler": {
    "name": "solc",
    "version": "0.8.14+commit.80d49f37.Emscripten.clang"
  },
  "schemaVersion": "3.4.10",
  "updatedAt": "2022-12-07T10:56:39.089Z",
  "devdoc": {
    "kind": "dev",
    "methods": {
      "DOMAIN_SEPARATOR()": {
        "details": "See {IERC20Permit-DOMAIN_SEPARATOR}."
      },
      "allowance(address,address)": {
        "details": "See {IERC20-allowance}."
      },
      "approve(address,uint256)": {
        "details": "See {IERC20-approve}. NOTE: If `amount` is the maximum `uint256`, the allowance is not updated on `transferFrom`. This is semantically equivalent to an infinite approval. Requirements: - `spender` cannot be the zero address."
      },
      "balanceOf(address)": {
        "details": "See {IERC20-balanceOf}."
      },
      "burn(uint256)": {
        "details": "Destroys `amount` tokens from the caller. See {ERC20-_burn}."
      },
      "burnFrom(address,uint256)": {
        "details": "Destroys `amount` tokens from `account`, deducting from the caller's allowance. See {ERC20-_burn} and {ERC20-allowance}. Requirements: - the caller must have allowance for ``accounts``'s tokens of at least `amount`."
      },
      "decimals()": {
        "details": "Returns the number of decimals used to get its user representation. For example, if `decimals` equals `2`, a balance of `505` tokens should be displayed to a user as `5.05` (`505 / 10 ** 2`). Tokens usually opt for a value of 18, imitating the relationship between Ether and Wei. This is the value {ERC20} uses, unless this function is overridden; NOTE: This information is only used for _display_ purposes: it in no way affects any of the arithmetic of the contract, including {IERC20-balanceOf} and {IERC20-transfer}."
      },
      "decreaseAllowance(address,uint256)": {
        "details": "Atomically decreases the allowance granted to `spender` by the caller. This is an alternative to {approve} that can be used as a mitigation for problems described in {IERC20-approve}. Emits an {Approval} event indicating the updated allowance. Requirements: - `spender` cannot be the zero address. - `spender` must have allowance for the caller of at least `subtractedValue`."
      },
      "increaseAllowance(address,uint256)": {
        "details": "Atomically increases the allowance granted to `spender` by the caller. This is an alternative to {approve} that can be used as a mitigation for problems described in {IERC20-approve}. Emits an {Approval} event indicating the updated allowance. Requirements: - `spender` cannot be the zero address."
      },
      "name()": {
        "details": "Returns the name of the token."
      },
      "nonces(address)": {
        "details": "See {IERC20Permit-nonces}."
      },
      "owner()": {
        "details": "Returns the address of the current owner."
      },
      "paused()": {
        "details": "Returns true if the contract is paused, and false otherwise."
      },
      "permit(address,address,uint256,uint256,uint8,bytes32,bytes32)": {
        "details": "See {IERC20Permit-permit}."
      },
      "renounceOwnership()": {
        "details": "Leaves the contract without owner. It will not be possible to call `onlyOwner` functions anymore. Can only be called by the current owner. NOTE: Renouncing ownership will leave the contract without an owner, thereby removing any functionality that is only available to the owner."
      },
      "symbol()": {
        "details": "Returns the symbol of the token, usually a shorter version of the name."
      },
      "totalSupply()": {
        "details": "See {IERC20-totalSupply}."
      },
      "transfer(address,uint256)": {
        "details": "See {IERC20-transfer}. Requirements: - `to` cannot be the zero address. - the caller must have a balance of at least `amount`."
      },
      "transferFrom(address,address,uint256)": {
        "details": "See {IERC20-transferFrom}. Emits an {Approval} event indicating the updated allowance. This is not required by the EIP. See the note at the beginning of {ERC20}. NOTE: Does not update the allowance if the current allowance is the maximum `uint256`. Requirements: - `from` and `to` cannot be the zero address. - `from` must have a balance of at least `amount`. - the caller must have allowance for ``from``'s tokens of at least `amount`."
      },
      "transferOwnership(address)": {
        "details": "Transfers ownership of the contract to a new account (`newOwner`). Can only be called by the current owner."
      }
    },
    "version": 1
  },
  "userdoc": {
    "kind": "user",
    "methods": {},
    "version": 1
  }
}