{
  "contractName": "BlockSendStakingRewards",
  "abi": [
    {
      "inputs": [
        {
          "internalType": "address",
          "name": "_blocksSendTokenAdress",
          "type": "address"
        },
        {
          "internalType": "uint256",
          "name": "_startDate",
          "type": "uint256"
        },
        {
          "internalType": "uint256",
          "name": "_endDate",
          "type": "uint256"
        }
      ],
      "stateMutability": "nonpayable",
      "type": "constructor"
    },
    {
      "anonymous": false,
      "inputs": [
        {
          "indexed": true,
          "internalType": "address",
          "name": "previousOwner",
          "type": "address"
        },
        {
          "indexed": true,
          "internalType": "address",
          "name": "newOwner",
          "type": "address"
        }
      ],
      "name": "OwnershipTransferred",
      "type": "event"
    },
    {
      "anonymous": false,
      "inputs": [
        {
          "indexed": false,
          "internalType": "address",
          "name": "staker",
          "type": "address"
        },
        {
          "indexed": false,
          "internalType": "uint256",
          "name": "_amount",
          "type": "uint256"
        }
      ],
      "name": "Staked",
      "type": "event"
    },
    {
      "anonymous": false,
      "inputs": [
        {
          "indexed": false,
          "internalType": "address",
          "name": "staker",
          "type": "address"
        },
        {
          "indexed": false,
          "internalType": "uint256",
          "name": "_amount",
          "type": "uint256"
        }
      ],
      "name": "Unstaked",
      "type": "event"
    },
    {
      "anonymous": false,
      "inputs": [
        {
          "indexed": false,
          "internalType": "address",
          "name": "staker",
          "type": "address"
        },
        {
          "indexed": false,
          "internalType": "uint256",
          "name": "rewards",
          "type": "uint256"
        }
      ],
      "name": "WithdrawRewards",
      "type": "event"
    },
    {
      "inputs": [],
      "name": "endDate",
      "outputs": [
        {
          "internalType": "uint256",
          "name": "",
          "type": "uint256"
        }
      ],
      "stateMutability": "view",
      "type": "function"
    },
    {
      "inputs": [],
      "name": "owner",
      "outputs": [
        {
          "internalType": "address",
          "name": "",
          "type": "address"
        }
      ],
      "stateMutability": "view",
      "type": "function"
    },
    {
      "inputs": [],
      "name": "renounceOwnership",
      "outputs": [],
      "stateMutability": "nonpayable",
      "type": "function"
    },
    {
      "inputs": [
        {
          "internalType": "uint256",
          "name": "",
          "type": "uint256"
        }
      ],
      "name": "rewards",
      "outputs": [
        {
          "internalType": "uint256",
          "name": "",
          "type": "uint256"
        }
      ],
      "stateMutability": "view",
      "type": "function"
    },
    {
      "inputs": [
        {
          "internalType": "address",
          "name": "",
          "type": "address"
        }
      ],
      "name": "rewardsAlreadyClaimed",
      "outputs": [
        {
          "internalType": "bool",
          "name": "",
          "type": "bool"
        }
      ],
      "stateMutability": "view",
      "type": "function"
    },
    {
      "inputs": [],
      "name": "startDate",
      "outputs": [
        {
          "internalType": "uint256",
          "name": "",
          "type": "uint256"
        }
      ],
      "stateMutability": "view",
      "type": "function"
    },
    {
      "inputs": [],
      "name": "totalPowers",
      "outputs": [
        {
          "internalType": "uint256",
          "name": "",
          "type": "uint256"
        }
      ],
      "stateMutability": "view",
      "type": "function"
    },
    {
      "inputs": [],
      "name": "totalRewards",
      "outputs": [
        {
          "internalType": "uint256",
          "name": "",
          "type": "uint256"
        }
      ],
      "stateMutability": "view",
      "type": "function"
    },
    {
      "inputs": [
        {
          "internalType": "address",
          "name": "newOwner",
          "type": "address"
        }
      ],
      "name": "transferOwnership",
      "outputs": [],
      "stateMutability": "nonpayable",
      "type": "function"
    },
    {
      "inputs": [
        {
          "internalType": "address",
          "name": "",
          "type": "address"
        }
      ],
      "name": "userAdditionalLock",
      "outputs": [
        {
          "internalType": "uint256",
          "name": "",
          "type": "uint256"
        }
      ],
      "stateMutability": "view",
      "type": "function"
    },
    {
      "inputs": [],
      "name": "userPower",
      "outputs": [
        {
          "internalType": "uint256",
          "name": "",
          "type": "uint256"
        }
      ],
      "stateMutability": "view",
      "type": "function"
    },
    {
      "inputs": [
        {
          "internalType": "address",
          "name": "",
          "type": "address"
        }
      ],
      "name": "userPowerStaked",
      "outputs": [
        {
          "internalType": "uint256",
          "name": "",
          "type": "uint256"
        }
      ],
      "stateMutability": "view",
      "type": "function"
    },
    {
      "inputs": [
        {
          "internalType": "address",
          "name": "",
          "type": "address"
        }
      ],
      "name": "userTokensStaked",
      "outputs": [
        {
          "internalType": "uint256",
          "name": "",
          "type": "uint256"
        }
      ],
      "stateMutability": "view",
      "type": "function"
    },
    {
      "inputs": [
        {
          "internalType": "uint256",
          "name": "_amount",
          "type": "uint256"
        },
        {
          "internalType": "uint256",
          "name": "_additionalDuration",
          "type": "uint256"
        }
      ],
      "name": "stake",
      "outputs": [],
      "stateMutability": "nonpayable",
      "type": "function"
    },
    {
      "inputs": [],
      "name": "claimRewards",
      "outputs": [],
      "stateMutability": "nonpayable",
      "type": "function"
    },
    {
      "inputs": [],
      "name": "unstake",
      "outputs": [],
      "stateMutability": "nonpayable",
      "type": "function"
    },
    {
      "inputs": [],
      "name": "getMyStakedTokens",
      "outputs": [
        {
          "internalType": "uint256",
          "name": "",
          "type": "uint256"
        }
      ],
      "stateMutability": "view",
      "type": "function"
    },
    {
      "inputs": [],
      "name": "getMyUSDCRewards",
      "outputs": [
        {
          "internalType": "uint256",
          "name": "",
          "type": "uint256"
        }
      ],
      "stateMutability": "view",
      "type": "function"
    },
    {
      "inputs": [
        {
          "internalType": "address",
          "name": "_router",
          "type": "address"
        }
      ],
      "name": "setRouter",
      "outputs": [],
      "stateMutability": "nonpayable",
      "type": "function"
    },
    {
      "inputs": [
        {
          "internalType": "uint256",
          "name": "_amount",
          "type": "uint256"
        }
      ],
      "name": "addRewards",
      "outputs": [],
      "stateMutability": "nonpayable",
      "type": "function"
    }
  ],
  "bytecode": "0x60c0604052732791bca1f2de4661ed88a30c99a7a9449aa84174600160006101000a81548173ffffffffffffffffffffffffffffffffffffffff021916908373ffffffffffffffffffffffffffffffffffffffff1602179055503480156200006657600080fd5b5060405162001af538038062001af583398181016040528101906200008c9190620002be565b620000ac620000a06200014d60201b60201c565b6200015560201b60201c565b8273ffffffffffffffffffffffffffffffffffffffff1660808173ffffffffffffffffffffffffffffffffffffffff1681525050600160009054906101000a900473ffffffffffffffffffffffffffffffffffffffff1673ffffffffffffffffffffffffffffffffffffffff1660a08173ffffffffffffffffffffffffffffffffffffffff168152505081600281905550806003819055505050506200031a565b600033905090565b60008060009054906101000a900473ffffffffffffffffffffffffffffffffffffffff169050816000806101000a81548173ffffffffffffffffffffffffffffffffffffffff021916908373ffffffffffffffffffffffffffffffffffffffff1602179055508173ffffffffffffffffffffffffffffffffffffffff168173ffffffffffffffffffffffffffffffffffffffff167f8be0079c531659141344cd1fd0a4f28419497f9722a3daafe3b4186f6b6457e060405160405180910390a35050565b600080fd5b600073ffffffffffffffffffffffffffffffffffffffff82169050919050565b60006200024b826200021e565b9050919050565b6200025d816200023e565b81146200026957600080fd5b50565b6000815190506200027d8162000252565b92915050565b6000819050919050565b620002988162000283565b8114620002a457600080fd5b50565b600081519050620002b8816200028d565b92915050565b600080600060608486031215620002da57620002d962000219565b5b6000620002ea868287016200026c565b9350506020620002fd86828701620002a7565b92505060406200031086828701620002a7565b9150509250925092565b60805160a0516117a0620003556000396000818161050b015261096801526000818161069501528181610b140152610bb301526117a06000f3fe608060405234801561001057600080fd5b506004361061012c5760003560e01c80637b0472f0116100ad578063beceed3911610071578063beceed39146102fd578063c0d7865514610319578063c24a0f8b14610335578063f2fde38b14610353578063f301af421461036f5761012c565b80637b0472f014610245578063810aa9e2146102615780638da5cb5b14610291578063b7e053ed146102af578063ba3d154e146102df5761012c565b8063372500ab116100f4578063372500ab146101c557806348c56b5e146101cf5780636267e72b146101ff5780636917c5011461021d578063715018a61461023b5761012c565b80630b97bc86146101315780630e15561a1461014f57806311faeefd1461016d578063177659b91461018b5780632def6620146101bb575b600080fd5b61013961039f565b60405161014691906111b3565b60405180910390f35b6101576103a5565b60405161016491906111b3565b60405180910390f35b6101756103ab565b60405161018291906111b3565b60405180910390f35b6101a560048036038101906101a09190611231565b6103b1565b6040516101b29190611279565b60405180910390f35b6101c36103d1565b005b6101cd610875565b005b6101e960048036038101906101e49190611231565b610a99565b6040516101f691906111b3565b60405180910390f35b610207610ab1565b60405161021491906111b3565b60405180910390f35b610225610af8565b60405161023291906111b3565b60405180910390f35b610243610afe565b005b61025f600480360381019061025a91906112c0565b610b12565b005b61027b60048036038101906102769190611231565b610e64565b60405161028891906111b3565b60405180910390f35b610299610e7c565b6040516102a6919061130f565b60405180910390f35b6102c960048036038101906102c49190611231565b610ea5565b6040516102d691906111b3565b60405180910390f35b6102e7610ebd565b6040516102f491906111b3565b60405180910390f35b6103176004803603810190610312919061132a565b610f2f565b005b610333600480360381019061032e9190611231565b610f63565b005b61033d610faf565b60405161034a91906111b3565b60405180910390f35b61036d60048036038101906103689190611231565b610fb5565b005b6103896004803603810190610384919061132a565b611038565b60405161039691906111b3565b60405180910390f35b60025481565b60055481565b60065481565b600a6020528060005260406000206000915054906101000a900460ff1681565b6000600760003373ffffffffffffffffffffffffffffffffffffffff1673ffffffffffffffffffffffffffffffffffffffff1681526020019081526020016000205411610453576040517f08c379a000000000000000000000000000000000000000000000000000000000815260040161044a906113b4565b60405180910390fd5b60001515600a60003373ffffffffffffffffffffffffffffffffffffffff1673ffffffffffffffffffffffffffffffffffffffff16815260200190815260200160002060009054906101000a900460ff1615150361063b576000600554600454600860003373ffffffffffffffffffffffffffffffffffffffff1673ffffffffffffffffffffffffffffffffffffffff168152602001908152602001600020546104fd9190611432565b6105079190611463565b90507f000000000000000000000000000000000000000000000000000000000000000073ffffffffffffffffffffffffffffffffffffffff1663a9059cbb33836040518363ffffffff1660e01b81526004016105649291906114bd565b6020604051808303816000875af1158015610583573d6000803e3d6000fd5b505050506040513d601f19601f820116820180604052508101906105a79190611512565b507faa1377f7ec93c239e959efa811f7b8554c036fd7a706c23e58024626a8f3db9633826040516105d99291906114bd565b60405180910390a16001600a60003373ffffffffffffffffffffffffffffffffffffffff1673ffffffffffffffffffffffffffffffffffffffff16815260200190815260200160002060006101000a81548160ff021916908315150217905550505b600860003373ffffffffffffffffffffffffffffffffffffffff1673ffffffffffffffffffffffffffffffffffffffff168152602001908152602001600020546004600082825461068c919061153f565b925050819055507f000000000000000000000000000000000000000000000000000000000000000073ffffffffffffffffffffffffffffffffffffffff1663a9059cbb33600760003373ffffffffffffffffffffffffffffffffffffffff1673ffffffffffffffffffffffffffffffffffffffff168152602001908152602001600020546040518363ffffffff1660e01b815260040161072d9291906114bd565b6020604051808303816000875af115801561074c573d6000803e3d6000fd5b505050506040513d601f19601f820116820180604052508101906107709190611512565b507f0f5bb82176feb1b5e747e28471aa92156a04d9f3ab9f45f28e2d704232b93f7533600760003373ffffffffffffffffffffffffffffffffffffffff1673ffffffffffffffffffffffffffffffffffffffff168152602001908152602001600020546040516107e19291906114bd565b60405180910390a16000600760003373ffffffffffffffffffffffffffffffffffffffff1673ffffffffffffffffffffffffffffffffffffffff168152602001908152602001600020819055506000600860003373ffffffffffffffffffffffffffffffffffffffff1673ffffffffffffffffffffffffffffffffffffffff16815260200190815260200160002081905550565b60001515600a60003373ffffffffffffffffffffffffffffffffffffffff1673ffffffffffffffffffffffffffffffffffffffff16815260200190815260200160002060009054906101000a900460ff16151514610908576040517f08c379a00000000000000000000000000000000000000000000000000000000081526004016108ff906115bf565b60405180910390fd5b6000600554600454600860003373ffffffffffffffffffffffffffffffffffffffff1673ffffffffffffffffffffffffffffffffffffffff1681526020019081526020016000205461095a9190611432565b6109649190611463565b90507f000000000000000000000000000000000000000000000000000000000000000073ffffffffffffffffffffffffffffffffffffffff1663a9059cbb33836040518363ffffffff1660e01b81526004016109c19291906114bd565b6020604051808303816000875af11580156109e0573d6000803e3d6000fd5b505050506040513d601f19601f82011682018060405250810190610a049190611512565b507faa1377f7ec93c239e959efa811f7b8554c036fd7a706c23e58024626a8f3db963382604051610a369291906114bd565b60405180910390a16001600a60003373ffffffffffffffffffffffffffffffffffffffff1673ffffffffffffffffffffffffffffffffffffffff16815260200190815260200160002060006101000a81548160ff02191690831515021790555050565b600b6020528060005260406000206000915090505481565b6000600760003373ffffffffffffffffffffffffffffffffffffffff1673ffffffffffffffffffffffffffffffffffffffff16815260200190815260200160002054905090565b60045481565b610b06611050565b610b1060006110ce565b565b7f000000000000000000000000000000000000000000000000000000000000000073ffffffffffffffffffffffffffffffffffffffff1663095ea7b330846040518363ffffffff1660e01b8152600401610b6d9291906114bd565b6020604051808303816000875af1158015610b8c573d6000803e3d6000fd5b505050506040513d601f19601f82011682018060405250810190610bb09190611512565b507f000000000000000000000000000000000000000000000000000000000000000073ffffffffffffffffffffffffffffffffffffffff166323b872dd3330856040518463ffffffff1660e01b8152600401610c0e939291906115df565b6020604051808303816000875af1158015610c2d573d6000803e3d6000fd5b505050506040513d601f19601f82011682018060405250810190610c519190611512565b5081600760003373ffffffffffffffffffffffffffffffffffffffff1673ffffffffffffffffffffffffffffffffffffffff1681526020019081526020016000206000828254610ca19190611616565b9250508190555060006001905062278d00821115610cbe57600390505b624f1a00821115610cce57600590505b8060ff1683610cdd9190611463565b600681905550600654600860003373ffffffffffffffffffffffffffffffffffffffff1673ffffffffffffffffffffffffffffffffffffffff1681526020019081526020016000206000828254610d349190611616565b92505081905550600b60003373ffffffffffffffffffffffffffffffffffffffff1673ffffffffffffffffffffffffffffffffffffffff16815260200190815260200160002054821115610dc75781600860003373ffffffffffffffffffffffffffffffffffffffff1673ffffffffffffffffffffffffffffffffffffffff168152602001908152602001600020819055505b81600b60003373ffffffffffffffffffffffffffffffffffffffff1673ffffffffffffffffffffffffffffffffffffffff1681526020019081526020016000208190555060065460046000828254610e1f9190611616565b925050819055507f9e71bc8eea02a63969f509818f2dafb9254532904319f9dbda79b67bd34a5f3d3384604051610e579291906114bd565b60405180910390a1505050565b60086020528060005260406000206000915090505481565b60008060009054906101000a900473ffffffffffffffffffffffffffffffffffffffff16905090565b60076020528060005260406000206000915090505481565b60008060045403610ecf576000610f2a565b600554600454600860003373ffffffffffffffffffffffffffffffffffffffff1673ffffffffffffffffffffffffffffffffffffffff16815260200190815260200160002054610f1f9190611432565b610f299190611463565b5b905090565b8060056000828254610f419190611616565b9250508190555080600960004281526020019081526020016000208190555050565b610f6b611050565b80600c60006101000a81548173ffffffffffffffffffffffffffffffffffffffff021916908373ffffffffffffffffffffffffffffffffffffffff16021790555050565b60035481565b610fbd611050565b600073ffffffffffffffffffffffffffffffffffffffff168173ffffffffffffffffffffffffffffffffffffffff160361102c576040517f08c379a0000000000000000000000000000000000000000000000000000000008152600401611023906116de565b60405180910390fd5b611035816110ce565b50565b60096020528060005260406000206000915090505481565b611058611192565b73ffffffffffffffffffffffffffffffffffffffff16611076610e7c565b73ffffffffffffffffffffffffffffffffffffffff16146110cc576040517f08c379a00000000000000000000000000000000000000000000000000000000081526004016110c39061174a565b60405180910390fd5b565b60008060009054906101000a900473ffffffffffffffffffffffffffffffffffffffff169050816000806101000a81548173ffffffffffffffffffffffffffffffffffffffff021916908373ffffffffffffffffffffffffffffffffffffffff1602179055508173ffffffffffffffffffffffffffffffffffffffff168173ffffffffffffffffffffffffffffffffffffffff167f8be0079c531659141344cd1fd0a4f28419497f9722a3daafe3b4186f6b6457e060405160405180910390a35050565b600033905090565b6000819050919050565b6111ad8161119a565b82525050565b60006020820190506111c860008301846111a4565b92915050565b600080fd5b600073ffffffffffffffffffffffffffffffffffffffff82169050919050565b60006111fe826111d3565b9050919050565b61120e816111f3565b811461121957600080fd5b50565b60008135905061122b81611205565b92915050565b600060208284031215611247576112466111ce565b5b60006112558482850161121c565b91505092915050565b60008115159050919050565b6112738161125e565b82525050565b600060208201905061128e600083018461126a565b92915050565b61129d8161119a565b81146112a857600080fd5b50565b6000813590506112ba81611294565b92915050565b600080604083850312156112d7576112d66111ce565b5b60006112e5858286016112ab565b92505060206112f6858286016112ab565b9150509250929050565b611309816111f3565b82525050565b60006020820190506113246000830184611300565b92915050565b6000602082840312156113405761133f6111ce565b5b600061134e848285016112ab565b91505092915050565b600082825260208201905092915050565b7f4e6f207374616b656420746f6b656e7321000000000000000000000000000000600082015250565b600061139e601183611357565b91506113a982611368565b602082019050919050565b600060208201905081810360008301526113cd81611391565b9050919050565b7f4e487b7100000000000000000000000000000000000000000000000000000000600052601260045260246000fd5b7f4e487b7100000000000000000000000000000000000000000000000000000000600052601160045260246000fd5b600061143d8261119a565b91506114488361119a565b925082611458576114576113d4565b5b828204905092915050565b600061146e8261119a565b91506114798361119a565b9250817fffffffffffffffffffffffffffffffffffffffffffffffffffffffffffffffff04831182151516156114b2576114b1611403565b5b828202905092915050565b60006040820190506114d26000830185611300565b6114df60208301846111a4565b9392505050565b6114ef8161125e565b81146114fa57600080fd5b50565b60008151905061150c816114e6565b92915050565b600060208284031215611528576115276111ce565b5b6000611536848285016114fd565b91505092915050565b600061154a8261119a565b91506115558361119a565b92508282101561156857611567611403565b5b828203905092915050565b7f416c726561647920636c61696d65642072657761726473210000000000000000600082015250565b60006115a9601883611357565b91506115b482611573565b602082019050919050565b600060208201905081810360008301526115d88161159c565b9050919050565b60006060820190506115f46000830186611300565b6116016020830185611300565b61160e60408301846111a4565b949350505050565b60006116218261119a565b915061162c8361119a565b9250827fffffffffffffffffffffffffffffffffffffffffffffffffffffffffffffffff0382111561166157611660611403565b5b828201905092915050565b7f4f776e61626c653a206e6577206f776e657220697320746865207a65726f206160008201527f6464726573730000000000000000000000000000000000000000000000000000602082015250565b60006116c8602683611357565b91506116d38261166c565b604082019050919050565b600060208201905081810360008301526116f7816116bb565b9050919050565b7f4f776e61626c653a2063616c6c6572206973206e6f7420746865206f776e6572600082015250565b6000611734602083611357565b915061173f826116fe565b602082019050919050565b6000602082019050818103600083015261176381611727565b905091905056fea2646970667358221220db77f68807b3367b0d15767e0bbef5f01f387a245fd63f7ec720f5ee51b8908264736f6c634300080e0033",
  "immutableReferences": {
    "1112": [
      {
        "length": 32,
        "start": 1685
      },
      {
        "length": 32,
        "start": 2836
      },
      {
        "length": 32,
        "start": 2995
      }
    ],
    "1115": [
      {
        "length": 32,
        "start": 1291
      },
      {
        "length": 32,
        "start": 2408
      }
    ]
  },
  "source": "// SPDX-License-Identifier: MIT\r\npragma solidity ^0.8.13;\r\n\r\nimport \"../node_modules/@openzeppelin/contracts/token/ERC20/ERC20.sol\";\r\nimport \"../node_modules/@openzeppelin/contracts/access/Ownable.sol\";\r\n\r\ncontract BlockSendStakingRewards is Ownable {\r\n    address private USDC_TOKEN_CONTRACT =\r\n        0x2791Bca1f2de4661ED88A30C99A7a9449Aa84174;\r\n\r\n    IERC20 private immutable BKSDToken;\r\n    IERC20 private immutable USDCToken;\r\n\r\n    event Staked(address staker, uint256 _amount);\r\n    event Unstaked(address staker, uint256 _amount);\r\n    event WithdrawRewards(address staker, uint256 rewards);\r\n\r\n    uint256 public startDate;\r\n    uint256 public endDate;\r\n\r\n    uint256 public totalPowers;\r\n    uint256 public totalRewards;\r\n    uint256 public userPower;\r\n\r\n    mapping(address => uint256) public userTokensStaked;\r\n    mapping(address => uint256) public userPowerStaked;\r\n    mapping(uint256 => uint256) public rewards;\r\n    mapping(address => bool) public rewardsAlreadyClaimed;\r\n    mapping(address => uint256) public userAdditionalLock;\r\n\r\n    address private router;\r\n\r\n    constructor(\r\n        address _blocksSendTokenAdress,\r\n        uint256 _startDate,\r\n        uint256 _endDate\r\n    ) {\r\n        BKSDToken = IERC20(_blocksSendTokenAdress);\r\n        USDCToken = IERC20(USDC_TOKEN_CONTRACT);\r\n        startDate = _startDate;\r\n        endDate = _endDate;\r\n    }\r\n\r\n    modifier onlyRouter() {\r\n        require(msg.sender == router, \"Only router can add rewards\");\r\n        _;\r\n    }\r\n\r\n    function stake(uint256 _amount, uint256 _additionalDuration) external {\r\n        // require(block.timestamp < startDate, \"stacking impossible!\");\r\n\r\n        BKSDToken.approve(address(this), _amount);\r\n        BKSDToken.transferFrom(msg.sender, address(this), _amount);\r\n        userTokensStaked[msg.sender] += _amount;\r\n\r\n        uint8 coeff = 1;\r\n        // The user choose to lock an additional month\r\n        if (_additionalDuration > (86400 * 30)) {\r\n            coeff = 3;\r\n        }\r\n\r\n        // The user choose to lock 2 additional months\r\n        if (_additionalDuration > (86400 * 60)) {\r\n            coeff = 5;\r\n        }\r\n\r\n        userPower = _amount * coeff;\r\n        userPowerStaked[msg.sender] += userPower;\r\n\r\n        // If the user has already lock some tokens, we choose the longest duration\r\n        if (_additionalDuration > userAdditionalLock[msg.sender]) {\r\n            userPowerStaked[msg.sender] = _additionalDuration;\r\n        }\r\n\r\n        userAdditionalLock[msg.sender] = _additionalDuration;\r\n        totalPowers += userPower;\r\n\r\n        // totalStaked += _amount;\r\n        emit Staked(msg.sender, _amount);\r\n    }\r\n\r\n    function claimRewards() external {\r\n        // require(block.timestamp > endDate, \"Too soon to claim rewards!\");\r\n        require(\r\n            rewardsAlreadyClaimed[msg.sender] == false,\r\n            \"Already claimed rewards!\"\r\n        );\r\n\r\n        //  We calculate the rewards and send them to the user\r\n        uint256 USDCRewards = (userPowerStaked[msg.sender] / totalPowers) *\r\n            totalRewards;\r\n        USDCToken.transfer(msg.sender, USDCRewards);\r\n        emit WithdrawRewards(msg.sender, USDCRewards);\r\n        rewardsAlreadyClaimed[msg.sender] = true;\r\n    }\r\n\r\n    function unstake() external {\r\n        // require(\r\n        //     block.timestamp > (endDate + userAdditionalLock[msg.sender]),\r\n        //     \"Too soon to unstake!\"\r\n        // );\r\n        require(userTokensStaked[msg.sender] > 0, \"No staked tokens!\");\r\n\r\n        if (rewardsAlreadyClaimed[msg.sender] == false) {\r\n            //  We calculate the rewards and send them to the user\r\n            uint256 USDCRewards = (userPowerStaked[msg.sender] / totalPowers) *\r\n                totalRewards;\r\n            USDCToken.transfer(msg.sender, USDCRewards);\r\n            emit WithdrawRewards(msg.sender, USDCRewards);\r\n            rewardsAlreadyClaimed[msg.sender] = true;\r\n        }\r\n\r\n        //  We send the staked tokens back to the user\r\n        totalPowers -= userPowerStaked[msg.sender];\r\n        BKSDToken.transfer(msg.sender, userTokensStaked[msg.sender]);\r\n        emit Unstaked(msg.sender, userTokensStaked[msg.sender]);\r\n        userTokensStaked[msg.sender] = 0;\r\n        userPowerStaked[msg.sender] = 0;\r\n    }\r\n\r\n    function getMyStakedTokens() external view returns (uint256) {\r\n        return userTokensStaked[msg.sender];\r\n    }\r\n\r\n    function getMyUSDCRewards() external view returns (uint256) {\r\n        return totalPowers!=0 ? ((userPowerStaked[msg.sender] / totalPowers) * totalRewards) : 0;\r\n    }\r\n\r\n    function setRouter(address _router) public onlyOwner {\r\n        router = _router;\r\n    }\r\n\r\n    // TODO: Change the modifier here\r\n    function addRewards(uint256 _amount) external {\r\n        // require(\r\n        //     block.timestamp >= startDate && block.timestamp <= endDate,\r\n        //     \"add rewards impossible!\"\r\n        // );\r\n        totalRewards += _amount;\r\n        rewards[block.timestamp] = _amount;\r\n    }\r\n}\r\n",
  "sourcePath": "C:\\Users\\zguai\\Desktop\\Repos\\BlockSend\\truffle\\contracts\\BlockSendStakingRewards.sol",
  "compiler": {
    "name": "solc",
    "version": "0.8.14+commit.80d49f37.Emscripten.clang"
  },
  "schemaVersion": "3.4.10",
  "updatedAt": "2022-12-12T07:06:40.347Z",
  "devdoc": {
    "kind": "dev",
    "methods": {
      "owner()": {
        "details": "Returns the address of the current owner."
      },
      "renounceOwnership()": {
        "details": "Leaves the contract without owner. It will not be possible to call `onlyOwner` functions anymore. Can only be called by the current owner. NOTE: Renouncing ownership will leave the contract without an owner, thereby removing any functionality that is only available to the owner."
      },
      "transferOwnership(address)": {
        "details": "Transfers ownership of the contract to a new account (`newOwner`). Can only be called by the current owner."
      }
    },
    "version": 1
  },
  "userdoc": {
    "kind": "user",
    "methods": {},
    "version": 1
  }
}