{
  "contractName": "BlockSendRouter",
  "abi": [
    {
      "inputs": [
        {
          "internalType": "address",
          "name": "_blocksSendTokenAdress",
          "type": "address"
        }
      ],
      "stateMutability": "nonpayable",
      "type": "constructor"
    },
    {
      "anonymous": false,
      "inputs": [
        {
          "indexed": true,
          "internalType": "address",
          "name": "previousOwner",
          "type": "address"
        },
        {
          "indexed": true,
          "internalType": "address",
          "name": "newOwner",
          "type": "address"
        }
      ],
      "name": "OwnershipTransferred",
      "type": "event"
    },
    {
      "anonymous": false,
      "inputs": [
        {
          "indexed": false,
          "internalType": "string",
          "name": "transferId",
          "type": "string"
        },
        {
          "indexed": false,
          "internalType": "uint256",
          "name": "userAmount",
          "type": "uint256"
        },
        {
          "indexed": false,
          "internalType": "uint256",
          "name": "blocksendAmount",
          "type": "uint256"
        }
      ],
      "name": "TransferFinalized",
      "type": "event"
    },
    {
      "anonymous": false,
      "inputs": [
        {
          "indexed": false,
          "internalType": "string",
          "name": "transferId",
          "type": "string"
        },
        {
          "indexed": false,
          "internalType": "uint256",
          "name": "amount",
          "type": "uint256"
        }
      ],
      "name": "TransferInitilized",
      "type": "event"
    },
    {
      "anonymous": false,
      "inputs": [
        {
          "indexed": false,
          "internalType": "string",
          "name": "transferId",
          "type": "string"
        },
        {
          "indexed": false,
          "internalType": "enum BlockSendRouter.TransferStatus",
          "name": "currentStatus",
          "type": "uint8"
        },
        {
          "indexed": false,
          "internalType": "string",
          "name": "errorMsg",
          "type": "string"
        }
      ],
      "name": "TransferStatusChanged",
      "type": "event"
    },
    {
      "inputs": [],
      "name": "owner",
      "outputs": [
        {
          "internalType": "address",
          "name": "",
          "type": "address"
        }
      ],
      "stateMutability": "view",
      "type": "function",
      "constant": true
    },
    {
      "inputs": [],
      "name": "renounceOwnership",
      "outputs": [],
      "stateMutability": "nonpayable",
      "type": "function"
    },
    {
      "inputs": [
        {
          "internalType": "address",
          "name": "newOwner",
          "type": "address"
        }
      ],
      "name": "transferOwnership",
      "outputs": [],
      "stateMutability": "nonpayable",
      "type": "function"
    },
    {
      "inputs": [
        {
          "internalType": "string",
          "name": "",
          "type": "string"
        }
      ],
      "name": "transfers",
      "outputs": [
        {
          "internalType": "address",
          "name": "sender",
          "type": "address"
        },
        {
          "internalType": "uint256",
          "name": "amount_EURe",
          "type": "uint256"
        },
        {
          "internalType": "uint256",
          "name": "amount_jEUR",
          "type": "uint256"
        },
        {
          "internalType": "uint256",
          "name": "amount_USDC",
          "type": "uint256"
        },
        {
          "internalType": "uint256",
          "name": "userAmount_USDC",
          "type": "uint256"
        },
        {
          "internalType": "uint256",
          "name": "blocksendAmount_USDC",
          "type": "uint256"
        },
        {
          "internalType": "enum BlockSendRouter.TransferStatus",
          "name": "status",
          "type": "uint8"
        }
      ],
      "stateMutability": "view",
      "type": "function",
      "constant": true
    },
    {
      "inputs": [
        {
          "internalType": "string",
          "name": "transferId",
          "type": "string"
        },
        {
          "internalType": "address",
          "name": "userWallet",
          "type": "address"
        },
        {
          "internalType": "uint256",
          "name": "amount",
          "type": "uint256"
        }
      ],
      "name": "initializeTransfer",
      "outputs": [
        {
          "internalType": "bool",
          "name": "ok",
          "type": "bool"
        }
      ],
      "stateMutability": "nonpayable",
      "type": "function"
    },
    {
      "inputs": [],
      "name": "claimTransferRewards",
      "outputs": [],
      "stateMutability": "nonpayable",
      "type": "function"
    },
    {
      "inputs": [
        {
          "internalType": "string",
          "name": "transferId",
          "type": "string"
        }
      ],
      "name": "remittanceStatus",
      "outputs": [
        {
          "internalType": "enum BlockSendRouter.TransferStatus",
          "name": "",
          "type": "uint8"
        }
      ],
      "stateMutability": "view",
      "type": "function",
      "constant": true
    },
    {
      "inputs": [
        {
          "internalType": "address",
          "name": "newAddress",
          "type": "address"
        }
      ],
      "name": "setWrapperContract",
      "outputs": [],
      "stateMutability": "nonpayable",
      "type": "function"
    },
    {
      "inputs": [
        {
          "internalType": "address",
          "name": "newAddress",
          "type": "address"
        }
      ],
      "name": "setSyntheriumContract",
      "outputs": [],
      "stateMutability": "nonpayable",
      "type": "function"
    },
    {
      "inputs": [
        {
          "internalType": "address",
          "name": "newAddress",
          "type": "address"
        }
      ],
      "name": "setEURETokenContract",
      "outputs": [],
      "stateMutability": "nonpayable",
      "type": "function"
    },
    {
      "inputs": [
        {
          "internalType": "address",
          "name": "newAddress",
          "type": "address"
        }
      ],
      "name": "setJEURToken_Contract",
      "outputs": [],
      "stateMutability": "nonpayable",
      "type": "function"
    },
    {
      "inputs": [
        {
          "internalType": "address",
          "name": "newAddress",
          "type": "address"
        }
      ],
      "name": "setBKSDTokenContract",
      "outputs": [],
      "stateMutability": "nonpayable",
      "type": "function"
    },
    {
      "inputs": [
        {
          "internalType": "address",
          "name": "newAddress",
          "type": "address"
        }
      ],
      "name": "setUSDCTokenContract",
      "outputs": [],
      "stateMutability": "nonpayable",
      "type": "function"
    },
    {
      "inputs": [
        {
          "internalType": "address",
          "name": "newAddress",
          "type": "address"
        }
      ],
      "name": "setEUR_USD_Aggregator",
      "outputs": [],
      "stateMutability": "nonpayable",
      "type": "function"
    },
    {
      "inputs": [
        {
          "internalType": "address",
          "name": "newAddress",
          "type": "address"
        }
      ],
      "name": "setHUB2Wallet",
      "outputs": [],
      "stateMutability": "nonpayable",
      "type": "function"
    },
    {
      "inputs": [
        {
          "internalType": "address",
          "name": "newAddress",
          "type": "address"
        }
      ],
      "name": "setBlockSend_Wallet",
      "outputs": [],
      "stateMutability": "nonpayable",
      "type": "function"
    },
    {
      "inputs": [
        {
          "internalType": "address",
          "name": "_addr",
          "type": "address"
        }
      ],
      "name": "AllowAddress",
      "outputs": [],
      "stateMutability": "nonpayable",
      "type": "function"
    },
    {
      "inputs": [],
      "name": "getLatestPrice",
      "outputs": [
        {
          "internalType": "uint256",
          "name": "",
          "type": "uint256"
        }
      ],
      "stateMutability": "view",
      "type": "function",
      "constant": true
    }
  ],
  "bytecode": "0x608060405273b07cb016440331be4d2f532b20d892a420476ad0600960006101000a81548173ffffffffffffffffffffffffffffffffffffffff021916908373ffffffffffffffffffffffffffffffffffffffff1602179055507365a7b4ff684c2d08c115d55a4b089bf4e92f5003600a60006101000a81548173ffffffffffffffffffffffffffffffffffffffff021916908373ffffffffffffffffffffffffffffffffffffffff1602179055507318ec0a6e18e5bc3784fdd3a3634b31245ab704f6600b60006101000a81548173ffffffffffffffffffffffffffffffffffffffff021916908373ffffffffffffffffffffffffffffffffffffffff160217905550734e3decbb3645551b8a19f0ea1678079fcb33fb4c600c60006101000a81548173ffffffffffffffffffffffffffffffffffffffff021916908373ffffffffffffffffffffffffffffffffffffffff160217905550732791bca1f2de4661ed88a30c99a7a9449aa84174600d60006101000a81548173ffffffffffffffffffffffffffffffffffffffff021916908373ffffffffffffffffffffffffffffffffffffffff160217905550734e3decbb3645551b8a19f0ea1678079fcb33fb4c600e60006101000a81548173ffffffffffffffffffffffffffffffffffffffff021916908373ffffffffffffffffffffffffffffffffffffffff1602179055507373366fe0aa0ded304479862808e02506fe556a98600f60006101000a81548173ffffffffffffffffffffffffffffffffffffffff021916908373ffffffffffffffffffffffffffffffffffffffff16021790555073ed85caeb52c34bd35dfeeb2d4e0bc936a0db0923601060006101000a81548173ffffffffffffffffffffffffffffffffffffffff021916908373ffffffffffffffffffffffffffffffffffffffff16021790555073913cd67da3b17be7f66e865158cdf9a5c4f2a850601160006101000a81548173ffffffffffffffffffffffffffffffffffffffff021916908373ffffffffffffffffffffffffffffffffffffffff160217905550737f3ee84fd13d815ff1005b7904cd67084d8f353f601260006101000a81548173ffffffffffffffffffffffffffffffffffffffff021916908373ffffffffffffffffffffffffffffffffffffffff1602179055503480156200036357600080fd5b5060405162003251380380620032518339818101604052810190620003899190620007f3565b620003a96200039d620006bd60201b60201c565b620006c560201b60201c565b600160146000601160009054906101000a900473ffffffffffffffffffffffffffffffffffffffff1673ffffffffffffffffffffffffffffffffffffffff1673ffffffffffffffffffffffffffffffffffffffff16815260200190815260200160002060006101000a81548160ff021916908315150217905550600960009054906101000a900473ffffffffffffffffffffffffffffffffffffffff16600260006101000a81548173ffffffffffffffffffffffffffffffffffffffff021916908373ffffffffffffffffffffffffffffffffffffffff160217905550600a60009054906101000a900473ffffffffffffffffffffffffffffffffffffffff16600360006101000a81548173ffffffffffffffffffffffffffffffffffffffff021916908373ffffffffffffffffffffffffffffffffffffffff160217905550600b60009054906101000a900473ffffffffffffffffffffffffffffffffffffffff16600460006101000a81548173ffffffffffffffffffffffffffffffffffffffff021916908373ffffffffffffffffffffffffffffffffffffffff160217905550600c60009054906101000a900473ffffffffffffffffffffffffffffffffffffffff16600560006101000a81548173ffffffffffffffffffffffffffffffffffffffff021916908373ffffffffffffffffffffffffffffffffffffffff160217905550600d60009054906101000a900473ffffffffffffffffffffffffffffffffffffffff16600660006101000a81548173ffffffffffffffffffffffffffffffffffffffff021916908373ffffffffffffffffffffffffffffffffffffffff160217905550600f60009054906101000a900473ffffffffffffffffffffffffffffffffffffffff16600160006101000a81548173ffffffffffffffffffffffffffffffffffffffff021916908373ffffffffffffffffffffffffffffffffffffffff16021790555080600760006101000a81548173ffffffffffffffffffffffffffffffffffffffff021916908373ffffffffffffffffffffffffffffffffffffffff1602179055505062000825565b600033905090565b60008060009054906101000a900473ffffffffffffffffffffffffffffffffffffffff169050816000806101000a81548173ffffffffffffffffffffffffffffffffffffffff021916908373ffffffffffffffffffffffffffffffffffffffff1602179055508173ffffffffffffffffffffffffffffffffffffffff168173ffffffffffffffffffffffffffffffffffffffff167f8be0079c531659141344cd1fd0a4f28419497f9722a3daafe3b4186f6b6457e060405160405180910390a35050565b600080fd5b600073ffffffffffffffffffffffffffffffffffffffff82169050919050565b6000620007bb826200078e565b9050919050565b620007cd81620007ae565b8114620007d957600080fd5b50565b600081519050620007ed81620007c2565b92915050565b6000602082840312156200080c576200080b62000789565b5b60006200081c84828501620007dc565b91505092915050565b612a1c80620008356000396000f3fe608060405234801561001057600080fd5b50600436106101165760003560e01c80635aeee3f0116100a25780638e15f473116100715780638e15f473146102a7578063ea45efbf146102c5578063eead6fd8146102e1578063f11283a2146102fd578063f2fde38b1461031957610116565b80635aeee3f01461023f578063715018a61461024957806384a1c233146102535780638da5cb5b1461028957610116565b8063335bafa2116100e9578063335bafa21461019f578063381ea9c5146101bb57806343dafdbe146101d75780634b8cc80d146101f35780634e5581271461022357610116565b806312ee45b71461011b57806314c2ce58146101375780631dfe08191461015357806325a9760514610183575b600080fd5b61013560048036038101906101309190611cd4565b610335565b005b610151600480360381019061014c9190611cd4565b6103e4565b005b61016d60048036038101906101689190611d9c565b610430565b60405161017a9190611e2b565b60405180910390f35b61019d60048036038101906101989190611cd4565b6106b9565b005b6101b960048036038101906101b49190611cd4565b610768565b005b6101d560048036038101906101d09190611cd4565b610817565b005b6101f160048036038101906101ec9190611cd4565b610863565b005b61020d60048036038101906102089190611e46565b6108af565b60405161021a9190611f0a565b60405180910390f35b61023d60048036038101906102389190611cd4565b6108ea565b005b610247610999565b005b610251610ab4565b005b61026d60048036038101906102689190612066565b610ac8565b60405161028097969594939291906120cd565b60405180910390f35b610291610b4d565b60405161029e919061213c565b60405180910390f35b6102af610b76565b6040516102bc9190612157565b60405180910390f35b6102df60048036038101906102da9190611cd4565b610c24565b005b6102fb60048036038101906102f69190611cd4565b610cd3565b005b61031760048036038101906103129190611cd4565b610d82565b005b610333600480360381019061032e9190611cd4565b610de5565b005b61033d610e68565b80600f60006101000a81548173ffffffffffffffffffffffffffffffffffffffff021916908373ffffffffffffffffffffffffffffffffffffffff160217905550600f60009054906101000a900473ffffffffffffffffffffffffffffffffffffffff16600160006101000a81548173ffffffffffffffffffffffffffffffffffffffff021916908373ffffffffffffffffffffffffffffffffffffffff16021790555050565b6103ec610e68565b80600760006101000a81548173ffffffffffffffffffffffffffffffffffffffff021916908373ffffffffffffffffffffffffffffffffffffffff16021790555050565b6000601460003373ffffffffffffffffffffffffffffffffffffffff1673ffffffffffffffffffffffffffffffffffffffff16815260200190815260200160002060009054906101000a900460ff166104be576040517f08c379a00000000000000000000000000000000000000000000000000000000081526004016104b5906121f5565b60405180910390fd5b6104ca85858585610ee6565b6002826104d79190612273565b600860008573ffffffffffffffffffffffffffffffffffffffff1673ffffffffffffffffffffffffffffffffffffffff168152602001908152602001600020600082825461052591906122a4565b92505081905550600061053a86868686610fd5565b9050806105685761055d868686866040518060200160405280600081525061108e565b5060009150506106b1565b600080610577888887886111c5565b915091508115806105885750600081145b156105b6576105a9888888886040518060200160405280600081525061108e565b50600093505050506106b1565b60006105c0610b76565b90506000678ac7230489e8000082846105d991906122fa565b6105e39190612273565b90506000806000806105f78e8e8988611342565b935093509350935083158061060a575082155b806106155750600082145b806106205750600081145b15610654576106418e8e8e8e6040518060200160405280600081525061108e565b50600099505050505050505050506106b1565b60006106618f8f856115d3565b905080610698576106848f8f8f8f6040518060200160405280600081525061108e565b5060009a50505050505050505050506106b1565b6106a28f8f611794565b60019a50505050505050505050505b949350505050565b6106c1610e68565b80600b60006101000a81548173ffffffffffffffffffffffffffffffffffffffff021916908373ffffffffffffffffffffffffffffffffffffffff160217905550600b60009054906101000a900473ffffffffffffffffffffffffffffffffffffffff16600460006101000a81548173ffffffffffffffffffffffffffffffffffffffff021916908373ffffffffffffffffffffffffffffffffffffffff16021790555050565b610770610e68565b80600a60006101000a81548173ffffffffffffffffffffffffffffffffffffffff021916908373ffffffffffffffffffffffffffffffffffffffff160217905550600a60009054906101000a900473ffffffffffffffffffffffffffffffffffffffff16600360006101000a81548173ffffffffffffffffffffffffffffffffffffffff021916908373ffffffffffffffffffffffffffffffffffffffff16021790555050565b61081f610e68565b80601060006101000a81548173ffffffffffffffffffffffffffffffffffffffff021916908373ffffffffffffffffffffffffffffffffffffffff16021790555050565b61086b610e68565b80601260006101000a81548173ffffffffffffffffffffffffffffffffffffffff021916908373ffffffffffffffffffffffffffffffffffffffff16021790555050565b6000601383836040516108c3929190612384565b908152602001604051809103902060060160009054906101000a900460ff16905092915050565b6108f2610e68565b80600960006101000a81548173ffffffffffffffffffffffffffffffffffffffff021916908373ffffffffffffffffffffffffffffffffffffffff160217905550600960009054906101000a900473ffffffffffffffffffffffffffffffffffffffff16600260006101000a81548173ffffffffffffffffffffffffffffffffffffffff021916908373ffffffffffffffffffffffffffffffffffffffff16021790555050565b6000600860003373ffffffffffffffffffffffffffffffffffffffff1673ffffffffffffffffffffffffffffffffffffffff1681526020019081526020016000205490506000600860003373ffffffffffffffffffffffffffffffffffffffff1673ffffffffffffffffffffffffffffffffffffffff16815260200190815260200160002081905550600760009054906101000a900473ffffffffffffffffffffffffffffffffffffffff1673ffffffffffffffffffffffffffffffffffffffff166340c10f1933836040518363ffffffff1660e01b8152600401610a7f92919061239d565b600060405180830381600087803b158015610a9957600080fd5b505af1158015610aad573d6000803e3d6000fd5b5050505050565b610abc610e68565b610ac66000611867565b565b6013818051602081018201805184825260208301602085012081835280955050505050506000915090508060000160009054906101000a900473ffffffffffffffffffffffffffffffffffffffff16908060010154908060020154908060030154908060040154908060050154908060060160009054906101000a900460ff16905087565b60008060009054906101000a900473ffffffffffffffffffffffffffffffffffffffff16905090565b600080600160009054906101000a900473ffffffffffffffffffffffffffffffffffffffff1673ffffffffffffffffffffffffffffffffffffffff1663feaf968c6040518163ffffffff1660e01b815260040160a060405180830381865afa158015610be6573d6000803e3d6000fd5b505050506040513d601f19601f82011682018060405250810190610c0a9190612453565b5050509150506103e881610c1e91906124ce565b91505090565b610c2c610e68565b80600c60006101000a81548173ffffffffffffffffffffffffffffffffffffffff021916908373ffffffffffffffffffffffffffffffffffffffff160217905550600c60009054906101000a900473ffffffffffffffffffffffffffffffffffffffff16600560006101000a81548173ffffffffffffffffffffffffffffffffffffffff021916908373ffffffffffffffffffffffffffffffffffffffff16021790555050565b610cdb610e68565b80600d60006101000a81548173ffffffffffffffffffffffffffffffffffffffff021916908373ffffffffffffffffffffffffffffffffffffffff160217905550600d60009054906101000a900473ffffffffffffffffffffffffffffffffffffffff16600660006101000a81548173ffffffffffffffffffffffffffffffffffffffff021916908373ffffffffffffffffffffffffffffffffffffffff16021790555050565b610d8a610e68565b6001601460008373ffffffffffffffffffffffffffffffffffffffff1673ffffffffffffffffffffffffffffffffffffffff16815260200190815260200160002060006101000a81548160ff02191690831515021790555050565b610ded610e68565b600073ffffffffffffffffffffffffffffffffffffffff168173ffffffffffffffffffffffffffffffffffffffff1603610e5c576040517f08c379a0000000000000000000000000000000000000000000000000000000008152600401610e53906125aa565b60405180910390fd5b610e6581611867565b50565b610e7061192b565b73ffffffffffffffffffffffffffffffffffffffff16610e8e610b4d565b73ffffffffffffffffffffffffffffffffffffffff1614610ee4576040517f08c379a0000000000000000000000000000000000000000000000000000000008152600401610edb90612616565b60405180910390fd5b565b8160138585604051610ef9929190612384565b908152602001604051809103902060000160006101000a81548173ffffffffffffffffffffffffffffffffffffffff021916908373ffffffffffffffffffffffffffffffffffffffff160217905550600060138585604051610f5c929190612384565b908152602001604051809103902060060160006101000a81548160ff02191690836006811115610f8f57610f8e611e93565b5b02179055507f9f99091afbc24bd9abfd7adca3533b5457ad5307a86351e337bcee2fb1f364de848483604051610fc793929190612663565b60405180910390a150505050565b6000600460009054906101000a900473ffffffffffffffffffffffffffffffffffffffff1673ffffffffffffffffffffffffffffffffffffffff166323b872dd8430856040518463ffffffff1660e01b815260040161103693929190612695565b6020604051808303816000875af1158015611055573d6000803e3d6000fd5b505050506040513d601f19601f8201168201806040525081019061107991906126f8565b9050611086858584611933565b949350505050565b60006006601387876040516110a4929190612384565b908152602001604051809103902060060160006101000a81548160ff021916908360068111156110d7576110d6611e93565b5b0217905550600460009054906101000a900473ffffffffffffffffffffffffffffffffffffffff1673ffffffffffffffffffffffffffffffffffffffff1663a9059cbb85856040518363ffffffff1660e01b815260040161113992919061239d565b6020604051808303816000875af1158015611158573d6000803e3d6000fd5b505050506040513d601f19601f8201168201806040525081019061117c91906126f8565b90507fb77f853b6da055bd331fe04b2ad64875bc05489c96278fc68860d6b4305f8dce86866006856040516111b4949392919061279c565b60405180910390a195945050505050565b600080600460009054906101000a900473ffffffffffffffffffffffffffffffffffffffff1673ffffffffffffffffffffffffffffffffffffffff1663095ea7b3600960009054906101000a900473ffffffffffffffffffffffffffffffffffffffff16866040518363ffffffff1660e01b815260040161124792919061239d565b6020604051808303816000875af1158015611266573d6000803e3d6000fd5b505050506040513d601f19601f8201168201806040525081019061128a91906126f8565b9150600260009054906101000a900473ffffffffffffffffffffffffffffffffffffffff1673ffffffffffffffffffffffffffffffffffffffff166313bac82084306040518363ffffffff1660e01b81526004016112e99291906127e3565b6020604051808303816000875af1158015611308573d6000803e3d6000fd5b505050506040513d601f19601f8201168201806040525081019061132c919061280c565b90506113398686836119e8565b94509492505050565b600080600080600560009054906101000a900473ffffffffffffffffffffffffffffffffffffffff1673ffffffffffffffffffffffffffffffffffffffff1663095ea7b3600a60009054906101000a900473ffffffffffffffffffffffffffffffffffffffff16886040518363ffffffff1660e01b81526004016113c792919061239d565b6020604051808303816000875af11580156113e6573d6000803e3d6000fd5b505050506040513d601f19601f8201168201806040525081019061140a91906126f8565b9350600660009054906101000a900473ffffffffffffffffffffffffffffffffffffffff1673ffffffffffffffffffffffffffffffffffffffff1663095ea7b3600a60009054906101000a900473ffffffffffffffffffffffffffffffffffffffff16876040518363ffffffff1660e01b815260040161148b92919061239d565b6020604051808303816000875af11580156114aa573d6000803e3d6000fd5b505050506040513d601f19601f820116820180604052508101906114ce91906126f8565b925060006040518060800160405280888152602001878152602001601e426114f691906122a4565b81526020013073ffffffffffffffffffffffffffffffffffffffff168152509050600360009054906101000a900473ffffffffffffffffffffffffffffffffffffffff1673ffffffffffffffffffffffffffffffffffffffff1663525e6b11826040518263ffffffff1660e01b815260040161157291906128ac565b60408051808303816000875af1158015611590573d6000803e3d6000fd5b505050506040513d601f19601f820116820180604052508101906115b491906128c7565b80935081945050506115c7898985611a9d565b50945094509450949050565b60008060006115e184611b52565b915091506000600660009054906101000a900473ffffffffffffffffffffffffffffffffffffffff1673ffffffffffffffffffffffffffffffffffffffff1663a9059cbb601260009054906101000a900473ffffffffffffffffffffffffffffffffffffffff16856040518363ffffffff1660e01b815260040161166692919061239d565b6020604051808303816000875af1158015611685573d6000803e3d6000fd5b505050506040513d601f19601f820116820180604052508101906116a991906126f8565b90506000600660009054906101000a900473ffffffffffffffffffffffffffffffffffffffff1673ffffffffffffffffffffffffffffffffffffffff1663a9059cbb601060009054906101000a900473ffffffffffffffffffffffffffffffffffffffff16856040518363ffffffff1660e01b815260040161172c92919061239d565b6020604051808303816000875af115801561174b573d6000803e3d6000fd5b505050506040513d601f19601f8201168201806040525081019061176f91906126f8565b905061177d88888587611b84565b8080156117875750815b9450505050509392505050565b6005601383836040516117a8929190612384565b908152602001604051809103902060060160006101000a81548160ff021916908360068111156117db576117da611e93565b5b02179055507fb068bfa73b9623ba0d319b003df0377fa326e109678625e7ad23230855b856b4828260138585604051611815929190612384565b90815260200160405180910390206004015460138686604051611839929190612384565b90815260200160405180910390206005015460405161185b9493929190612907565b60405180910390a15050565b60008060009054906101000a900473ffffffffffffffffffffffffffffffffffffffff169050816000806101000a81548173ffffffffffffffffffffffffffffffffffffffff021916908373ffffffffffffffffffffffffffffffffffffffff1602179055508173ffffffffffffffffffffffffffffffffffffffff168173ffffffffffffffffffffffffffffffffffffffff167f8be0079c531659141344cd1fd0a4f28419497f9722a3daafe3b4186f6b6457e060405160405180910390a35050565b600033905090565b600160138484604051611947929190612384565b908152602001604051809103902060060160006101000a81548160ff0219169083600681111561197a57611979611e93565b5b02179055508060138484604051611992929190612384565b9081526020016040518091039020600101819055507fb77f853b6da055bd331fe04b2ad64875bc05489c96278fc68860d6b4305f8dce838360016040516119db9392919061296d565b60405180910390a1505050565b6002601384846040516119fc929190612384565b908152602001604051809103902060060160006101000a81548160ff02191690836006811115611a2f57611a2e611e93565b5b02179055508060138484604051611a47929190612384565b9081526020016040518091039020600201819055507fb77f853b6da055bd331fe04b2ad64875bc05489c96278fc68860d6b4305f8dce83836002604051611a909392919061296d565b60405180910390a1505050565b600360138484604051611ab1929190612384565b908152602001604051809103902060060160006101000a81548160ff02191690836006811115611ae457611ae3611e93565b5b02179055508060138484604051611afc929190612384565b9081526020016040518091039020600301819055507fb77f853b6da055bd331fe04b2ad64875bc05489c96278fc68860d6b4305f8dce83836003604051611b459392919061296d565b60405180910390a1505050565b6000806103e8601384611b6591906122fa565b611b6f9190612273565b91508183611b7d91906129b2565b9050915091565b600460138585604051611b98929190612384565b908152602001604051809103902060060160006101000a81548160ff02191690836006811115611bcb57611bca611e93565b5b02179055508160138585604051611be3929190612384565b9081526020016040518091039020600401819055508060138585604051611c0b929190612384565b9081526020016040518091039020600501819055507fb77f853b6da055bd331fe04b2ad64875bc05489c96278fc68860d6b4305f8dce84846004604051611c549392919061296d565b60405180910390a150505050565b6000604051905090565b600080fd5b600080fd5b600073ffffffffffffffffffffffffffffffffffffffff82169050919050565b6000611ca182611c76565b9050919050565b611cb181611c96565b8114611cbc57600080fd5b50565b600081359050611cce81611ca8565b92915050565b600060208284031215611cea57611ce9611c6c565b5b6000611cf884828501611cbf565b91505092915050565b600080fd5b600080fd5b600080fd5b60008083601f840112611d2657611d25611d01565b5b8235905067ffffffffffffffff811115611d4357611d42611d06565b5b602083019150836001820283011115611d5f57611d5e611d0b565b5b9250929050565b6000819050919050565b611d7981611d66565b8114611d8457600080fd5b50565b600081359050611d9681611d70565b92915050565b60008060008060608587031215611db657611db5611c6c565b5b600085013567ffffffffffffffff811115611dd457611dd3611c71565b5b611de087828801611d10565b94509450506020611df387828801611cbf565b9250506040611e0487828801611d87565b91505092959194509250565b60008115159050919050565b611e2581611e10565b82525050565b6000602082019050611e406000830184611e1c565b92915050565b60008060208385031215611e5d57611e5c611c6c565b5b600083013567ffffffffffffffff811115611e7b57611e7a611c71565b5b611e8785828601611d10565b92509250509250929050565b7f4e487b7100000000000000000000000000000000000000000000000000000000600052602160045260246000fd5b60078110611ed357611ed2611e93565b5b50565b6000819050611ee482611ec2565b919050565b6000611ef482611ed6565b9050919050565b611f0481611ee9565b82525050565b6000602082019050611f1f6000830184611efb565b92915050565b600080fd5b6000601f19601f8301169050919050565b7f4e487b7100000000000000000000000000000000000000000000000000000000600052604160045260246000fd5b611f7382611f2a565b810181811067ffffffffffffffff82111715611f9257611f91611f3b565b5b80604052505050565b6000611fa5611c62565b9050611fb18282611f6a565b919050565b600067ffffffffffffffff821115611fd157611fd0611f3b565b5b611fda82611f2a565b9050602081019050919050565b82818337600083830152505050565b600061200961200484611fb6565b611f9b565b90508281526020810184848401111561202557612024611f25565b5b612030848285611fe7565b509392505050565b600082601f83011261204d5761204c611d01565b5b813561205d848260208601611ff6565b91505092915050565b60006020828403121561207c5761207b611c6c565b5b600082013567ffffffffffffffff81111561209a57612099611c71565b5b6120a684828501612038565b91505092915050565b6120b881611c96565b82525050565b6120c781611d66565b82525050565b600060e0820190506120e2600083018a6120af565b6120ef60208301896120be565b6120fc60408301886120be565b61210960608301876120be565b61211660808301866120be565b61212360a08301856120be565b61213060c0830184611efb565b98975050505050505050565b600060208201905061215160008301846120af565b92915050565b600060208201905061216c60008301846120be565b92915050565b600082825260208201905092915050565b7f596f7527726520616c6c6f77656420746f20696e69746961746520612074726160008201527f6e73666572000000000000000000000000000000000000000000000000000000602082015250565b60006121df602583612172565b91506121ea82612183565b604082019050919050565b6000602082019050818103600083015261220e816121d2565b9050919050565b7f4e487b7100000000000000000000000000000000000000000000000000000000600052601260045260246000fd5b7f4e487b7100000000000000000000000000000000000000000000000000000000600052601160045260246000fd5b600061227e82611d66565b915061228983611d66565b92508261229957612298612215565b5b828204905092915050565b60006122af82611d66565b91506122ba83611d66565b9250827fffffffffffffffffffffffffffffffffffffffffffffffffffffffffffffffff038211156122ef576122ee612244565b5b828201905092915050565b600061230582611d66565b915061231083611d66565b9250817fffffffffffffffffffffffffffffffffffffffffffffffffffffffffffffffff048311821515161561234957612348612244565b5b828202905092915050565b600081905092915050565b600061236b8385612354565b9350612378838584611fe7565b82840190509392505050565b600061239182848661235f565b91508190509392505050565b60006040820190506123b260008301856120af565b6123bf60208301846120be565b9392505050565b600069ffffffffffffffffffff82169050919050565b6123e5816123c6565b81146123f057600080fd5b50565b600081519050612402816123dc565b92915050565b6000819050919050565b61241b81612408565b811461242657600080fd5b50565b60008151905061243881612412565b92915050565b60008151905061244d81611d70565b92915050565b600080600080600060a0868803121561246f5761246e611c6c565b5b600061247d888289016123f3565b955050602061248e88828901612429565b945050604061249f8882890161243e565b93505060606124b08882890161243e565b92505060806124c1888289016123f3565b9150509295509295909350565b60006124d982612408565b91506124e483612408565b9250826124f4576124f3612215565b5b600160000383147f80000000000000000000000000000000000000000000000000000000000000008314161561252d5761252c612244565b5b828205905092915050565b7f4f776e61626c653a206e6577206f776e657220697320746865207a65726f206160008201527f6464726573730000000000000000000000000000000000000000000000000000602082015250565b6000612594602683612172565b915061259f82612538565b604082019050919050565b600060208201905081810360008301526125c381612587565b9050919050565b7f4f776e61626c653a2063616c6c6572206973206e6f7420746865206f776e6572600082015250565b6000612600602083612172565b915061260b826125ca565b602082019050919050565b6000602082019050818103600083015261262f816125f3565b9050919050565b60006126428385612172565b935061264f838584611fe7565b61265883611f2a565b840190509392505050565b6000604082019050818103600083015261267e818587612636565b905061268d60208301846120be565b949350505050565b60006060820190506126aa60008301866120af565b6126b760208301856120af565b6126c460408301846120be565b949350505050565b6126d581611e10565b81146126e057600080fd5b50565b6000815190506126f2816126cc565b92915050565b60006020828403121561270e5761270d611c6c565b5b600061271c848285016126e3565b91505092915050565b600081519050919050565b60005b8381101561274e578082015181840152602081019050612733565b8381111561275d576000848401525b50505050565b600061276e82612725565b6127788185612172565b9350612788818560208601612730565b61279181611f2a565b840191505092915050565b600060608201905081810360008301526127b7818688612636565b90506127c66020830185611efb565b81810360408301526127d88184612763565b905095945050505050565b60006040820190506127f860008301856120be565b61280560208301846120af565b9392505050565b60006020828403121561282257612821611c6c565b5b60006128308482850161243e565b91505092915050565b61284281611d66565b82525050565b61285181611c96565b82525050565b60808201600082015161286d6000850182612839565b5060208201516128806020850182612839565b5060408201516128936040850182612839565b5060608201516128a66060850182612848565b50505050565b60006080820190506128c16000830184612857565b92915050565b600080604083850312156128de576128dd611c6c565b5b60006128ec8582860161243e565b92505060206128fd8582860161243e565b9150509250929050565b60006060820190508181036000830152612922818688612636565b905061293160208301856120be565b61293e60408301846120be565b95945050505050565b50565b6000612957600083612172565b915061296282612947565b600082019050919050565b60006060820190508181036000830152612988818587612636565b90506129976020830184611efb565b81810360408301526129a88161294a565b9050949350505050565b60006129bd82611d66565b91506129c883611d66565b9250828210156129db576129da612244565b5b82820390509291505056fea2646970667358221220cf7ab2c5d70f37e7dc4cbd557e44519dbaf6370158b3202aadc3914c404ac26564736f6c634300080e0033",
  "immutableReferences": {},
  "source": "// SPDX-License-Identifier: MIT\npragma solidity ^0.8.9;\n\nimport \"../node_modules/@chainlink/contracts/src/v0.8/interfaces/AggregatorV3Interface.sol\";\nimport \"../node_modules/@openzeppelin/contracts/access/Ownable.sol\";\nimport \"../node_modules/@openzeppelin/contracts/token/ERC20/IERC20.sol\";\nimport \"./interfaces/IFixedRateWrapper.sol\";\nimport \"./interfaces/ISynthereum.sol\";\nimport \"./BlockSendToken.sol\";\n\ncontract BlockSendRouter is Ownable {\n    AggregatorV3Interface private priceFeed;\n\n    IFixedRateWrapper private jarvisWrapper;\n    ISynthereum private jarvisSynthereum;\n    IERC20 private moneriumEURemoney;\n    IERC20 private jEURToken;\n    IERC20 private USDCToken;\n    BlockSendToken private BKSDToken;\n    mapping(address => uint256) private transferRewardsBalance;\n\n    address private WRAPPER_CONTRACT =\n        0xb07Cb016440331be4D2f532b20d892a420476AD0;\n    address private SYNTHEREUM_CONTRACT =\n        0x65a7b4Ff684C2d08c115D55a4B089bf4E92F5003;\n    address private EURE_TOKEN_CONTRACT =\n        0x18ec0A6E18E5bc3784fDd3a3634b31245ab704F6;\n    address private JEUR_TOKEN_CONTRACT =\n        0x4e3Decbb3645551B8A19f0eA1678079FCB33fB4c;\n    address private USDC_TOKEN_CONTRACT =\n        0x2791Bca1f2de4661ED88A30C99A7a9449Aa84174;\n    address private BKSD_TOKEN_CONTRACT =\n        0x4e3Decbb3645551B8A19f0eA1678079FCB33fB4c; // TODO: change this\n\n    address private EUR_USD_AGGREGATOR =\n        0x73366Fe0AA0Ded304479862808e02506FE556a98;\n    address private HUB2_WALLET = 0xeD85CAeb52C34bD35dfeEB2d4e0bC936a0Db0923;\n    address private BLOCKSEND_BACKEND =\n        0x913Cd67dA3b17be7f66E865158cDF9a5c4F2a850;\n    address private BLOCKSEND_WALLET =\n        0x7f3eE84Fd13D815ff1005B7904Cd67084D8f353F;\n\n    mapping(string => Remittance) public transfers;\n    struct Remittance {\n        address sender;\n        uint256 amount_EURe;\n        uint256 amount_jEUR;\n        uint256 amount_USDC;\n        uint256 userAmount_USDC;\n        uint256 blocksendAmount_USDC;\n        TransferStatus status;\n    }\n\n    enum TransferStatus {\n        INITIALIZED,\n        EURE_RECEIVED,\n        JEUR_WRAPPED,\n        USDC_RECEIVED,\n        USDC_SENT,\n        FINALIZED,\n        TRANSFER_STUCK\n    }\n\n    mapping(address => bool) private allowed;\n\n    event TransferInitilized(string transferId, uint256 amount);\n    event TransferStatusChanged(\n        string transferId,\n        TransferStatus currentStatus,\n        string errorMsg\n    );\n    event TransferFinalized(\n        string transferId,\n        uint256 userAmount,\n        uint256 blocksendAmount\n    );\n\n    modifier onlyAllowed() {\n        require(allowed[msg.sender], \"You're allowed to initiate a transfer\");\n        _;\n    }\n\n    constructor(address _blocksSendTokenAdress) {\n        allowed[BLOCKSEND_BACKEND] = true;\n        jarvisWrapper = IFixedRateWrapper(WRAPPER_CONTRACT);\n        jarvisSynthereum = ISynthereum(SYNTHEREUM_CONTRACT);\n        moneriumEURemoney = IERC20(EURE_TOKEN_CONTRACT);\n        jEURToken = IERC20(JEUR_TOKEN_CONTRACT);\n        USDCToken = IERC20(USDC_TOKEN_CONTRACT);\n        priceFeed = AggregatorV3Interface(EUR_USD_AGGREGATOR);\n        BKSDToken = BlockSendToken(_blocksSendTokenAdress);\n    }\n\n    /**\n     * @notice Iinitialise a transfer of an amount of EURe\n     * @notice First Step: On-Ramp:\n     * @notice 1- Transfer EURe from user's wallet\n     * @notice 2- Wrap EURe to jEUR (Jarvis wrapper)\n     * @notice 3- Get jEUR/USDC Rate (Aggregator Chainlink)\n     * @notice 4- Redeem USDC from jEUR (Jarvis Redeem)\n     * @notice Secod Step: Calculate 1,9% of fees\n     * @notice Third Step: Off-Ramp: Using HUB2\n     * @notice if any error: Sent money to users wallet back\n     * @param transferId Input parameters transferId\n     * @param amount Input parameters for for transfered amount\n     * @param userWallet Input parameters for user wallet\n     * @return ok a boolean value indicating whether the operation succeeded.\n     *\n     * Emits a {TransferStatusChanged} event with the current status of the transfer.\n     */\n    function initializeTransfer(\n        string calldata transferId,\n        address userWallet,\n        uint256 amount\n    ) external onlyAllowed returns (bool ok) {\n        initilizeTransferData(transferId, userWallet, amount);\n\n        // TODO: check the minimal amount here\n        // TODO: Remove useless events\n\n        transferRewardsBalance[userWallet] += amount / 2;\n\n        bool okGetEURe = transferFrom(transferId, userWallet, amount);\n        if (!okGetEURe) {\n            TransferStuck(transferId, userWallet, amount, \"\");\n            return false;\n        }\n\n        (bool okApproveWrap, uint256 amountJEUR) = routage_jEURfromEURe(\n            transferId,\n            amount,\n            amount\n        );\n        if (!okApproveWrap || amountJEUR == 0) {\n            TransferStuck(transferId, userWallet, amount, \"\");\n            return false;\n        }\n\n        uint256 price = getLatestPrice();\n        uint256 collateralUSDC = uint256((amountJEUR * price) / 10e18);\n\n        (\n            bool okApprouveJEUR,\n            bool okApprouveUSDC,\n            uint256 collateralRedeemed,\n            uint256 feePaid\n        ) = routage_USDCfromjEUR(transferId, amountJEUR, collateralUSDC);\n        if (\n            !okApprouveJEUR ||\n            !okApprouveUSDC ||\n            collateralRedeemed == 0 ||\n            feePaid == 0\n        ) {\n            TransferStuck(transferId, userWallet, amount, \"\");\n            return false;\n        }\n\n        bool okTransferWallet = transferUSDC(transferId, collateralRedeemed);\n        if (!okTransferWallet) {\n            TransferStuck(transferId, userWallet, amount, \"\");\n            return false;\n        }\n\n        finalizeTransfer(transferId);\n\n        return true;\n    }\n\n\n    function claimTransferRewards() external {\n        // TODO: Add a require if necessary to avoid claim small amount of BSKD\n        // TODO: create an event\n        uint256 amount = transferRewardsBalance[msg.sender];\n        transferRewardsBalance[msg.sender] = 0;\n        BKSDToken.mint(msg.sender, amount);\n    }\n\n    /**\n     * Returns the current status of a specific remmitance.\n     */\n    function remittanceStatus(string calldata transferId)\n        public\n        view\n        virtual\n        returns (TransferStatus)\n    {\n        return transfers[transferId].status;\n    }\n\n    // *********************** Manage Status changed ************************************\n    function initilizeTransferData(\n        string calldata transferId,\n        address userWallet,\n        uint256 amount\n    ) internal {\n        transfers[transferId].sender = userWallet;\n        transfers[transferId].status = TransferStatus.INITIALIZED;\n\n        emit TransferInitilized(transferId, amount);\n    }\n\n    function finalizeTransfer(string calldata transferId) internal {\n        transfers[transferId].status = TransferStatus.FINALIZED;\n\n        emit TransferFinalized(\n            transferId,\n            transfers[transferId].userAmount_USDC,\n            transfers[transferId].blocksendAmount_USDC\n        );\n    }\n\n    function amountReceived(string calldata transferId, uint256 amount)\n        internal\n    {\n        transfers[transferId].status = TransferStatus.EURE_RECEIVED;\n        transfers[transferId].amount_EURe = amount;\n\n        emit TransferStatusChanged(\n            transferId,\n            TransferStatus.EURE_RECEIVED,\n            \"\"\n        );\n    }\n\n    function amountWrapped(string calldata transferId, uint256 amount)\n        internal\n    {\n        transfers[transferId].status = TransferStatus.JEUR_WRAPPED;\n        transfers[transferId].amount_jEUR = amount;\n\n        emit TransferStatusChanged(transferId, TransferStatus.JEUR_WRAPPED, \"\");\n    }\n\n    function redeemCollateral(string calldata transferId, uint256 collateral)\n        internal\n    {\n        transfers[transferId].status = TransferStatus.USDC_RECEIVED;\n        transfers[transferId].amount_USDC = collateral;\n\n        emit TransferStatusChanged(\n            transferId,\n            TransferStatus.USDC_RECEIVED,\n            \"\"\n        );\n    }\n\n    function collateralSent(\n        string calldata transferId,\n        uint256 userAmount,\n        uint256 blocksendAmount\n    ) internal {\n        transfers[transferId].status = TransferStatus.USDC_SENT;\n        transfers[transferId].userAmount_USDC = userAmount;\n        transfers[transferId].blocksendAmount_USDC = blocksendAmount;\n\n        emit TransferStatusChanged(transferId, TransferStatus.USDC_SENT, \"\");\n    }\n\n    function TransferStuck(\n        string calldata transferId,\n        address userWallet,\n        uint256 amount,\n        string memory errorMsg\n    ) internal returns (bool ok) {\n        transfers[transferId].status = TransferStatus.TRANSFER_STUCK;\n\n        ok = moneriumEURemoney.transfer(userWallet, amount);\n\n        emit TransferStatusChanged(\n            transferId,\n            TransferStatus.TRANSFER_STUCK,\n            errorMsg\n        );\n    }\n\n    // *********************************************************************************\n\n    // *********************** GET EURe from user's wallet *****************************\n    function transferFrom(\n        string calldata transferId,\n        address userWallet,\n        uint256 amount\n    ) internal returns (bool ok) {\n        ok = moneriumEURemoney.transferFrom(userWallet, address(this), amount);\n\n        amountReceived(transferId, amount);\n    }\n\n    // *********************************************************************************\n\n    // *********************** Wrap EURe to JEUR ***************************************\n    function routage_jEURfromEURe(\n        string calldata transferId,\n        uint256 amount,\n        uint256 collateral\n    ) internal returns (bool ok, uint256 amountTokens) {\n        ok = moneriumEURemoney.approve(WRAPPER_CONTRACT, amount);\n        amountTokens = jarvisWrapper.wrap(collateral, address(this));\n\n        amountWrapped(transferId, amountTokens);\n    }\n\n    // *********************************************************************************\n\n    // *********************** Wurn & Mint (Redeem) UCDS from JEUR *********************\n    function routage_USDCfromjEUR(\n        string calldata transferId,\n        uint256 _numToken,\n        uint256 _minCollateral\n    )\n        internal\n        returns (\n            bool okApprouveJEUR,\n            bool okApprouveUSDC,\n            uint256 collateralRedeemed,\n            uint256 feePaid\n        )\n    {\n        okApprouveJEUR = jEURToken.approve(SYNTHEREUM_CONTRACT, _numToken);\n        okApprouveUSDC = USDCToken.approve(SYNTHEREUM_CONTRACT, _minCollateral);\n\n        ISynthereum.RedeemParams memory params = ISynthereum.RedeemParams({\n            numTokens: _numToken,\n            minCollateral: _minCollateral,\n            expiration: block.timestamp + 30,\n            recipient: address(this)\n        });\n\n        (collateralRedeemed, feePaid) = jarvisSynthereum.redeem(params);\n\n        redeemCollateral(transferId, collateralRedeemed);\n    }\n\n    // *********************************************************************************\n\n    // *********************** Transfer USDC to HUB2 Wallet & BlockSend Wallet *********\n    function transferUSDC(\n        string calldata transferId,\n        uint256 collateralRedeemed\n    ) internal returns (bool ok) {\n        (uint256 blocksendAmount, uint256 userAmount) = calculateFees(\n            collateralRedeemed\n        );\n\n        bool okBlocksend = USDCToken.transfer(\n            BLOCKSEND_WALLET,\n            blocksendAmount\n        );\n        bool okHUB2 = USDCToken.transfer(HUB2_WALLET, userAmount);\n\n        collateralSent(transferId, userAmount, blocksendAmount);\n\n        return okHUB2 && okBlocksend;\n    }\n\n    // *********************************************************************************\n\n    // *********************** Calculate 1,9% fees *************************************\n    function calculateFees(uint256 amount)\n        internal\n        pure\n        returns (uint256 blocksendAmount, uint256 userAmount)\n    {\n        blocksendAmount = (amount * 19) / 1000;\n        userAmount = amount - blocksendAmount;\n    }\n\n    // *********************************************************************************\n\n    // *********************** Update Contracts Addresses ******************************\n    function setWrapperContract(address newAddress) external onlyOwner {\n        WRAPPER_CONTRACT = newAddress;\n        jarvisWrapper = IFixedRateWrapper(WRAPPER_CONTRACT);\n    }\n\n    function setSyntheriumContract(address newAddress) external onlyOwner {\n        SYNTHEREUM_CONTRACT = newAddress;\n        jarvisSynthereum = ISynthereum(SYNTHEREUM_CONTRACT);\n    }\n\n    function setEURETokenContract(address newAddress) external onlyOwner {\n        EURE_TOKEN_CONTRACT = newAddress;\n        moneriumEURemoney = IERC20(EURE_TOKEN_CONTRACT);\n    }\n\n    function setJEURToken_Contract(address newAddress) external onlyOwner {\n        JEUR_TOKEN_CONTRACT = newAddress;\n        jEURToken = IERC20(JEUR_TOKEN_CONTRACT);\n    }\n\n    function setBKSDTokenContract(address newAddress) external onlyOwner {\n        BKSDToken = BlockSendToken(newAddress);\n    }\n\n    function setUSDCTokenContract(address newAddress) external onlyOwner {\n        USDC_TOKEN_CONTRACT = newAddress;\n        USDCToken = IERC20(USDC_TOKEN_CONTRACT);\n    }\n\n    function setEUR_USD_Aggregator(address newAddress) external onlyOwner {\n        EUR_USD_AGGREGATOR = newAddress;\n        priceFeed = AggregatorV3Interface(EUR_USD_AGGREGATOR);\n    }\n\n    function setHUB2Wallet(address newAddress) external onlyOwner {\n        HUB2_WALLET = newAddress;\n    }\n\n    function setBlockSend_Wallet(address newAddress) external onlyOwner {\n        BLOCKSEND_WALLET = newAddress;\n    }\n\n    function AllowAddress(address _addr) external onlyOwner {\n        allowed[_addr] = true;\n    }\n\n    // *********************************************************************************\n\n    // *********************** Get the latest rate *************************************\n    function getLatestPrice() public view returns (uint256) {\n        (, int256 price, , , ) = priceFeed.latestRoundData();\n        return uint256(price / 1000);\n    }\n    // *********************************************************************************\n}\n",
  "sourcePath": "/Users/fabricepayet/Workspace/blocksend/blocksend/truffle/contracts/BlockSendRouter.sol",
  "compiler": {
    "name": "solc",
    "version": "0.8.14+commit.80d49f37.Emscripten.clang"
  },
  "schemaVersion": "3.4.10",
  "updatedAt": "2022-12-09T18:41:33.661Z",
  "networkType": "ethereum",
  "devdoc": {
    "kind": "dev",
    "methods": {
      "initializeTransfer(string,address,uint256)": {
        "params": {
          "amount": "Input parameters for for transfered amount",
          "transferId": "Input parameters transferId",
          "userWallet": "Input parameters for user wallet"
        },
        "returns": {
          "ok": "a boolean value indicating whether the operation succeeded. Emits a {TransferStatusChanged} event with the current status of the transfer."
        }
      },
      "owner()": {
        "details": "Returns the address of the current owner."
      },
      "renounceOwnership()": {
        "details": "Leaves the contract without owner. It will not be possible to call `onlyOwner` functions anymore. Can only be called by the current owner. NOTE: Renouncing ownership will leave the contract without an owner, thereby removing any functionality that is only available to the owner."
      },
      "transferOwnership(address)": {
        "details": "Transfers ownership of the contract to a new account (`newOwner`). Can only be called by the current owner."
      }
    },
    "version": 1
  },
  "userdoc": {
    "kind": "user",
    "methods": {
      "initializeTransfer(string,address,uint256)": {
        "notice": "Iinitialise a transfer of an amount of EUReFirst Step: On-Ramp:1- Transfer EURe from user's wallet2- Wrap EURe to jEUR (Jarvis wrapper)3- Get jEUR/USDC Rate (Aggregator Chainlink)4- Redeem USDC from jEUR (Jarvis Redeem)Secod Step: Calculate 1,9% of feesThird Step: Off-Ramp: Using HUB2if any error: Sent money to users wallet back"
      },
      "remittanceStatus(string)": {
        "notice": "Returns the current status of a specific remmitance."
      }
    },
    "version": 1
  }
}