{
  "contractName": "BlockSendStakingRewards",
  "abi": [
    {
      "inputs": [
        {
          "internalType": "address",
          "name": "_blocksSendTokenAdress",
          "type": "address"
        }
      ],
      "stateMutability": "nonpayable",
      "type": "constructor"
    },
    {
      "anonymous": false,
      "inputs": [
        {
          "indexed": true,
          "internalType": "address",
          "name": "previousOwner",
          "type": "address"
        },
        {
          "indexed": true,
          "internalType": "address",
          "name": "newOwner",
          "type": "address"
        }
      ],
      "name": "OwnershipTransferred",
      "type": "event"
    },
    {
      "anonymous": false,
      "inputs": [
        {
          "indexed": false,
          "internalType": "address",
          "name": "staker",
          "type": "address"
        },
        {
          "indexed": false,
          "internalType": "uint256",
          "name": "_amount",
          "type": "uint256"
        }
      ],
      "name": "Staked",
      "type": "event"
    },
    {
      "anonymous": false,
      "inputs": [
        {
          "indexed": false,
          "internalType": "address",
          "name": "staker",
          "type": "address"
        },
        {
          "indexed": false,
          "internalType": "uint256",
          "name": "_amount",
          "type": "uint256"
        }
      ],
      "name": "UnStaked",
      "type": "event"
    },
    {
      "anonymous": false,
      "inputs": [
        {
          "indexed": false,
          "internalType": "address",
          "name": "staker",
          "type": "address"
        },
        {
          "indexed": false,
          "internalType": "uint256",
          "name": "rewards",
          "type": "uint256"
        }
      ],
      "name": "WithdrawRewards",
      "type": "event"
    },
    {
      "inputs": [],
      "name": "duration",
      "outputs": [
        {
          "internalType": "uint256",
          "name": "",
          "type": "uint256"
        }
      ],
      "stateMutability": "view",
      "type": "function"
    },
    {
      "inputs": [],
      "name": "expiresAt",
      "outputs": [
        {
          "internalType": "uint256",
          "name": "",
          "type": "uint256"
        }
      ],
      "stateMutability": "view",
      "type": "function"
    },
    {
      "inputs": [],
      "name": "lastRewardUpdateAt",
      "outputs": [
        {
          "internalType": "uint256",
          "name": "",
          "type": "uint256"
        }
      ],
      "stateMutability": "view",
      "type": "function"
    },
    {
      "inputs": [],
      "name": "owner",
      "outputs": [
        {
          "internalType": "address",
          "name": "",
          "type": "address"
        }
      ],
      "stateMutability": "view",
      "type": "function"
    },
    {
      "inputs": [],
      "name": "renounceOwnership",
      "outputs": [],
      "stateMutability": "nonpayable",
      "type": "function"
    },
    {
      "inputs": [],
      "name": "rewardPerTokenStaked",
      "outputs": [
        {
          "internalType": "uint256",
          "name": "",
          "type": "uint256"
        }
      ],
      "stateMutability": "view",
      "type": "function"
    },
    {
      "inputs": [],
      "name": "rewardRate",
      "outputs": [
        {
          "internalType": "uint256",
          "name": "",
          "type": "uint256"
        }
      ],
      "stateMutability": "view",
      "type": "function"
    },
    {
      "inputs": [
        {
          "internalType": "address",
          "name": "",
          "type": "address"
        }
      ],
      "name": "rewards",
      "outputs": [
        {
          "internalType": "uint256",
          "name": "",
          "type": "uint256"
        }
      ],
      "stateMutability": "view",
      "type": "function"
    },
    {
      "inputs": [],
      "name": "totalStaked",
      "outputs": [
        {
          "internalType": "uint256",
          "name": "",
          "type": "uint256"
        }
      ],
      "stateMutability": "view",
      "type": "function"
    },
    {
      "inputs": [
        {
          "internalType": "address",
          "name": "newOwner",
          "type": "address"
        }
      ],
      "name": "transferOwnership",
      "outputs": [],
      "stateMutability": "nonpayable",
      "type": "function"
    },
    {
      "inputs": [
        {
          "internalType": "address",
          "name": "",
          "type": "address"
        }
      ],
      "name": "usertokens_staked",
      "outputs": [
        {
          "internalType": "uint256",
          "name": "",
          "type": "uint256"
        }
      ],
      "stateMutability": "view",
      "type": "function"
    },
    {
      "inputs": [
        {
          "internalType": "uint256",
          "name": "_duration",
          "type": "uint256"
        }
      ],
      "name": "setRewardDuration",
      "outputs": [],
      "stateMutability": "nonpayable",
      "type": "function"
    },
    {
      "inputs": [
        {
          "internalType": "uint256",
          "name": "_amount",
          "type": "uint256"
        }
      ],
      "name": "setRewardRate",
      "outputs": [],
      "stateMutability": "nonpayable",
      "type": "function"
    },
    {
      "inputs": [
        {
          "internalType": "uint256",
          "name": "_amount",
          "type": "uint256"
        }
      ],
      "name": "stake",
      "outputs": [],
      "stateMutability": "nonpayable",
      "type": "function"
    },
    {
      "inputs": [
        {
          "internalType": "uint256",
          "name": "_amount",
          "type": "uint256"
        }
      ],
      "name": "unStake",
      "outputs": [],
      "stateMutability": "nonpayable",
      "type": "function"
    },
    {
      "inputs": [],
      "name": "withdrawRewards",
      "outputs": [],
      "stateMutability": "nonpayable",
      "type": "function"
    }
  ],
  "bytecode": "0x60c0604052732791bca1f2de4661ed88a30c99a7a9449aa84174600160006101000a81548173ffffffffffffffffffffffffffffffffffffffff021916908373ffffffffffffffffffffffffffffffffffffffff1602179055503480156200006657600080fd5b5060405162001a8338038062001a8383398181016040528101906200008c919062000273565b620000ac620000a06200013d60201b60201c565b6200014560201b60201c565b8073ffffffffffffffffffffffffffffffffffffffff1660808173ffffffffffffffffffffffffffffffffffffffff1681525050600160009054906101000a900473ffffffffffffffffffffffffffffffffffffffff1673ffffffffffffffffffffffffffffffffffffffff1660a08173ffffffffffffffffffffffffffffffffffffffff168152505050620002a5565b600033905090565b60008060009054906101000a900473ffffffffffffffffffffffffffffffffffffffff169050816000806101000a81548173ffffffffffffffffffffffffffffffffffffffff021916908373ffffffffffffffffffffffffffffffffffffffff1602179055508173ffffffffffffffffffffffffffffffffffffffff168173ffffffffffffffffffffffffffffffffffffffff167f8be0079c531659141344cd1fd0a4f28419497f9722a3daafe3b4186f6b6457e060405160405180910390a35050565b600080fd5b600073ffffffffffffffffffffffffffffffffffffffff82169050919050565b60006200023b826200020e565b9050919050565b6200024d816200022e565b81146200025957600080fd5b50565b6000815190506200026d8162000242565b92915050565b6000602082840312156200028c576200028b62000209565b5b60006200029c848285016200025c565b91505092915050565b60805160a0516117aa620002d9600039600081816106fa0152610d0f0152600081816104e8015261096701526117aa6000f3fe608060405234801561001057600080fd5b50600436106101005760003560e01c80638622a68911610097578063b662f82611610066578063b662f82614610265578063c0ed00c914610295578063c7b8981c146102b1578063f2fde38b146102bb57610100565b80638622a689146101f15780638da5cb5b1461020f5780639e447fc61461022d578063a694fc3a1461024957610100565b80635d3eea91116100d35780635d3eea911461018f578063715018a6146101ab5780637b0a47ee146101b5578063817b1cd2146101d357610100565b80630673dc75146101055780630700037d146101235780630fb5a6b4146101535780632576dcad14610171575b600080fd5b61010d6102d7565b60405161011a9190610fe9565b60405180910390f35b61013d60048036038101906101389190611067565b6102dd565b60405161014a9190610fe9565b60405180910390f35b61015b6102f5565b6040516101689190610fe9565b60405180910390f35b6101796102fb565b6040516101869190610fe9565b60405180910390f35b6101a960048036038101906101a491906110c0565b610301565b005b6101b3610631565b005b6101bd610645565b6040516101ca9190610fe9565b60405180910390f35b6101db61064b565b6040516101e89190610fe9565b60405180910390f35b6101f9610651565b6040516102069190610fe9565b60405180910390f35b610217610657565b60405161022491906110fc565b60405180910390f35b610247600480360381019061024291906110c0565b610680565b005b610263600480360381019061025e91906110c0565b610801565b005b61027f600480360381019061027a9190611067565b610ab2565b60405161028c9190610fe9565b60405180910390f35b6102af60048036038101906102aa91906110c0565b610aca565b005b6102b9610b20565b005b6102d560048036038101906102d09190611067565b610de9565b005b60045481565b60096020528060005260406000206000915090505481565b60025481565b60065481565b33600060075403610347576040517f08c379a000000000000000000000000000000000000000000000000000000000815260040161033e90611174565b60405180910390fd5b60075460045461035942600354610e6c565b61036391906111c3565b60055461037091906111f7565b61037a9190611280565b600681905550600654600860003373ffffffffffffffffffffffffffffffffffffffff1673ffffffffffffffffffffffffffffffffffffffff168152602001908152602001600020546103cd91906111f7565b600960003373ffffffffffffffffffffffffffffffffffffffff1673ffffffffffffffffffffffffffffffffffffffff168152602001908152602001600020600082825461041b91906112b1565b9250508190555060008211610465576040517f08c379a000000000000000000000000000000000000000000000000000000000815260040161045c90611353565b60405180910390fd5b600860003373ffffffffffffffffffffffffffffffffffffffff1673ffffffffffffffffffffffffffffffffffffffff1681526020019081526020016000205482106104e6576040517f08c379a00000000000000000000000000000000000000000000000000000000081526004016104dd906113e5565b60405180910390fd5b7f000000000000000000000000000000000000000000000000000000000000000073ffffffffffffffffffffffffffffffffffffffff1663a9059cbb33846040518363ffffffff1660e01b8152600401610541929190611405565b6020604051808303816000875af1158015610560573d6000803e3d6000fd5b505050506040513d601f19601f820116820180604052508101906105849190611466565b5081600860003373ffffffffffffffffffffffffffffffffffffffff1673ffffffffffffffffffffffffffffffffffffffff16815260200190815260200160002060008282546105d491906111c3565b9250508190555081600760008282546105ed91906111c3565b925050819055507f79d3df6837cc49ff0e09fd3258e6e45594e0703445bb06825e9d75156eaee8f03383604051610625929190611405565b60405180910390a15050565b610639610e86565b6106436000610f04565b565b60055481565b60075481565b60035481565b60008060009054906101000a900473ffffffffffffffffffffffffffffffffffffffff16905090565b610688610e86565b6000811161069557600080fd5b6003544211156106b857600254816106ad9190611280565b6005819055506106f8565b6000426003546106c891906111c3565b6005546106d591906111f7565b905060025482826106e691906112b1565b6106f09190611280565b600581905550505b7f000000000000000000000000000000000000000000000000000000000000000073ffffffffffffffffffffffffffffffffffffffff166370a08231306040518263ffffffff1660e01b815260040161075191906110fc565b602060405180830381865afa15801561076e573d6000803e3d6000fd5b505050506040513d601f19601f8201168201806040525081019061079291906114a8565b6002546005546107a291906111f7565b11156107e3576040517f08c379a00000000000000000000000000000000000000000000000000000000081526004016107da90611547565b60405180910390fd5b600254426107f191906112b1565b6003819055504260048190555050565b33600060075403610847576040517f08c379a000000000000000000000000000000000000000000000000000000000815260040161083e90611174565b60405180910390fd5b60075460045461085942600354610e6c565b61086391906111c3565b60055461087091906111f7565b61087a9190611280565b600681905550600654600860003373ffffffffffffffffffffffffffffffffffffffff1673ffffffffffffffffffffffffffffffffffffffff168152602001908152602001600020546108cd91906111f7565b600960003373ffffffffffffffffffffffffffffffffffffffff1673ffffffffffffffffffffffffffffffffffffffff168152602001908152602001600020600082825461091b91906112b1565b9250508190555060008211610965576040517f08c379a000000000000000000000000000000000000000000000000000000000815260040161095c90611353565b60405180910390fd5b7f000000000000000000000000000000000000000000000000000000000000000073ffffffffffffffffffffffffffffffffffffffff166323b872dd3330856040518463ffffffff1660e01b81526004016109c293929190611567565b6020604051808303816000875af11580156109e1573d6000803e3d6000fd5b505050506040513d601f19601f82011682018060405250810190610a059190611466565b5081600860003373ffffffffffffffffffffffffffffffffffffffff1673ffffffffffffffffffffffffffffffffffffffff1681526020019081526020016000206000828254610a5591906112b1565b925050819055508160076000828254610a6e91906112b1565b925050819055507f9e71bc8eea02a63969f509818f2dafb9254532904319f9dbda79b67bd34a5f3d3383604051610aa6929190611405565b60405180910390a15050565b60086020528060005260406000206000915090505481565b610ad2610e86565b6003544211610b16576040517f08c379a0000000000000000000000000000000000000000000000000000000008152600401610b0d906115ea565b60405180910390fd5b8060028190555050565b33600060075403610b66576040517f08c379a0000000000000000000000000000000000000000000000000000000008152600401610b5d90611174565b60405180910390fd5b600754600454610b7842600354610e6c565b610b8291906111c3565b600554610b8f91906111f7565b610b999190611280565b600681905550600654600860003373ffffffffffffffffffffffffffffffffffffffff1673ffffffffffffffffffffffffffffffffffffffff16815260200190815260200160002054610bec91906111f7565b600960003373ffffffffffffffffffffffffffffffffffffffff1673ffffffffffffffffffffffffffffffffffffffff1681526020019081526020016000206000828254610c3a91906112b1565b925050819055506000600960003373ffffffffffffffffffffffffffffffffffffffff1673ffffffffffffffffffffffffffffffffffffffff16815260200190815260200160002054905060008111610cc8576040517f08c379a0000000000000000000000000000000000000000000000000000000008152600401610cbf90611656565b60405180910390fd5b6000600960003373ffffffffffffffffffffffffffffffffffffffff1673ffffffffffffffffffffffffffffffffffffffff168152602001908152602001600020819055507f000000000000000000000000000000000000000000000000000000000000000073ffffffffffffffffffffffffffffffffffffffff1663a9059cbb33836040518363ffffffff1660e01b8152600401610d68929190611405565b6020604051808303816000875af1158015610d87573d6000803e3d6000fd5b505050506040513d601f19601f82011682018060405250810190610dab9190611466565b507faa1377f7ec93c239e959efa811f7b8554c036fd7a706c23e58024626a8f3db963382604051610ddd929190611405565b60405180910390a15050565b610df1610e86565b600073ffffffffffffffffffffffffffffffffffffffff168173ffffffffffffffffffffffffffffffffffffffff1603610e60576040517f08c379a0000000000000000000000000000000000000000000000000000000008152600401610e57906116e8565b60405180910390fd5b610e6981610f04565b50565b600081831115610e7c5781610e7e565b825b905092915050565b610e8e610fc8565b73ffffffffffffffffffffffffffffffffffffffff16610eac610657565b73ffffffffffffffffffffffffffffffffffffffff1614610f02576040517f08c379a0000000000000000000000000000000000000000000000000000000008152600401610ef990611754565b60405180910390fd5b565b60008060009054906101000a900473ffffffffffffffffffffffffffffffffffffffff169050816000806101000a81548173ffffffffffffffffffffffffffffffffffffffff021916908373ffffffffffffffffffffffffffffffffffffffff1602179055508173ffffffffffffffffffffffffffffffffffffffff168173ffffffffffffffffffffffffffffffffffffffff167f8be0079c531659141344cd1fd0a4f28419497f9722a3daafe3b4186f6b6457e060405160405180910390a35050565b600033905090565b6000819050919050565b610fe381610fd0565b82525050565b6000602082019050610ffe6000830184610fda565b92915050565b600080fd5b600073ffffffffffffffffffffffffffffffffffffffff82169050919050565b600061103482611009565b9050919050565b61104481611029565b811461104f57600080fd5b50565b6000813590506110618161103b565b92915050565b60006020828403121561107d5761107c611004565b5b600061108b84828501611052565b91505092915050565b61109d81610fd0565b81146110a857600080fd5b50565b6000813590506110ba81611094565b92915050565b6000602082840312156110d6576110d5611004565b5b60006110e4848285016110ab565b91505092915050565b6110f681611029565b82525050565b600060208201905061111160008301846110ed565b92915050565b600082825260208201905092915050565b7f6e6f20746f6b656e73207374616b656420796574000000000000000000000000600082015250565b600061115e601483611117565b915061116982611128565b602082019050919050565b6000602082019050818103600083015261118d81611151565b9050919050565b7f4e487b7100000000000000000000000000000000000000000000000000000000600052601160045260246000fd5b60006111ce82610fd0565b91506111d983610fd0565b9250828210156111ec576111eb611194565b5b828203905092915050565b600061120282610fd0565b915061120d83610fd0565b9250817fffffffffffffffffffffffffffffffffffffffffffffffffffffffffffffffff048311821515161561124657611245611194565b5b828202905092915050565b7f4e487b7100000000000000000000000000000000000000000000000000000000600052601260045260246000fd5b600061128b82610fd0565b915061129683610fd0565b9250826112a6576112a5611251565b5b828204905092915050565b60006112bc82610fd0565b91506112c783610fd0565b9250827fffffffffffffffffffffffffffffffffffffffffffffffffffffffffffffffff038211156112fc576112fb611194565b5b828201905092915050565b7f616d6f756e74206e6f742076616c696421000000000000000000000000000000600082015250565b600061133d601183611117565b915061134882611307565b602082019050919050565b6000602082019050818103600083015261136c81611330565b9050919050565b7f796f7572207374616b656420746f6b656e73206c657373207468616e2074686560008201527f20696e707574205f616d6f756e74000000000000000000000000000000000000602082015250565b60006113cf602e83611117565b91506113da82611373565b604082019050919050565b600060208201905081810360008301526113fe816113c2565b9050919050565b600060408201905061141a60008301856110ed565b6114276020830184610fda565b9392505050565b60008115159050919050565b6114438161142e565b811461144e57600080fd5b50565b6000815190506114608161143a565b92915050565b60006020828403121561147c5761147b611004565b5b600061148a84828501611451565b91505092915050565b6000815190506114a281611094565b92915050565b6000602082840312156114be576114bd611004565b5b60006114cc84828501611493565b91505092915050565b7f6e6f7420656e6f7567682062616c616e636520666f722074686520676976656e60008201527f205f616d6f756e7420696e707574000000000000000000000000000000000000602082015250565b6000611531602e83611117565b915061153c826114d5565b604082019050919050565b6000602082019050818103600083015261156081611524565b9050919050565b600060608201905061157c60008301866110ed565b61158960208301856110ed565b6115966040830184610fda565b949350505050565b7f4e6f742076616c69642021000000000000000000000000000000000000000000600082015250565b60006115d4600b83611117565b91506115df8261159e565b602082019050919050565b60006020820190508181036000830152611603816115c7565b9050919050565b7f6e6f2072657761726473206561726e6564207965740000000000000000000000600082015250565b6000611640601583611117565b915061164b8261160a565b602082019050919050565b6000602082019050818103600083015261166f81611633565b9050919050565b7f4f776e61626c653a206e6577206f776e657220697320746865207a65726f206160008201527f6464726573730000000000000000000000000000000000000000000000000000602082015250565b60006116d2602683611117565b91506116dd82611676565b604082019050919050565b60006020820190508181036000830152611701816116c5565b9050919050565b7f4f776e61626c653a2063616c6c6572206973206e6f7420746865206f776e6572600082015250565b600061173e602083611117565b915061174982611708565b602082019050919050565b6000602082019050818103600083015261176d81611731565b905091905056fea26469706673582212206721833a3223e3c7fbaedf35174b690e396e42030d02e3ef96e7c436a981acdb64736f6c634300080e0033",
  "immutableReferences": {
    "982": [
      {
        "length": 32,
        "start": 1256
      },
      {
        "length": 32,
        "start": 2407
      }
    ],
    "985": [
      {
        "length": 32,
        "start": 1786
      },
      {
        "length": 32,
        "start": 3343
      }
    ]
  },
  "source": "// SPDX-License-Identifier: MIT\r\npragma solidity ^0.8.9;\r\n\r\nimport \"../node_modules/@openzeppelin/contracts/token/ERC20/ERC20.sol\";\r\nimport \"../node_modules/@openzeppelin/contracts/access/Ownable.sol\";\r\n\r\ncontract BlockSendStakingRewards is Ownable {\r\n    address private USDC_TOKEN_CONTRACT = 0x2791Bca1f2de4661ED88A30C99A7a9449Aa84174;\r\n\r\n    IERC20 private immutable bKSDToken;\r\n    IERC20 private immutable uSDCToken;\r\n\r\n    event Staked(address staker,uint _amount);\r\n    event UnStaked(address staker,uint _amount);\r\n    event WithdrawRewards(address staker,uint rewards);\r\n\r\n    uint public duration;\r\n    uint public expiresAt;\r\n    uint public lastRewardUpdateAt;\r\n    uint public rewardRate;\r\n    uint public rewardPerTokenStaked;\r\n    uint public totalStaked;\r\n\r\n\r\n    mapping(address => uint) public usertokens_staked;\r\n    mapping(address => uint) public rewards;\r\n\r\n    constructor(address _blocksSendTokenAdress) {\r\n        bKSDToken = IERC20(_blocksSendTokenAdress);\r\n        uSDCToken = IERC20(USDC_TOKEN_CONTRACT);\r\n    }\r\n\r\n    function setRewardDuration(uint _duration) external onlyOwner{\r\n        require(block.timestamp > expiresAt,\"Not valid !\");\r\n\r\n        duration = _duration;\r\n    }\r\n\r\n    function setRewardRate(uint _amount) external onlyOwner{\r\n        require (_amount > 0 );\r\n        if(block.timestamp > expiresAt){\r\n             rewardRate = _amount/ duration;\r\n        } else{\r\n            uint remainingREWARDS = rewardRate * (expiresAt - block.timestamp);\r\n            rewardRate = (remainingREWARDS + _amount) / duration;\r\n        }\r\n\r\n        require(rewardRate * duration <= uSDCToken.balanceOf(address(this)),\"not enough balance for the given _amount input\");\r\n\r\n        expiresAt = block.timestamp + duration;\r\n        lastRewardUpdateAt = block.timestamp;\r\n    }\r\n\r\n    function stake(uint256 _amount) external updateReward(msg.sender) {\r\n        require(_amount > 0, \"amount not valid!\");\r\n        \r\n        bKSDToken.transferFrom(msg.sender, address(this), _amount);\r\n        usertokens_staked[msg.sender] += _amount;\r\n        totalStaked += _amount;\r\n\r\n        emit Staked(msg.sender,_amount);\r\n    }\r\n\r\n    function unStake(uint256 _amount) external updateReward(msg.sender) {\r\n        require(_amount > 0, \"amount not valid!\");\r\n        require(_amount < usertokens_staked[msg.sender], \"your staked tokens less than the input _amount\");\r\n        \r\n        bKSDToken.transfer(msg.sender,_amount);\r\n        usertokens_staked[msg.sender] -= _amount;\r\n        totalStaked -= _amount;\r\n\r\n        emit UnStaked(msg.sender,_amount);\r\n    }\r\n    function _min(uint _x, uint _y) private pure returns(uint){\r\n        return _x <= _y ? _x : _y ;\r\n    }\r\n\r\n    function withdrawRewards() external updateReward(msg.sender) {\r\n        uint256 reward = rewards[msg.sender];\r\n        require(reward > 0,\"no rewards earned yet\");\r\n        \r\n        rewards[msg.sender] = 0;\r\n        uSDCToken.transfer(msg.sender, reward);\r\n        emit WithdrawRewards(msg.sender, reward);\r\n    } \r\n\r\n    modifier updateReward(address _account) {\r\n\r\n        require(totalStaked != 0,\"no tokens staked yet\");\r\n        rewardPerTokenStaked = rewardRate * (_min(block.timestamp,expiresAt) - lastRewardUpdateAt)/ totalStaked; \r\n\r\n        rewards[msg.sender] += usertokens_staked[msg.sender] * rewardPerTokenStaked;\r\n\r\n        _;\r\n    }\r\n}\r\n",
  "sourcePath": "C:\\Users\\zguai\\Desktop\\Repos\\BlockSend\\truffle\\contracts\\BlockSendStakingRewards.sol",
  "compiler": {
    "name": "solc",
    "version": "0.8.14+commit.80d49f37.Emscripten.clang"
  },
  "schemaVersion": "3.4.10",
  "updatedAt": "2022-12-10T12:53:46.329Z",
  "devdoc": {
    "kind": "dev",
    "methods": {
      "owner()": {
        "details": "Returns the address of the current owner."
      },
      "renounceOwnership()": {
        "details": "Leaves the contract without owner. It will not be possible to call `onlyOwner` functions anymore. Can only be called by the current owner. NOTE: Renouncing ownership will leave the contract without an owner, thereby removing any functionality that is only available to the owner."
      },
      "transferOwnership(address)": {
        "details": "Transfers ownership of the contract to a new account (`newOwner`). Can only be called by the current owner."
      }
    },
    "version": 1
  },
  "userdoc": {
    "kind": "user",
    "methods": {},
    "version": 1
  }
}