{
  "contractName": "BlockSendRouter",
  "abi": [
    {
      "inputs": [
        {
          "internalType": "address",
          "name": "_BKSD_TOKEN_CONTRACT",
          "type": "address"
        }
      ],
      "stateMutability": "nonpayable",
      "type": "constructor"
    },
    {
      "anonymous": false,
      "inputs": [
        {
          "indexed": false,
          "internalType": "address",
          "name": "user",
          "type": "address"
        },
        {
          "indexed": false,
          "internalType": "uint256",
          "name": "tokenAmount",
          "type": "uint256"
        }
      ],
      "name": "ClaimTransferRewardEvent",
      "type": "event"
    },
    {
      "anonymous": false,
      "inputs": [
        {
          "indexed": true,
          "internalType": "address",
          "name": "previousOwner",
          "type": "address"
        },
        {
          "indexed": true,
          "internalType": "address",
          "name": "newOwner",
          "type": "address"
        }
      ],
      "name": "OwnershipTransferred",
      "type": "event"
    },
    {
      "anonymous": false,
      "inputs": [
        {
          "indexed": false,
          "internalType": "string",
          "name": "transferId",
          "type": "string"
        },
        {
          "indexed": false,
          "internalType": "uint256",
          "name": "userAmount",
          "type": "uint256"
        },
        {
          "indexed": false,
          "internalType": "uint256",
          "name": "blocksendAmount",
          "type": "uint256"
        }
      ],
      "name": "TransferFinalized",
      "type": "event"
    },
    {
      "anonymous": false,
      "inputs": [
        {
          "indexed": false,
          "internalType": "string",
          "name": "transferId",
          "type": "string"
        },
        {
          "indexed": false,
          "internalType": "uint256",
          "name": "amount",
          "type": "uint256"
        }
      ],
      "name": "TransferInitilized",
      "type": "event"
    },
    {
      "inputs": [],
      "name": "owner",
      "outputs": [
        {
          "internalType": "address",
          "name": "",
          "type": "address"
        }
      ],
      "stateMutability": "view",
      "type": "function"
    },
    {
      "inputs": [],
      "name": "renounceOwnership",
      "outputs": [],
      "stateMutability": "nonpayable",
      "type": "function"
    },
    {
      "inputs": [
        {
          "internalType": "address",
          "name": "newOwner",
          "type": "address"
        }
      ],
      "name": "transferOwnership",
      "outputs": [],
      "stateMutability": "nonpayable",
      "type": "function"
    },
    {
      "inputs": [
        {
          "internalType": "address",
          "name": "",
          "type": "address"
        }
      ],
      "name": "transferRewardsBalance",
      "outputs": [
        {
          "internalType": "uint256",
          "name": "",
          "type": "uint256"
        }
      ],
      "stateMutability": "view",
      "type": "function"
    },
    {
      "inputs": [
        {
          "internalType": "string",
          "name": "",
          "type": "string"
        }
      ],
      "name": "transfers",
      "outputs": [
        {
          "internalType": "address",
          "name": "sender",
          "type": "address"
        },
        {
          "internalType": "uint256",
          "name": "amount_EURe",
          "type": "uint256"
        },
        {
          "internalType": "uint256",
          "name": "amount_jEUR",
          "type": "uint256"
        },
        {
          "internalType": "uint256",
          "name": "amount_USDC",
          "type": "uint256"
        },
        {
          "internalType": "uint256",
          "name": "rate_EUR_USDC",
          "type": "uint256"
        },
        {
          "internalType": "uint256",
          "name": "userAmount_USDC",
          "type": "uint256"
        },
        {
          "internalType": "uint256",
          "name": "blocksendAmount_USDC",
          "type": "uint256"
        },
        {
          "internalType": "uint256",
          "name": "jarvisFees_USDC",
          "type": "uint256"
        },
        {
          "internalType": "enum BlockSendRouter.TransferStatus",
          "name": "status",
          "type": "uint8"
        }
      ],
      "stateMutability": "view",
      "type": "function"
    },
    {
      "inputs": [
        {
          "internalType": "string",
          "name": "transferId",
          "type": "string"
        },
        {
          "internalType": "address",
          "name": "userWallet",
          "type": "address"
        },
        {
          "internalType": "uint256",
          "name": "amount",
          "type": "uint256"
        }
      ],
      "name": "initializeTransfer",
      "outputs": [
        {
          "internalType": "bool",
          "name": "ok",
          "type": "bool"
        }
      ],
      "stateMutability": "nonpayable",
      "type": "function"
    },
    {
      "inputs": [],
      "name": "getMyTranferRewardsBalance",
      "outputs": [
        {
          "internalType": "uint256",
          "name": "",
          "type": "uint256"
        }
      ],
      "stateMutability": "view",
      "type": "function"
    },
    {
      "inputs": [],
      "name": "claimTransferRewards",
      "outputs": [],
      "stateMutability": "nonpayable",
      "type": "function"
    },
    {
      "inputs": [
        {
          "internalType": "string",
          "name": "_transferId",
          "type": "string"
        }
      ],
      "name": "getTransfer",
      "outputs": [
        {
          "internalType": "address",
          "name": "sender",
          "type": "address"
        },
        {
          "internalType": "uint256",
          "name": "amount_EURe",
          "type": "uint256"
        },
        {
          "internalType": "uint256",
          "name": "amount_jEUR",
          "type": "uint256"
        },
        {
          "internalType": "uint256",
          "name": "amount_USDC",
          "type": "uint256"
        },
        {
          "internalType": "uint256",
          "name": "rate_EUR_USDC",
          "type": "uint256"
        },
        {
          "internalType": "uint256",
          "name": "userAmount_USDC",
          "type": "uint256"
        },
        {
          "internalType": "uint256",
          "name": "blocksendAmount_USDC",
          "type": "uint256"
        },
        {
          "internalType": "uint256",
          "name": "jarvisFees_USDC",
          "type": "uint256"
        },
        {
          "internalType": "enum BlockSendRouter.TransferStatus",
          "name": "status",
          "type": "uint8"
        }
      ],
      "stateMutability": "view",
      "type": "function"
    },
    {
      "inputs": [
        {
          "internalType": "address",
          "name": "_newAddress",
          "type": "address"
        }
      ],
      "name": "setWrapperContract",
      "outputs": [],
      "stateMutability": "nonpayable",
      "type": "function"
    },
    {
      "inputs": [
        {
          "internalType": "address",
          "name": "_newAddress",
          "type": "address"
        }
      ],
      "name": "setSyntheriumContract",
      "outputs": [],
      "stateMutability": "nonpayable",
      "type": "function"
    },
    {
      "inputs": [
        {
          "internalType": "address",
          "name": "_newAddress",
          "type": "address"
        }
      ],
      "name": "setEURETokenContract",
      "outputs": [],
      "stateMutability": "nonpayable",
      "type": "function"
    },
    {
      "inputs": [
        {
          "internalType": "address",
          "name": "_newAddress",
          "type": "address"
        }
      ],
      "name": "setJEURToken_Contract",
      "outputs": [],
      "stateMutability": "nonpayable",
      "type": "function"
    },
    {
      "inputs": [
        {
          "internalType": "address",
          "name": "_newAddress",
          "type": "address"
        }
      ],
      "name": "setUSDCTokenContract",
      "outputs": [],
      "stateMutability": "nonpayable",
      "type": "function"
    },
    {
      "inputs": [
        {
          "internalType": "address",
          "name": "_newAddress",
          "type": "address"
        }
      ],
      "name": "setHUB2Wallet",
      "outputs": [],
      "stateMutability": "nonpayable",
      "type": "function"
    },
    {
      "inputs": [
        {
          "internalType": "address",
          "name": "_newAddress",
          "type": "address"
        }
      ],
      "name": "setBlockSend_Wallet",
      "outputs": [],
      "stateMutability": "nonpayable",
      "type": "function"
    },
    {
      "inputs": [
        {
          "internalType": "address",
          "name": "_addr",
          "type": "address"
        }
      ],
      "name": "AllowAddress",
      "outputs": [],
      "stateMutability": "nonpayable",
      "type": "function"
    },
    {
      "inputs": [],
      "name": "get_EUR_USD_LatestPrice",
      "outputs": [
        {
          "internalType": "uint256",
          "name": "",
          "type": "uint256"
        }
      ],
      "stateMutability": "view",
      "type": "function"
    },
    {
      "inputs": [],
      "name": "get_USDC_USD_LatestPrice",
      "outputs": [
        {
          "internalType": "uint256",
          "name": "",
          "type": "uint256"
        }
      ],
      "stateMutability": "view",
      "type": "function"
    }
  ],
  "bytecode": "0x608060405273b07cb016440331be4d2f532b20d892a420476ad0600860006101000a81548173ffffffffffffffffffffffffffffffffffffffff021916908373ffffffffffffffffffffffffffffffffffffffff1602179055507365a7b4ff684c2d08c115d55a4b089bf4e92f5003600960006101000a81548173ffffffffffffffffffffffffffffffffffffffff021916908373ffffffffffffffffffffffffffffffffffffffff1602179055507318ec0a6e18e5bc3784fdd3a3634b31245ab704f6600a60006101000a81548173ffffffffffffffffffffffffffffffffffffffff021916908373ffffffffffffffffffffffffffffffffffffffff160217905550734e3decbb3645551b8a19f0ea1678079fcb33fb4c600b60006101000a81548173ffffffffffffffffffffffffffffffffffffffff021916908373ffffffffffffffffffffffffffffffffffffffff160217905550732791bca1f2de4661ed88a30c99a7a9449aa84174600c60006101000a81548173ffffffffffffffffffffffffffffffffffffffff021916908373ffffffffffffffffffffffffffffffffffffffff1602179055507373366fe0aa0ded304479862808e02506fe556a98600d60006101000a81548173ffffffffffffffffffffffffffffffffffffffff021916908373ffffffffffffffffffffffffffffffffffffffff16021790555073fe4a8cc5b5b2366c1b58bea3858e81843581b2f7600e60006101000a81548173ffffffffffffffffffffffffffffffffffffffff021916908373ffffffffffffffffffffffffffffffffffffffff16021790555073ed85caeb52c34bd35dfeeb2d4e0bc936a0db0923600f60006101000a81548173ffffffffffffffffffffffffffffffffffffffff021916908373ffffffffffffffffffffffffffffffffffffffff16021790555073913cd67da3b17be7f66e865158cdf9a5c4f2a850601060006101000a81548173ffffffffffffffffffffffffffffffffffffffff021916908373ffffffffffffffffffffffffffffffffffffffff160217905550737f3ee84fd13d815ff1005b7904cd67084d8f353f601160006101000a81548173ffffffffffffffffffffffffffffffffffffffff021916908373ffffffffffffffffffffffffffffffffffffffff1602179055503480156200036357600080fd5b506040516200324f3803806200324f833981810160405281019062000389919062000790565b620003a96200039d6200065a60201b60201c565b6200066260201b60201c565b600160136000601060009054906101000a900473ffffffffffffffffffffffffffffffffffffffff1673ffffffffffffffffffffffffffffffffffffffff1673ffffffffffffffffffffffffffffffffffffffff16815260200190815260200160002060006101000a81548160ff021916908315150217905550600860009054906101000a900473ffffffffffffffffffffffffffffffffffffffff16600160006101000a81548173ffffffffffffffffffffffffffffffffffffffff021916908373ffffffffffffffffffffffffffffffffffffffff160217905550600960009054906101000a900473ffffffffffffffffffffffffffffffffffffffff16600260006101000a81548173ffffffffffffffffffffffffffffffffffffffff021916908373ffffffffffffffffffffffffffffffffffffffff160217905550600a60009054906101000a900473ffffffffffffffffffffffffffffffffffffffff16600360006101000a81548173ffffffffffffffffffffffffffffffffffffffff021916908373ffffffffffffffffffffffffffffffffffffffff160217905550600b60009054906101000a900473ffffffffffffffffffffffffffffffffffffffff16600460006101000a81548173ffffffffffffffffffffffffffffffffffffffff021916908373ffffffffffffffffffffffffffffffffffffffff160217905550600c60009054906101000a900473ffffffffffffffffffffffffffffffffffffffff16600560006101000a81548173ffffffffffffffffffffffffffffffffffffffff021916908373ffffffffffffffffffffffffffffffffffffffff16021790555080600660006101000a81548173ffffffffffffffffffffffffffffffffffffffff021916908373ffffffffffffffffffffffffffffffffffffffff16021790555050620007c2565b600033905090565b60008060009054906101000a900473ffffffffffffffffffffffffffffffffffffffff169050816000806101000a81548173ffffffffffffffffffffffffffffffffffffffff021916908373ffffffffffffffffffffffffffffffffffffffff1602179055508173ffffffffffffffffffffffffffffffffffffffff168173ffffffffffffffffffffffffffffffffffffffff167f8be0079c531659141344cd1fd0a4f28419497f9722a3daafe3b4186f6b6457e060405160405180910390a35050565b600080fd5b600073ffffffffffffffffffffffffffffffffffffffff82169050919050565b600062000758826200072b565b9050919050565b6200076a816200074b565b81146200077657600080fd5b50565b6000815190506200078a816200075f565b92915050565b600060208284031215620007a957620007a862000726565b5b6000620007b98482850162000779565b91505092915050565b612a7d80620007d26000396000f3fe608060405234801561001057600080fd5b50600436106101215760003560e01c806360640249116100ad578063b2413bef11610071578063b2413bef146102f0578063ea45efbf1461030e578063eead6fd81461032a578063f11283a214610346578063f2fde38b1461036257610121565b8063606402491461023a578063715018a6146102585780637ec6cfca1461026257806384a1c2331461029a5780638da5cb5b146102d257610121565b8063335bafa2116100f4578063335bafa2146101c0578063381ea9c5146101dc57806343dafdbe146101f85780634e558127146102145780635aeee3f01461023057610121565b80631640fb86146101265780631dfe08191461015657806325a976051461018657806329183968146101a2575b600080fd5b610140600480360381019061013b9190611e5b565b61037e565b60405161014d9190611ea1565b60405180910390f35b610170600480360381019061016b9190611f4d565b610396565b60405161017d9190611fdc565b60405180910390f35b6101a0600480360381019061019b9190611e5b565b61059f565b005b6101aa61064e565b6040516101b79190611ea1565b60405180910390f35b6101da60048036038101906101d59190611e5b565b610695565b005b6101f660048036038101906101f19190611e5b565b610744565b005b610212600480360381019061020d9190611e5b565b610790565b005b61022e60048036038101906102299190611e5b565b6107dc565b005b61023861088b565b005b610242610a80565b60405161024f9190611ea1565b60405180910390f35b610260610b2e565b005b61027c60048036038101906102779190611ff7565b610b42565b604051610291999897969594939291906120ca565b60405180910390f35b6102b460048036038101906102af9190612298565b610ce0565b6040516102c9999897969594939291906120ca565b60405180910390f35b6102da610d71565b6040516102e791906122e1565b60405180910390f35b6102f8610d9a565b6040516103059190611ea1565b60405180910390f35b61032860048036038101906103239190611e5b565b610e48565b005b610344600480360381019061033f9190611e5b565b610ef7565b005b610360600480360381019061035b9190611e5b565b610fa6565b005b61037c60048036038101906103779190611e5b565b611009565b005b60076020528060005260406000206000915090505481565b6000601360003373ffffffffffffffffffffffffffffffffffffffff1673ffffffffffffffffffffffffffffffffffffffff16815260200190815260200160002060009054906101000a900460ff16610424576040517f08c379a000000000000000000000000000000000000000000000000000000000815260040161041b9061237f565b60405180910390fd5b6104308585858561108c565b600061043e8686868661117b565b90508061045c5761045186868686611234565b506000915050610597565b60008061046b8888878861132c565b9150915081158061047c5750600081145b1561049a5761048d88888888611234565b5060009350505050610597565b6000806000806104ab8c8c876114a9565b93509350935093508315806104be575082155b806104c95750600082145b156104eb576104da8c8c8c8c611234565b506000975050505050505050610597565b60006104f98d8d858561176b565b90508061051e5761050c8d8d8d8d611234565b50600098505050505050505050610597565b60028a61052b91906123fd565b600760008d73ffffffffffffffffffffffffffffffffffffffff1673ffffffffffffffffffffffffffffffffffffffff1681526020019081526020016000206000828254610579919061242e565b9250508190555061058a8d8d61192e565b6001985050505050505050505b949350505050565b6105a7611a01565b80600a60006101000a81548173ffffffffffffffffffffffffffffffffffffffff021916908373ffffffffffffffffffffffffffffffffffffffff160217905550600a60009054906101000a900473ffffffffffffffffffffffffffffffffffffffff16600360006101000a81548173ffffffffffffffffffffffffffffffffffffffff021916908373ffffffffffffffffffffffffffffffffffffffff16021790555050565b6000600760003373ffffffffffffffffffffffffffffffffffffffff1673ffffffffffffffffffffffffffffffffffffffff16815260200190815260200160002054905090565b61069d611a01565b80600960006101000a81548173ffffffffffffffffffffffffffffffffffffffff021916908373ffffffffffffffffffffffffffffffffffffffff160217905550600960009054906101000a900473ffffffffffffffffffffffffffffffffffffffff16600260006101000a81548173ffffffffffffffffffffffffffffffffffffffff021916908373ffffffffffffffffffffffffffffffffffffffff16021790555050565b61074c611a01565b80600f60006101000a81548173ffffffffffffffffffffffffffffffffffffffff021916908373ffffffffffffffffffffffffffffffffffffffff16021790555050565b610798611a01565b80601160006101000a81548173ffffffffffffffffffffffffffffffffffffffff021916908373ffffffffffffffffffffffffffffffffffffffff16021790555050565b6107e4611a01565b80600860006101000a81548173ffffffffffffffffffffffffffffffffffffffff021916908373ffffffffffffffffffffffffffffffffffffffff160217905550600860009054906101000a900473ffffffffffffffffffffffffffffffffffffffff16600160006101000a81548173ffffffffffffffffffffffffffffffffffffffff021916908373ffffffffffffffffffffffffffffffffffffffff16021790555050565b6000600760003373ffffffffffffffffffffffffffffffffffffffff1673ffffffffffffffffffffffffffffffffffffffff1681526020019081526020016000205490506000600760003373ffffffffffffffffffffffffffffffffffffffff1673ffffffffffffffffffffffffffffffffffffffff16815260200190815260200160002081905550600660009054906101000a900473ffffffffffffffffffffffffffffffffffffffff1673ffffffffffffffffffffffffffffffffffffffff166340c10f1930836040518363ffffffff1660e01b8152600401610971929190612484565b600060405180830381600087803b15801561098b57600080fd5b505af115801561099f573d6000803e3d6000fd5b50505050600660009054906101000a900473ffffffffffffffffffffffffffffffffffffffff1673ffffffffffffffffffffffffffffffffffffffff1663a9059cbb33836040518363ffffffff1660e01b8152600401610a00929190612484565b6020604051808303816000875af1158015610a1f573d6000803e3d6000fd5b505050506040513d601f19601f82011682018060405250810190610a4391906124d9565b507f58cc09a5cd7d0483d99e31e50feb38f39841b055573f462989aea4ad8783c6da3382604051610a75929190612484565b60405180910390a150565b600080600d60009054906101000a900473ffffffffffffffffffffffffffffffffffffffff1673ffffffffffffffffffffffffffffffffffffffff1663feaf968c6040518163ffffffff1660e01b815260040160a060405180830381865afa158015610af0573d6000803e3d6000fd5b505050506040513d601f19601f82011682018060405250810190610b149190612593565b5050509150506103e881610b28919061260e565b91505090565b610b36611a01565b610b406000611a7f565b565b600080600080600080600080600060128b8b604051610b629291906126a8565b908152602001604051809103902060000160009054906101000a900473ffffffffffffffffffffffffffffffffffffffff16985060128b8b604051610ba89291906126a8565b908152602001604051809103902060010154975060128b8b604051610bce9291906126a8565b908152602001604051809103902060020154965060128b8b604051610bf49291906126a8565b908152602001604051809103902060030154955060128b8b604051610c1a9291906126a8565b908152602001604051809103902060040154945060128b8b604051610c409291906126a8565b908152602001604051809103902060050154935060128b8b604051610c669291906126a8565b908152602001604051809103902060060154925060128b8b604051610c8c9291906126a8565b908152602001604051809103902060070154915060128b8b604051610cb29291906126a8565b908152602001604051809103902060080160009054906101000a900460ff1690509295985092959850929598565b6012818051602081018201805184825260208301602085012081835280955050505050506000915090508060000160009054906101000a900473ffffffffffffffffffffffffffffffffffffffff16908060010154908060020154908060030154908060040154908060050154908060060154908060070154908060080160009054906101000a900460ff16905089565b60008060009054906101000a900473ffffffffffffffffffffffffffffffffffffffff16905090565b600080600e60009054906101000a900473ffffffffffffffffffffffffffffffffffffffff1673ffffffffffffffffffffffffffffffffffffffff1663feaf968c6040518163ffffffff1660e01b815260040160a060405180830381865afa158015610e0a573d6000803e3d6000fd5b505050506040513d601f19601f82011682018060405250810190610e2e9190612593565b5050509150506103e881610e42919061260e565b91505090565b610e50611a01565b80600b60006101000a81548173ffffffffffffffffffffffffffffffffffffffff021916908373ffffffffffffffffffffffffffffffffffffffff160217905550600b60009054906101000a900473ffffffffffffffffffffffffffffffffffffffff16600460006101000a81548173ffffffffffffffffffffffffffffffffffffffff021916908373ffffffffffffffffffffffffffffffffffffffff16021790555050565b610eff611a01565b80600c60006101000a81548173ffffffffffffffffffffffffffffffffffffffff021916908373ffffffffffffffffffffffffffffffffffffffff160217905550600c60009054906101000a900473ffffffffffffffffffffffffffffffffffffffff16600560006101000a81548173ffffffffffffffffffffffffffffffffffffffff021916908373ffffffffffffffffffffffffffffffffffffffff16021790555050565b610fae611a01565b6001601360008373ffffffffffffffffffffffffffffffffffffffff1673ffffffffffffffffffffffffffffffffffffffff16815260200190815260200160002060006101000a81548160ff02191690831515021790555050565b611011611a01565b600073ffffffffffffffffffffffffffffffffffffffff168173ffffffffffffffffffffffffffffffffffffffff1603611080576040517f08c379a000000000000000000000000000000000000000000000000000000000815260040161107790612733565b60405180910390fd5b61108981611a7f565b50565b816012858560405161109f9291906126a8565b908152602001604051809103902060000160006101000a81548173ffffffffffffffffffffffffffffffffffffffff021916908373ffffffffffffffffffffffffffffffffffffffff1602179055506000601285856040516111029291906126a8565b908152602001604051809103902060080160006101000a81548160ff0219169083600681111561113557611134612053565b5b02179055507f9f99091afbc24bd9abfd7adca3533b5457ad5307a86351e337bcee2fb1f364de84848360405161116d93929190612780565b60405180910390a150505050565b6000600360009054906101000a900473ffffffffffffffffffffffffffffffffffffffff1673ffffffffffffffffffffffffffffffffffffffff166323b872dd8430856040518463ffffffff1660e01b81526004016111dc939291906127b2565b6020604051808303816000875af11580156111fb573d6000803e3d6000fd5b505050506040513d601f19601f8201168201806040525081019061121f91906124d9565b905061122c858584611b43565b949350505050565b600060066012868660405161124a9291906126a8565b908152602001604051809103902060080160006101000a81548160ff0219169083600681111561127d5761127c612053565b5b0217905550600360009054906101000a900473ffffffffffffffffffffffffffffffffffffffff1673ffffffffffffffffffffffffffffffffffffffff1663a9059cbb84846040518363ffffffff1660e01b81526004016112df929190612484565b6020604051808303816000875af11580156112fe573d6000803e3d6000fd5b505050506040513d601f19601f8201168201806040525081019061132291906124d9565b9050949350505050565b600080600360009054906101000a900473ffffffffffffffffffffffffffffffffffffffff1673ffffffffffffffffffffffffffffffffffffffff1663095ea7b3600860009054906101000a900473ffffffffffffffffffffffffffffffffffffffff16866040518363ffffffff1660e01b81526004016113ae929190612484565b6020604051808303816000875af11580156113cd573d6000803e3d6000fd5b505050506040513d601f19601f820116820180604052508101906113f191906124d9565b9150600160009054906101000a900473ffffffffffffffffffffffffffffffffffffffff1673ffffffffffffffffffffffffffffffffffffffff166313bac82084306040518363ffffffff1660e01b81526004016114509291906127e9565b6020604051808303816000875af115801561146f573d6000803e3d6000fd5b505050506040513d601f19601f820116820180604052508101906114939190612812565b90506114a0868683611bbc565b94509492505050565b60008060008060006114b9610a80565b90506000678ac7230489e8000082886114d2919061283f565b6114dc91906123fd565b9050600460009054906101000a900473ffffffffffffffffffffffffffffffffffffffff1673ffffffffffffffffffffffffffffffffffffffff1663095ea7b3600960009054906101000a900473ffffffffffffffffffffffffffffffffffffffff16896040518363ffffffff1660e01b815260040161155d929190612484565b6020604051808303816000875af115801561157c573d6000803e3d6000fd5b505050506040513d601f19601f820116820180604052508101906115a091906124d9565b9550600560009054906101000a900473ffffffffffffffffffffffffffffffffffffffff1673ffffffffffffffffffffffffffffffffffffffff1663095ea7b3600960009054906101000a900473ffffffffffffffffffffffffffffffffffffffff16836040518363ffffffff1660e01b8152600401611621929190612484565b6020604051808303816000875af1158015611640573d6000803e3d6000fd5b505050506040513d601f19601f8201168201806040525081019061166491906124d9565b945060006040518060800160405280898152602001838152602001601e4261168c919061242e565b81526020013073ffffffffffffffffffffffffffffffffffffffff168152509050600260009054906101000a900473ffffffffffffffffffffffffffffffffffffffff1673ffffffffffffffffffffffffffffffffffffffff1663525e6b11826040518263ffffffff1660e01b8152600401611708919061290c565b60408051808303816000875af1158015611726573d6000803e3d6000fd5b505050506040513d601f19601f8201168201806040525081019061174a9190612927565b809550819650505061175f8a8a878688611c35565b50505093509350935093565b600080600061177a8585611d00565b915091506000600560009054906101000a900473ffffffffffffffffffffffffffffffffffffffff1673ffffffffffffffffffffffffffffffffffffffff1663a9059cbb601160009054906101000a900473ffffffffffffffffffffffffffffffffffffffff16856040518363ffffffff1660e01b81526004016117ff929190612484565b6020604051808303816000875af115801561181e573d6000803e3d6000fd5b505050506040513d601f19601f8201168201806040525081019061184291906124d9565b90506000600560009054906101000a900473ffffffffffffffffffffffffffffffffffffffff1673ffffffffffffffffffffffffffffffffffffffff1663a9059cbb600f60009054906101000a900473ffffffffffffffffffffffffffffffffffffffff16856040518363ffffffff1660e01b81526004016118c5929190612484565b6020604051808303816000875af11580156118e4573d6000803e3d6000fd5b505050506040513d601f19601f8201168201806040525081019061190891906124d9565b905061191689898587611d3f565b8080156119205750815b945050505050949350505050565b6005601283836040516119429291906126a8565b908152602001604051809103902060080160006101000a81548160ff0219169083600681111561197557611974612053565b5b02179055507fb068bfa73b9623ba0d319b003df0377fa326e109678625e7ad23230855b856b48282601285856040516119af9291906126a8565b908152602001604051809103902060050154601286866040516119d39291906126a8565b9081526020016040518091039020600601546040516119f59493929190612967565b60405180910390a15050565b611a09611de1565b73ffffffffffffffffffffffffffffffffffffffff16611a27610d71565b73ffffffffffffffffffffffffffffffffffffffff1614611a7d576040517f08c379a0000000000000000000000000000000000000000000000000000000008152600401611a74906129f3565b60405180910390fd5b565b60008060009054906101000a900473ffffffffffffffffffffffffffffffffffffffff169050816000806101000a81548173ffffffffffffffffffffffffffffffffffffffff021916908373ffffffffffffffffffffffffffffffffffffffff1602179055508173ffffffffffffffffffffffffffffffffffffffff168173ffffffffffffffffffffffffffffffffffffffff167f8be0079c531659141344cd1fd0a4f28419497f9722a3daafe3b4186f6b6457e060405160405180910390a35050565b600160128484604051611b579291906126a8565b908152602001604051809103902060080160006101000a81548160ff02191690836006811115611b8a57611b89612053565b5b02179055508060128484604051611ba29291906126a8565b908152602001604051809103902060010181905550505050565b600260128484604051611bd09291906126a8565b908152602001604051809103902060080160006101000a81548160ff02191690836006811115611c0357611c02612053565b5b02179055508060128484604051611c1b9291906126a8565b908152602001604051809103902060020181905550505050565b600360128686604051611c499291906126a8565b908152602001604051809103902060080160006101000a81548160ff02191690836006811115611c7c57611c7b612053565b5b02179055508260128686604051611c949291906126a8565b9081526020016040518091039020600301819055508160128686604051611cbc9291906126a8565b9081526020016040518091039020600401819055508060128686604051611ce49291906126a8565b9081526020016040518091039020600701819055505050505050565b600080826103e8600e86611d14919061283f565b611d1e91906123fd565b611d289190612a13565b91508184611d369190612a13565b90509250929050565b600460128585604051611d539291906126a8565b908152602001604051809103902060080160006101000a81548160ff02191690836006811115611d8657611d85612053565b5b02179055508160128585604051611d9e9291906126a8565b9081526020016040518091039020600501819055508060128585604051611dc69291906126a8565b90815260200160405180910390206006018190555050505050565b600033905090565b6000604051905090565b600080fd5b600080fd5b600073ffffffffffffffffffffffffffffffffffffffff82169050919050565b6000611e2882611dfd565b9050919050565b611e3881611e1d565b8114611e4357600080fd5b50565b600081359050611e5581611e2f565b92915050565b600060208284031215611e7157611e70611df3565b5b6000611e7f84828501611e46565b91505092915050565b6000819050919050565b611e9b81611e88565b82525050565b6000602082019050611eb66000830184611e92565b92915050565b600080fd5b600080fd5b600080fd5b60008083601f840112611ee157611ee0611ebc565b5b8235905067ffffffffffffffff811115611efe57611efd611ec1565b5b602083019150836001820283011115611f1a57611f19611ec6565b5b9250929050565b611f2a81611e88565b8114611f3557600080fd5b50565b600081359050611f4781611f21565b92915050565b60008060008060608587031215611f6757611f66611df3565b5b600085013567ffffffffffffffff811115611f8557611f84611df8565b5b611f9187828801611ecb565b94509450506020611fa487828801611e46565b9250506040611fb587828801611f38565b91505092959194509250565b60008115159050919050565b611fd681611fc1565b82525050565b6000602082019050611ff16000830184611fcd565b92915050565b6000806020838503121561200e5761200d611df3565b5b600083013567ffffffffffffffff81111561202c5761202b611df8565b5b61203885828601611ecb565b92509250509250929050565b61204d81611e1d565b82525050565b7f4e487b7100000000000000000000000000000000000000000000000000000000600052602160045260246000fd5b6007811061209357612092612053565b5b50565b60008190506120a482612082565b919050565b60006120b482612096565b9050919050565b6120c4816120a9565b82525050565b6000610120820190506120e0600083018c612044565b6120ed602083018b611e92565b6120fa604083018a611e92565b6121076060830189611e92565b6121146080830188611e92565b61212160a0830187611e92565b61212e60c0830186611e92565b61213b60e0830185611e92565b6121496101008301846120bb565b9a9950505050505050505050565b600080fd5b6000601f19601f8301169050919050565b7f4e487b7100000000000000000000000000000000000000000000000000000000600052604160045260246000fd5b6121a58261215c565b810181811067ffffffffffffffff821117156121c4576121c361216d565b5b80604052505050565b60006121d7611de9565b90506121e3828261219c565b919050565b600067ffffffffffffffff8211156122035761220261216d565b5b61220c8261215c565b9050602081019050919050565b82818337600083830152505050565b600061223b612236846121e8565b6121cd565b90508281526020810184848401111561225757612256612157565b5b612262848285612219565b509392505050565b600082601f83011261227f5761227e611ebc565b5b813561228f848260208601612228565b91505092915050565b6000602082840312156122ae576122ad611df3565b5b600082013567ffffffffffffffff8111156122cc576122cb611df8565b5b6122d88482850161226a565b91505092915050565b60006020820190506122f66000830184612044565b92915050565b600082825260208201905092915050565b7f596f7527726520616c6c6f77656420746f20696e69746961746520612074726160008201527f6e73666572000000000000000000000000000000000000000000000000000000602082015250565b60006123696025836122fc565b91506123748261230d565b604082019050919050565b600060208201905081810360008301526123988161235c565b9050919050565b7f4e487b7100000000000000000000000000000000000000000000000000000000600052601260045260246000fd5b7f4e487b7100000000000000000000000000000000000000000000000000000000600052601160045260246000fd5b600061240882611e88565b915061241383611e88565b9250826124235761242261239f565b5b828204905092915050565b600061243982611e88565b915061244483611e88565b9250827fffffffffffffffffffffffffffffffffffffffffffffffffffffffffffffffff03821115612479576124786123ce565b5b828201905092915050565b60006040820190506124996000830185612044565b6124a66020830184611e92565b9392505050565b6124b681611fc1565b81146124c157600080fd5b50565b6000815190506124d3816124ad565b92915050565b6000602082840312156124ef576124ee611df3565b5b60006124fd848285016124c4565b91505092915050565b600069ffffffffffffffffffff82169050919050565b61252581612506565b811461253057600080fd5b50565b6000815190506125428161251c565b92915050565b6000819050919050565b61255b81612548565b811461256657600080fd5b50565b60008151905061257881612552565b92915050565b60008151905061258d81611f21565b92915050565b600080600080600060a086880312156125af576125ae611df3565b5b60006125bd88828901612533565b95505060206125ce88828901612569565b94505060406125df8882890161257e565b93505060606125f08882890161257e565b925050608061260188828901612533565b9150509295509295909350565b600061261982612548565b915061262483612548565b9250826126345761263361239f565b5b600160000383147f80000000000000000000000000000000000000000000000000000000000000008314161561266d5761266c6123ce565b5b828205905092915050565b600081905092915050565b600061268f8385612678565b935061269c838584612219565b82840190509392505050565b60006126b5828486612683565b91508190509392505050565b7f4f776e61626c653a206e6577206f776e657220697320746865207a65726f206160008201527f6464726573730000000000000000000000000000000000000000000000000000602082015250565b600061271d6026836122fc565b9150612728826126c1565b604082019050919050565b6000602082019050818103600083015261274c81612710565b9050919050565b600061275f83856122fc565b935061276c838584612219565b6127758361215c565b840190509392505050565b6000604082019050818103600083015261279b818587612753565b90506127aa6020830184611e92565b949350505050565b60006060820190506127c76000830186612044565b6127d46020830185612044565b6127e16040830184611e92565b949350505050565b60006040820190506127fe6000830185611e92565b61280b6020830184612044565b9392505050565b60006020828403121561282857612827611df3565b5b60006128368482850161257e565b91505092915050565b600061284a82611e88565b915061285583611e88565b9250817fffffffffffffffffffffffffffffffffffffffffffffffffffffffffffffffff048311821515161561288e5761288d6123ce565b5b828202905092915050565b6128a281611e88565b82525050565b6128b181611e1d565b82525050565b6080820160008201516128cd6000850182612899565b5060208201516128e06020850182612899565b5060408201516128f36040850182612899565b50606082015161290660608501826128a8565b50505050565b600060808201905061292160008301846128b7565b92915050565b6000806040838503121561293e5761293d611df3565b5b600061294c8582860161257e565b925050602061295d8582860161257e565b9150509250929050565b60006060820190508181036000830152612982818688612753565b90506129916020830185611e92565b61299e6040830184611e92565b95945050505050565b7f4f776e61626c653a2063616c6c6572206973206e6f7420746865206f776e6572600082015250565b60006129dd6020836122fc565b91506129e8826129a7565b602082019050919050565b60006020820190508181036000830152612a0c816129d0565b9050919050565b6000612a1e82611e88565b9150612a2983611e88565b925082821015612a3c57612a3b6123ce565b5b82820390509291505056fea26469706673582212204ecd1a65f1bd939831cafef42b0a4639a0ebafe2eed5993a12e3104d62473f4764736f6c634300080e0033",
  "immutableReferences": {},
  "source": "// SPDX-License-Identifier: MIT\r\npragma solidity ^0.8.9;\r\n\r\nimport \"../node_modules/@chainlink/contracts/src/v0.8/interfaces/AggregatorV3Interface.sol\";\r\nimport \"../node_modules/@openzeppelin/contracts/access/Ownable.sol\";\r\nimport \"../node_modules/@openzeppelin/contracts/token/ERC20/IERC20.sol\";\r\nimport \"./interfaces/IFixedRateWrapper.sol\";\r\nimport \"./interfaces/ISynthereum.sol\";\r\nimport \"./BlockSendToken.sol\";\r\n\r\ncontract BlockSendRouter is Ownable {\r\n    IFixedRateWrapper private jarvisWrapper;\r\n    ISynthereum private jarvisSynthereum;\r\n    IERC20 private moneriumEURemoney;\r\n    IERC20 private jEURToken;\r\n    IERC20 private USDCToken;\r\n    BlockSendToken private BKSDToken;\r\n    mapping(address => uint256) public transferRewardsBalance;\r\n\r\n    address private WRAPPER_CONTRACT =\r\n        0xb07Cb016440331be4D2f532b20d892a420476AD0;\r\n    address private SYNTHEREUM_CONTRACT =\r\n        0x65a7b4Ff684C2d08c115D55a4B089bf4E92F5003;\r\n    address private EURE_TOKEN_CONTRACT =\r\n        0x18ec0A6E18E5bc3784fDd3a3634b31245ab704F6;\r\n    address private JEUR_TOKEN_CONTRACT =\r\n        0x4e3Decbb3645551B8A19f0eA1678079FCB33fB4c;\r\n    address private USDC_TOKEN_CONTRACT =\r\n        0x2791Bca1f2de4661ED88A30C99A7a9449Aa84174;\r\n    // address private BKSD_TOKEN_CONTRACT =\r\n    //     0x8d587d2Eaac88e6E228300180c921674a27ABFf3; // TODO: change this\r\n\r\n    address private EUR_USD_AGGREGATOR =\r\n        0x73366Fe0AA0Ded304479862808e02506FE556a98;\r\n    address private USDC_USD_AGGREGATOR =\r\n        0xfE4A8cc5b5B2366C1B58Bea3858e81843581b2F7;\r\n\r\n    address private HUB2_WALLET = 0xeD85CAeb52C34bD35dfeEB2d4e0bC936a0Db0923;\r\n    address private BLOCKSEND_BACKEND =\r\n        0x913Cd67dA3b17be7f66E865158cDF9a5c4F2a850;\r\n    address private BLOCKSEND_WALLET =\r\n        0x7f3eE84Fd13D815ff1005B7904Cd67084D8f353F;\r\n\r\n    mapping(string => Remittance) public transfers;\r\n    struct Remittance {\r\n        address sender;\r\n        uint256 amount_EURe;\r\n        uint256 amount_jEUR;\r\n        uint256 amount_USDC;\r\n        uint256 rate_EUR_USDC;\r\n        uint256 userAmount_USDC;\r\n        uint256 blocksendAmount_USDC;\r\n        uint256 jarvisFees_USDC;\r\n        TransferStatus status;\r\n    }\r\n\r\n    enum TransferStatus {\r\n        INITIALIZED,\r\n        EURE_RECEIVED,\r\n        JEUR_WRAPPED,\r\n        USDC_RECEIVED,\r\n        USDC_SENT,\r\n        FINALIZED,\r\n        TRANSFER_STUCK\r\n    }\r\n\r\n    mapping(address => bool) private allowed;\r\n\r\n    event TransferInitilized(string transferId, uint256 amount);\r\n    event TransferFinalized(\r\n        string transferId,\r\n        uint256 userAmount,\r\n        uint256 blocksendAmount\r\n    );\r\n    event ClaimTransferRewardEvent(address user, uint256 tokenAmount);\r\n\r\n    modifier onlyAllowed() {\r\n        require(allowed[msg.sender], \"You're allowed to initiate a transfer\");\r\n        _;\r\n    }\r\n\r\n    constructor(address _BKSD_TOKEN_CONTRACT) {\r\n        allowed[BLOCKSEND_BACKEND] = true;\r\n        jarvisWrapper = IFixedRateWrapper(WRAPPER_CONTRACT);\r\n        jarvisSynthereum = ISynthereum(SYNTHEREUM_CONTRACT);\r\n        moneriumEURemoney = IERC20(EURE_TOKEN_CONTRACT);\r\n        jEURToken = IERC20(JEUR_TOKEN_CONTRACT);\r\n        USDCToken = IERC20(USDC_TOKEN_CONTRACT);\r\n        BKSDToken = BlockSendToken(_BKSD_TOKEN_CONTRACT);\r\n    }\r\n\r\n    /**\r\n     * @notice Iinitialise a transfer of an amount of EURe\r\n     * @notice First Step: On-Ramp:\r\n     * @notice 1- Transfer EURe from user's wallet\r\n     * @notice 2- Wrap EURe to jEUR (Jarvis wrapper)\r\n     * @notice 3- Get jEUR/USDC Rate (Aggregator Chainlink)\r\n     * @notice 4- Redeem USDC from jEUR (Jarvis Redeem)\r\n     * @notice Secod Step: Calculate 1,9% of fees\r\n     * @notice Third Step: Off-Ramp: Using HUB2\r\n     * @notice if any error: Sent money to users wallet back\r\n     * @param transferId Input parameters transferId\r\n     * @param amount Input parameters for for transfered amount\r\n     * @param userWallet Input parameters for user wallet\r\n     * @return ok a boolean value indicating whether the operation succeeded.\r\n     *\r\n     * Emits a {TransferStatusChanged} event with the current status of the transfer.\r\n     */\r\n    function initializeTransfer(\r\n        string calldata transferId,\r\n        address userWallet,\r\n        uint256 amount\r\n    ) external onlyAllowed returns (bool ok) {\r\n        // require(amount >= 5 * 10e17, \"insufficient amount\");\r\n\r\n        initilizeTransferData(transferId, userWallet, amount);\r\n\r\n        bool okGetEURe = transferFrom(transferId, userWallet, amount);\r\n        if (!okGetEURe) {\r\n            TransferStuck(transferId, userWallet, amount);\r\n            return false;\r\n        }\r\n\r\n        (bool okApproveWrap, uint256 amountJEUR) = routage_jEURfromEURe(\r\n            transferId,\r\n            amount,\r\n            amount\r\n        );\r\n        if (!okApproveWrap || amountJEUR == 0) {\r\n            TransferStuck(transferId, userWallet, amount);\r\n            return false;\r\n        }\r\n\r\n        (\r\n            bool okApprouveJEUR,\r\n            bool okApprouveUSDC,\r\n            uint256 collateralRedeemed,\r\n            uint256 feePaid\r\n        ) = routage_USDCfromjEUR(transferId, amountJEUR);\r\n        if (!okApprouveJEUR || !okApprouveUSDC || collateralRedeemed == 0) {\r\n            TransferStuck(transferId, userWallet, amount);\r\n            return false;\r\n        }\r\n\r\n        bool okTransferWallet = transferUSDC(\r\n            transferId,\r\n            collateralRedeemed,\r\n            feePaid\r\n        );\r\n        if (!okTransferWallet) {\r\n            TransferStuck(transferId, userWallet, amount);\r\n            return false;\r\n        }\r\n\r\n        transferRewardsBalance[userWallet] += (amount / 2);\r\n\r\n        finalizeTransfer(transferId);\r\n\r\n        return true;\r\n    }\r\n\r\n    function getMyTranferRewardsBalance() external view returns (uint256) {\r\n        return transferRewardsBalance[msg.sender];\r\n    }\r\n\r\n    function claimTransferRewards() external {\r\n        // TODO: Add a require if necessary to avoid claim small amount of BSKD\r\n        uint256 amount = transferRewardsBalance[msg.sender];\r\n        transferRewardsBalance[msg.sender] = 0;\r\n        BKSDToken.mint(address(this), amount);\r\n        BKSDToken.transfer(msg.sender, amount);\r\n        emit ClaimTransferRewardEvent(msg.sender, amount);\r\n    }\r\n\r\n    /**\r\n     * Returns the current status of a specific remmitance.\r\n     */\r\n    function getTransfer(\r\n        string calldata _transferId\r\n    ) external view virtual returns (address sender,\r\n                                    uint256 amount_EURe,\r\n                                    uint256 amount_jEUR,\r\n                                    uint256 amount_USDC,\r\n                                    uint256 rate_EUR_USDC,\r\n                                    uint256 userAmount_USDC,\r\n                                    uint256 blocksendAmount_USDC,\r\n                                    uint256 jarvisFees_USDC,\r\n                                    TransferStatus status) {\r\n\r\n        sender=transfers[_transferId].sender;\r\n        amount_EURe=transfers[_transferId].amount_EURe;\r\n        amount_jEUR=transfers[_transferId].amount_jEUR;\r\n        amount_USDC=transfers[_transferId].amount_USDC;\r\n        rate_EUR_USDC=transfers[_transferId].rate_EUR_USDC;\r\n        userAmount_USDC=transfers[_transferId].userAmount_USDC;\r\n        blocksendAmount_USDC=transfers[_transferId].blocksendAmount_USDC;\r\n        jarvisFees_USDC=transfers[_transferId].jarvisFees_USDC;\r\n        status=transfers[_transferId].status;\r\n    }\r\n\r\n    // *********************** Manage Status changed ************************************\r\n    function initilizeTransferData(\r\n        string calldata _transferId,\r\n        address _userWallet,\r\n        uint256 _amount\r\n    ) internal {\r\n        transfers[_transferId].sender = _userWallet;\r\n        transfers[_transferId].status = TransferStatus.INITIALIZED;\r\n\r\n        emit TransferInitilized(_transferId, _amount);\r\n    }\r\n\r\n    function finalizeTransfer(string calldata _transferId) internal {\r\n        transfers[_transferId].status = TransferStatus.FINALIZED;\r\n\r\n        emit TransferFinalized(\r\n            _transferId,\r\n            transfers[_transferId].userAmount_USDC,\r\n            transfers[_transferId].blocksendAmount_USDC\r\n        );\r\n    }\r\n\r\n    function amountReceived(\r\n        string calldata _transferId,\r\n        uint256 _amount\r\n    ) internal {\r\n        transfers[_transferId].status = TransferStatus.EURE_RECEIVED;\r\n        transfers[_transferId].amount_EURe = _amount;\r\n    }\r\n\r\n    function amountWrapped(\r\n        string calldata _transferId,\r\n        uint256 _amount\r\n    ) internal {\r\n        transfers[_transferId].status = TransferStatus.JEUR_WRAPPED;\r\n        transfers[_transferId].amount_jEUR = _amount;\r\n    }\r\n\r\n    function redeemCollateral(\r\n        string calldata _transferId,\r\n        uint256 _collateral,\r\n        uint256 _rate,\r\n        uint256 _feePaid\r\n    ) internal {\r\n        transfers[_transferId].status = TransferStatus.USDC_RECEIVED;\r\n        transfers[_transferId].amount_USDC = _collateral;\r\n        transfers[_transferId].rate_EUR_USDC = _rate;\r\n        transfers[_transferId].jarvisFees_USDC = _feePaid;\r\n    }\r\n\r\n    function collateralSent(\r\n        string calldata _transferId,\r\n        uint256 _userAmount,\r\n        uint256 _blockSendAmount\r\n    ) internal {\r\n        transfers[_transferId].status = TransferStatus.USDC_SENT;\r\n        transfers[_transferId].userAmount_USDC = _userAmount;\r\n        transfers[_transferId].blocksendAmount_USDC = _blockSendAmount;\r\n    }\r\n\r\n    function TransferStuck(\r\n        string calldata _transferId,\r\n        address _userWallet,\r\n        uint256 _amount\r\n    ) internal returns (bool ok) {\r\n        transfers[_transferId].status = TransferStatus.TRANSFER_STUCK;\r\n\r\n        ok = moneriumEURemoney.transfer(_userWallet, _amount);\r\n    }\r\n\r\n    // *********************************************************************************\r\n\r\n    // *********************** GET EURe from user's wallet *****************************\r\n    function transferFrom(\r\n        string calldata _transferId,\r\n        address _userWallet,\r\n        uint256 _amount\r\n    ) internal returns (bool ok) {\r\n        ok = moneriumEURemoney.transferFrom(\r\n            _userWallet,\r\n            address(this),\r\n            _amount\r\n        );\r\n\r\n        amountReceived(_transferId, _amount);\r\n    }\r\n\r\n    // *********************************************************************************\r\n\r\n    // *********************** Wrap EURe to JEUR ***************************************\r\n    function routage_jEURfromEURe(\r\n        string calldata _transferId,\r\n        uint256 _amount,\r\n        uint256 _collateral\r\n    ) internal returns (bool ok, uint256 amountTokens) {\r\n        ok = moneriumEURemoney.approve(WRAPPER_CONTRACT, _amount);\r\n        amountTokens = jarvisWrapper.wrap(_collateral, address(this));\r\n\r\n        amountWrapped(_transferId, amountTokens);\r\n    }\r\n\r\n    // *********************************************************************************\r\n\r\n    // *********************** Wurn & Mint (Redeem) UCDS from JEUR *********************\r\n    function routage_USDCfromjEUR(\r\n        string calldata _transferId,\r\n        uint256 _numToken\r\n    )\r\n        internal\r\n        returns (\r\n            bool okApprouveJEUR,\r\n            bool okApprouveUSDC,\r\n            uint256 collateralRedeemed,\r\n            uint256 feePaid\r\n        )\r\n    {\r\n        uint256 price = get_EUR_USD_LatestPrice();\r\n        uint256 collateralUSDC = uint256((_numToken * price) / 10e18);\r\n\r\n        okApprouveJEUR = jEURToken.approve(SYNTHEREUM_CONTRACT, _numToken);\r\n        okApprouveUSDC = USDCToken.approve(SYNTHEREUM_CONTRACT, collateralUSDC);\r\n\r\n        ISynthereum.RedeemParams memory params = ISynthereum.RedeemParams({\r\n            numTokens: _numToken,\r\n            minCollateral: collateralUSDC,\r\n            expiration: block.timestamp + 30,\r\n            recipient: address(this)\r\n        });\r\n\r\n        (collateralRedeemed, feePaid) = jarvisSynthereum.redeem(params);\r\n\r\n        redeemCollateral(_transferId, collateralRedeemed, price, feePaid);\r\n    }\r\n\r\n    // *********************************************************************************\r\n\r\n    // *********************** Transfer USDC to HUB2 Wallet & BlockSend Wallet *********\r\n    function transferUSDC(\r\n        string calldata _transferId,\r\n        uint256 _collateralRedeemed,\r\n        uint256 _feePaid\r\n    ) internal returns (bool ok) {\r\n        (uint256 blocksendAmount, uint256 userAmount) = calculateBlockSendFees(\r\n            _collateralRedeemed,\r\n            _feePaid\r\n        );\r\n\r\n        bool okBlocksend = USDCToken.transfer(\r\n            BLOCKSEND_WALLET,\r\n            blocksendAmount\r\n        );\r\n        bool okHUB2 = USDCToken.transfer(HUB2_WALLET, userAmount);\r\n\r\n        collateralSent(_transferId, userAmount, blocksendAmount);\r\n\r\n        return okHUB2 && okBlocksend;\r\n    }\r\n\r\n    // *********************************************************************************\r\n\r\n    // *********************** Calculate 1,9% fees *************************************\r\n    function calculateBlockSendFees(\r\n        uint256 _amount,\r\n        uint256 _feePaid\r\n    ) internal pure returns (uint256 blocksendAmount, uint256 userAmount) {\r\n        blocksendAmount = ((_amount * 14) / 1000) - _feePaid;\r\n        userAmount = _amount - blocksendAmount;\r\n    }\r\n\r\n    // *********************************************************************************\r\n\r\n    // *********************** Update Contracts Addresses ******************************\r\n    function setWrapperContract(address _newAddress) external onlyOwner {\r\n        WRAPPER_CONTRACT = _newAddress;\r\n        jarvisWrapper = IFixedRateWrapper(WRAPPER_CONTRACT);\r\n    }\r\n\r\n    function setSyntheriumContract(address _newAddress) external onlyOwner {\r\n        SYNTHEREUM_CONTRACT = _newAddress;\r\n        jarvisSynthereum = ISynthereum(SYNTHEREUM_CONTRACT);\r\n    }\r\n\r\n    function setEURETokenContract(address _newAddress) external onlyOwner {\r\n        EURE_TOKEN_CONTRACT = _newAddress;\r\n        moneriumEURemoney = IERC20(EURE_TOKEN_CONTRACT);\r\n    }\r\n\r\n    function setJEURToken_Contract(address _newAddress) external onlyOwner {\r\n        JEUR_TOKEN_CONTRACT = _newAddress;\r\n        jEURToken = IERC20(JEUR_TOKEN_CONTRACT);\r\n    }\r\n\r\n    function setUSDCTokenContract(address _newAddress) external onlyOwner {\r\n        USDC_TOKEN_CONTRACT = _newAddress;\r\n        USDCToken = IERC20(USDC_TOKEN_CONTRACT);\r\n    }\r\n\r\n    function setHUB2Wallet(address _newAddress) external onlyOwner {\r\n        HUB2_WALLET = _newAddress;\r\n    }\r\n\r\n    function setBlockSend_Wallet(address _newAddress) external onlyOwner {\r\n        BLOCKSEND_WALLET = _newAddress;\r\n    }\r\n\r\n    function AllowAddress(address _addr) external onlyOwner {\r\n        allowed[_addr] = true;\r\n    }\r\n\r\n    // *********************************************************************************\r\n\r\n    // *********************** Get the latest rate *************************************\r\n    function get_EUR_USD_LatestPrice() public view returns (uint256) {\r\n        (, int256 price, , , ) = AggregatorV3Interface(EUR_USD_AGGREGATOR)\r\n            .latestRoundData();\r\n        return uint256(price / 1000);\r\n    }\r\n\r\n    function get_USDC_USD_LatestPrice() public view returns (uint256) {\r\n        (, int256 price, , , ) = AggregatorV3Interface(USDC_USD_AGGREGATOR)\r\n            .latestRoundData();\r\n        return uint256(price / 1000);\r\n    }\r\n    // *********************************************************************************\r\n}\r\n",
  "sourcePath": "C:\\Users\\zguai\\Desktop\\Repos\\BlockSend\\truffle\\contracts\\BlockSendRouter.sol",
  "compiler": {
    "name": "solc",
    "version": "0.8.14+commit.80d49f37.Emscripten.clang"
  },
  "schemaVersion": "3.4.10",
  "updatedAt": "2022-12-11T13:53:02.916Z",
  "devdoc": {
    "kind": "dev",
    "methods": {
      "initializeTransfer(string,address,uint256)": {
        "params": {
          "amount": "Input parameters for for transfered amount",
          "transferId": "Input parameters transferId",
          "userWallet": "Input parameters for user wallet"
        },
        "returns": {
          "ok": "a boolean value indicating whether the operation succeeded. Emits a {TransferStatusChanged} event with the current status of the transfer."
        }
      },
      "owner()": {
        "details": "Returns the address of the current owner."
      },
      "renounceOwnership()": {
        "details": "Leaves the contract without owner. It will not be possible to call `onlyOwner` functions anymore. Can only be called by the current owner. NOTE: Renouncing ownership will leave the contract without an owner, thereby removing any functionality that is only available to the owner."
      },
      "transferOwnership(address)": {
        "details": "Transfers ownership of the contract to a new account (`newOwner`). Can only be called by the current owner."
      }
    },
    "version": 1
  },
  "userdoc": {
    "kind": "user",
    "methods": {
      "getTransfer(string)": {
        "notice": "Returns the current status of a specific remmitance."
      },
      "initializeTransfer(string,address,uint256)": {
        "notice": "Iinitialise a transfer of an amount of EUReFirst Step: On-Ramp:1- Transfer EURe from user's wallet2- Wrap EURe to jEUR (Jarvis wrapper)3- Get jEUR/USDC Rate (Aggregator Chainlink)4- Redeem USDC from jEUR (Jarvis Redeem)Secod Step: Calculate 1,9% of feesThird Step: Off-Ramp: Using HUB2if any error: Sent money to users wallet back"
      }
    },
    "version": 1
  }
}