{
  "contractName": "BlockSendTransfer",
  "abi": [
    {
      "inputs": [],
      "stateMutability": "nonpayable",
      "type": "constructor"
    },
    {
      "anonymous": false,
      "inputs": [
        {
          "indexed": true,
          "internalType": "address",
          "name": "previousOwner",
          "type": "address"
        },
        {
          "indexed": true,
          "internalType": "address",
          "name": "newOwner",
          "type": "address"
        }
      ],
      "name": "OwnershipTransferred",
      "type": "event"
    },
    {
      "anonymous": false,
      "inputs": [
        {
          "indexed": false,
          "internalType": "string",
          "name": "transferId",
          "type": "string"
        },
        {
          "indexed": false,
          "internalType": "uint256",
          "name": "userAmount",
          "type": "uint256"
        },
        {
          "indexed": false,
          "internalType": "uint256",
          "name": "blocksendAmount",
          "type": "uint256"
        }
      ],
      "name": "TransferFinalized",
      "type": "event"
    },
    {
      "anonymous": false,
      "inputs": [
        {
          "indexed": false,
          "internalType": "string",
          "name": "transferId",
          "type": "string"
        },
        {
          "indexed": false,
          "internalType": "uint256",
          "name": "amount",
          "type": "uint256"
        }
      ],
      "name": "TransferInitilized",
      "type": "event"
    },
    {
      "anonymous": false,
      "inputs": [
        {
          "indexed": false,
          "internalType": "string",
          "name": "transferId",
          "type": "string"
        },
        {
          "indexed": false,
          "internalType": "enum BlockSendTransfer.TransferStatus",
          "name": "currentStatus",
          "type": "uint8"
        },
        {
          "indexed": false,
          "internalType": "string",
          "name": "errorMsg",
          "type": "string"
        }
      ],
      "name": "TransferStatusChanged",
      "type": "event"
    },
    {
      "inputs": [],
      "name": "owner",
      "outputs": [
        {
          "internalType": "address",
          "name": "",
          "type": "address"
        }
      ],
      "stateMutability": "view",
      "type": "function"
    },
    {
      "inputs": [],
      "name": "renounceOwnership",
      "outputs": [],
      "stateMutability": "nonpayable",
      "type": "function"
    },
    {
      "inputs": [
        {
          "internalType": "address",
          "name": "newOwner",
          "type": "address"
        }
      ],
      "name": "transferOwnership",
      "outputs": [],
      "stateMutability": "nonpayable",
      "type": "function"
    },
    {
      "inputs": [
        {
          "internalType": "string",
          "name": "",
          "type": "string"
        }
      ],
      "name": "transfers",
      "outputs": [
        {
          "internalType": "address",
          "name": "sender",
          "type": "address"
        },
        {
          "internalType": "uint256",
          "name": "amount_EURe",
          "type": "uint256"
        },
        {
          "internalType": "uint256",
          "name": "amount_jEUR",
          "type": "uint256"
        },
        {
          "internalType": "uint256",
          "name": "amount_USDC",
          "type": "uint256"
        },
        {
          "internalType": "uint256",
          "name": "userAmount_USDC",
          "type": "uint256"
        },
        {
          "internalType": "uint256",
          "name": "blocksendAmount_USDC",
          "type": "uint256"
        },
        {
          "internalType": "enum BlockSendTransfer.TransferStatus",
          "name": "status",
          "type": "uint8"
        }
      ],
      "stateMutability": "view",
      "type": "function"
    },
    {
      "inputs": [
        {
          "internalType": "string",
          "name": "transferId",
          "type": "string"
        },
        {
          "internalType": "address",
          "name": "userWallet",
          "type": "address"
        },
        {
          "internalType": "uint256",
          "name": "amount",
          "type": "uint256"
        }
      ],
      "name": "initializeTransfer",
      "outputs": [
        {
          "internalType": "bool",
          "name": "ok",
          "type": "bool"
        }
      ],
      "stateMutability": "nonpayable",
      "type": "function"
    },
    {
      "inputs": [
        {
          "internalType": "string",
          "name": "transferId",
          "type": "string"
        }
      ],
      "name": "remittanceStatus",
      "outputs": [
        {
          "internalType": "enum BlockSendTransfer.TransferStatus",
          "name": "",
          "type": "uint8"
        }
      ],
      "stateMutability": "view",
      "type": "function"
    },
    {
      "inputs": [
        {
          "internalType": "address",
          "name": "newAddress",
          "type": "address"
        }
      ],
      "name": "setWrapperContract",
      "outputs": [],
      "stateMutability": "nonpayable",
      "type": "function"
    },
    {
      "inputs": [
        {
          "internalType": "address",
          "name": "newAddress",
          "type": "address"
        }
      ],
      "name": "setSyntheriumContract",
      "outputs": [],
      "stateMutability": "nonpayable",
      "type": "function"
    },
    {
      "inputs": [
        {
          "internalType": "address",
          "name": "newAddress",
          "type": "address"
        }
      ],
      "name": "setEURETokenContract",
      "outputs": [],
      "stateMutability": "nonpayable",
      "type": "function"
    },
    {
      "inputs": [
        {
          "internalType": "address",
          "name": "newAddress",
          "type": "address"
        }
      ],
      "name": "setJEURToken_Contract",
      "outputs": [],
      "stateMutability": "nonpayable",
      "type": "function"
    },
    {
      "inputs": [
        {
          "internalType": "address",
          "name": "newAddress",
          "type": "address"
        }
      ],
      "name": "setUSDCTokenContract",
      "outputs": [],
      "stateMutability": "nonpayable",
      "type": "function"
    },
    {
      "inputs": [
        {
          "internalType": "address",
          "name": "newAddress",
          "type": "address"
        }
      ],
      "name": "setEUR_USD_Aggregator",
      "outputs": [],
      "stateMutability": "nonpayable",
      "type": "function"
    },
    {
      "inputs": [
        {
          "internalType": "address",
          "name": "newAddress",
          "type": "address"
        }
      ],
      "name": "setHUB2Wallet",
      "outputs": [],
      "stateMutability": "nonpayable",
      "type": "function"
    },
    {
      "inputs": [
        {
          "internalType": "address",
          "name": "newAddress",
          "type": "address"
        }
      ],
      "name": "setBlockSend_Wallet",
      "outputs": [],
      "stateMutability": "nonpayable",
      "type": "function"
    },
    {
      "inputs": [
        {
          "internalType": "address",
          "name": "_addr",
          "type": "address"
        }
      ],
      "name": "AllowAddress",
      "outputs": [],
      "stateMutability": "nonpayable",
      "type": "function"
    },
    {
      "inputs": [],
      "name": "getLatestPrice",
      "outputs": [
        {
          "internalType": "uint256",
          "name": "",
          "type": "uint256"
        }
      ],
      "stateMutability": "view",
      "type": "function"
    }
  ],
  "bytecode": "0x608060405273b07cb016440331be4d2f532b20d892a420476ad0600760006101000a81548173ffffffffffffffffffffffffffffffffffffffff021916908373ffffffffffffffffffffffffffffffffffffffff1602179055507365a7b4ff684c2d08c115d55a4b089bf4e92f5003600860006101000a81548173ffffffffffffffffffffffffffffffffffffffff021916908373ffffffffffffffffffffffffffffffffffffffff1602179055507318ec0a6e18e5bc3784fdd3a3634b31245ab704f6600960006101000a81548173ffffffffffffffffffffffffffffffffffffffff021916908373ffffffffffffffffffffffffffffffffffffffff160217905550734e3decbb3645551b8a19f0ea1678079fcb33fb4c600a60006101000a81548173ffffffffffffffffffffffffffffffffffffffff021916908373ffffffffffffffffffffffffffffffffffffffff160217905550732791bca1f2de4661ed88a30c99a7a9449aa84174600b60006101000a81548173ffffffffffffffffffffffffffffffffffffffff021916908373ffffffffffffffffffffffffffffffffffffffff1602179055507373366fe0aa0ded304479862808e02506fe556a98600c60006101000a81548173ffffffffffffffffffffffffffffffffffffffff021916908373ffffffffffffffffffffffffffffffffffffffff1602179055507364568cfc9122104a4b23abf67830873be66fc3d8600d60006101000a81548173ffffffffffffffffffffffffffffffffffffffff021916908373ffffffffffffffffffffffffffffffffffffffff16021790555073913cd67da3b17be7f66e865158cdf9a5c4f2a850600e60006101000a81548173ffffffffffffffffffffffffffffffffffffffff021916908373ffffffffffffffffffffffffffffffffffffffff1602179055507364568cfc9122104a4b23abf67830873be66fc3d8600f60006101000a81548173ffffffffffffffffffffffffffffffffffffffff021916908373ffffffffffffffffffffffffffffffffffffffff1602179055503480156200030e57600080fd5b506200032f620003236200060160201b60201c565b6200060960201b60201c565b600160116000600e60009054906101000a900473ffffffffffffffffffffffffffffffffffffffff1673ffffffffffffffffffffffffffffffffffffffff1673ffffffffffffffffffffffffffffffffffffffff16815260200190815260200160002060006101000a81548160ff021916908315150217905550600760009054906101000a900473ffffffffffffffffffffffffffffffffffffffff16600260006101000a81548173ffffffffffffffffffffffffffffffffffffffff021916908373ffffffffffffffffffffffffffffffffffffffff160217905550600860009054906101000a900473ffffffffffffffffffffffffffffffffffffffff16600360006101000a81548173ffffffffffffffffffffffffffffffffffffffff021916908373ffffffffffffffffffffffffffffffffffffffff160217905550600960009054906101000a900473ffffffffffffffffffffffffffffffffffffffff16600460006101000a81548173ffffffffffffffffffffffffffffffffffffffff021916908373ffffffffffffffffffffffffffffffffffffffff160217905550600a60009054906101000a900473ffffffffffffffffffffffffffffffffffffffff16600560006101000a81548173ffffffffffffffffffffffffffffffffffffffff021916908373ffffffffffffffffffffffffffffffffffffffff160217905550600b60009054906101000a900473ffffffffffffffffffffffffffffffffffffffff16600660006101000a81548173ffffffffffffffffffffffffffffffffffffffff021916908373ffffffffffffffffffffffffffffffffffffffff160217905550600c60009054906101000a900473ffffffffffffffffffffffffffffffffffffffff16600160006101000a81548173ffffffffffffffffffffffffffffffffffffffff021916908373ffffffffffffffffffffffffffffffffffffffff160217905550620006cd565b600033905090565b60008060009054906101000a900473ffffffffffffffffffffffffffffffffffffffff169050816000806101000a81548173ffffffffffffffffffffffffffffffffffffffff021916908373ffffffffffffffffffffffffffffffffffffffff1602179055508173ffffffffffffffffffffffffffffffffffffffff168173ffffffffffffffffffffffffffffffffffffffff167f8be0079c531659141344cd1fd0a4f28419497f9722a3daafe3b4186f6b6457e060405160405180910390a35050565b61281380620006dd6000396000f3fe608060405234801561001057600080fd5b50600436106101005760003560e01c8063715018a611610097578063ea45efbf11610066578063ea45efbf14610289578063eead6fd8146102a5578063f11283a2146102c1578063f2fde38b146102dd57610100565b8063715018a61461020d57806384a1c233146102175780638da5cb5b1461024d5780638e15f4731461026b57610100565b8063381ea9c5116100d3578063381ea9c51461018957806343dafdbe146101a55780634b8cc80d146101c15780634e558127146101f157610100565b806312ee45b7146101055780631dfe08191461012157806325a9760514610151578063335bafa21461016d575b600080fd5b61011f600480360381019061011a9190611acb565b6102f9565b005b61013b60048036038101906101369190611b93565b6103a8565b6040516101489190611c22565b60405180910390f35b61016b60048036038101906101669190611acb565b6105cb565b005b61018760048036038101906101829190611acb565b61067a565b005b6101a3600480360381019061019e9190611acb565b610729565b005b6101bf60048036038101906101ba9190611acb565b610775565b005b6101db60048036038101906101d69190611c3d565b6107c1565b6040516101e89190611d01565b60405180910390f35b61020b60048036038101906102069190611acb565b6107fc565b005b6102156108ab565b005b610231600480360381019061022c9190611e5d565b6108bf565b6040516102449796959493929190611ec4565b60405180910390f35b610255610944565b6040516102629190611f33565b60405180910390f35b61027361096d565b6040516102809190611f4e565b60405180910390f35b6102a3600480360381019061029e9190611acb565b610a1b565b005b6102bf60048036038101906102ba9190611acb565b610aca565b005b6102db60048036038101906102d69190611acb565b610b79565b005b6102f760048036038101906102f29190611acb565b610bdc565b005b610301610c5f565b80600c60006101000a81548173ffffffffffffffffffffffffffffffffffffffff021916908373ffffffffffffffffffffffffffffffffffffffff160217905550600c60009054906101000a900473ffffffffffffffffffffffffffffffffffffffff16600160006101000a81548173ffffffffffffffffffffffffffffffffffffffff021916908373ffffffffffffffffffffffffffffffffffffffff16021790555050565b6000601160003373ffffffffffffffffffffffffffffffffffffffff1673ffffffffffffffffffffffffffffffffffffffff16815260200190815260200160002060009054906101000a900460ff16610436576040517f08c379a000000000000000000000000000000000000000000000000000000000815260040161042d90611fec565b60405180910390fd5b61044285858585610cdd565b600061045086868686610dcc565b90508061047e576104738686868660405180602001604052806000815250610e85565b5060009150506105c3565b60008061048d88888788610fbc565b9150915081158061049e5750600081145b156104cc576104bf8888888860405180602001604052806000815250610e85565b50600093505050506105c3565b60006104d661096d565b9050600081633b9aca00846104eb919061206a565b6104f5919061209b565b90506000806000806105098e8e8988611139565b935093509350935083158061051c575082155b806105275750600082145b806105325750600081145b15610566576105538e8e8e8e60405180602001604052806000815250610e85565b50600099505050505050505050506105c3565b60006105738f8f856113ca565b9050806105aa576105968f8f8f8f60405180602001604052806000815250610e85565b5060009a50505050505050505050506105c3565b6105b48f8f61158b565b60019a50505050505050505050505b949350505050565b6105d3610c5f565b80600960006101000a81548173ffffffffffffffffffffffffffffffffffffffff021916908373ffffffffffffffffffffffffffffffffffffffff160217905550600960009054906101000a900473ffffffffffffffffffffffffffffffffffffffff16600460006101000a81548173ffffffffffffffffffffffffffffffffffffffff021916908373ffffffffffffffffffffffffffffffffffffffff16021790555050565b610682610c5f565b80600860006101000a81548173ffffffffffffffffffffffffffffffffffffffff021916908373ffffffffffffffffffffffffffffffffffffffff160217905550600860009054906101000a900473ffffffffffffffffffffffffffffffffffffffff16600360006101000a81548173ffffffffffffffffffffffffffffffffffffffff021916908373ffffffffffffffffffffffffffffffffffffffff16021790555050565b610731610c5f565b80600d60006101000a81548173ffffffffffffffffffffffffffffffffffffffff021916908373ffffffffffffffffffffffffffffffffffffffff16021790555050565b61077d610c5f565b80600f60006101000a81548173ffffffffffffffffffffffffffffffffffffffff021916908373ffffffffffffffffffffffffffffffffffffffff16021790555050565b6000601083836040516107d5929190612125565b908152602001604051809103902060060160009054906101000a900460ff16905092915050565b610804610c5f565b80600760006101000a81548173ffffffffffffffffffffffffffffffffffffffff021916908373ffffffffffffffffffffffffffffffffffffffff160217905550600760009054906101000a900473ffffffffffffffffffffffffffffffffffffffff16600260006101000a81548173ffffffffffffffffffffffffffffffffffffffff021916908373ffffffffffffffffffffffffffffffffffffffff16021790555050565b6108b3610c5f565b6108bd600061165e565b565b6010818051602081018201805184825260208301602085012081835280955050505050506000915090508060000160009054906101000a900473ffffffffffffffffffffffffffffffffffffffff16908060010154908060020154908060030154908060040154908060050154908060060160009054906101000a900460ff16905087565b60008060009054906101000a900473ffffffffffffffffffffffffffffffffffffffff16905090565b600080600160009054906101000a900473ffffffffffffffffffffffffffffffffffffffff1673ffffffffffffffffffffffffffffffffffffffff1663feaf968c6040518163ffffffff1660e01b815260040160a060405180830381865afa1580156109dd573d6000803e3d6000fd5b505050506040513d601f19601f82011682018060405250810190610a0191906121cb565b5050509150506103e881610a159190612246565b91505090565b610a23610c5f565b80600a60006101000a81548173ffffffffffffffffffffffffffffffffffffffff021916908373ffffffffffffffffffffffffffffffffffffffff160217905550600a60009054906101000a900473ffffffffffffffffffffffffffffffffffffffff16600560006101000a81548173ffffffffffffffffffffffffffffffffffffffff021916908373ffffffffffffffffffffffffffffffffffffffff16021790555050565b610ad2610c5f565b80600b60006101000a81548173ffffffffffffffffffffffffffffffffffffffff021916908373ffffffffffffffffffffffffffffffffffffffff160217905550600b60009054906101000a900473ffffffffffffffffffffffffffffffffffffffff16600660006101000a81548173ffffffffffffffffffffffffffffffffffffffff021916908373ffffffffffffffffffffffffffffffffffffffff16021790555050565b610b81610c5f565b6001601160008373ffffffffffffffffffffffffffffffffffffffff1673ffffffffffffffffffffffffffffffffffffffff16815260200190815260200160002060006101000a81548160ff02191690831515021790555050565b610be4610c5f565b600073ffffffffffffffffffffffffffffffffffffffff168173ffffffffffffffffffffffffffffffffffffffff1603610c53576040517f08c379a0000000000000000000000000000000000000000000000000000000008152600401610c4a90612322565b60405180910390fd5b610c5c8161165e565b50565b610c67611722565b73ffffffffffffffffffffffffffffffffffffffff16610c85610944565b73ffffffffffffffffffffffffffffffffffffffff1614610cdb576040517f08c379a0000000000000000000000000000000000000000000000000000000008152600401610cd29061238e565b60405180910390fd5b565b8160108585604051610cf0929190612125565b908152602001604051809103902060000160006101000a81548173ffffffffffffffffffffffffffffffffffffffff021916908373ffffffffffffffffffffffffffffffffffffffff160217905550600060108585604051610d53929190612125565b908152602001604051809103902060060160006101000a81548160ff02191690836006811115610d8657610d85611c8a565b5b02179055507f9f99091afbc24bd9abfd7adca3533b5457ad5307a86351e337bcee2fb1f364de848483604051610dbe939291906123db565b60405180910390a150505050565b6000600460009054906101000a900473ffffffffffffffffffffffffffffffffffffffff1673ffffffffffffffffffffffffffffffffffffffff166323b872dd8430856040518463ffffffff1660e01b8152600401610e2d9392919061240d565b6020604051808303816000875af1158015610e4c573d6000803e3d6000fd5b505050506040513d601f19601f82011682018060405250810190610e709190612470565b9050610e7d85858461172a565b949350505050565b6000600660108787604051610e9b929190612125565b908152602001604051809103902060060160006101000a81548160ff02191690836006811115610ece57610ecd611c8a565b5b0217905550600460009054906101000a900473ffffffffffffffffffffffffffffffffffffffff1673ffffffffffffffffffffffffffffffffffffffff1663a9059cbb85856040518363ffffffff1660e01b8152600401610f3092919061249d565b6020604051808303816000875af1158015610f4f573d6000803e3d6000fd5b505050506040513d601f19601f82011682018060405250810190610f739190612470565b90507fb77f853b6da055bd331fe04b2ad64875bc05489c96278fc68860d6b4305f8dce8686600685604051610fab949392919061253d565b60405180910390a195945050505050565b600080600460009054906101000a900473ffffffffffffffffffffffffffffffffffffffff1673ffffffffffffffffffffffffffffffffffffffff1663095ea7b3600760009054906101000a900473ffffffffffffffffffffffffffffffffffffffff16866040518363ffffffff1660e01b815260040161103e92919061249d565b6020604051808303816000875af115801561105d573d6000803e3d6000fd5b505050506040513d601f19601f820116820180604052508101906110819190612470565b9150600260009054906101000a900473ffffffffffffffffffffffffffffffffffffffff1673ffffffffffffffffffffffffffffffffffffffff166313bac82084306040518363ffffffff1660e01b81526004016110e0929190612584565b6020604051808303816000875af11580156110ff573d6000803e3d6000fd5b505050506040513d601f19601f8201168201806040525081019061112391906125ad565b90506111308686836117df565b94509492505050565b600080600080600560009054906101000a900473ffffffffffffffffffffffffffffffffffffffff1673ffffffffffffffffffffffffffffffffffffffff1663095ea7b3600860009054906101000a900473ffffffffffffffffffffffffffffffffffffffff16886040518363ffffffff1660e01b81526004016111be92919061249d565b6020604051808303816000875af11580156111dd573d6000803e3d6000fd5b505050506040513d601f19601f820116820180604052508101906112019190612470565b9350600660009054906101000a900473ffffffffffffffffffffffffffffffffffffffff1673ffffffffffffffffffffffffffffffffffffffff1663095ea7b3600860009054906101000a900473ffffffffffffffffffffffffffffffffffffffff16876040518363ffffffff1660e01b815260040161128292919061249d565b6020604051808303816000875af11580156112a1573d6000803e3d6000fd5b505050506040513d601f19601f820116820180604052508101906112c59190612470565b925060006040518060800160405280888152602001878152602001601e426112ed91906125da565b81526020013073ffffffffffffffffffffffffffffffffffffffff168152509050600360009054906101000a900473ffffffffffffffffffffffffffffffffffffffff1673ffffffffffffffffffffffffffffffffffffffff1663525e6b11826040518263ffffffff1660e01b815260040161136991906126a3565b60408051808303816000875af1158015611387573d6000803e3d6000fd5b505050506040513d601f19601f820116820180604052508101906113ab91906126be565b80935081945050506113be898985611894565b50945094509450949050565b60008060006113d884611949565b915091506000600660009054906101000a900473ffffffffffffffffffffffffffffffffffffffff1673ffffffffffffffffffffffffffffffffffffffff1663a9059cbb600f60009054906101000a900473ffffffffffffffffffffffffffffffffffffffff16856040518363ffffffff1660e01b815260040161145d92919061249d565b6020604051808303816000875af115801561147c573d6000803e3d6000fd5b505050506040513d601f19601f820116820180604052508101906114a09190612470565b90506000600660009054906101000a900473ffffffffffffffffffffffffffffffffffffffff1673ffffffffffffffffffffffffffffffffffffffff1663a9059cbb600d60009054906101000a900473ffffffffffffffffffffffffffffffffffffffff16856040518363ffffffff1660e01b815260040161152392919061249d565b6020604051808303816000875af1158015611542573d6000803e3d6000fd5b505050506040513d601f19601f820116820180604052508101906115669190612470565b90506115748888858761197b565b80801561157e5750815b9450505050509392505050565b60056010838360405161159f929190612125565b908152602001604051809103902060060160006101000a81548160ff021916908360068111156115d2576115d1611c8a565b5b02179055507fb068bfa73b9623ba0d319b003df0377fa326e109678625e7ad23230855b856b482826010858560405161160c929190612125565b90815260200160405180910390206004015460108686604051611630929190612125565b90815260200160405180910390206005015460405161165294939291906126fe565b60405180910390a15050565b60008060009054906101000a900473ffffffffffffffffffffffffffffffffffffffff169050816000806101000a81548173ffffffffffffffffffffffffffffffffffffffff021916908373ffffffffffffffffffffffffffffffffffffffff1602179055508173ffffffffffffffffffffffffffffffffffffffff168173ffffffffffffffffffffffffffffffffffffffff167f8be0079c531659141344cd1fd0a4f28419497f9722a3daafe3b4186f6b6457e060405160405180910390a35050565b600033905090565b60016010848460405161173e929190612125565b908152602001604051809103902060060160006101000a81548160ff0219169083600681111561177157611770611c8a565b5b02179055508060108484604051611789929190612125565b9081526020016040518091039020600101819055507fb77f853b6da055bd331fe04b2ad64875bc05489c96278fc68860d6b4305f8dce838360016040516117d293929190612764565b60405180910390a1505050565b6002601084846040516117f3929190612125565b908152602001604051809103902060060160006101000a81548160ff0219169083600681111561182657611825611c8a565b5b0217905550806010848460405161183e929190612125565b9081526020016040518091039020600201819055507fb77f853b6da055bd331fe04b2ad64875bc05489c96278fc68860d6b4305f8dce8383600260405161188793929190612764565b60405180910390a1505050565b6003601084846040516118a8929190612125565b908152602001604051809103902060060160006101000a81548160ff021916908360068111156118db576118da611c8a565b5b021790555080601084846040516118f3929190612125565b9081526020016040518091039020600301819055507fb77f853b6da055bd331fe04b2ad64875bc05489c96278fc68860d6b4305f8dce8383600360405161193c93929190612764565b60405180910390a1505050565b6000806103e860138461195c919061209b565b611966919061206a565b9150818361197491906127a9565b9050915091565b60046010858560405161198f929190612125565b908152602001604051809103902060060160006101000a81548160ff021916908360068111156119c2576119c1611c8a565b5b021790555081601085856040516119da929190612125565b9081526020016040518091039020600401819055508060108585604051611a02929190612125565b9081526020016040518091039020600501819055507fb77f853b6da055bd331fe04b2ad64875bc05489c96278fc68860d6b4305f8dce84846004604051611a4b93929190612764565b60405180910390a150505050565b6000604051905090565b600080fd5b600080fd5b600073ffffffffffffffffffffffffffffffffffffffff82169050919050565b6000611a9882611a6d565b9050919050565b611aa881611a8d565b8114611ab357600080fd5b50565b600081359050611ac581611a9f565b92915050565b600060208284031215611ae157611ae0611a63565b5b6000611aef84828501611ab6565b91505092915050565b600080fd5b600080fd5b600080fd5b60008083601f840112611b1d57611b1c611af8565b5b8235905067ffffffffffffffff811115611b3a57611b39611afd565b5b602083019150836001820283011115611b5657611b55611b02565b5b9250929050565b6000819050919050565b611b7081611b5d565b8114611b7b57600080fd5b50565b600081359050611b8d81611b67565b92915050565b60008060008060608587031215611bad57611bac611a63565b5b600085013567ffffffffffffffff811115611bcb57611bca611a68565b5b611bd787828801611b07565b94509450506020611bea87828801611ab6565b9250506040611bfb87828801611b7e565b91505092959194509250565b60008115159050919050565b611c1c81611c07565b82525050565b6000602082019050611c376000830184611c13565b92915050565b60008060208385031215611c5457611c53611a63565b5b600083013567ffffffffffffffff811115611c7257611c71611a68565b5b611c7e85828601611b07565b92509250509250929050565b7f4e487b7100000000000000000000000000000000000000000000000000000000600052602160045260246000fd5b60078110611cca57611cc9611c8a565b5b50565b6000819050611cdb82611cb9565b919050565b6000611ceb82611ccd565b9050919050565b611cfb81611ce0565b82525050565b6000602082019050611d166000830184611cf2565b92915050565b600080fd5b6000601f19601f8301169050919050565b7f4e487b7100000000000000000000000000000000000000000000000000000000600052604160045260246000fd5b611d6a82611d21565b810181811067ffffffffffffffff82111715611d8957611d88611d32565b5b80604052505050565b6000611d9c611a59565b9050611da88282611d61565b919050565b600067ffffffffffffffff821115611dc857611dc7611d32565b5b611dd182611d21565b9050602081019050919050565b82818337600083830152505050565b6000611e00611dfb84611dad565b611d92565b905082815260208101848484011115611e1c57611e1b611d1c565b5b611e27848285611dde565b509392505050565b600082601f830112611e4457611e43611af8565b5b8135611e54848260208601611ded565b91505092915050565b600060208284031215611e7357611e72611a63565b5b600082013567ffffffffffffffff811115611e9157611e90611a68565b5b611e9d84828501611e2f565b91505092915050565b611eaf81611a8d565b82525050565b611ebe81611b5d565b82525050565b600060e082019050611ed9600083018a611ea6565b611ee66020830189611eb5565b611ef36040830188611eb5565b611f006060830187611eb5565b611f0d6080830186611eb5565b611f1a60a0830185611eb5565b611f2760c0830184611cf2565b98975050505050505050565b6000602082019050611f486000830184611ea6565b92915050565b6000602082019050611f636000830184611eb5565b92915050565b600082825260208201905092915050565b7f596f7527726520616c6c6f77656420746f20696e69746961746520612074726160008201527f6e73666572000000000000000000000000000000000000000000000000000000602082015250565b6000611fd6602583611f69565b9150611fe182611f7a565b604082019050919050565b6000602082019050818103600083015261200581611fc9565b9050919050565b7f4e487b7100000000000000000000000000000000000000000000000000000000600052601260045260246000fd5b7f4e487b7100000000000000000000000000000000000000000000000000000000600052601160045260246000fd5b600061207582611b5d565b915061208083611b5d565b9250826120905761208f61200c565b5b828204905092915050565b60006120a682611b5d565b91506120b183611b5d565b9250817fffffffffffffffffffffffffffffffffffffffffffffffffffffffffffffffff04831182151516156120ea576120e961203b565b5b828202905092915050565b600081905092915050565b600061210c83856120f5565b9350612119838584611dde565b82840190509392505050565b6000612132828486612100565b91508190509392505050565b600069ffffffffffffffffffff82169050919050565b61215d8161213e565b811461216857600080fd5b50565b60008151905061217a81612154565b92915050565b6000819050919050565b61219381612180565b811461219e57600080fd5b50565b6000815190506121b08161218a565b92915050565b6000815190506121c581611b67565b92915050565b600080600080600060a086880312156121e7576121e6611a63565b5b60006121f58882890161216b565b9550506020612206888289016121a1565b9450506040612217888289016121b6565b9350506060612228888289016121b6565b92505060806122398882890161216b565b9150509295509295909350565b600061225182612180565b915061225c83612180565b92508261226c5761226b61200c565b5b600160000383147f8000000000000000000000000000000000000000000000000000000000000000831416156122a5576122a461203b565b5b828205905092915050565b7f4f776e61626c653a206e6577206f776e657220697320746865207a65726f206160008201527f6464726573730000000000000000000000000000000000000000000000000000602082015250565b600061230c602683611f69565b9150612317826122b0565b604082019050919050565b6000602082019050818103600083015261233b816122ff565b9050919050565b7f4f776e61626c653a2063616c6c6572206973206e6f7420746865206f776e6572600082015250565b6000612378602083611f69565b915061238382612342565b602082019050919050565b600060208201905081810360008301526123a78161236b565b9050919050565b60006123ba8385611f69565b93506123c7838584611dde565b6123d083611d21565b840190509392505050565b600060408201905081810360008301526123f68185876123ae565b90506124056020830184611eb5565b949350505050565b60006060820190506124226000830186611ea6565b61242f6020830185611ea6565b61243c6040830184611eb5565b949350505050565b61244d81611c07565b811461245857600080fd5b50565b60008151905061246a81612444565b92915050565b60006020828403121561248657612485611a63565b5b60006124948482850161245b565b91505092915050565b60006040820190506124b26000830185611ea6565b6124bf6020830184611eb5565b9392505050565b600081519050919050565b60005b838110156124ef5780820151818401526020810190506124d4565b838111156124fe576000848401525b50505050565b600061250f826124c6565b6125198185611f69565b93506125298185602086016124d1565b61253281611d21565b840191505092915050565b600060608201905081810360008301526125588186886123ae565b90506125676020830185611cf2565b81810360408301526125798184612504565b905095945050505050565b60006040820190506125996000830185611eb5565b6125a66020830184611ea6565b9392505050565b6000602082840312156125c3576125c2611a63565b5b60006125d1848285016121b6565b91505092915050565b60006125e582611b5d565b91506125f083611b5d565b9250827fffffffffffffffffffffffffffffffffffffffffffffffffffffffffffffffff038211156126255761262461203b565b5b828201905092915050565b61263981611b5d565b82525050565b61264881611a8d565b82525050565b6080820160008201516126646000850182612630565b5060208201516126776020850182612630565b50604082015161268a6040850182612630565b50606082015161269d606085018261263f565b50505050565b60006080820190506126b8600083018461264e565b92915050565b600080604083850312156126d5576126d4611a63565b5b60006126e3858286016121b6565b92505060206126f4858286016121b6565b9150509250929050565b600060608201905081810360008301526127198186886123ae565b90506127286020830185611eb5565b6127356040830184611eb5565b95945050505050565b50565b600061274e600083611f69565b91506127598261273e565b600082019050919050565b6000606082019050818103600083015261277f8185876123ae565b905061278e6020830184611cf2565b818103604083015261279f81612741565b9050949350505050565b60006127b482611b5d565b91506127bf83611b5d565b9250828210156127d2576127d161203b565b5b82820390509291505056fea26469706673582212202415fd70a8b634c056bd5bbd688da133de4bae26190a2e48f38f1e1095275e4d64736f6c634300080e0033",
  "immutableReferences": {},
  "source": "// SPDX-License-Identifier: MIT\r\npragma solidity ^0.8.9;\r\n\r\nimport \"../node_modules/@chainlink/contracts/src/v0.8/interfaces/AggregatorV3Interface.sol\";\r\nimport \"../node_modules/@openzeppelin/contracts/access/Ownable.sol\";\r\nimport \"../node_modules/@openzeppelin/contracts/token/ERC20/IERC20.sol\";\r\nimport \"./interfaces/IFixedRateWrapper.sol\";\r\nimport \"./interfaces/ISynthereum.sol\";\r\n\r\ncontract BlockSendTransfer is Ownable{\r\n    AggregatorV3Interface private priceFeed;\r\n\r\n    IFixedRateWrapper private  jarvisWrapper;\r\n    ISynthereum private jarvisSynthereum;\r\n    IERC20 private moneriumEURemoney;\r\n    IERC20 private jEURToken;\r\n    IERC20 private uSDCToken;\r\n\r\n\r\n    address private WRAPPER_CONTRACT = 0xb07Cb016440331be4D2f532b20d892a420476AD0;\r\n    address private SYNTHEREUM_CONTRACT = 0x65a7b4Ff684C2d08c115D55a4B089bf4E92F5003;\r\n    address private EURE_TOKEN_CONTRACT = 0x18ec0A6E18E5bc3784fDd3a3634b31245ab704F6;\r\n    address private JEUR_TOKEN_CONTRACT = 0x4e3Decbb3645551B8A19f0eA1678079FCB33fB4c;\r\n    address private USDC_TOKEN_CONTRACT = 0x2791Bca1f2de4661ED88A30C99A7a9449Aa84174;\r\n    address private EUR_USD_AGGREGATOR = 0x73366Fe0AA0Ded304479862808e02506FE556a98;\r\n    address private HUB2_WALLET = 0x64568cfc9122104a4B23ABf67830873BE66Fc3D8;\r\n    address private BLOCKSEND_BACKEND = 0x913Cd67dA3b17be7f66E865158cDF9a5c4F2a850;\r\n    address private BLOCKSEND_WALLET = 0x64568cfc9122104a4B23ABf67830873BE66Fc3D8;\r\n    \r\n    mapping (string => Remittance) public transfers;\r\n    struct Remittance {\r\n        address sender;\r\n        uint amount_EURe;\r\n        uint amount_jEUR;\r\n        uint amount_USDC;\r\n        uint userAmount_USDC;\r\n        uint blocksendAmount_USDC;\r\n        TransferStatus status;\r\n    }\r\n\r\n    enum TransferStatus {\r\n        INITIALIZED,\r\n        EURE_RECEIVED,\r\n        JEUR_WRAPPED,\r\n        USDC_RECEIVED,\r\n        USDC_SENT,\r\n        FINALIZED,\r\n        TRANSFER_STUCK\r\n    }\r\n    \r\n    mapping (address => bool) private allowed;\r\n\r\n    event TransferInitilized(string transferId, uint amount);\r\n    event TransferStatusChanged(string transferId, TransferStatus currentStatus, string errorMsg);\r\n    event TransferFinalized(string transferId, uint userAmount, uint blocksendAmount);\r\n\r\n    modifier onlyBlockSendBakend() {\r\n        require(allowed[msg.sender], \"You're allowed to initiate a transfer\");\r\n        _;\r\n    }\r\n\r\n    constructor() {\r\n        allowed[BLOCKSEND_BACKEND] = true;\r\n        jarvisWrapper = IFixedRateWrapper(WRAPPER_CONTRACT);\r\n        jarvisSynthereum = ISynthereum(SYNTHEREUM_CONTRACT);\r\n        moneriumEURemoney = IERC20(EURE_TOKEN_CONTRACT);\r\n        jEURToken = IERC20(JEUR_TOKEN_CONTRACT);\r\n        uSDCToken = IERC20(USDC_TOKEN_CONTRACT);\r\n        priceFeed = AggregatorV3Interface(EUR_USD_AGGREGATOR);\r\n    }\r\n\r\n    /**\r\n     * @notice Iinitialise a transfer of an amount of EURe\r\n     * @notice First Step: On-Ramp: \r\n     * @notice 1- Transfer EURe from user's wallet\r\n     * @notice 2- Wrap EURe to jEUR (Jarvis wrapper)\r\n     * @notice 3- Get jEUR/USDC Rate (Aggregator Chainlink)\r\n     * @notice 4- Redeem USDC from jEUR (Jarvis Redeem)\r\n     * @notice Secod Step: Calculate 1,9% of fees\r\n     * @notice Third Step: Off-Ramp: Using HUB2\r\n     * @notice if any error: Sent money to users wallet back\r\n     * @param transferId Input parameters transferId\r\n     * @param amount Input parameters for for transfered amount\r\n     * @param userWallet Input parameters for user wallet\r\n     * @return ok a boolean value indicating whether the operation succeeded.\r\n     * \r\n     * Emits a {TransferStatusChanged} event with the current status of the transfer.\r\n     */\r\n    function initializeTransfer(string calldata transferId, address userWallet, uint256 amount) external onlyBlockSendBakend returns (bool ok) {\r\n\r\n        initilizeTransferData(transferId, userWallet, amount);\r\n\r\n        bool okGetEURe = transferFrom(transferId, userWallet, amount);\r\n        if(!okGetEURe){\r\n            TransferStuck(transferId, userWallet, amount, \"\");\r\n            return false;\r\n        }\r\n\r\n        (bool okApproveWrap, uint256 amountJEUR) = routage_jEURfromEURe(transferId, amount, amount);\r\n        if(!okApproveWrap || amountJEUR==0){\r\n            TransferStuck(transferId, userWallet, amount, \"\");\r\n            return false;\r\n        }\r\n\r\n        uint price = getLatestPrice();\r\n        uint collateralUSDC = (amountJEUR/ 10e8) * price;\r\n\r\n        (bool okApprouveJEUR, bool okApprouveUSDC, uint256 collateralRedeemed, uint256 feePaid) = routage_USDCfromjEUR(transferId, amountJEUR, collateralUSDC);\r\n        if(!okApprouveJEUR || !okApprouveUSDC || collateralRedeemed==0 || feePaid==0){\r\n            TransferStuck(transferId, userWallet, amount, \"\");\r\n            return false;\r\n        }\r\n\r\n        \r\n        // (uint blocksendAmount, uint userAmount) = transferToHUB2Wallet(transferId, collateralRedeemed);\r\n        bool okTransferWallet = transferUSDC(transferId, collateralRedeemed);\r\n        // if(userAmount!=0 && blocksendAmount!=0){\r\n        if(!okTransferWallet){\r\n            TransferStuck(transferId, userWallet, amount, \"\");\r\n            return false;\r\n        }\r\n\r\n        finalizeTransfer(transferId);\r\n\r\n        return true;\r\n    }\r\n\r\n    /**\r\n     * Returns the current status of a specific remmitance.\r\n     */\r\n    function remittanceStatus(string calldata transferId) public view virtual returns (TransferStatus) {\r\n        return transfers[transferId].status;\r\n    }\r\n\r\n    // *********************** Manage Status changed ************************************\r\n    function initilizeTransferData(string calldata transferId, address userWallet, uint amount) internal{\r\n        transfers[transferId].sender=userWallet;\r\n        transfers[transferId].status=TransferStatus.INITIALIZED;\r\n        \r\n        emit TransferInitilized(transferId, amount);\r\n    }\r\n\r\n    function finalizeTransfer(string calldata transferId) internal{\r\n        transfers[transferId].status=TransferStatus.FINALIZED;\r\n        \r\n        emit TransferFinalized(transferId, transfers[transferId].userAmount_USDC, transfers[transferId].blocksendAmount_USDC);\r\n    }\r\n\r\n    function amountReceived(string calldata transferId, uint amount) internal{\r\n        transfers[transferId].status=TransferStatus.EURE_RECEIVED;\r\n        transfers[transferId].amount_EURe=amount;\r\n        \r\n        emit TransferStatusChanged(transferId, TransferStatus.EURE_RECEIVED, \"\");\r\n    }\r\n\r\n    function amountWrapped(string calldata transferId, uint amount) internal{\r\n        transfers[transferId].status=TransferStatus.JEUR_WRAPPED;\r\n        transfers[transferId].amount_jEUR=amount;\r\n        \r\n        emit TransferStatusChanged(transferId, TransferStatus.JEUR_WRAPPED, \"\");\r\n    }\r\n\r\n    function redeemCollateral(string calldata transferId, uint collateral) internal{\r\n        transfers[transferId].status=TransferStatus.USDC_RECEIVED;\r\n        transfers[transferId].amount_USDC=collateral;\r\n        \r\n        emit TransferStatusChanged(transferId, TransferStatus.USDC_RECEIVED, \"\");\r\n    }\r\n\r\n    function collateralSent(string calldata transferId, uint userAmount, uint blocksendAmount) internal{\r\n        transfers[transferId].status=TransferStatus.USDC_SENT;\r\n        transfers[transferId].userAmount_USDC=userAmount;\r\n        transfers[transferId].blocksendAmount_USDC=blocksendAmount;\r\n        \r\n        emit TransferStatusChanged(transferId, TransferStatus.USDC_SENT, \"\");\r\n    }\r\n\r\n    function TransferStuck(string calldata transferId, address userWallet, uint amount, string memory errorMsg) internal returns (bool ok){\r\n        transfers[transferId].status=TransferStatus.TRANSFER_STUCK;\r\n\r\n        ok = moneriumEURemoney.transfer(userWallet, amount);\r\n        \r\n        emit TransferStatusChanged(transferId, TransferStatus.TRANSFER_STUCK, errorMsg);\r\n    }\r\n    // *********************************************************************************\r\n\r\n\r\n    // *********************** GET EURe from user's wallet *****************************\r\n    function transferFrom(string calldata transferId, address userWallet, uint256 amount) internal returns (bool ok){\r\n        ok = moneriumEURemoney.transferFrom(userWallet, address(this), amount);\r\n\r\n        amountReceived(transferId, amount);\r\n    }\r\n    // *********************************************************************************\r\n    \r\n\r\n    // *********************** Wrap EURe to JEUR ***************************************\r\n    function routage_jEURfromEURe(string calldata transferId, uint256 amount, uint256 collateral) internal returns(bool ok, uint256 amountTokens){\r\n        \r\n        ok = moneriumEURemoney.approve(WRAPPER_CONTRACT, amount);\r\n        amountTokens = jarvisWrapper.wrap(collateral, address(this));\r\n\r\n        amountWrapped(transferId, amountTokens);\r\n    }\r\n    // *********************************************************************************\r\n    \r\n\r\n    // *********************** Wurn & Mint (Redeem) UCDS from JEUR *********************\r\n    function routage_USDCfromjEUR(string calldata transferId, \r\n                                    uint256 _numToken, \r\n                                    uint256 _minCollateral) \r\n                internal returns (bool okApprouveJEUR, bool okApprouveUSDC, uint256 collateralRedeemed, uint256 feePaid){\r\n        \r\n        okApprouveJEUR = jEURToken.approve(SYNTHEREUM_CONTRACT, _numToken);\r\n        okApprouveUSDC = uSDCToken.approve(SYNTHEREUM_CONTRACT, _minCollateral);\r\n\r\n        ISynthereum.RedeemParams memory params =\r\n            ISynthereum.RedeemParams({\r\n                numTokens: _numToken,\r\n                minCollateral: _minCollateral,\r\n                expiration: block.timestamp+30,\r\n                recipient: address(this)\r\n            });\r\n \r\n        (collateralRedeemed, feePaid) = jarvisSynthereum.redeem(params);\r\n        \r\n        redeemCollateral(transferId, collateralRedeemed);\r\n    }\r\n    // *********************************************************************************\r\n    \r\n\r\n    // *********************** Transfer USDC to HUB2 Wallet & BlockSend Wallet *********\r\n    function transferUSDC(string calldata transferId, uint collateralRedeemed) internal returns ( bool ok ){\r\n        \r\n        (uint blocksendAmount, uint userAmount) = calculateFees(collateralRedeemed);\r\n\r\n        bool okBlocksend = uSDCToken.transfer(BLOCKSEND_WALLET, blocksendAmount);\r\n        bool okHUB2 = uSDCToken.transfer(HUB2_WALLET, userAmount);\r\n\r\n        collateralSent(transferId, userAmount, blocksendAmount);\r\n        \r\n        return okHUB2 && okBlocksend;\r\n    }\r\n    // *********************************************************************************\r\n    \r\n\r\n    // *********************** Calculate 1,9% fees *************************************\r\n    function calculateFees(uint256 amount) internal pure returns ( uint blocksendAmount, uint userAmount ){\r\n        blocksendAmount = (amount * 19) / 1000;\r\n        userAmount = amount - blocksendAmount;\r\n    }\r\n    // *********************************************************************************\r\n\r\n\r\n    // *********************** Update Contracts Addresses ******************************\r\n    function setWrapperContract(address newAddress) external onlyOwner {\r\n        WRAPPER_CONTRACT = newAddress;\r\n        jarvisWrapper = IFixedRateWrapper(WRAPPER_CONTRACT);\r\n    }\r\n\r\n    function setSyntheriumContract(address newAddress) external onlyOwner {\r\n        SYNTHEREUM_CONTRACT = newAddress;\r\n        jarvisSynthereum = ISynthereum(SYNTHEREUM_CONTRACT);\r\n    }\r\n\r\n    function setEURETokenContract(address newAddress) external onlyOwner {\r\n        EURE_TOKEN_CONTRACT = newAddress;\r\n        moneriumEURemoney = IERC20(EURE_TOKEN_CONTRACT);\r\n    }\r\n\r\n    function setJEURToken_Contract(address newAddress) external onlyOwner {\r\n        JEUR_TOKEN_CONTRACT = newAddress;\r\n        jEURToken = IERC20(JEUR_TOKEN_CONTRACT);\r\n    }\r\n\r\n    function setUSDCTokenContract(address newAddress) external onlyOwner {\r\n        USDC_TOKEN_CONTRACT = newAddress;\r\n        uSDCToken = IERC20(USDC_TOKEN_CONTRACT);\r\n    }\r\n\r\n    function setEUR_USD_Aggregator(address newAddress) external onlyOwner {\r\n        EUR_USD_AGGREGATOR = newAddress;\r\n        priceFeed = AggregatorV3Interface(EUR_USD_AGGREGATOR);\r\n    }\r\n\r\n    function setHUB2Wallet(address newAddress) external onlyOwner {\r\n        HUB2_WALLET = newAddress;\r\n    }\r\n\r\n    function setBlockSend_Wallet(address newAddress) external onlyOwner {\r\n        BLOCKSEND_WALLET = newAddress;\r\n    }\r\n    \r\n    function AllowAddress(address _addr) external onlyOwner {\r\n        allowed[_addr] = true;\r\n    }\r\n    // *********************************************************************************\r\n\r\n\r\n    // *********************** Get the latest rate *************************************\r\n    function getLatestPrice() public view returns (uint) {\r\n        (, int price , , ,) = priceFeed.latestRoundData();\r\n        return uint(price/1000);\r\n    }\r\n    // *********************************************************************************\r\n}\r\n",
  "sourcePath": "C:\\Users\\zguai\\Desktop\\Repos\\BlockSend\\truffle\\contracts\\BlockSendTransfer.sol",
  "compiler": {
    "name": "solc",
    "version": "0.8.14+commit.80d49f37.Emscripten.clang"
  },
  "schemaVersion": "3.4.10",
  "updatedAt": "2022-12-07T09:13:25.031Z",
  "devdoc": {
    "kind": "dev",
    "methods": {
      "initializeTransfer(string,address,uint256)": {
        "params": {
          "amount": "Input parameters for for transfered amount",
          "transferId": "Input parameters transferId",
          "userWallet": "Input parameters for user wallet"
        },
        "returns": {
          "ok": "a boolean value indicating whether the operation succeeded.  Emits a {TransferStatusChanged} event with the current status of the transfer."
        }
      },
      "owner()": {
        "details": "Returns the address of the current owner."
      },
      "renounceOwnership()": {
        "details": "Leaves the contract without owner. It will not be possible to call `onlyOwner` functions anymore. Can only be called by the current owner. NOTE: Renouncing ownership will leave the contract without an owner, thereby removing any functionality that is only available to the owner."
      },
      "transferOwnership(address)": {
        "details": "Transfers ownership of the contract to a new account (`newOwner`). Can only be called by the current owner."
      }
    },
    "version": 1
  },
  "userdoc": {
    "kind": "user",
    "methods": {
      "initializeTransfer(string,address,uint256)": {
        "notice": "Iinitialise a transfer of an amount of EUReFirst Step: On-Ramp: 1- Transfer EURe from user's wallet2- Wrap EURe to jEUR (Jarvis wrapper)3- Get jEUR/USDC Rate (Aggregator Chainlink)4- Redeem USDC from jEUR (Jarvis Redeem)Secod Step: Calculate 1,9% of feesThird Step: Off-Ramp: Using HUB2if any error: Sent money to users wallet back"
      },
      "remittanceStatus(string)": {
        "notice": "Returns the current status of a specific remmitance."
      }
    },
    "version": 1
  }
}