{
  "contractName": "BlockSendRouter",
  "abi": [
    {
      "inputs": [
        {
          "internalType": "address",
          "name": "_blocksSendTokenAdress",
          "type": "address"
        }
      ],
      "stateMutability": "nonpayable",
      "type": "constructor"
    },
    {
      "anonymous": false,
      "inputs": [
        {
          "indexed": false,
          "internalType": "address",
          "name": "user",
          "type": "address"
        },
        {
          "indexed": false,
          "internalType": "uint256",
          "name": "tokenAmount",
          "type": "uint256"
        }
      ],
      "name": "ClaimTransferRewardEvent",
      "type": "event"
    },
    {
      "anonymous": false,
      "inputs": [
        {
          "indexed": true,
          "internalType": "address",
          "name": "previousOwner",
          "type": "address"
        },
        {
          "indexed": true,
          "internalType": "address",
          "name": "newOwner",
          "type": "address"
        }
      ],
      "name": "OwnershipTransferred",
      "type": "event"
    },
    {
      "anonymous": false,
      "inputs": [
        {
          "indexed": false,
          "internalType": "string",
          "name": "transferId",
          "type": "string"
        },
        {
          "indexed": false,
          "internalType": "uint256",
          "name": "userAmount",
          "type": "uint256"
        },
        {
          "indexed": false,
          "internalType": "uint256",
          "name": "blocksendAmount",
          "type": "uint256"
        }
      ],
      "name": "TransferFinalized",
      "type": "event"
    },
    {
      "anonymous": false,
      "inputs": [
        {
          "indexed": false,
          "internalType": "string",
          "name": "transferId",
          "type": "string"
        },
        {
          "indexed": false,
          "internalType": "uint256",
          "name": "amount",
          "type": "uint256"
        }
      ],
      "name": "TransferInitilized",
      "type": "event"
    },
    {
      "inputs": [],
      "name": "owner",
      "outputs": [
        {
          "internalType": "address",
          "name": "",
          "type": "address"
        }
      ],
      "stateMutability": "view",
      "type": "function"
    },
    {
      "inputs": [],
      "name": "renounceOwnership",
      "outputs": [],
      "stateMutability": "nonpayable",
      "type": "function"
    },
    {
      "inputs": [
        {
          "internalType": "address",
          "name": "newOwner",
          "type": "address"
        }
      ],
      "name": "transferOwnership",
      "outputs": [],
      "stateMutability": "nonpayable",
      "type": "function"
    },
    {
      "inputs": [
        {
          "internalType": "string",
          "name": "",
          "type": "string"
        }
      ],
      "name": "transfers",
      "outputs": [
        {
          "internalType": "address",
          "name": "sender",
          "type": "address"
        },
        {
          "internalType": "uint256",
          "name": "amount_EURe",
          "type": "uint256"
        },
        {
          "internalType": "uint256",
          "name": "amount_jEUR",
          "type": "uint256"
        },
        {
          "internalType": "uint256",
          "name": "amount_USDC",
          "type": "uint256"
        },
        {
          "internalType": "uint256",
          "name": "rate_EUR_USDC",
          "type": "uint256"
        },
        {
          "internalType": "uint256",
          "name": "userAmount_USDC",
          "type": "uint256"
        },
        {
          "internalType": "uint256",
          "name": "blocksendAmount_USDC",
          "type": "uint256"
        },
        {
          "internalType": "uint256",
          "name": "jarvisFees_USDC",
          "type": "uint256"
        },
        {
          "internalType": "enum BlockSendRouter.TransferStatus",
          "name": "status",
          "type": "uint8"
        }
      ],
      "stateMutability": "view",
      "type": "function"
    },
    {
      "inputs": [
        {
          "internalType": "string",
          "name": "transferId",
          "type": "string"
        },
        {
          "internalType": "address",
          "name": "userWallet",
          "type": "address"
        },
        {
          "internalType": "uint256",
          "name": "amount",
          "type": "uint256"
        }
      ],
      "name": "initializeTransfer",
      "outputs": [
        {
          "internalType": "bool",
          "name": "ok",
          "type": "bool"
        }
      ],
      "stateMutability": "nonpayable",
      "type": "function"
    },
    {
      "inputs": [],
      "name": "claimTransferRewards",
      "outputs": [],
      "stateMutability": "nonpayable",
      "type": "function"
    },
    {
      "inputs": [
        {
          "internalType": "string",
          "name": "_transferId",
          "type": "string"
        }
      ],
      "name": "remittanceStatus",
      "outputs": [
        {
          "internalType": "enum BlockSendRouter.TransferStatus",
          "name": "",
          "type": "uint8"
        }
      ],
      "stateMutability": "view",
      "type": "function"
    },
    {
      "inputs": [
        {
          "internalType": "address",
          "name": "_newAddress",
          "type": "address"
        }
      ],
      "name": "setWrapperContract",
      "outputs": [],
      "stateMutability": "nonpayable",
      "type": "function"
    },
    {
      "inputs": [
        {
          "internalType": "address",
          "name": "_newAddress",
          "type": "address"
        }
      ],
      "name": "setSyntheriumContract",
      "outputs": [],
      "stateMutability": "nonpayable",
      "type": "function"
    },
    {
      "inputs": [
        {
          "internalType": "address",
          "name": "_newAddress",
          "type": "address"
        }
      ],
      "name": "setEURETokenContract",
      "outputs": [],
      "stateMutability": "nonpayable",
      "type": "function"
    },
    {
      "inputs": [
        {
          "internalType": "address",
          "name": "_newAddress",
          "type": "address"
        }
      ],
      "name": "setJEURToken_Contract",
      "outputs": [],
      "stateMutability": "nonpayable",
      "type": "function"
    },
    {
      "inputs": [
        {
          "internalType": "address",
          "name": "_newAddress",
          "type": "address"
        }
      ],
      "name": "setBKSDTokenContract",
      "outputs": [],
      "stateMutability": "nonpayable",
      "type": "function"
    },
    {
      "inputs": [
        {
          "internalType": "address",
          "name": "_newAddress",
          "type": "address"
        }
      ],
      "name": "setUSDCTokenContract",
      "outputs": [],
      "stateMutability": "nonpayable",
      "type": "function"
    },
    {
      "inputs": [
        {
          "internalType": "address",
          "name": "_newAddress",
          "type": "address"
        }
      ],
      "name": "setEUR_USD_Aggregator",
      "outputs": [],
      "stateMutability": "nonpayable",
      "type": "function"
    },
    {
      "inputs": [
        {
          "internalType": "address",
          "name": "_newAddress",
          "type": "address"
        }
      ],
      "name": "setHUB2Wallet",
      "outputs": [],
      "stateMutability": "nonpayable",
      "type": "function"
    },
    {
      "inputs": [
        {
          "internalType": "address",
          "name": "_newAddress",
          "type": "address"
        }
      ],
      "name": "setBlockSend_Wallet",
      "outputs": [],
      "stateMutability": "nonpayable",
      "type": "function"
    },
    {
      "inputs": [
        {
          "internalType": "address",
          "name": "_addr",
          "type": "address"
        }
      ],
      "name": "AllowAddress",
      "outputs": [],
      "stateMutability": "nonpayable",
      "type": "function"
    },
    {
      "inputs": [],
      "name": "getLatestPrice",
      "outputs": [
        {
          "internalType": "uint256",
          "name": "",
          "type": "uint256"
        }
      ],
      "stateMutability": "view",
      "type": "function"
    }
  ],
  "bytecode": "0x608060405273b07cb016440331be4d2f532b20d892a420476ad0600960006101000a81548173ffffffffffffffffffffffffffffffffffffffff021916908373ffffffffffffffffffffffffffffffffffffffff1602179055507365a7b4ff684c2d08c115d55a4b089bf4e92f5003600a60006101000a81548173ffffffffffffffffffffffffffffffffffffffff021916908373ffffffffffffffffffffffffffffffffffffffff1602179055507318ec0a6e18e5bc3784fdd3a3634b31245ab704f6600b60006101000a81548173ffffffffffffffffffffffffffffffffffffffff021916908373ffffffffffffffffffffffffffffffffffffffff160217905550734e3decbb3645551b8a19f0ea1678079fcb33fb4c600c60006101000a81548173ffffffffffffffffffffffffffffffffffffffff021916908373ffffffffffffffffffffffffffffffffffffffff160217905550732791bca1f2de4661ed88a30c99a7a9449aa84174600d60006101000a81548173ffffffffffffffffffffffffffffffffffffffff021916908373ffffffffffffffffffffffffffffffffffffffff160217905550734e3decbb3645551b8a19f0ea1678079fcb33fb4c600e60006101000a81548173ffffffffffffffffffffffffffffffffffffffff021916908373ffffffffffffffffffffffffffffffffffffffff1602179055507373366fe0aa0ded304479862808e02506fe556a98600f60006101000a81548173ffffffffffffffffffffffffffffffffffffffff021916908373ffffffffffffffffffffffffffffffffffffffff16021790555073ed85caeb52c34bd35dfeeb2d4e0bc936a0db0923601060006101000a81548173ffffffffffffffffffffffffffffffffffffffff021916908373ffffffffffffffffffffffffffffffffffffffff16021790555073913cd67da3b17be7f66e865158cdf9a5c4f2a850601160006101000a81548173ffffffffffffffffffffffffffffffffffffffff021916908373ffffffffffffffffffffffffffffffffffffffff160217905550737f3ee84fd13d815ff1005b7904cd67084d8f353f601260006101000a81548173ffffffffffffffffffffffffffffffffffffffff021916908373ffffffffffffffffffffffffffffffffffffffff1602179055503480156200036357600080fd5b506040516200318a3803806200318a8339818101604052810190620003899190620007f3565b620003a96200039d620006bd60201b60201c565b620006c560201b60201c565b600160146000601160009054906101000a900473ffffffffffffffffffffffffffffffffffffffff1673ffffffffffffffffffffffffffffffffffffffff1673ffffffffffffffffffffffffffffffffffffffff16815260200190815260200160002060006101000a81548160ff021916908315150217905550600960009054906101000a900473ffffffffffffffffffffffffffffffffffffffff16600260006101000a81548173ffffffffffffffffffffffffffffffffffffffff021916908373ffffffffffffffffffffffffffffffffffffffff160217905550600a60009054906101000a900473ffffffffffffffffffffffffffffffffffffffff16600360006101000a81548173ffffffffffffffffffffffffffffffffffffffff021916908373ffffffffffffffffffffffffffffffffffffffff160217905550600b60009054906101000a900473ffffffffffffffffffffffffffffffffffffffff16600460006101000a81548173ffffffffffffffffffffffffffffffffffffffff021916908373ffffffffffffffffffffffffffffffffffffffff160217905550600c60009054906101000a900473ffffffffffffffffffffffffffffffffffffffff16600560006101000a81548173ffffffffffffffffffffffffffffffffffffffff021916908373ffffffffffffffffffffffffffffffffffffffff160217905550600d60009054906101000a900473ffffffffffffffffffffffffffffffffffffffff16600660006101000a81548173ffffffffffffffffffffffffffffffffffffffff021916908373ffffffffffffffffffffffffffffffffffffffff160217905550600f60009054906101000a900473ffffffffffffffffffffffffffffffffffffffff16600160006101000a81548173ffffffffffffffffffffffffffffffffffffffff021916908373ffffffffffffffffffffffffffffffffffffffff16021790555080600760006101000a81548173ffffffffffffffffffffffffffffffffffffffff021916908373ffffffffffffffffffffffffffffffffffffffff1602179055505062000825565b600033905090565b60008060009054906101000a900473ffffffffffffffffffffffffffffffffffffffff169050816000806101000a81548173ffffffffffffffffffffffffffffffffffffffff021916908373ffffffffffffffffffffffffffffffffffffffff1602179055508173ffffffffffffffffffffffffffffffffffffffff168173ffffffffffffffffffffffffffffffffffffffff167f8be0079c531659141344cd1fd0a4f28419497f9722a3daafe3b4186f6b6457e060405160405180910390a35050565b600080fd5b600073ffffffffffffffffffffffffffffffffffffffff82169050919050565b6000620007bb826200078e565b9050919050565b620007cd81620007ae565b8114620007d957600080fd5b50565b600081519050620007ed81620007c2565b92915050565b6000602082840312156200080c576200080b62000789565b5b60006200081c84828501620007dc565b91505092915050565b61295580620008356000396000f3fe608060405234801561001057600080fd5b50600436106101165760003560e01c80635aeee3f0116100a25780638e15f473116100715780638e15f473146102a9578063ea45efbf146102c7578063eead6fd8146102e3578063f11283a2146102ff578063f2fde38b1461031b57610116565b80635aeee3f01461023f578063715018a61461024957806384a1c233146102535780638da5cb5b1461028b57610116565b8063335bafa2116100e9578063335bafa21461019f578063381ea9c5146101bb57806343dafdbe146101d75780634b8cc80d146101f35780634e5581271461022357610116565b806312ee45b71461011b57806314c2ce58146101375780631dfe08191461015357806325a9760514610183575b600080fd5b61013560048036038101906101309190611cac565b610337565b005b610151600480360381019061014c9190611cac565b6103e6565b005b61016d60048036038101906101689190611d74565b610495565b60405161017a9190611e03565b60405180910390f35b61019d60048036038101906101989190611cac565b6106e9565b005b6101b960048036038101906101b49190611cac565b610798565b005b6101d560048036038101906101d09190611cac565b610847565b005b6101f160048036038101906101ec9190611cac565b610893565b005b61020d60048036038101906102089190611e1e565b6108df565b60405161021a9190611ee2565b60405180910390f35b61023d60048036038101906102389190611cac565b61091a565b005b6102476109c9565b005b610251610b1d565b005b61026d6004803603810190610268919061203e565b610b31565b604051610282999897969594939291906120a5565b60405180910390f35b610293610bc2565b6040516102a09190612132565b60405180910390f35b6102b1610beb565b6040516102be919061214d565b60405180910390f35b6102e160048036038101906102dc9190611cac565b610c99565b005b6102fd60048036038101906102f89190611cac565b610d48565b005b61031960048036038101906103149190611cac565b610df7565b005b61033560048036038101906103309190611cac565b610e5a565b005b61033f610edd565b80600f60006101000a81548173ffffffffffffffffffffffffffffffffffffffff021916908373ffffffffffffffffffffffffffffffffffffffff160217905550600f60009054906101000a900473ffffffffffffffffffffffffffffffffffffffff16600160006101000a81548173ffffffffffffffffffffffffffffffffffffffff021916908373ffffffffffffffffffffffffffffffffffffffff16021790555050565b6103ee610edd565b80600e60006101000a81548173ffffffffffffffffffffffffffffffffffffffff021916908373ffffffffffffffffffffffffffffffffffffffff160217905550600e60009054906101000a900473ffffffffffffffffffffffffffffffffffffffff16600760006101000a81548173ffffffffffffffffffffffffffffffffffffffff021916908373ffffffffffffffffffffffffffffffffffffffff16021790555050565b6000601460003373ffffffffffffffffffffffffffffffffffffffff1673ffffffffffffffffffffffffffffffffffffffff16815260200190815260200160002060009054906101000a900460ff16610523576040517f08c379a000000000000000000000000000000000000000000000000000000000815260040161051a906121eb565b60405180910390fd5b674563918244f4000082101561056e576040517f08c379a000000000000000000000000000000000000000000000000000000000815260040161056590612257565b60405180910390fd5b61057a85858585610f5b565b60028261058791906122d5565b600860008573ffffffffffffffffffffffffffffffffffffffff1673ffffffffffffffffffffffffffffffffffffffff16815260200190815260200160002060008282546105d59190612306565b9250508190555060006105ea8686868661104a565b905080610608576105fd86868686611103565b5060009150506106e1565b600080610617888887886111fb565b915091508115806106285750600081145b156106465761063988888888611103565b50600093505050506106e1565b6000806000806106578c8c87611378565b935093509350935083158061066a575082155b806106755750600082145b15610697576106868c8c8c8c611103565b5060009750505050505050506106e1565b60006106a58d8d858561163a565b9050806106ca576106b88d8d8d8d611103565b506000985050505050505050506106e1565b6106d48d8d6117fd565b6001985050505050505050505b949350505050565b6106f1610edd565b80600b60006101000a81548173ffffffffffffffffffffffffffffffffffffffff021916908373ffffffffffffffffffffffffffffffffffffffff160217905550600b60009054906101000a900473ffffffffffffffffffffffffffffffffffffffff16600460006101000a81548173ffffffffffffffffffffffffffffffffffffffff021916908373ffffffffffffffffffffffffffffffffffffffff16021790555050565b6107a0610edd565b80600a60006101000a81548173ffffffffffffffffffffffffffffffffffffffff021916908373ffffffffffffffffffffffffffffffffffffffff160217905550600a60009054906101000a900473ffffffffffffffffffffffffffffffffffffffff16600360006101000a81548173ffffffffffffffffffffffffffffffffffffffff021916908373ffffffffffffffffffffffffffffffffffffffff16021790555050565b61084f610edd565b80601060006101000a81548173ffffffffffffffffffffffffffffffffffffffff021916908373ffffffffffffffffffffffffffffffffffffffff16021790555050565b61089b610edd565b80601260006101000a81548173ffffffffffffffffffffffffffffffffffffffff021916908373ffffffffffffffffffffffffffffffffffffffff16021790555050565b6000601383836040516108f392919061238c565b908152602001604051809103902060080160009054906101000a900460ff16905092915050565b610922610edd565b80600960006101000a81548173ffffffffffffffffffffffffffffffffffffffff021916908373ffffffffffffffffffffffffffffffffffffffff160217905550600960009054906101000a900473ffffffffffffffffffffffffffffffffffffffff16600260006101000a81548173ffffffffffffffffffffffffffffffffffffffff021916908373ffffffffffffffffffffffffffffffffffffffff16021790555050565b6000600860003373ffffffffffffffffffffffffffffffffffffffff1673ffffffffffffffffffffffffffffffffffffffff1681526020019081526020016000205490506000600860003373ffffffffffffffffffffffffffffffffffffffff1673ffffffffffffffffffffffffffffffffffffffff16815260200190815260200160002081905550600760009054906101000a900473ffffffffffffffffffffffffffffffffffffffff1673ffffffffffffffffffffffffffffffffffffffff166340c10f1933836040518363ffffffff1660e01b8152600401610aaf9291906123a5565b600060405180830381600087803b158015610ac957600080fd5b505af1158015610add573d6000803e3d6000fd5b505050507f58cc09a5cd7d0483d99e31e50feb38f39841b055573f462989aea4ad8783c6da3382604051610b129291906123a5565b60405180910390a150565b610b25610edd565b610b2f60006118d0565b565b6013818051602081018201805184825260208301602085012081835280955050505050506000915090508060000160009054906101000a900473ffffffffffffffffffffffffffffffffffffffff16908060010154908060020154908060030154908060040154908060050154908060060154908060070154908060080160009054906101000a900460ff16905089565b60008060009054906101000a900473ffffffffffffffffffffffffffffffffffffffff16905090565b600080600160009054906101000a900473ffffffffffffffffffffffffffffffffffffffff1673ffffffffffffffffffffffffffffffffffffffff1663feaf968c6040518163ffffffff1660e01b815260040160a060405180830381865afa158015610c5b573d6000803e3d6000fd5b505050506040513d601f19601f82011682018060405250810190610c7f919061245b565b5050509150506103e881610c9391906124d6565b91505090565b610ca1610edd565b80600c60006101000a81548173ffffffffffffffffffffffffffffffffffffffff021916908373ffffffffffffffffffffffffffffffffffffffff160217905550600c60009054906101000a900473ffffffffffffffffffffffffffffffffffffffff16600560006101000a81548173ffffffffffffffffffffffffffffffffffffffff021916908373ffffffffffffffffffffffffffffffffffffffff16021790555050565b610d50610edd565b80600d60006101000a81548173ffffffffffffffffffffffffffffffffffffffff021916908373ffffffffffffffffffffffffffffffffffffffff160217905550600d60009054906101000a900473ffffffffffffffffffffffffffffffffffffffff16600660006101000a81548173ffffffffffffffffffffffffffffffffffffffff021916908373ffffffffffffffffffffffffffffffffffffffff16021790555050565b610dff610edd565b6001601460008373ffffffffffffffffffffffffffffffffffffffff1673ffffffffffffffffffffffffffffffffffffffff16815260200190815260200160002060006101000a81548160ff02191690831515021790555050565b610e62610edd565b600073ffffffffffffffffffffffffffffffffffffffff168173ffffffffffffffffffffffffffffffffffffffff1603610ed1576040517f08c379a0000000000000000000000000000000000000000000000000000000008152600401610ec8906125b2565b60405180910390fd5b610eda816118d0565b50565b610ee5611994565b73ffffffffffffffffffffffffffffffffffffffff16610f03610bc2565b73ffffffffffffffffffffffffffffffffffffffff1614610f59576040517f08c379a0000000000000000000000000000000000000000000000000000000008152600401610f509061261e565b60405180910390fd5b565b8160138585604051610f6e92919061238c565b908152602001604051809103902060000160006101000a81548173ffffffffffffffffffffffffffffffffffffffff021916908373ffffffffffffffffffffffffffffffffffffffff160217905550600060138585604051610fd192919061238c565b908152602001604051809103902060080160006101000a81548160ff0219169083600681111561100457611003611e6b565b5b02179055507f9f99091afbc24bd9abfd7adca3533b5457ad5307a86351e337bcee2fb1f364de84848360405161103c9392919061266b565b60405180910390a150505050565b6000600460009054906101000a900473ffffffffffffffffffffffffffffffffffffffff1673ffffffffffffffffffffffffffffffffffffffff166323b872dd8430856040518463ffffffff1660e01b81526004016110ab9392919061269d565b6020604051808303816000875af11580156110ca573d6000803e3d6000fd5b505050506040513d601f19601f820116820180604052508101906110ee9190612700565b90506110fb85858461199c565b949350505050565b600060066013868660405161111992919061238c565b908152602001604051809103902060080160006101000a81548160ff0219169083600681111561114c5761114b611e6b565b5b0217905550600460009054906101000a900473ffffffffffffffffffffffffffffffffffffffff1673ffffffffffffffffffffffffffffffffffffffff1663a9059cbb84846040518363ffffffff1660e01b81526004016111ae9291906123a5565b6020604051808303816000875af11580156111cd573d6000803e3d6000fd5b505050506040513d601f19601f820116820180604052508101906111f19190612700565b9050949350505050565b600080600460009054906101000a900473ffffffffffffffffffffffffffffffffffffffff1673ffffffffffffffffffffffffffffffffffffffff1663095ea7b3600960009054906101000a900473ffffffffffffffffffffffffffffffffffffffff16866040518363ffffffff1660e01b815260040161127d9291906123a5565b6020604051808303816000875af115801561129c573d6000803e3d6000fd5b505050506040513d601f19601f820116820180604052508101906112c09190612700565b9150600260009054906101000a900473ffffffffffffffffffffffffffffffffffffffff1673ffffffffffffffffffffffffffffffffffffffff166313bac82084306040518363ffffffff1660e01b815260040161131f92919061272d565b6020604051808303816000875af115801561133e573d6000803e3d6000fd5b505050506040513d601f19601f820116820180604052508101906113629190612756565b905061136f868683611a15565b94509492505050565b6000806000806000611388610beb565b90506000678ac7230489e8000082886113a19190612783565b6113ab91906122d5565b9050600560009054906101000a900473ffffffffffffffffffffffffffffffffffffffff1673ffffffffffffffffffffffffffffffffffffffff1663095ea7b3600a60009054906101000a900473ffffffffffffffffffffffffffffffffffffffff16896040518363ffffffff1660e01b815260040161142c9291906123a5565b6020604051808303816000875af115801561144b573d6000803e3d6000fd5b505050506040513d601f19601f8201168201806040525081019061146f9190612700565b9550600660009054906101000a900473ffffffffffffffffffffffffffffffffffffffff1673ffffffffffffffffffffffffffffffffffffffff1663095ea7b3600a60009054906101000a900473ffffffffffffffffffffffffffffffffffffffff16836040518363ffffffff1660e01b81526004016114f09291906123a5565b6020604051808303816000875af115801561150f573d6000803e3d6000fd5b505050506040513d601f19601f820116820180604052508101906115339190612700565b945060006040518060800160405280898152602001838152602001601e4261155b9190612306565b81526020013073ffffffffffffffffffffffffffffffffffffffff168152509050600360009054906101000a900473ffffffffffffffffffffffffffffffffffffffff1673ffffffffffffffffffffffffffffffffffffffff1663525e6b11826040518263ffffffff1660e01b81526004016115d79190612850565b60408051808303816000875af11580156115f5573d6000803e3d6000fd5b505050506040513d601f19601f82011682018060405250810190611619919061286b565b809550819650505061162e8a8a878688611a8e565b50505093509350935093565b60008060006116498585611b59565b915091506000600660009054906101000a900473ffffffffffffffffffffffffffffffffffffffff1673ffffffffffffffffffffffffffffffffffffffff1663a9059cbb601260009054906101000a900473ffffffffffffffffffffffffffffffffffffffff16856040518363ffffffff1660e01b81526004016116ce9291906123a5565b6020604051808303816000875af11580156116ed573d6000803e3d6000fd5b505050506040513d601f19601f820116820180604052508101906117119190612700565b90506000600660009054906101000a900473ffffffffffffffffffffffffffffffffffffffff1673ffffffffffffffffffffffffffffffffffffffff1663a9059cbb601060009054906101000a900473ffffffffffffffffffffffffffffffffffffffff16856040518363ffffffff1660e01b81526004016117949291906123a5565b6020604051808303816000875af11580156117b3573d6000803e3d6000fd5b505050506040513d601f19601f820116820180604052508101906117d79190612700565b90506117e589898587611b98565b8080156117ef5750815b945050505050949350505050565b60056013838360405161181192919061238c565b908152602001604051809103902060080160006101000a81548160ff0219169083600681111561184457611843611e6b565b5b02179055507fb068bfa73b9623ba0d319b003df0377fa326e109678625e7ad23230855b856b482826013858560405161187e92919061238c565b908152602001604051809103902060050154601386866040516118a292919061238c565b9081526020016040518091039020600601546040516118c494939291906128ab565b60405180910390a15050565b60008060009054906101000a900473ffffffffffffffffffffffffffffffffffffffff169050816000806101000a81548173ffffffffffffffffffffffffffffffffffffffff021916908373ffffffffffffffffffffffffffffffffffffffff1602179055508173ffffffffffffffffffffffffffffffffffffffff168173ffffffffffffffffffffffffffffffffffffffff167f8be0079c531659141344cd1fd0a4f28419497f9722a3daafe3b4186f6b6457e060405160405180910390a35050565b600033905090565b6001601384846040516119b092919061238c565b908152602001604051809103902060080160006101000a81548160ff021916908360068111156119e3576119e2611e6b565b5b021790555080601384846040516119fb92919061238c565b908152602001604051809103902060010181905550505050565b600260138484604051611a2992919061238c565b908152602001604051809103902060080160006101000a81548160ff02191690836006811115611a5c57611a5b611e6b565b5b02179055508060138484604051611a7492919061238c565b908152602001604051809103902060020181905550505050565b600360138686604051611aa292919061238c565b908152602001604051809103902060080160006101000a81548160ff02191690836006811115611ad557611ad4611e6b565b5b02179055508260138686604051611aed92919061238c565b9081526020016040518091039020600301819055508160138686604051611b1592919061238c565b9081526020016040518091039020600401819055508060138686604051611b3d92919061238c565b9081526020016040518091039020600701819055505050505050565b600080826103e8601386611b6d9190612783565b611b7791906122d5565b611b8191906128eb565b91508184611b8f91906128eb565b90509250929050565b600460138585604051611bac92919061238c565b908152602001604051809103902060080160006101000a81548160ff02191690836006811115611bdf57611bde611e6b565b5b02179055508160138585604051611bf792919061238c565b9081526020016040518091039020600501819055508060138585604051611c1f92919061238c565b90815260200160405180910390206006018190555050505050565b6000604051905090565b600080fd5b600080fd5b600073ffffffffffffffffffffffffffffffffffffffff82169050919050565b6000611c7982611c4e565b9050919050565b611c8981611c6e565b8114611c9457600080fd5b50565b600081359050611ca681611c80565b92915050565b600060208284031215611cc257611cc1611c44565b5b6000611cd084828501611c97565b91505092915050565b600080fd5b600080fd5b600080fd5b60008083601f840112611cfe57611cfd611cd9565b5b8235905067ffffffffffffffff811115611d1b57611d1a611cde565b5b602083019150836001820283011115611d3757611d36611ce3565b5b9250929050565b6000819050919050565b611d5181611d3e565b8114611d5c57600080fd5b50565b600081359050611d6e81611d48565b92915050565b60008060008060608587031215611d8e57611d8d611c44565b5b600085013567ffffffffffffffff811115611dac57611dab611c49565b5b611db887828801611ce8565b94509450506020611dcb87828801611c97565b9250506040611ddc87828801611d5f565b91505092959194509250565b60008115159050919050565b611dfd81611de8565b82525050565b6000602082019050611e186000830184611df4565b92915050565b60008060208385031215611e3557611e34611c44565b5b600083013567ffffffffffffffff811115611e5357611e52611c49565b5b611e5f85828601611ce8565b92509250509250929050565b7f4e487b7100000000000000000000000000000000000000000000000000000000600052602160045260246000fd5b60078110611eab57611eaa611e6b565b5b50565b6000819050611ebc82611e9a565b919050565b6000611ecc82611eae565b9050919050565b611edc81611ec1565b82525050565b6000602082019050611ef76000830184611ed3565b92915050565b600080fd5b6000601f19601f8301169050919050565b7f4e487b7100000000000000000000000000000000000000000000000000000000600052604160045260246000fd5b611f4b82611f02565b810181811067ffffffffffffffff82111715611f6a57611f69611f13565b5b80604052505050565b6000611f7d611c3a565b9050611f898282611f42565b919050565b600067ffffffffffffffff821115611fa957611fa8611f13565b5b611fb282611f02565b9050602081019050919050565b82818337600083830152505050565b6000611fe1611fdc84611f8e565b611f73565b905082815260208101848484011115611ffd57611ffc611efd565b5b612008848285611fbf565b509392505050565b600082601f83011261202557612024611cd9565b5b8135612035848260208601611fce565b91505092915050565b60006020828403121561205457612053611c44565b5b600082013567ffffffffffffffff81111561207257612071611c49565b5b61207e84828501612010565b91505092915050565b61209081611c6e565b82525050565b61209f81611d3e565b82525050565b6000610120820190506120bb600083018c612087565b6120c8602083018b612096565b6120d5604083018a612096565b6120e26060830189612096565b6120ef6080830188612096565b6120fc60a0830187612096565b61210960c0830186612096565b61211660e0830185612096565b612124610100830184611ed3565b9a9950505050505050505050565b60006020820190506121476000830184612087565b92915050565b60006020820190506121626000830184612096565b92915050565b600082825260208201905092915050565b7f596f7527726520616c6c6f77656420746f20696e69746961746520612074726160008201527f6e73666572000000000000000000000000000000000000000000000000000000602082015250565b60006121d5602583612168565b91506121e082612179565b604082019050919050565b60006020820190508181036000830152612204816121c8565b9050919050565b7f696e73756666696369656e7420616d6f756e7400000000000000000000000000600082015250565b6000612241601383612168565b915061224c8261220b565b602082019050919050565b6000602082019050818103600083015261227081612234565b9050919050565b7f4e487b7100000000000000000000000000000000000000000000000000000000600052601260045260246000fd5b7f4e487b7100000000000000000000000000000000000000000000000000000000600052601160045260246000fd5b60006122e082611d3e565b91506122eb83611d3e565b9250826122fb576122fa612277565b5b828204905092915050565b600061231182611d3e565b915061231c83611d3e565b9250827fffffffffffffffffffffffffffffffffffffffffffffffffffffffffffffffff03821115612351576123506122a6565b5b828201905092915050565b600081905092915050565b6000612373838561235c565b9350612380838584611fbf565b82840190509392505050565b6000612399828486612367565b91508190509392505050565b60006040820190506123ba6000830185612087565b6123c76020830184612096565b9392505050565b600069ffffffffffffffffffff82169050919050565b6123ed816123ce565b81146123f857600080fd5b50565b60008151905061240a816123e4565b92915050565b6000819050919050565b61242381612410565b811461242e57600080fd5b50565b6000815190506124408161241a565b92915050565b60008151905061245581611d48565b92915050565b600080600080600060a0868803121561247757612476611c44565b5b6000612485888289016123fb565b955050602061249688828901612431565b94505060406124a788828901612446565b93505060606124b888828901612446565b92505060806124c9888289016123fb565b9150509295509295909350565b60006124e182612410565b91506124ec83612410565b9250826124fc576124fb612277565b5b600160000383147f800000000000000000000000000000000000000000000000000000000000000083141615612535576125346122a6565b5b828205905092915050565b7f4f776e61626c653a206e6577206f776e657220697320746865207a65726f206160008201527f6464726573730000000000000000000000000000000000000000000000000000602082015250565b600061259c602683612168565b91506125a782612540565b604082019050919050565b600060208201905081810360008301526125cb8161258f565b9050919050565b7f4f776e61626c653a2063616c6c6572206973206e6f7420746865206f776e6572600082015250565b6000612608602083612168565b9150612613826125d2565b602082019050919050565b60006020820190508181036000830152612637816125fb565b9050919050565b600061264a8385612168565b9350612657838584611fbf565b61266083611f02565b840190509392505050565b6000604082019050818103600083015261268681858761263e565b90506126956020830184612096565b949350505050565b60006060820190506126b26000830186612087565b6126bf6020830185612087565b6126cc6040830184612096565b949350505050565b6126dd81611de8565b81146126e857600080fd5b50565b6000815190506126fa816126d4565b92915050565b60006020828403121561271657612715611c44565b5b6000612724848285016126eb565b91505092915050565b60006040820190506127426000830185612096565b61274f6020830184612087565b9392505050565b60006020828403121561276c5761276b611c44565b5b600061277a84828501612446565b91505092915050565b600061278e82611d3e565b915061279983611d3e565b9250817fffffffffffffffffffffffffffffffffffffffffffffffffffffffffffffffff04831182151516156127d2576127d16122a6565b5b828202905092915050565b6127e681611d3e565b82525050565b6127f581611c6e565b82525050565b60808201600082015161281160008501826127dd565b50602082015161282460208501826127dd565b50604082015161283760408501826127dd565b50606082015161284a60608501826127ec565b50505050565b600060808201905061286560008301846127fb565b92915050565b6000806040838503121561288257612881611c44565b5b600061289085828601612446565b92505060206128a185828601612446565b9150509250929050565b600060608201905081810360008301526128c681868861263e565b90506128d56020830185612096565b6128e26040830184612096565b95945050505050565b60006128f682611d3e565b915061290183611d3e565b925082821015612914576129136122a6565b5b82820390509291505056fea264697066735822122054cd47d1da5414a9ffc8bab5e2f9aed576531015d8f69102de8e0c60caa800c164736f6c634300080e0033",
  "immutableReferences": {},
  "source": "// SPDX-License-Identifier: MIT\r\npragma solidity ^0.8.9;\r\n\r\nimport \"../node_modules/@chainlink/contracts/src/v0.8/interfaces/AggregatorV3Interface.sol\";\r\nimport \"../node_modules/@openzeppelin/contracts/access/Ownable.sol\";\r\nimport \"../node_modules/@openzeppelin/contracts/token/ERC20/IERC20.sol\";\r\nimport \"./interfaces/IFixedRateWrapper.sol\";\r\nimport \"./interfaces/ISynthereum.sol\";\r\nimport \"./BlockSendToken.sol\";\r\n\r\ncontract BlockSendRouter is Ownable {\r\n    AggregatorV3Interface private priceFeed;\r\n\r\n    IFixedRateWrapper private jarvisWrapper;\r\n    ISynthereum private jarvisSynthereum;\r\n    IERC20 private moneriumEURemoney;\r\n    IERC20 private jEURToken;\r\n    IERC20 private USDCToken;\r\n    BlockSendToken private BKSDToken;\r\n    mapping(address => uint256) private transferRewardsBalance;\r\n\r\n    address private WRAPPER_CONTRACT =\r\n        0xb07Cb016440331be4D2f532b20d892a420476AD0;\r\n    address private SYNTHEREUM_CONTRACT =\r\n        0x65a7b4Ff684C2d08c115D55a4B089bf4E92F5003;\r\n    address private EURE_TOKEN_CONTRACT =\r\n        0x18ec0A6E18E5bc3784fDd3a3634b31245ab704F6;\r\n    address private JEUR_TOKEN_CONTRACT =\r\n        0x4e3Decbb3645551B8A19f0eA1678079FCB33fB4c;\r\n    address private USDC_TOKEN_CONTRACT =\r\n        0x2791Bca1f2de4661ED88A30C99A7a9449Aa84174;\r\n    address private BKSD_TOKEN_CONTRACT =\r\n        0x4e3Decbb3645551B8A19f0eA1678079FCB33fB4c; // TODO: change this\r\n\r\n    address private EUR_USD_AGGREGATOR =\r\n        0x73366Fe0AA0Ded304479862808e02506FE556a98;\r\n    address private HUB2_WALLET = 0xeD85CAeb52C34bD35dfeEB2d4e0bC936a0Db0923;\r\n    address private BLOCKSEND_BACKEND =\r\n        0x913Cd67dA3b17be7f66E865158cDF9a5c4F2a850;\r\n    address private BLOCKSEND_WALLET =\r\n        0x7f3eE84Fd13D815ff1005B7904Cd67084D8f353F;\r\n\r\n    mapping(string => Remittance) public transfers;\r\n    struct Remittance {\r\n        address sender;\r\n        uint256 amount_EURe;\r\n        uint256 amount_jEUR;\r\n        uint256 amount_USDC;\r\n        uint256 rate_EUR_USDC;\r\n        uint256 userAmount_USDC;\r\n        uint256 blocksendAmount_USDC;\r\n        uint256 jarvisFees_USDC;\r\n        TransferStatus status;\r\n    }\r\n\r\n    enum TransferStatus {\r\n        INITIALIZED,\r\n        EURE_RECEIVED,\r\n        JEUR_WRAPPED,\r\n        USDC_RECEIVED,\r\n        USDC_SENT,\r\n        FINALIZED,\r\n        TRANSFER_STUCK\r\n    }\r\n\r\n    mapping(address => bool) private allowed;\r\n\r\n    event TransferInitilized(string transferId, uint256 amount);\r\n    event TransferFinalized(\r\n        string transferId,\r\n        uint256 userAmount,\r\n        uint256 blocksendAmount\r\n    );\r\n    event ClaimTransferRewardEvent(address user, uint256 tokenAmount);\r\n\r\n    modifier onlyAllowed() {\r\n        require(allowed[msg.sender], \"You're allowed to initiate a transfer\");\r\n        _;\r\n    }\r\n\r\n    constructor(address _blocksSendTokenAdress) {\r\n        allowed[BLOCKSEND_BACKEND] = true;\r\n        jarvisWrapper = IFixedRateWrapper(WRAPPER_CONTRACT);\r\n        jarvisSynthereum = ISynthereum(SYNTHEREUM_CONTRACT);\r\n        moneriumEURemoney = IERC20(EURE_TOKEN_CONTRACT);\r\n        jEURToken = IERC20(JEUR_TOKEN_CONTRACT);\r\n        USDCToken = IERC20(USDC_TOKEN_CONTRACT);\r\n        priceFeed = AggregatorV3Interface(EUR_USD_AGGREGATOR);\r\n        BKSDToken = BlockSendToken(_blocksSendTokenAdress);\r\n    }\r\n\r\n    /**\r\n     * @notice Iinitialise a transfer of an amount of EURe\r\n     * @notice First Step: On-Ramp:\r\n     * @notice 1- Transfer EURe from user's wallet\r\n     * @notice 2- Wrap EURe to jEUR (Jarvis wrapper)\r\n     * @notice 3- Get jEUR/USDC Rate (Aggregator Chainlink)\r\n     * @notice 4- Redeem USDC from jEUR (Jarvis Redeem)\r\n     * @notice Secod Step: Calculate 1,9% of fees\r\n     * @notice Third Step: Off-Ramp: Using HUB2\r\n     * @notice if any error: Sent money to users wallet back\r\n     * @param transferId Input parameters transferId\r\n     * @param amount Input parameters for for transfered amount\r\n     * @param userWallet Input parameters for user wallet\r\n     * @return ok a boolean value indicating whether the operation succeeded.\r\n     *\r\n     * Emits a {TransferStatusChanged} event with the current status of the transfer.\r\n     */\r\n    function initializeTransfer(\r\n        string calldata transferId,\r\n        address userWallet,\r\n        uint256 amount\r\n    ) external onlyAllowed returns (bool ok) {\r\n        require(amount >= 5 * 10e17, \"insufficient amount\");\r\n\r\n        initilizeTransferData(transferId, userWallet, amount);\r\n\r\n        // TODO: Calculate\r\n        // TODO: Add a function to expose rate EUR/USDC to the frontend\r\n        // TODO: Add a function to expose rate USDC/XOF to the frontend\r\n\r\n        transferRewardsBalance[userWallet] += amount / 2;\r\n\r\n        bool okGetEURe = transferFrom(transferId, userWallet, amount);\r\n        if (!okGetEURe) {\r\n            TransferStuck(transferId, userWallet, amount);\r\n            return false;\r\n        }\r\n\r\n        (bool okApproveWrap, uint256 amountJEUR) = routage_jEURfromEURe(\r\n            transferId,\r\n            amount,\r\n            amount\r\n        );\r\n        if (!okApproveWrap || amountJEUR == 0) {\r\n            TransferStuck(transferId, userWallet, amount);\r\n            return false;\r\n        }\r\n\r\n        (\r\n            bool okApprouveJEUR,\r\n            bool okApprouveUSDC,\r\n            uint256 collateralRedeemed,\r\n            uint256 feePaid\r\n        ) = routage_USDCfromjEUR(transferId, amountJEUR);\r\n        if (!okApprouveJEUR || !okApprouveUSDC || collateralRedeemed == 0) {\r\n            TransferStuck(transferId, userWallet, amount);\r\n            return false;\r\n        }\r\n\r\n        bool okTransferWallet = transferUSDC(\r\n            transferId,\r\n            collateralRedeemed,\r\n            feePaid\r\n        );\r\n        if (!okTransferWallet) {\r\n            TransferStuck(transferId, userWallet, amount);\r\n            return false;\r\n        }\r\n\r\n        finalizeTransfer(transferId);\r\n\r\n        return true;\r\n    }\r\n\r\n    function claimTransferRewards() external {\r\n        // TODO: Add a require if necessary to avoid claim small amount of BSKD\r\n        uint256 amount = transferRewardsBalance[msg.sender];\r\n        transferRewardsBalance[msg.sender] = 0;\r\n        BKSDToken.mint(msg.sender, amount);\r\n        emit ClaimTransferRewardEvent(msg.sender, amount);\r\n    }\r\n\r\n    /**\r\n     * Returns the current status of a specific remmitance.\r\n     */\r\n    function remittanceStatus(\r\n        string calldata _transferId\r\n    ) public view virtual returns (TransferStatus) {\r\n        return transfers[_transferId].status;\r\n    }\r\n\r\n    // *********************** Manage Status changed ************************************\r\n    function initilizeTransferData(\r\n        string calldata _transferId,\r\n        address _userWallet,\r\n        uint256 _amount\r\n    ) internal {\r\n        transfers[_transferId].sender = _userWallet;\r\n        transfers[_transferId].status = TransferStatus.INITIALIZED;\r\n\r\n        emit TransferInitilized(_transferId, _amount);\r\n    }\r\n\r\n    function finalizeTransfer(string calldata _transferId) internal {\r\n        transfers[_transferId].status = TransferStatus.FINALIZED;\r\n\r\n        emit TransferFinalized(\r\n            _transferId,\r\n            transfers[_transferId].userAmount_USDC,\r\n            transfers[_transferId].blocksendAmount_USDC\r\n        );\r\n    }\r\n\r\n    function amountReceived(\r\n        string calldata _transferId,\r\n        uint256 _amount\r\n    ) internal {\r\n        transfers[_transferId].status = TransferStatus.EURE_RECEIVED;\r\n        transfers[_transferId].amount_EURe = _amount;\r\n    }\r\n\r\n    function amountWrapped(\r\n        string calldata _transferId,\r\n        uint256 _amount\r\n    ) internal {\r\n        transfers[_transferId].status = TransferStatus.JEUR_WRAPPED;\r\n        transfers[_transferId].amount_jEUR = _amount;\r\n    }\r\n\r\n    function redeemCollateral(\r\n        string calldata _transferId,\r\n        uint256 _collateral,\r\n        uint256 _rate,\r\n        uint256 _feePaid\r\n    ) internal {\r\n        transfers[_transferId].status = TransferStatus.USDC_RECEIVED;\r\n        transfers[_transferId].amount_USDC = _collateral;\r\n        transfers[_transferId].rate_EUR_USDC = _rate;\r\n        transfers[_transferId].jarvisFees_USDC = _feePaid;\r\n    }\r\n\r\n    function collateralSent(\r\n        string calldata _transferId,\r\n        uint256 _userAmount,\r\n        uint256 _blockSendAmount\r\n    ) internal {\r\n        transfers[_transferId].status = TransferStatus.USDC_SENT;\r\n        transfers[_transferId].userAmount_USDC = _userAmount;\r\n        transfers[_transferId].blocksendAmount_USDC = _blockSendAmount;\r\n    }\r\n\r\n    function TransferStuck(\r\n        string calldata _transferId,\r\n        address _userWallet,\r\n        uint256 _amount\r\n    ) internal returns (bool ok) {\r\n        transfers[_transferId].status = TransferStatus.TRANSFER_STUCK;\r\n\r\n        ok = moneriumEURemoney.transfer(_userWallet, _amount);\r\n    }\r\n\r\n    // *********************************************************************************\r\n\r\n    // *********************** GET EURe from user's wallet *****************************\r\n    function transferFrom(\r\n        string calldata _transferId,\r\n        address _userWallet,\r\n        uint256 _amount\r\n    ) internal returns (bool ok) {\r\n        ok = moneriumEURemoney.transferFrom(\r\n            _userWallet,\r\n            address(this),\r\n            _amount\r\n        );\r\n\r\n        amountReceived(_transferId, _amount);\r\n    }\r\n\r\n    // *********************************************************************************\r\n\r\n    // *********************** Wrap EURe to JEUR ***************************************\r\n    function routage_jEURfromEURe(\r\n        string calldata _transferId,\r\n        uint256 _amount,\r\n        uint256 _collateral\r\n    ) internal returns (bool ok, uint256 amountTokens) {\r\n        ok = moneriumEURemoney.approve(WRAPPER_CONTRACT, _amount);\r\n        amountTokens = jarvisWrapper.wrap(_collateral, address(this));\r\n\r\n        amountWrapped(_transferId, amountTokens);\r\n    }\r\n\r\n    // *********************************************************************************\r\n\r\n    // *********************** Wurn & Mint (Redeem) UCDS from JEUR *********************\r\n    function routage_USDCfromjEUR(\r\n        string calldata _transferId,\r\n        uint256 _numToken\r\n    )\r\n        internal\r\n        returns (\r\n            bool okApprouveJEUR,\r\n            bool okApprouveUSDC,\r\n            uint256 collateralRedeemed,\r\n            uint256 feePaid\r\n        )\r\n    {\r\n        uint256 price = getLatestPrice();\r\n        uint256 collateralUSDC = uint256((_numToken * price) / 10e18);\r\n\r\n        okApprouveJEUR = jEURToken.approve(SYNTHEREUM_CONTRACT, _numToken);\r\n        okApprouveUSDC = USDCToken.approve(SYNTHEREUM_CONTRACT, collateralUSDC);\r\n\r\n        ISynthereum.RedeemParams memory params = ISynthereum.RedeemParams({\r\n            numTokens: _numToken,\r\n            minCollateral: collateralUSDC,\r\n            expiration: block.timestamp + 30,\r\n            recipient: address(this)\r\n        });\r\n\r\n        (collateralRedeemed, feePaid) = jarvisSynthereum.redeem(params);\r\n\r\n        redeemCollateral(_transferId, collateralRedeemed, price, feePaid);\r\n    }\r\n\r\n    // *********************************************************************************\r\n\r\n    // *********************** Transfer USDC to HUB2 Wallet & BlockSend Wallet *********\r\n    function transferUSDC(\r\n        string calldata _transferId,\r\n        uint256 _collateralRedeemed,\r\n        uint256 _feePaid\r\n    ) internal returns (bool ok) {\r\n        (uint256 blocksendAmount, uint256 userAmount) = calculateBlockSendFees(\r\n            _collateralRedeemed,\r\n            _feePaid\r\n        );\r\n\r\n        bool okBlocksend = USDCToken.transfer(\r\n            BLOCKSEND_WALLET,\r\n            blocksendAmount\r\n        );\r\n        bool okHUB2 = USDCToken.transfer(HUB2_WALLET, userAmount);\r\n\r\n        collateralSent(_transferId, userAmount, blocksendAmount);\r\n\r\n        return okHUB2 && okBlocksend;\r\n    }\r\n\r\n    // *********************************************************************************\r\n\r\n    // *********************** Calculate 1,9% fees *************************************\r\n    function calculateBlockSendFees(\r\n        uint256 _amount,\r\n        uint256 _feePaid\r\n    ) internal pure returns (uint256 blocksendAmount, uint256 userAmount) {\r\n        blocksendAmount = ((_amount * 19) / 1000) - _feePaid;\r\n        userAmount = _amount - blocksendAmount;\r\n    }\r\n\r\n    // *********************************************************************************\r\n\r\n    // *********************** Update Contracts Addresses ******************************\r\n    function setWrapperContract(address _newAddress) external onlyOwner {\r\n        WRAPPER_CONTRACT = _newAddress;\r\n        jarvisWrapper = IFixedRateWrapper(WRAPPER_CONTRACT);\r\n    }\r\n\r\n    function setSyntheriumContract(address _newAddress) external onlyOwner {\r\n        SYNTHEREUM_CONTRACT = _newAddress;\r\n        jarvisSynthereum = ISynthereum(SYNTHEREUM_CONTRACT);\r\n    }\r\n\r\n    function setEURETokenContract(address _newAddress) external onlyOwner {\r\n        EURE_TOKEN_CONTRACT = _newAddress;\r\n        moneriumEURemoney = IERC20(EURE_TOKEN_CONTRACT);\r\n    }\r\n\r\n    function setJEURToken_Contract(address _newAddress) external onlyOwner {\r\n        JEUR_TOKEN_CONTRACT = _newAddress;\r\n        jEURToken = IERC20(JEUR_TOKEN_CONTRACT);\r\n    }\r\n\r\n    function setBKSDTokenContract(address _newAddress) external onlyOwner {\r\n        BKSD_TOKEN_CONTRACT = _newAddress;\r\n        BKSDToken = BlockSendToken(BKSD_TOKEN_CONTRACT);\r\n    }\r\n\r\n    function setUSDCTokenContract(address _newAddress) external onlyOwner {\r\n        USDC_TOKEN_CONTRACT = _newAddress;\r\n        USDCToken = IERC20(USDC_TOKEN_CONTRACT);\r\n    }\r\n\r\n    function setEUR_USD_Aggregator(address _newAddress) external onlyOwner {\r\n        EUR_USD_AGGREGATOR = _newAddress;\r\n        priceFeed = AggregatorV3Interface(EUR_USD_AGGREGATOR);\r\n    }\r\n\r\n    function setHUB2Wallet(address _newAddress) external onlyOwner {\r\n        HUB2_WALLET = _newAddress;\r\n    }\r\n\r\n    function setBlockSend_Wallet(address _newAddress) external onlyOwner {\r\n        BLOCKSEND_WALLET = _newAddress;\r\n    }\r\n\r\n    function AllowAddress(address _addr) external onlyOwner {\r\n        allowed[_addr] = true;\r\n    }\r\n\r\n    // *********************************************************************************\r\n\r\n    // *********************** Get the latest rate *************************************\r\n    function getLatestPrice() public view returns (uint256) {\r\n        (, int256 price, , , ) = priceFeed.latestRoundData();\r\n        return uint256(price / 1000);\r\n    }\r\n    // *********************************************************************************\r\n}\r\n",
  "sourcePath": "C:\\Users\\zguai\\Desktop\\Repos\\BlockSend\\truffle\\contracts\\BlockSendRouter.sol",
  "compiler": {
    "name": "solc",
    "version": "0.8.14+commit.80d49f37.Emscripten.clang"
  },
  "schemaVersion": "3.4.10",
  "updatedAt": "2022-12-09T21:42:38.647Z",
  "devdoc": {
    "kind": "dev",
    "methods": {
      "initializeTransfer(string,address,uint256)": {
        "params": {
          "amount": "Input parameters for for transfered amount",
          "transferId": "Input parameters transferId",
          "userWallet": "Input parameters for user wallet"
        },
        "returns": {
          "ok": "a boolean value indicating whether the operation succeeded. Emits a {TransferStatusChanged} event with the current status of the transfer."
        }
      },
      "owner()": {
        "details": "Returns the address of the current owner."
      },
      "renounceOwnership()": {
        "details": "Leaves the contract without owner. It will not be possible to call `onlyOwner` functions anymore. Can only be called by the current owner. NOTE: Renouncing ownership will leave the contract without an owner, thereby removing any functionality that is only available to the owner."
      },
      "transferOwnership(address)": {
        "details": "Transfers ownership of the contract to a new account (`newOwner`). Can only be called by the current owner."
      }
    },
    "version": 1
  },
  "userdoc": {
    "kind": "user",
    "methods": {
      "initializeTransfer(string,address,uint256)": {
        "notice": "Iinitialise a transfer of an amount of EUReFirst Step: On-Ramp:1- Transfer EURe from user's wallet2- Wrap EURe to jEUR (Jarvis wrapper)3- Get jEUR/USDC Rate (Aggregator Chainlink)4- Redeem USDC from jEUR (Jarvis Redeem)Secod Step: Calculate 1,9% of feesThird Step: Off-Ramp: Using HUB2if any error: Sent money to users wallet back"
      },
      "remittanceStatus(string)": {
        "notice": "Returns the current status of a specific remmitance."
      }
    },
    "version": 1
  }
}