{
  "contractName": "StakingRewards",
  "abi": [
    {
      "inputs": [
        {
          "internalType": "address",
          "name": "_stakingToken",
          "type": "address"
        }
      ],
      "stateMutability": "nonpayable",
      "type": "constructor"
    },
    {
      "anonymous": false,
      "inputs": [
        {
          "indexed": true,
          "internalType": "address",
          "name": "previousOwner",
          "type": "address"
        },
        {
          "indexed": true,
          "internalType": "address",
          "name": "newOwner",
          "type": "address"
        }
      ],
      "name": "OwnershipTransferred",
      "type": "event"
    },
    {
      "inputs": [],
      "name": "bKSDToken",
      "outputs": [
        {
          "internalType": "contract IERC20",
          "name": "",
          "type": "address"
        }
      ],
      "stateMutability": "view",
      "type": "function"
    },
    {
      "inputs": [
        {
          "internalType": "address",
          "name": "",
          "type": "address"
        }
      ],
      "name": "balanceOf",
      "outputs": [
        {
          "internalType": "uint256",
          "name": "",
          "type": "uint256"
        }
      ],
      "stateMutability": "view",
      "type": "function"
    },
    {
      "inputs": [],
      "name": "duration",
      "outputs": [
        {
          "internalType": "uint256",
          "name": "",
          "type": "uint256"
        }
      ],
      "stateMutability": "view",
      "type": "function"
    },
    {
      "inputs": [],
      "name": "expiresAt",
      "outputs": [
        {
          "internalType": "uint256",
          "name": "",
          "type": "uint256"
        }
      ],
      "stateMutability": "view",
      "type": "function"
    },
    {
      "inputs": [],
      "name": "lastRewarUpdatedAt",
      "outputs": [
        {
          "internalType": "uint256",
          "name": "",
          "type": "uint256"
        }
      ],
      "stateMutability": "view",
      "type": "function"
    },
    {
      "inputs": [],
      "name": "owner",
      "outputs": [
        {
          "internalType": "address",
          "name": "",
          "type": "address"
        }
      ],
      "stateMutability": "view",
      "type": "function"
    },
    {
      "inputs": [],
      "name": "renounceOwnership",
      "outputs": [],
      "stateMutability": "nonpayable",
      "type": "function"
    },
    {
      "inputs": [],
      "name": "rewardPerTokenDetained",
      "outputs": [
        {
          "internalType": "uint256",
          "name": "",
          "type": "uint256"
        }
      ],
      "stateMutability": "view",
      "type": "function"
    },
    {
      "inputs": [],
      "name": "rewardRate",
      "outputs": [
        {
          "internalType": "uint256",
          "name": "",
          "type": "uint256"
        }
      ],
      "stateMutability": "view",
      "type": "function"
    },
    {
      "inputs": [
        {
          "internalType": "address",
          "name": "",
          "type": "address"
        }
      ],
      "name": "rewards",
      "outputs": [
        {
          "internalType": "uint256",
          "name": "",
          "type": "uint256"
        }
      ],
      "stateMutability": "view",
      "type": "function"
    },
    {
      "inputs": [],
      "name": "totalStaked",
      "outputs": [
        {
          "internalType": "uint256",
          "name": "",
          "type": "uint256"
        }
      ],
      "stateMutability": "view",
      "type": "function"
    },
    {
      "inputs": [
        {
          "internalType": "address",
          "name": "newOwner",
          "type": "address"
        }
      ],
      "name": "transferOwnership",
      "outputs": [],
      "stateMutability": "nonpayable",
      "type": "function"
    },
    {
      "inputs": [],
      "name": "uSDCToken",
      "outputs": [
        {
          "internalType": "contract IERC20",
          "name": "",
          "type": "address"
        }
      ],
      "stateMutability": "view",
      "type": "function"
    },
    {
      "inputs": [
        {
          "internalType": "address",
          "name": "",
          "type": "address"
        }
      ],
      "name": "userRewardPerTokenPaid",
      "outputs": [
        {
          "internalType": "uint256",
          "name": "",
          "type": "uint256"
        }
      ],
      "stateMutability": "view",
      "type": "function"
    },
    {
      "inputs": [
        {
          "internalType": "uint256",
          "name": "_amount",
          "type": "uint256"
        }
      ],
      "name": "claimTokens",
      "outputs": [],
      "stateMutability": "nonpayable",
      "type": "function"
    },
    {
      "inputs": [],
      "name": "claimAndStackTokens",
      "outputs": [],
      "stateMutability": "nonpayable",
      "type": "function"
    },
    {
      "inputs": [
        {
          "internalType": "uint256",
          "name": "_amount",
          "type": "uint256"
        }
      ],
      "name": "stake",
      "outputs": [],
      "stateMutability": "nonpayable",
      "type": "function"
    },
    {
      "inputs": [
        {
          "internalType": "uint256",
          "name": "_amount",
          "type": "uint256"
        }
      ],
      "name": "unStake",
      "outputs": [],
      "stateMutability": "nonpayable",
      "type": "function"
    },
    {
      "inputs": [],
      "name": "withdrawRewards",
      "outputs": [],
      "stateMutability": "nonpayable",
      "type": "function"
    },
    {
      "inputs": [],
      "name": "lastTimeRewardApplicable",
      "outputs": [
        {
          "internalType": "uint256",
          "name": "",
          "type": "uint256"
        }
      ],
      "stateMutability": "view",
      "type": "function"
    },
    {
      "inputs": [],
      "name": "rewardPerToken",
      "outputs": [
        {
          "internalType": "uint256",
          "name": "",
          "type": "uint256"
        }
      ],
      "stateMutability": "view",
      "type": "function"
    },
    {
      "inputs": [
        {
          "internalType": "address",
          "name": "_account",
          "type": "address"
        }
      ],
      "name": "earned",
      "outputs": [
        {
          "internalType": "uint256",
          "name": "",
          "type": "uint256"
        }
      ],
      "stateMutability": "view",
      "type": "function"
    },
    {
      "inputs": [
        {
          "internalType": "uint256",
          "name": "_duration",
          "type": "uint256"
        }
      ],
      "name": "setRewardsDuration",
      "outputs": [],
      "stateMutability": "nonpayable",
      "type": "function"
    },
    {
      "inputs": [
        {
          "internalType": "uint256",
          "name": "_amount",
          "type": "uint256"
        }
      ],
      "name": "notifyRewardAmount",
      "outputs": [],
      "stateMutability": "nonpayable",
      "type": "function"
    }
  ],
  "bytecode": "0x60c0604052732791bca1f2de4661ed88a30c99a7a9449aa84174600160006101000a81548173ffffffffffffffffffffffffffffffffffffffff021916908373ffffffffffffffffffffffffffffffffffffffff1602179055503480156200006657600080fd5b5060405162001ebe38038062001ebe83398181016040528101906200008c919062000273565b620000ac620000a06200013d60201b60201c565b6200014560201b60201c565b8073ffffffffffffffffffffffffffffffffffffffff1660808173ffffffffffffffffffffffffffffffffffffffff1681525050600160009054906101000a900473ffffffffffffffffffffffffffffffffffffffff1673ffffffffffffffffffffffffffffffffffffffff1660a08173ffffffffffffffffffffffffffffffffffffffff168152505050620002a5565b600033905090565b60008060009054906101000a900473ffffffffffffffffffffffffffffffffffffffff169050816000806101000a81548173ffffffffffffffffffffffffffffffffffffffff021916908373ffffffffffffffffffffffffffffffffffffffff1602179055508173ffffffffffffffffffffffffffffffffffffffff168173ffffffffffffffffffffffffffffffffffffffff167f8be0079c531659141344cd1fd0a4f28419497f9722a3daafe3b4186f6b6457e060405160405180910390a35050565b600080fd5b600073ffffffffffffffffffffffffffffffffffffffff82169050919050565b60006200023b826200020e565b9050919050565b6200024d816200022e565b81146200025957600080fd5b50565b6000815190506200026d8162000242565b92915050565b6000602082840312156200028c576200028b62000209565b5b60006200029c848285016200025c565b91505092915050565b60805160a051611bd7620002e76000396000818161070601528181611037015261122301526000818161054e01528181610aa20152610d6d0152611bd76000f3fe608060405234801561001057600080fd5b50600436106101575760003560e01c8063817b1cd2116100c3578063c7b8981c1161007c578063c7b8981c14610390578063cc1a378f1461039a578063cd3daf9d146103b6578063db9e2376146103d4578063f2fde38b146103f2578063ff0544541461040e57610157565b8063817b1cd2146102cc5780638622a689146102ea5780638b876347146103085780638da5cb5b14610338578063a694fc3a14610356578063b1a6793c1461037257610157565b806348c123a41161011557806348c123a4146102305780635d3eea911461023a57806370a0823114610256578063715018a6146102865780637b0a47ee1461029057806380faa57d146102ae57610157565b80628cc2621461015c5780630700037d1461018c5780630fb5a6b4146101bc57806334b804fe146101da5780633c6b16ab146101f857806346e04a2f14610214575b600080fd5b6101766004803603810190610171919061140c565b61042c565b6040516101839190611452565b60405180910390f35b6101a660048036038101906101a1919061140c565b61052e565b6040516101b39190611452565b60405180910390f35b6101c4610546565b6040516101d19190611452565b60405180910390f35b6101e261054c565b6040516101ef91906114cc565b60405180910390f35b610212600480360381019061020d9190611513565b610570565b005b61022e60048036038101906102299190611513565b61080e565b005b6102386108f6565b005b610254600480360381019061024f9190611513565b6108f8565b005b610270600480360381019061026b919061140c565b610bb2565b60405161027d9190611452565b60405180910390f35b61028e610bca565b005b610298610bde565b6040516102a59190611452565b60405180910390f35b6102b6610be4565b6040516102c39190611452565b60405180910390f35b6102d4610bf7565b6040516102e19190611452565b60405180910390f35b6102f2610bfd565b6040516102ff9190611452565b60405180910390f35b610322600480360381019061031d919061140c565b610c03565b60405161032f9190611452565b60405180910390f35b610340610c1b565b60405161034d919061154f565b60405180910390f35b610370600480360381019061036b9190611513565b610c44565b005b61037a610e7f565b6040516103879190611452565b60405180910390f35b610398610e85565b005b6103b460048036038101906103af9190611513565b6110d8565b005b6103be61112e565b6040516103cb9190611452565b60405180910390f35b6103dc611198565b6040516103e99190611452565b60405180910390f35b61040c6004803603810190610407919061140c565b61119e565b005b610416611221565b60405161042391906114cc565b60405180910390f35b6000600360008373ffffffffffffffffffffffffffffffffffffffff1673ffffffffffffffffffffffffffffffffffffffff16815260200190815260200160002054670de0b6b3a7640000600260008573ffffffffffffffffffffffffffffffffffffffff1673ffffffffffffffffffffffffffffffffffffffff168152602001908152602001600020546104bf61112e565b6104c99190611599565b600460008673ffffffffffffffffffffffffffffffffffffffff1673ffffffffffffffffffffffffffffffffffffffff1681526020019081526020016000205461051391906115cd565b61051d9190611656565b6105279190611687565b9050919050565b60036020528060005260406000206000915090505481565b60055481565b7f000000000000000000000000000000000000000000000000000000000000000081565b610578611245565b600061058261112e565b600781905550610590610be4565b600881905550600073ffffffffffffffffffffffffffffffffffffffff168173ffffffffffffffffffffffffffffffffffffffff161461065d576105d38161042c565b600360008373ffffffffffffffffffffffffffffffffffffffff1673ffffffffffffffffffffffffffffffffffffffff16815260200190815260200160002081905550600754600260008373ffffffffffffffffffffffffffffffffffffffff1673ffffffffffffffffffffffffffffffffffffffff168152602001908152602001600020819055505b600954421061067f57600554826106749190611656565b600a819055506106bf565b6000600a54426009546106929190611599565b61069c91906115cd565b905060055481846106ad9190611687565b6106b79190611656565b600a81905550505b6000600a5411610704576040517f08c379a00000000000000000000000000000000000000000000000000000000081526004016106fb9061173a565b60405180910390fd5b7f000000000000000000000000000000000000000000000000000000000000000073ffffffffffffffffffffffffffffffffffffffff166370a08231306040518263ffffffff1660e01b815260040161075d919061154f565b602060405180830381865afa15801561077a573d6000803e3d6000fd5b505050506040513d601f19601f8201168201806040525081019061079e919061176f565b600554600a546107ae91906115cd565b11156107ef576040517f08c379a00000000000000000000000000000000000000000000000000000000081526004016107e6906117e8565b60405180910390fd5b600554426107fd9190611687565b600981905550426008819055505050565b3361081761112e565b600781905550610825610be4565b600881905550600073ffffffffffffffffffffffffffffffffffffffff168173ffffffffffffffffffffffffffffffffffffffff16146108f2576108688161042c565b600360008373ffffffffffffffffffffffffffffffffffffffff1673ffffffffffffffffffffffffffffffffffffffff16815260200190815260200160002081905550600754600260008373ffffffffffffffffffffffffffffffffffffffff1673ffffffffffffffffffffffffffffffffffffffff168152602001908152602001600020819055505b5050565b565b3361090161112e565b60078190555061090f610be4565b600881905550600073ffffffffffffffffffffffffffffffffffffffff168173ffffffffffffffffffffffffffffffffffffffff16146109dc576109528161042c565b600360008373ffffffffffffffffffffffffffffffffffffffff1673ffffffffffffffffffffffffffffffffffffffff16815260200190815260200160002081905550600754600260008373ffffffffffffffffffffffffffffffffffffffff1673ffffffffffffffffffffffffffffffffffffffff168152602001908152602001600020819055505b60008211610a1f576040517f08c379a0000000000000000000000000000000000000000000000000000000008152600401610a1690611854565b60405180910390fd5b600460003373ffffffffffffffffffffffffffffffffffffffff1673ffffffffffffffffffffffffffffffffffffffff168152602001908152602001600020548210610aa0576040517f08c379a0000000000000000000000000000000000000000000000000000000008152600401610a97906118e6565b60405180910390fd5b7f000000000000000000000000000000000000000000000000000000000000000073ffffffffffffffffffffffffffffffffffffffff1663a9059cbb33846040518363ffffffff1660e01b8152600401610afb929190611906565b6020604051808303816000875af1158015610b1a573d6000803e3d6000fd5b505050506040513d601f19601f82011682018060405250810190610b3e9190611967565b5081600460003373ffffffffffffffffffffffffffffffffffffffff1673ffffffffffffffffffffffffffffffffffffffff1681526020019081526020016000206000828254610b8e9190611599565b925050819055508160066000828254610ba79190611599565b925050819055505050565b60046020528060005260406000206000915090505481565b610bd2611245565b610bdc60006112c3565b565b600a5481565b6000610bf260095442611387565b905090565b60065481565b60095481565b60026020528060005260406000206000915090505481565b60008060009054906101000a900473ffffffffffffffffffffffffffffffffffffffff16905090565b33610c4d61112e565b600781905550610c5b610be4565b600881905550600073ffffffffffffffffffffffffffffffffffffffff168173ffffffffffffffffffffffffffffffffffffffff1614610d2857610c9e8161042c565b600360008373ffffffffffffffffffffffffffffffffffffffff1673ffffffffffffffffffffffffffffffffffffffff16815260200190815260200160002081905550600754600260008373ffffffffffffffffffffffffffffffffffffffff1673ffffffffffffffffffffffffffffffffffffffff168152602001908152602001600020819055505b60008211610d6b576040517f08c379a0000000000000000000000000000000000000000000000000000000008152600401610d6290611854565b60405180910390fd5b7f000000000000000000000000000000000000000000000000000000000000000073ffffffffffffffffffffffffffffffffffffffff166323b872dd3330856040518463ffffffff1660e01b8152600401610dc893929190611994565b6020604051808303816000875af1158015610de7573d6000803e3d6000fd5b505050506040513d601f19601f82011682018060405250810190610e0b9190611967565b5081600460003373ffffffffffffffffffffffffffffffffffffffff1673ffffffffffffffffffffffffffffffffffffffff1681526020019081526020016000206000828254610e5b9190611687565b925050819055508160066000828254610e749190611687565b925050819055505050565b60085481565b33610e8e61112e565b600781905550610e9c610be4565b600881905550600073ffffffffffffffffffffffffffffffffffffffff168173ffffffffffffffffffffffffffffffffffffffff1614610f6957610edf8161042c565b600360008373ffffffffffffffffffffffffffffffffffffffff1673ffffffffffffffffffffffffffffffffffffffff16815260200190815260200160002081905550600754600260008373ffffffffffffffffffffffffffffffffffffffff1673ffffffffffffffffffffffffffffffffffffffff168152602001908152602001600020819055505b6000600360003373ffffffffffffffffffffffffffffffffffffffff1673ffffffffffffffffffffffffffffffffffffffff16815260200190815260200160002054905060008111610ff0576040517f08c379a0000000000000000000000000000000000000000000000000000000008152600401610fe790611a17565b60405180910390fd5b6000600360003373ffffffffffffffffffffffffffffffffffffffff1673ffffffffffffffffffffffffffffffffffffffff168152602001908152602001600020819055507f000000000000000000000000000000000000000000000000000000000000000073ffffffffffffffffffffffffffffffffffffffff1663a9059cbb33836040518363ffffffff1660e01b8152600401611090929190611906565b6020604051808303816000875af11580156110af573d6000803e3d6000fd5b505050506040513d601f19601f820116820180604052508101906110d39190611967565b505050565b6110e0611245565b4260095410611124576040517f08c379a000000000000000000000000000000000000000000000000000000000815260040161111b90611a83565b60405180910390fd5b8060058190555050565b60008060065403611143576007549050611195565b600654670de0b6b3a764000060085461115a610be4565b6111649190611599565b600a5461117191906115cd565b61117b91906115cd565b6111859190611656565b6007546111929190611687565b90505b90565b60075481565b6111a6611245565b600073ffffffffffffffffffffffffffffffffffffffff168173ffffffffffffffffffffffffffffffffffffffff1603611215576040517f08c379a000000000000000000000000000000000000000000000000000000000815260040161120c90611b15565b60405180910390fd5b61121e816112c3565b50565b7f000000000000000000000000000000000000000000000000000000000000000081565b61124d6113a1565b73ffffffffffffffffffffffffffffffffffffffff1661126b610c1b565b73ffffffffffffffffffffffffffffffffffffffff16146112c1576040517f08c379a00000000000000000000000000000000000000000000000000000000081526004016112b890611b81565b60405180910390fd5b565b60008060009054906101000a900473ffffffffffffffffffffffffffffffffffffffff169050816000806101000a81548173ffffffffffffffffffffffffffffffffffffffff021916908373ffffffffffffffffffffffffffffffffffffffff1602179055508173ffffffffffffffffffffffffffffffffffffffff168173ffffffffffffffffffffffffffffffffffffffff167f8be0079c531659141344cd1fd0a4f28419497f9722a3daafe3b4186f6b6457e060405160405180910390a35050565b6000818311156113975781611399565b825b905092915050565b600033905090565b600080fd5b600073ffffffffffffffffffffffffffffffffffffffff82169050919050565b60006113d9826113ae565b9050919050565b6113e9816113ce565b81146113f457600080fd5b50565b600081359050611406816113e0565b92915050565b600060208284031215611422576114216113a9565b5b6000611430848285016113f7565b91505092915050565b6000819050919050565b61144c81611439565b82525050565b60006020820190506114676000830184611443565b92915050565b6000819050919050565b600061149261148d611488846113ae565b61146d565b6113ae565b9050919050565b60006114a482611477565b9050919050565b60006114b682611499565b9050919050565b6114c6816114ab565b82525050565b60006020820190506114e160008301846114bd565b92915050565b6114f081611439565b81146114fb57600080fd5b50565b60008135905061150d816114e7565b92915050565b600060208284031215611529576115286113a9565b5b6000611537848285016114fe565b91505092915050565b611549816113ce565b82525050565b60006020820190506115646000830184611540565b92915050565b7f4e487b7100000000000000000000000000000000000000000000000000000000600052601160045260246000fd5b60006115a482611439565b91506115af83611439565b9250828210156115c2576115c161156a565b5b828203905092915050565b60006115d882611439565b91506115e383611439565b9250817fffffffffffffffffffffffffffffffffffffffffffffffffffffffffffffffff048311821515161561161c5761161b61156a565b5b828202905092915050565b7f4e487b7100000000000000000000000000000000000000000000000000000000600052601260045260246000fd5b600061166182611439565b915061166c83611439565b92508261167c5761167b611627565b5b828204905092915050565b600061169282611439565b915061169d83611439565b9250827fffffffffffffffffffffffffffffffffffffffffffffffffffffffffffffffff038211156116d2576116d161156a565b5b828201905092915050565b600082825260208201905092915050565b7f7265776172642072617465203d20300000000000000000000000000000000000600082015250565b6000611724600f836116dd565b915061172f826116ee565b602082019050919050565b6000602082019050818103600083015261175381611717565b9050919050565b600081519050611769816114e7565b92915050565b600060208284031215611785576117846113a9565b5b60006117938482850161175a565b91505092915050565b7f72657761726420616d6f756e74203e2062616c616e6365000000000000000000600082015250565b60006117d26017836116dd565b91506117dd8261179c565b602082019050919050565b60006020820190508181036000830152611801816117c5565b9050919050565b7f616d6f756e74206e6f742076616c696421000000000000000000000000000000600082015250565b600061183e6011836116dd565b915061184982611808565b602082019050919050565b6000602082019050818103600083015261186d81611831565b9050919050565b7f796f7572207374616b656420746f6b656e73206c657373207468616e2074686560008201527f20696e707574205f616d6f756e74000000000000000000000000000000000000602082015250565b60006118d0602e836116dd565b91506118db82611874565b604082019050919050565b600060208201905081810360008301526118ff816118c3565b9050919050565b600060408201905061191b6000830185611540565b6119286020830184611443565b9392505050565b60008115159050919050565b6119448161192f565b811461194f57600080fd5b50565b6000815190506119618161193b565b92915050565b60006020828403121561197d5761197c6113a9565b5b600061198b84828501611952565b91505092915050565b60006060820190506119a96000830186611540565b6119b66020830185611540565b6119c36040830184611443565b949350505050565b7f6e6f207265776172647320796561726e65642079657400000000000000000000600082015250565b6000611a016016836116dd565b9150611a0c826119cb565b602082019050919050565b60006020820190508181036000830152611a30816119f4565b9050919050565b7f726577617264206475726174696f6e206e6f742066696e697368656400000000600082015250565b6000611a6d601c836116dd565b9150611a7882611a37565b602082019050919050565b60006020820190508181036000830152611a9c81611a60565b9050919050565b7f4f776e61626c653a206e6577206f776e657220697320746865207a65726f206160008201527f6464726573730000000000000000000000000000000000000000000000000000602082015250565b6000611aff6026836116dd565b9150611b0a82611aa3565b604082019050919050565b60006020820190508181036000830152611b2e81611af2565b9050919050565b7f4f776e61626c653a2063616c6c6572206973206e6f7420746865206f776e6572600082015250565b6000611b6b6020836116dd565b9150611b7682611b35565b602082019050919050565b60006020820190508181036000830152611b9a81611b5e565b905091905056fea264697066735822122079e5751cf083625a414e022e2863eafdb1f8c0b45a62fa4ba226f4e59066703364736f6c634300080e0033",
  "immutableReferences": {
    "1014": [
      {
        "length": 32,
        "start": 1358
      },
      {
        "length": 32,
        "start": 2722
      },
      {
        "length": 32,
        "start": 3437
      }
    ],
    "1017": [
      {
        "length": 32,
        "start": 1798
      },
      {
        "length": 32,
        "start": 4151
      },
      {
        "length": 32,
        "start": 4643
      }
    ]
  },
  "source": "// SPDX-License-Identifier: MIT\npragma solidity ^0.8.9;\n\nimport \"../node_modules/@openzeppelin/contracts/token/ERC20/ERC20.sol\";\nimport \"../node_modules/@openzeppelin/contracts/access/Ownable.sol\";\n\ncontract StakingRewards is Ownable {\n    address private USDC_TOKEN_CONTRACT =\n        0x2791Bca1f2de4661ED88A30C99A7a9449Aa84174;\n\n    IERC20 public immutable bKSDToken;\n    IERC20 public immutable uSDCToken;\n\n    // User address => rewardPerTokenStored\n    mapping(address => uint256) public userRewardPerTokenPaid;\n    // User address => rewards to be claimed\n    mapping(address => uint256) public rewards;\n    // User address => staked amount\n    mapping(address => uint256) public balanceOf;\n\n    // Duration of rewards to be paid out (in seconds)\n    uint256 public duration;\n    // Total staked\n    uint256 public totalStaked;\n    // Sum of (reward rate * dt * 1e18 / total supply)\n    uint256 public rewardPerTokenDetained;\n    // Minimum of last updated time and reward finish time\n    uint256 public lastRewarUpdatedAt;\n    // Timestamp of when the rewards finish\n    uint256 public expiresAt;\n    // Reward to be paid out per second\n    uint256 public rewardRate;\n\n    constructor(address _stakingToken) {\n        bKSDToken = IERC20(_stakingToken);\n        uSDCToken = IERC20(USDC_TOKEN_CONTRACT);\n    }\n\n    modifier updateReward(address _account) {\n        rewardPerTokenDetained = rewardPerToken();\n        lastRewarUpdatedAt = lastTimeRewardApplicable();\n\n        if (_account != address(0)) {\n            rewards[_account] = earned(_account);\n            userRewardPerTokenPaid[_account] = rewardPerTokenDetained;\n        }\n\n        _;\n    }\n\n    function claimTokens(uint256 _amount) external updateReward(msg.sender) {\n        //mint Tokens\n        // bKSDToken.mint(msg.sender, _amount);\n        // bKSDToken.transfer(msg.sender, _amount);\n    }\n\n    function claimAndStackTokens() external {}\n\n    function stake(uint256 _amount) external updateReward(msg.sender) {\n        require(_amount > 0, \"amount not valid!\");\n        bKSDToken.transferFrom(msg.sender, address(this), _amount);\n        balanceOf[msg.sender] += _amount;\n        totalStaked += _amount;\n    }\n\n    function unStake(uint256 _amount) external updateReward(msg.sender) {\n        require(_amount > 0, \"amount not valid!\");\n        require(\n            _amount < balanceOf[msg.sender],\n            \"your staked tokens less than the input _amount\"\n        );\n\n        bKSDToken.transfer(msg.sender, _amount);\n        balanceOf[msg.sender] -= _amount;\n        totalStaked -= _amount;\n    }\n\n    function withdrawRewards() external updateReward(msg.sender) {\n        uint256 reward = rewards[msg.sender];\n        require(reward > 0, \"no rewards yearned yet\");\n        rewards[msg.sender] = 0;\n        uSDCToken.transfer(msg.sender, reward);\n    }\n\n    function lastTimeRewardApplicable() public view returns (uint256) {\n        return _min(expiresAt, block.timestamp);\n    }\n\n    function rewardPerToken() public view returns (uint256) {\n        if (totalStaked == 0) {\n            return rewardPerTokenDetained;\n        }\n\n        return\n            rewardPerTokenDetained +\n            (rewardRate *\n                (lastTimeRewardApplicable() - lastRewarUpdatedAt) *\n                1e18) /\n            totalStaked;\n    }\n\n    function earned(address _account) public view returns (uint256) {\n        return\n            ((balanceOf[_account] *\n                (rewardPerToken() - userRewardPerTokenPaid[_account])) / 1e18) +\n            rewards[_account];\n    }\n\n    function setRewardsDuration(uint256 _duration) external onlyOwner {\n        require(expiresAt < block.timestamp, \"reward duration not finished\");\n        duration = _duration;\n    }\n\n    function notifyRewardAmount(uint256 _amount)\n        external\n        onlyOwner\n        updateReward(address(0))\n    {\n        if (block.timestamp >= expiresAt) {\n            rewardRate = _amount / duration;\n        } else {\n            uint256 remainingRewards = (expiresAt - block.timestamp) *\n                rewardRate;\n            rewardRate = (_amount + remainingRewards) / duration;\n        }\n\n        require(rewardRate > 0, \"reward rate = 0\");\n        require(\n            rewardRate * duration <= uSDCToken.balanceOf(address(this)),\n            \"reward amount > balance\"\n        );\n\n        expiresAt = block.timestamp + duration;\n        lastRewarUpdatedAt = block.timestamp;\n    }\n\n    function _min(uint256 _x, uint256 _y) private pure returns (uint256) {\n        return _x <= _y ? _x : _y;\n    }\n}\n",
  "sourcePath": "/Users/fabricepayet/Workspace/blocksend/blocksend/truffle/contracts/BlockSendStakingRewards.sol",
  "compiler": {
    "name": "solc",
    "version": "0.8.14+commit.80d49f37.Emscripten.clang"
  },
  "schemaVersion": "3.4.10",
  "updatedAt": "2022-12-10T05:11:02.915Z",
  "devdoc": {
    "kind": "dev",
    "methods": {
      "owner()": {
        "details": "Returns the address of the current owner."
      },
      "renounceOwnership()": {
        "details": "Leaves the contract without owner. It will not be possible to call `onlyOwner` functions anymore. Can only be called by the current owner. NOTE: Renouncing ownership will leave the contract without an owner, thereby removing any functionality that is only available to the owner."
      },
      "transferOwnership(address)": {
        "details": "Transfers ownership of the contract to a new account (`newOwner`). Can only be called by the current owner."
      }
    },
    "version": 1
  },
  "userdoc": {
    "kind": "user",
    "methods": {},
    "version": 1
  }
}