{
  "contractName": "Transfer",
  "abi": [
    {
      "inputs": [],
      "stateMutability": "nonpayable",
      "type": "constructor"
    },
    {
      "anonymous": false,
      "inputs": [
        {
          "indexed": true,
          "internalType": "address",
          "name": "previousOwner",
          "type": "address"
        },
        {
          "indexed": true,
          "internalType": "address",
          "name": "newOwner",
          "type": "address"
        }
      ],
      "name": "OwnershipTransferred",
      "type": "event"
    },
    {
      "anonymous": false,
      "inputs": [
        {
          "indexed": false,
          "internalType": "uint256",
          "name": "transferId",
          "type": "uint256"
        },
        {
          "indexed": false,
          "internalType": "string",
          "name": "tx",
          "type": "string"
        }
      ],
      "name": "TransferFinalized",
      "type": "event"
    },
    {
      "anonymous": false,
      "inputs": [
        {
          "indexed": false,
          "internalType": "uint256",
          "name": "transferId",
          "type": "uint256"
        },
        {
          "indexed": false,
          "internalType": "uint256",
          "name": "amount",
          "type": "uint256"
        }
      ],
      "name": "TransferInitilized",
      "type": "event"
    },
    {
      "anonymous": false,
      "inputs": [
        {
          "indexed": false,
          "internalType": "uint256",
          "name": "transferId",
          "type": "uint256"
        },
        {
          "indexed": false,
          "internalType": "enum Transfer.TransferStatus",
          "name": "currentStatus",
          "type": "uint8"
        },
        {
          "indexed": false,
          "internalType": "string",
          "name": "errorMsg",
          "type": "string"
        }
      ],
      "name": "TransferStatusChanged",
      "type": "event"
    },
    {
      "inputs": [],
      "name": "jEURToken",
      "outputs": [
        {
          "internalType": "contract IERC20",
          "name": "",
          "type": "address"
        }
      ],
      "stateMutability": "view",
      "type": "function"
    },
    {
      "inputs": [],
      "name": "jarvisSynthereum",
      "outputs": [
        {
          "internalType": "contract ISynthereum",
          "name": "",
          "type": "address"
        }
      ],
      "stateMutability": "view",
      "type": "function"
    },
    {
      "inputs": [],
      "name": "jarvisWrapper",
      "outputs": [
        {
          "internalType": "contract IFixedRateWrapper",
          "name": "",
          "type": "address"
        }
      ],
      "stateMutability": "view",
      "type": "function"
    },
    {
      "inputs": [],
      "name": "moneriumEURemoney",
      "outputs": [
        {
          "internalType": "contract IERC20",
          "name": "",
          "type": "address"
        }
      ],
      "stateMutability": "view",
      "type": "function"
    },
    {
      "inputs": [],
      "name": "owner",
      "outputs": [
        {
          "internalType": "address",
          "name": "",
          "type": "address"
        }
      ],
      "stateMutability": "view",
      "type": "function"
    },
    {
      "inputs": [],
      "name": "renounceOwnership",
      "outputs": [],
      "stateMutability": "nonpayable",
      "type": "function"
    },
    {
      "inputs": [
        {
          "internalType": "address",
          "name": "newOwner",
          "type": "address"
        }
      ],
      "name": "transferOwnership",
      "outputs": [],
      "stateMutability": "nonpayable",
      "type": "function"
    },
    {
      "inputs": [
        {
          "internalType": "uint256",
          "name": "",
          "type": "uint256"
        }
      ],
      "name": "transfers",
      "outputs": [
        {
          "internalType": "address",
          "name": "sender",
          "type": "address"
        },
        {
          "internalType": "uint256",
          "name": "amount",
          "type": "uint256"
        },
        {
          "internalType": "enum Transfer.TransferStatus",
          "name": "status",
          "type": "uint8"
        }
      ],
      "stateMutability": "view",
      "type": "function"
    },
    {
      "inputs": [],
      "name": "uSDCToken",
      "outputs": [
        {
          "internalType": "contract IERC20",
          "name": "",
          "type": "address"
        }
      ],
      "stateMutability": "view",
      "type": "function"
    },
    {
      "inputs": [
        {
          "internalType": "uint256",
          "name": "transferId",
          "type": "uint256"
        },
        {
          "internalType": "uint256",
          "name": "amount",
          "type": "uint256"
        }
      ],
      "name": "initializeTransfer",
      "outputs": [
        {
          "internalType": "bool",
          "name": "ok",
          "type": "bool"
        }
      ],
      "stateMutability": "nonpayable",
      "type": "function"
    },
    {
      "inputs": [
        {
          "internalType": "uint256",
          "name": "remittanceId",
          "type": "uint256"
        }
      ],
      "name": "remittanceStatus",
      "outputs": [
        {
          "internalType": "enum Transfer.TransferStatus",
          "name": "",
          "type": "uint8"
        }
      ],
      "stateMutability": "view",
      "type": "function"
    },
    {
      "inputs": [
        {
          "internalType": "uint256",
          "name": "amount",
          "type": "uint256"
        }
      ],
      "name": "approveTransferEURe",
      "outputs": [
        {
          "internalType": "bool",
          "name": "ok",
          "type": "bool"
        }
      ],
      "stateMutability": "nonpayable",
      "type": "function"
    },
    {
      "inputs": [
        {
          "internalType": "address",
          "name": "newAddress",
          "type": "address"
        }
      ],
      "name": "setWrapperContract",
      "outputs": [],
      "stateMutability": "nonpayable",
      "type": "function"
    },
    {
      "inputs": [
        {
          "internalType": "address",
          "name": "newAddress",
          "type": "address"
        }
      ],
      "name": "setSyntheriumContract",
      "outputs": [],
      "stateMutability": "nonpayable",
      "type": "function"
    },
    {
      "inputs": [
        {
          "internalType": "address",
          "name": "newAddress",
          "type": "address"
        }
      ],
      "name": "setEURETokenContract",
      "outputs": [],
      "stateMutability": "nonpayable",
      "type": "function"
    },
    {
      "inputs": [
        {
          "internalType": "address",
          "name": "newAddress",
          "type": "address"
        }
      ],
      "name": "setJEURToken_Contract",
      "outputs": [],
      "stateMutability": "nonpayable",
      "type": "function"
    },
    {
      "inputs": [
        {
          "internalType": "address",
          "name": "newAddress",
          "type": "address"
        }
      ],
      "name": "setUSDCTokenContract",
      "outputs": [],
      "stateMutability": "nonpayable",
      "type": "function"
    },
    {
      "inputs": [
        {
          "internalType": "address",
          "name": "newAddress",
          "type": "address"
        }
      ],
      "name": "setHUB2Wallet",
      "outputs": [],
      "stateMutability": "nonpayable",
      "type": "function"
    }
  ],
  "bytecode": "0x6080604052732e0644f5f4cba24e610a6d94fc146d97b63920e1600660006101000a81548173ffffffffffffffffffffffffffffffffffffffff021916908373ffffffffffffffffffffffffffffffffffffffff160217905550736fb13ea630d08e0d34ea7948ab2d7398dd9f41af600760006101000a81548173ffffffffffffffffffffffffffffffffffffffff021916908373ffffffffffffffffffffffffffffffffffffffff16021790555073ecdf72dfa3f51af61740fd14badca1947bef657b600860006101000a81548173ffffffffffffffffffffffffffffffffffffffff021916908373ffffffffffffffffffffffffffffffffffffffff16021790555073ef9cbdbc2e396a01d7658adec548c1211b443642600960006101000a81548173ffffffffffffffffffffffffffffffffffffffff021916908373ffffffffffffffffffffffffffffffffffffffff160217905550735425890298aed601595a70ab815c96711a31bc65600a60006101000a81548173ffffffffffffffffffffffffffffffffffffffff021916908373ffffffffffffffffffffffffffffffffffffffff1602179055507364568cfc9122104a4b23abf67830873be66fc3d8600b60006101000a81548173ffffffffffffffffffffffffffffffffffffffff021916908373ffffffffffffffffffffffffffffffffffffffff16021790555034801561020e57600080fd5b5061022b61022061041f60201b60201c565b61042760201b60201c565b600660009054906101000a900473ffffffffffffffffffffffffffffffffffffffff16600160006101000a81548173ffffffffffffffffffffffffffffffffffffffff021916908373ffffffffffffffffffffffffffffffffffffffff160217905550600760009054906101000a900473ffffffffffffffffffffffffffffffffffffffff16600260006101000a81548173ffffffffffffffffffffffffffffffffffffffff021916908373ffffffffffffffffffffffffffffffffffffffff160217905550600860009054906101000a900473ffffffffffffffffffffffffffffffffffffffff16600360006101000a81548173ffffffffffffffffffffffffffffffffffffffff021916908373ffffffffffffffffffffffffffffffffffffffff160217905550600960009054906101000a900473ffffffffffffffffffffffffffffffffffffffff16600460006101000a81548173ffffffffffffffffffffffffffffffffffffffff021916908373ffffffffffffffffffffffffffffffffffffffff160217905550600a60009054906101000a900473ffffffffffffffffffffffffffffffffffffffff16600560006101000a81548173ffffffffffffffffffffffffffffffffffffffff021916908373ffffffffffffffffffffffffffffffffffffffff1602179055506104eb565b600033905090565b60008060009054906101000a900473ffffffffffffffffffffffffffffffffffffffff169050816000806101000a81548173ffffffffffffffffffffffffffffffffffffffff021916908373ffffffffffffffffffffffffffffffffffffffff1602179055508173ffffffffffffffffffffffffffffffffffffffff168173ffffffffffffffffffffffffffffffffffffffff167f8be0079c531659141344cd1fd0a4f28419497f9722a3daafe3b4186f6b6457e060405160405180910390a35050565b611a26806104fa6000396000f3fe608060405234801561001057600080fd5b50600436106101165760003560e01c80639377d711116100a2578063ea45efbf11610071578063ea45efbf146102bd578063eead6fd8146102d9578063f2fde38b146102f5578063fb89ed8e14610311578063ff0544541461034157610116565b80639377d7111461021f578063b79aace814610251578063bbe56d6414610281578063c8e2a1a41461029f57610116565b8063381ea9c5116100e9578063381ea9c5146101a15780634e558127146101bd578063715018a6146101d957806379fb3aa3146101e35780638da5cb5b1461020157610116565b806325a976051461011b5780632a5e193514610137578063335bafa214610155578063350f115214610171575b600080fd5b61013560048036038101906101309190611274565b61035f565b005b61013f6103ab565b60405161014c9190611300565b60405180910390f35b61016f600480360381019061016a9190611274565b6103d1565b005b61018b60048036038101906101869190611351565b61041d565b60405161019891906113f5565b60405180910390f35b6101bb60048036038101906101b69190611274565b61044a565b005b6101d760048036038101906101d29190611274565b610496565b005b6101e16104e2565b005b6101eb6104f6565b6040516101f89190611431565b60405180910390f35b61020961051c565b604051610216919061145b565b60405180910390f35b61023960048036038101906102349190611351565b610545565b60405161024893929190611485565b60405180910390f35b61026b600480360381019061026691906114bc565b61059c565b6040516102789190611517565b60405180910390f35b61028961073d565b6040516102969190611553565b60405180910390f35b6102a7610763565b6040516102b49190611431565b60405180910390f35b6102d760048036038101906102d29190611274565b610789565b005b6102f360048036038101906102ee9190611274565b6107d5565b005b61030f600480360381019061030a9190611274565b610821565b005b61032b60048036038101906103269190611351565b6108a4565b6040516103389190611517565b60405180910390f35b61034961094d565b6040516103569190611431565b60405180910390f35b610367610973565b80600860006101000a81548173ffffffffffffffffffffffffffffffffffffffff021916908373ffffffffffffffffffffffffffffffffffffffff16021790555050565b600260009054906101000a900473ffffffffffffffffffffffffffffffffffffffff1681565b6103d9610973565b80600760006101000a81548173ffffffffffffffffffffffffffffffffffffffff021916908373ffffffffffffffffffffffffffffffffffffffff16021790555050565b6000600c600083815260200190815260200160002060020160009054906101000a900460ff169050919050565b610452610973565b80600b60006101000a81548173ffffffffffffffffffffffffffffffffffffffff021916908373ffffffffffffffffffffffffffffffffffffffff16021790555050565b61049e610973565b80600660006101000a81548173ffffffffffffffffffffffffffffffffffffffff021916908373ffffffffffffffffffffffffffffffffffffffff16021790555050565b6104ea610973565b6104f460006109f1565b565b600460009054906101000a900473ffffffffffffffffffffffffffffffffffffffff1681565b60008060009054906101000a900473ffffffffffffffffffffffffffffffffffffffff16905090565b600c6020528060005260406000206000915090508060000160009054906101000a900473ffffffffffffffffffffffffffffffffffffffff16908060010154908060020160009054906101000a900460ff16905083565b60006105a88383610ab5565b60006105b48484610ba1565b9050806105de576105d48460405180602001604052806000815250610c58565b6000915050610737565b60006105e984610cd7565b905080610614576106098560405180602001604052806000815250610c58565b600092505050610737565b60006106208686610da2565b90506000810361064f576106438660405180602001604052806000815250610c58565b60009350505050610737565b600061065a86610e57565b9050806106875761067a8760405180602001604052806000815250610c58565b6000945050505050610737565b600080610695898586610f22565b915091506000821480156106a95750600081145b156106d6576106c78960405180602001604052806000815250610c58565b60009650505050505050610737565b60006106e28a8461103b565b905080610712576107028a60405180602001604052806000815250610c58565b6000975050505050505050610737565b61072b8a60405180602001604052806000815250611112565b60019750505050505050505b92915050565b600160009054906101000a900473ffffffffffffffffffffffffffffffffffffffff1681565b600360009054906101000a900473ffffffffffffffffffffffffffffffffffffffff1681565b610791610973565b80600960006101000a81548173ffffffffffffffffffffffffffffffffffffffff021916908373ffffffffffffffffffffffffffffffffffffffff16021790555050565b6107dd610973565b80600a60006101000a81548173ffffffffffffffffffffffffffffffffffffffff021916908373ffffffffffffffffffffffffffffffffffffffff16021790555050565b610829610973565b600073ffffffffffffffffffffffffffffffffffffffff168173ffffffffffffffffffffffffffffffffffffffff1603610898576040517f08c379a000000000000000000000000000000000000000000000000000000000815260040161088f906115f1565b60405180910390fd5b6108a1816109f1565b50565b6000600360009054906101000a900473ffffffffffffffffffffffffffffffffffffffff1673ffffffffffffffffffffffffffffffffffffffff1663095ea7b330846040518363ffffffff1660e01b8152600401610903929190611611565b6020604051808303816000875af1158015610922573d6000803e3d6000fd5b505050506040513d601f19601f820116820180604052508101906109469190611666565b9050919050565b600560009054906101000a900473ffffffffffffffffffffffffffffffffffffffff1681565b61097b61118e565b73ffffffffffffffffffffffffffffffffffffffff1661099961051c565b73ffffffffffffffffffffffffffffffffffffffff16146109ef576040517f08c379a00000000000000000000000000000000000000000000000000000000081526004016109e6906116df565b60405180910390fd5b565b60008060009054906101000a900473ffffffffffffffffffffffffffffffffffffffff169050816000806101000a81548173ffffffffffffffffffffffffffffffffffffffff021916908373ffffffffffffffffffffffffffffffffffffffff1602179055508173ffffffffffffffffffffffffffffffffffffffff168173ffffffffffffffffffffffffffffffffffffffff167f8be0079c531659141344cd1fd0a4f28419497f9722a3daafe3b4186f6b6457e060405160405180910390a35050565b33600c600084815260200190815260200160002060000160006101000a81548173ffffffffffffffffffffffffffffffffffffffff021916908373ffffffffffffffffffffffffffffffffffffffff16021790555080600c6000848152602001908152602001600020600101819055506000600c600084815260200190815260200160002060020160006101000a81548160ff02191690836006811115610b5f57610b5e61137e565b5b02179055507f9572761bfa32708d051db16741828e15ec56640e8bcf478fed45f70f589a45e08282604051610b959291906116ff565b60405180910390a15050565b6000600360009054906101000a900473ffffffffffffffffffffffffffffffffffffffff1673ffffffffffffffffffffffffffffffffffffffff166323b872dd3330856040518463ffffffff1660e01b8152600401610c0293929190611728565b6020604051808303816000875af1158015610c21573d6000803e3d6000fd5b505050506040513d601f19601f82011682018060405250810190610c459190611666565b9050610c52836001611196565b92915050565b6006600c600084815260200190815260200160002060020160006101000a81548160ff02191690836006811115610c9257610c9161137e565b5b02179055507ff25d373d55e351a6a1381c9a0a2e3230cb82c0241f091944ff224fa58436829282600683604051610ccb939291906117e7565b60405180910390a15050565b6000600360009054906101000a900473ffffffffffffffffffffffffffffffffffffffff1673ffffffffffffffffffffffffffffffffffffffff1663095ea7b3600660009054906101000a900473ffffffffffffffffffffffffffffffffffffffff16846040518363ffffffff1660e01b8152600401610d58929190611611565b6020604051808303816000875af1158015610d77573d6000803e3d6000fd5b505050506040513d601f19601f82011682018060405250810190610d9b9190611666565b9050919050565b6000600160009054906101000a900473ffffffffffffffffffffffffffffffffffffffff1673ffffffffffffffffffffffffffffffffffffffff166313bac82083306040518363ffffffff1660e01b8152600401610e01929190611825565b6020604051808303816000875af1158015610e20573d6000803e3d6000fd5b505050506040513d601f19601f82011682018060405250810190610e449190611863565b9050610e51836002611196565b92915050565b6000600460009054906101000a900473ffffffffffffffffffffffffffffffffffffffff1673ffffffffffffffffffffffffffffffffffffffff1663095ea7b3600760009054906101000a900473ffffffffffffffffffffffffffffffffffffffff16846040518363ffffffff1660e01b8152600401610ed8929190611611565b6020604051808303816000875af1158015610ef7573d6000803e3d6000fd5b505050506040513d601f19601f82011682018060405250810190610f1b9190611666565b9050919050565b60008060006040518060800160405280868152602001858152602001428152602001600b60009054906101000a900473ffffffffffffffffffffffffffffffffffffffff1673ffffffffffffffffffffffffffffffffffffffff168152509050600260009054906101000a900473ffffffffffffffffffffffffffffffffffffffff1673ffffffffffffffffffffffffffffffffffffffff1663525e6b11826040518263ffffffff1660e01b8152600401610fdd9190611903565b60408051808303816000875af1158015610ffb573d6000803e3d6000fd5b505050506040513d601f19601f8201168201806040525081019061101f919061191e565b8093508194505050611032866003611196565b50935093915050565b6000600560009054906101000a900473ffffffffffffffffffffffffffffffffffffffff1673ffffffffffffffffffffffffffffffffffffffff1663a9059cbb600b60009054906101000a900473ffffffffffffffffffffffffffffffffffffffff16846040518363ffffffff1660e01b81526004016110bc929190611611565b6020604051808303816000875af11580156110db573d6000803e3d6000fd5b505050506040513d601f19601f820116820180604052508101906110ff9190611666565b905061110c836004611196565b92915050565b6005600c600084815260200190815260200160002060020160006101000a81548160ff0219169083600681111561114c5761114b61137e565b5b02179055507fe88fa89b39cf231b839aac3857049e991d89f0448691b8197eef225478d60ade828260405161118292919061195e565b60405180910390a15050565b600033905090565b80600c600084815260200190815260200160002060020160006101000a81548160ff021916908360068111156111cf576111ce61137e565b5b02179055507ff25d373d55e351a6a1381c9a0a2e3230cb82c0241f091944ff224fa58436829282826040516112059291906119b4565b60405180910390a15050565b600080fd5b600073ffffffffffffffffffffffffffffffffffffffff82169050919050565b600061124182611216565b9050919050565b61125181611236565b811461125c57600080fd5b50565b60008135905061126e81611248565b92915050565b60006020828403121561128a57611289611211565b5b60006112988482850161125f565b91505092915050565b6000819050919050565b60006112c66112c16112bc84611216565b6112a1565b611216565b9050919050565b60006112d8826112ab565b9050919050565b60006112ea826112cd565b9050919050565b6112fa816112df565b82525050565b600060208201905061131560008301846112f1565b92915050565b6000819050919050565b61132e8161131b565b811461133957600080fd5b50565b60008135905061134b81611325565b92915050565b60006020828403121561136757611366611211565b5b60006113758482850161133c565b91505092915050565b7f4e487b7100000000000000000000000000000000000000000000000000000000600052602160045260246000fd5b600781106113be576113bd61137e565b5b50565b60008190506113cf826113ad565b919050565b60006113df826113c1565b9050919050565b6113ef816113d4565b82525050565b600060208201905061140a60008301846113e6565b92915050565b600061141b826112cd565b9050919050565b61142b81611410565b82525050565b60006020820190506114466000830184611422565b92915050565b61145581611236565b82525050565b6000602082019050611470600083018461144c565b92915050565b61147f8161131b565b82525050565b600060608201905061149a600083018661144c565b6114a76020830185611476565b6114b460408301846113e6565b949350505050565b600080604083850312156114d3576114d2611211565b5b60006114e18582860161133c565b92505060206114f28582860161133c565b9150509250929050565b60008115159050919050565b611511816114fc565b82525050565b600060208201905061152c6000830184611508565b92915050565b600061153d826112cd565b9050919050565b61154d81611532565b82525050565b60006020820190506115686000830184611544565b92915050565b600082825260208201905092915050565b7f4f776e61626c653a206e6577206f776e657220697320746865207a65726f206160008201527f6464726573730000000000000000000000000000000000000000000000000000602082015250565b60006115db60268361156e565b91506115e68261157f565b604082019050919050565b6000602082019050818103600083015261160a816115ce565b9050919050565b6000604082019050611626600083018561144c565b6116336020830184611476565b9392505050565b611643816114fc565b811461164e57600080fd5b50565b6000815190506116608161163a565b92915050565b60006020828403121561167c5761167b611211565b5b600061168a84828501611651565b91505092915050565b7f4f776e61626c653a2063616c6c6572206973206e6f7420746865206f776e6572600082015250565b60006116c960208361156e565b91506116d482611693565b602082019050919050565b600060208201905081810360008301526116f8816116bc565b9050919050565b60006040820190506117146000830185611476565b6117216020830184611476565b9392505050565b600060608201905061173d600083018661144c565b61174a602083018561144c565b6117576040830184611476565b949350505050565b600081519050919050565b60005b8381101561178857808201518184015260208101905061176d565b83811115611797576000848401525b50505050565b6000601f19601f8301169050919050565b60006117b98261175f565b6117c3818561156e565b93506117d381856020860161176a565b6117dc8161179d565b840191505092915050565b60006060820190506117fc6000830186611476565b61180960208301856113e6565b818103604083015261181b81846117ae565b9050949350505050565b600060408201905061183a6000830185611476565b611847602083018461144c565b9392505050565b60008151905061185d81611325565b92915050565b60006020828403121561187957611878611211565b5b60006118878482850161184e565b91505092915050565b6118998161131b565b82525050565b6118a881611236565b82525050565b6080820160008201516118c46000850182611890565b5060208201516118d76020850182611890565b5060408201516118ea6040850182611890565b5060608201516118fd606085018261189f565b50505050565b600060808201905061191860008301846118ae565b92915050565b6000806040838503121561193557611934611211565b5b60006119438582860161184e565b92505060206119548582860161184e565b9150509250929050565b60006040820190506119736000830185611476565b818103602083015261198581846117ae565b90509392505050565b50565b600061199e60008361156e565b91506119a98261198e565b600082019050919050565b60006060820190506119c96000830185611476565b6119d660208301846113e6565b81810360408301526119e781611991565b9050939250505056fea2646970667358221220b520b9a7d80a31ed8a9d033a62b73b3ec70f64d2920ee8088642f7c9417c16fa64736f6c634300080e0033",
  "immutableReferences": {},
  "source": "// SPDX-License-Identifier: MIT\npragma solidity ^0.8.9;\n\nimport \"../node_modules/@openzeppelin/contracts/access/Ownable.sol\";\nimport \"../node_modules/@openzeppelin/contracts/token/ERC20/IERC20.sol\";\nimport \"./interfaces/IFixedRateWrapper.sol\";\nimport \"./interfaces/ISynthereum.sol\";\n\ncontract Transfer is Ownable{\n    IFixedRateWrapper public  jarvisWrapper;\n    ISynthereum public jarvisSynthereum;\n\n    IERC20 public moneriumEURemoney;\n    IERC20 public jEURToken;\n    IERC20 public uSDCToken;\n\n    address private WRAPPER_CONTRACT = 0x2e0644F5F4cba24e610A6d94FC146d97b63920e1;\n    address private SYNTHEREUM_CONTRACT = 0x6FB13EA630D08e0d34Ea7948Ab2d7398Dd9F41af;\n    address private EURE_TOKEN_CONTRACT = 0xecdF72dFa3f51AF61740Fd14bAdCa1947Bef657B;\n    address private JEUR_TOKEN_CONTRACT = 0xEf9cbDbC2e396a01D7658AdEc548C1211b443642;\n    address private USDC_TOKEN_CONTRACT = 0x5425890298aed601595a70AB815c96711a31Bc65;\n    address private HUB2_WALLET = 0x64568cfc9122104a4B23ABf67830873BE66Fc3D8;\n\n    // mapping(address => uint) public balanceReceived;\n    \n    mapping (uint => Remittance) public transfers;\n    struct Remittance {\n        address sender;\n        uint amount;\n        TransferStatus status;\n    }\n    enum TransferStatus {\n        INITIALIZED,\n        EURE_RECEIVED,\n        JEUR_WRAPPED,\n        USDC_RECEIVED,\n        USDC_SENT,\n        FINALIZED,\n        TRANSFER_STUCKED\n    }\n\n    event TransferInitilized(uint transferId, uint amount);\n    event TransferStatusChanged(uint transferId, TransferStatus currentStatus, string errorMsg);\n    event TransferFinalized(uint transferId, string tx);\n\n    constructor() {\n        jarvisWrapper = IFixedRateWrapper(WRAPPER_CONTRACT);\n        jarvisSynthereum = ISynthereum(SYNTHEREUM_CONTRACT);\n        moneriumEURemoney = IERC20(EURE_TOKEN_CONTRACT);\n        jEURToken = IERC20(JEUR_TOKEN_CONTRACT);\n        uSDCToken = IERC20(USDC_TOKEN_CONTRACT);\n    }\n\n    /**\n     * @notice Iinitialise a transfer of an amount of EURe\n     * @notice First Step: On-Ramp: \n     * @notice 1- Transfer EURe from user's wallet\n     * @notice 2- Wrap EURe to jEUR\n     * @notice 3- Redeem USDC from jEUR\n     * @notice Secod Step: Off-Ramp: Using HUB2\n     * @param transferId Input parameters for redeeming (see RedeemParams struct)\n     * @param amount Input parameters for redeeming (see RedeemParams struct)\n     * @return ok a boolean value indicating whether the operation succeeded.\n     * \n     * Emits a {TransferStatusChanged} event with the current status of the transfer.\n     */\n    function initializeTransfer(uint transferId, uint256 amount) external returns (bool ok) {\n\n        initilizeTransferData(transferId, amount);\n\n        bool okGetEURe = transferFrom(transferId, amount);\n        if(!okGetEURe){\n            TransferStuck(transferId, \"\");\n            return false;\n        }\n        \n        bool okApproveWrap = approveWrap(amount);\n        if(!okApproveWrap){\n            TransferStuck(transferId, \"\");\n            return false;\n        }\n\n        uint256 amountJEUR = routage_jEURfromEURe(transferId, amount);\n        if(amountJEUR==0){\n            TransferStuck(transferId, \"\");\n            return false;\n        }\n        \n        bool okApproveRedeem = approveRedeem(amount);\n        if(!okApproveRedeem){\n            TransferStuck(transferId, \"\");\n            return false;\n        }\n\n        (uint256 collateralRedeemed, uint256 feePaid) = routage_USDCfromjEUR(transferId, amountJEUR, amountJEUR);\n        if(collateralRedeemed==0 && feePaid==0){\n            TransferStuck(transferId, \"\");\n            return false;\n        }\n\n        bool okTransferToHub2Wallet = transferToHUB2Wallet(transferId, collateralRedeemed);\n        if(!okTransferToHub2Wallet){\n            TransferStuck(transferId, \"\");\n            return false;\n        }\n\n        finalizeTransfer(transferId, \"\");\n\n        return true;\n    }\n\n    /**\n     * Returns the current status of a specific remmitance.\n     */\n    function remittanceStatus(uint remittanceId) public view virtual returns (TransferStatus) {\n        return transfers[remittanceId].status;\n    }\n\n    // *********************** Manage Status changed ************************************\n    function initilizeTransferData(uint remittanceId, uint amount) internal{\n        transfers[remittanceId].sender=msg.sender;\n        transfers[remittanceId].amount=amount;\n        transfers[remittanceId].status=TransferStatus.INITIALIZED;\n        \n        emit TransferInitilized(remittanceId, amount);\n    }\n\n    function finalizeTransfer(uint remittanceId, string memory transactionCode) internal{\n        transfers[remittanceId].status=TransferStatus.FINALIZED;\n        \n        emit TransferFinalized(remittanceId, transactionCode);\n    }\n\n    function StatusChanged(uint remittanceId, TransferStatus status) internal{\n        transfers[remittanceId].status=status;\n        \n        emit TransferStatusChanged(remittanceId, status, \"\");\n    }\n\n    function TransferStuck(uint remittanceId, string memory errorMsg) internal{\n        transfers[remittanceId].status=TransferStatus.TRANSFER_STUCKED;\n        \n        emit TransferStatusChanged(remittanceId, TransferStatus.TRANSFER_STUCKED, errorMsg);\n    }\n    // *********************************************************************************\n\n\n    // *********************** GET EURe from user's wallet *****************************\n    function approveTransferEURe(uint256 amount) external returns (bool ok){\n        ok = moneriumEURemoney.approve(address(this), amount);\n    }\n\n    function transferFrom(uint remittanceId, uint256 amount) internal returns (bool ok){\n        ok = moneriumEURemoney.transferFrom(msg.sender, address(this), amount);\n\n        StatusChanged(remittanceId, TransferStatus.EURE_RECEIVED);\n    }\n    // *********************************************************************************\n    \n\n    // *********************** Wrap EURe to JEUR ***************************************\n    function approveWrap(uint256 amount) internal returns (bool ok){\n        ok = moneriumEURemoney.approve(WRAPPER_CONTRACT, amount);\n    }\n\n    function routage_jEURfromEURe(uint remittanceId, uint256 _collateral) internal returns(uint256 amountTokens){\n        amountTokens = jarvisWrapper.wrap(_collateral, address(this));\n\n        StatusChanged(remittanceId, TransferStatus.JEUR_WRAPPED);\n    }\n    // *********************************************************************************\n    \n\n    // *********************** Wurn & Mint (Redeem) UCDS from JEUR *********************\n    function approveRedeem(uint256 amount) internal returns (bool ok){\n        ok = jEURToken.approve(SYNTHEREUM_CONTRACT, amount);\n    }\n\n    function routage_USDCfromjEUR(uint remittanceId, \n                                    uint256 _numToken, \n                                    uint256 _minCollateral) \n                internal returns (uint256 collateralRedeemed, uint256 feePaid){\n        \n        ISynthereum.RedeemParams memory params =\n            ISynthereum.RedeemParams({\n                numTokens: _numToken,\n                minCollateral: _minCollateral,\n                expiration: block.timestamp,\n                recipient: HUB2_WALLET\n            });\n \n        (collateralRedeemed, feePaid) = jarvisSynthereum.redeem(params);\n        \n        StatusChanged(remittanceId, TransferStatus.USDC_RECEIVED);\n    }\n    // *********************************************************************************\n    \n\n    // *********************** Transfer USDC to HUB2 Wallet ****************************\n    function transferToHUB2Wallet(uint remittanceId, uint256 amount) internal returns ( bool ok ){\n        ok = uSDCToken.transfer(HUB2_WALLET, amount);\n\n        StatusChanged(remittanceId, TransferStatus.USDC_SENT);\n    }\n    // *********************************************************************************\n\n    // *********************** Update Contracts Addresses ******************************\n    function setWrapperContract(address newAddress) external onlyOwner {\n        WRAPPER_CONTRACT = newAddress;\n    }\n\n    function setSyntheriumContract(address newAddress) external onlyOwner {\n        SYNTHEREUM_CONTRACT = newAddress;\n    }\n\n    function setEURETokenContract(address newAddress) external onlyOwner {\n        EURE_TOKEN_CONTRACT = newAddress;\n    }\n\n    function setJEURToken_Contract(address newAddress) external onlyOwner {\n        JEUR_TOKEN_CONTRACT = newAddress;\n    }\n\n    function setUSDCTokenContract(address newAddress) external onlyOwner {\n        USDC_TOKEN_CONTRACT = newAddress;\n    }\n\n    function setHUB2Wallet(address newAddress) external onlyOwner {\n        HUB2_WALLET = newAddress;\n    }\n    // *********************************************************************************\n    \n\n    // receive() external payable {\n    //     assert(balanceReceived[msg.sender] + msg.value >= balanceReceived[msg.sender]);\n    //     balanceReceived[msg.sender] += msg.value;\n    // }\n}",
  "sourcePath": "/Users/fabricepayet/Workspace/blocksend/blocksend/truffle/contracts/Transfer.sol",
  "compiler": {
    "name": "solc",
    "version": "0.8.14+commit.80d49f37.Emscripten.clang"
  },
  "schemaVersion": "3.4.10",
  "updatedAt": "2022-12-04T13:55:00.638Z",
  "devdoc": {
    "kind": "dev",
    "methods": {
      "initializeTransfer(uint256,uint256)": {
        "params": {
          "amount": "Input parameters for redeeming (see RedeemParams struct)",
          "transferId": "Input parameters for redeeming (see RedeemParams struct)"
        },
        "returns": {
          "ok": "a boolean value indicating whether the operation succeeded.  Emits a {TransferStatusChanged} event with the current status of the transfer."
        }
      },
      "owner()": {
        "details": "Returns the address of the current owner."
      },
      "renounceOwnership()": {
        "details": "Leaves the contract without owner. It will not be possible to call `onlyOwner` functions anymore. Can only be called by the current owner. NOTE: Renouncing ownership will leave the contract without an owner, thereby removing any functionality that is only available to the owner."
      },
      "transferOwnership(address)": {
        "details": "Transfers ownership of the contract to a new account (`newOwner`). Can only be called by the current owner."
      }
    },
    "version": 1
  },
  "userdoc": {
    "kind": "user",
    "methods": {
      "initializeTransfer(uint256,uint256)": {
        "notice": "Iinitialise a transfer of an amount of EUReFirst Step: On-Ramp: 1- Transfer EURe from user's wallet2- Wrap EURe to jEUR3- Redeem USDC from jEURSecod Step: Off-Ramp: Using HUB2"
      },
      "remittanceStatus(uint256)": {
        "notice": "Returns the current status of a specific remmitance."
      }
    },
    "version": 1
  }
}