{
  "contractName": "BlockSendRouter",
  "abi": [
    {
      "inputs": [
        {
          "internalType": "address",
          "name": "_blocksSendTokenAdress",
          "type": "address"
        }
      ],
      "stateMutability": "nonpayable",
      "type": "constructor"
    },
    {
      "anonymous": false,
      "inputs": [
        {
          "indexed": false,
          "internalType": "address",
          "name": "user",
          "type": "address"
        },
        {
          "indexed": false,
          "internalType": "uint256",
          "name": "tokenAmount",
          "type": "uint256"
        }
      ],
      "name": "ClaimTransferRewardEvent",
      "type": "event"
    },
    {
      "anonymous": false,
      "inputs": [
        {
          "indexed": true,
          "internalType": "address",
          "name": "previousOwner",
          "type": "address"
        },
        {
          "indexed": true,
          "internalType": "address",
          "name": "newOwner",
          "type": "address"
        }
      ],
      "name": "OwnershipTransferred",
      "type": "event"
    },
    {
      "anonymous": false,
      "inputs": [
        {
          "indexed": false,
          "internalType": "string",
          "name": "transferId",
          "type": "string"
        },
        {
          "indexed": false,
          "internalType": "uint256",
          "name": "userAmount",
          "type": "uint256"
        },
        {
          "indexed": false,
          "internalType": "uint256",
          "name": "blocksendAmount",
          "type": "uint256"
        }
      ],
      "name": "TransferFinalized",
      "type": "event"
    },
    {
      "anonymous": false,
      "inputs": [
        {
          "indexed": false,
          "internalType": "string",
          "name": "transferId",
          "type": "string"
        },
        {
          "indexed": false,
          "internalType": "uint256",
          "name": "amount",
          "type": "uint256"
        }
      ],
      "name": "TransferInitilized",
      "type": "event"
    },
    {
      "inputs": [],
      "name": "owner",
      "outputs": [
        {
          "internalType": "address",
          "name": "",
          "type": "address"
        }
      ],
      "stateMutability": "view",
      "type": "function"
    },
    {
      "inputs": [],
      "name": "renounceOwnership",
      "outputs": [],
      "stateMutability": "nonpayable",
      "type": "function"
    },
    {
      "inputs": [
        {
          "internalType": "address",
          "name": "newOwner",
          "type": "address"
        }
      ],
      "name": "transferOwnership",
      "outputs": [],
      "stateMutability": "nonpayable",
      "type": "function"
    },
    {
      "inputs": [
        {
          "internalType": "string",
          "name": "",
          "type": "string"
        }
      ],
      "name": "transfers",
      "outputs": [
        {
          "internalType": "address",
          "name": "sender",
          "type": "address"
        },
        {
          "internalType": "uint256",
          "name": "amount_EURe",
          "type": "uint256"
        },
        {
          "internalType": "uint256",
          "name": "amount_jEUR",
          "type": "uint256"
        },
        {
          "internalType": "uint256",
          "name": "amount_USDC",
          "type": "uint256"
        },
        {
          "internalType": "uint256",
          "name": "rate_EUR_USDC",
          "type": "uint256"
        },
        {
          "internalType": "uint256",
          "name": "userAmount_USDC",
          "type": "uint256"
        },
        {
          "internalType": "uint256",
          "name": "blocksendAmount_USDC",
          "type": "uint256"
        },
        {
          "internalType": "uint256",
          "name": "jarvisFees_USDC",
          "type": "uint256"
        },
        {
          "internalType": "enum BlockSendRouter.TransferStatus",
          "name": "status",
          "type": "uint8"
        }
      ],
      "stateMutability": "view",
      "type": "function"
    },
    {
      "inputs": [
        {
          "internalType": "string",
          "name": "transferId",
          "type": "string"
        },
        {
          "internalType": "address",
          "name": "userWallet",
          "type": "address"
        },
        {
          "internalType": "uint256",
          "name": "amount",
          "type": "uint256"
        }
      ],
      "name": "initializeTransfer",
      "outputs": [
        {
          "internalType": "bool",
          "name": "ok",
          "type": "bool"
        }
      ],
      "stateMutability": "nonpayable",
      "type": "function"
    },
    {
      "inputs": [],
      "name": "getMyTranferRewardsBalance",
      "outputs": [
        {
          "internalType": "uint256",
          "name": "",
          "type": "uint256"
        }
      ],
      "stateMutability": "view",
      "type": "function"
    },
    {
      "inputs": [],
      "name": "claimTransferRewards",
      "outputs": [],
      "stateMutability": "nonpayable",
      "type": "function"
    },
    {
      "inputs": [
        {
          "internalType": "string",
          "name": "_transferId",
          "type": "string"
        }
      ],
      "name": "remittanceStatus",
      "outputs": [
        {
          "internalType": "enum BlockSendRouter.TransferStatus",
          "name": "",
          "type": "uint8"
        }
      ],
      "stateMutability": "view",
      "type": "function"
    },
    {
      "inputs": [
        {
          "internalType": "address",
          "name": "_newAddress",
          "type": "address"
        }
      ],
      "name": "setWrapperContract",
      "outputs": [],
      "stateMutability": "nonpayable",
      "type": "function"
    },
    {
      "inputs": [
        {
          "internalType": "address",
          "name": "_newAddress",
          "type": "address"
        }
      ],
      "name": "setSyntheriumContract",
      "outputs": [],
      "stateMutability": "nonpayable",
      "type": "function"
    },
    {
      "inputs": [
        {
          "internalType": "address",
          "name": "_newAddress",
          "type": "address"
        }
      ],
      "name": "setEURETokenContract",
      "outputs": [],
      "stateMutability": "nonpayable",
      "type": "function"
    },
    {
      "inputs": [
        {
          "internalType": "address",
          "name": "_newAddress",
          "type": "address"
        }
      ],
      "name": "setJEURToken_Contract",
      "outputs": [],
      "stateMutability": "nonpayable",
      "type": "function"
    },
    {
      "inputs": [
        {
          "internalType": "address",
          "name": "_newAddress",
          "type": "address"
        }
      ],
      "name": "setBKSDTokenContract",
      "outputs": [],
      "stateMutability": "nonpayable",
      "type": "function"
    },
    {
      "inputs": [
        {
          "internalType": "address",
          "name": "_newAddress",
          "type": "address"
        }
      ],
      "name": "setUSDCTokenContract",
      "outputs": [],
      "stateMutability": "nonpayable",
      "type": "function"
    },
    {
      "inputs": [
        {
          "internalType": "address",
          "name": "_newAddress",
          "type": "address"
        }
      ],
      "name": "setHUB2Wallet",
      "outputs": [],
      "stateMutability": "nonpayable",
      "type": "function"
    },
    {
      "inputs": [
        {
          "internalType": "address",
          "name": "_newAddress",
          "type": "address"
        }
      ],
      "name": "setBlockSend_Wallet",
      "outputs": [],
      "stateMutability": "nonpayable",
      "type": "function"
    },
    {
      "inputs": [
        {
          "internalType": "address",
          "name": "_addr",
          "type": "address"
        }
      ],
      "name": "AllowAddress",
      "outputs": [],
      "stateMutability": "nonpayable",
      "type": "function"
    },
    {
      "inputs": [],
      "name": "get_EUR_USD_LatestPrice",
      "outputs": [
        {
          "internalType": "uint256",
          "name": "",
          "type": "uint256"
        }
      ],
      "stateMutability": "view",
      "type": "function"
    },
    {
      "inputs": [],
      "name": "get_USDC_USD_LatestPrice",
      "outputs": [
        {
          "internalType": "uint256",
          "name": "",
          "type": "uint256"
        }
      ],
      "stateMutability": "view",
      "type": "function"
    }
  ],
  "bytecode": "0x608060405273b07cb016440331be4d2f532b20d892a420476ad0600860006101000a81548173ffffffffffffffffffffffffffffffffffffffff021916908373ffffffffffffffffffffffffffffffffffffffff1602179055507365a7b4ff684c2d08c115d55a4b089bf4e92f5003600960006101000a81548173ffffffffffffffffffffffffffffffffffffffff021916908373ffffffffffffffffffffffffffffffffffffffff1602179055507318ec0a6e18e5bc3784fdd3a3634b31245ab704f6600a60006101000a81548173ffffffffffffffffffffffffffffffffffffffff021916908373ffffffffffffffffffffffffffffffffffffffff160217905550734e3decbb3645551b8a19f0ea1678079fcb33fb4c600b60006101000a81548173ffffffffffffffffffffffffffffffffffffffff021916908373ffffffffffffffffffffffffffffffffffffffff160217905550732791bca1f2de4661ed88a30c99a7a9449aa84174600c60006101000a81548173ffffffffffffffffffffffffffffffffffffffff021916908373ffffffffffffffffffffffffffffffffffffffff160217905550734e3decbb3645551b8a19f0ea1678079fcb33fb4c600d60006101000a81548173ffffffffffffffffffffffffffffffffffffffff021916908373ffffffffffffffffffffffffffffffffffffffff1602179055507373366fe0aa0ded304479862808e02506fe556a98600e60006101000a81548173ffffffffffffffffffffffffffffffffffffffff021916908373ffffffffffffffffffffffffffffffffffffffff16021790555073fe4a8cc5b5b2366c1b58bea3858e81843581b2f7600f60006101000a81548173ffffffffffffffffffffffffffffffffffffffff021916908373ffffffffffffffffffffffffffffffffffffffff16021790555073ed85caeb52c34bd35dfeeb2d4e0bc936a0db0923601060006101000a81548173ffffffffffffffffffffffffffffffffffffffff021916908373ffffffffffffffffffffffffffffffffffffffff16021790555073913cd67da3b17be7f66e865158cdf9a5c4f2a850601160006101000a81548173ffffffffffffffffffffffffffffffffffffffff021916908373ffffffffffffffffffffffffffffffffffffffff160217905550737f3ee84fd13d815ff1005b7904cd67084d8f353f601260006101000a81548173ffffffffffffffffffffffffffffffffffffffff021916908373ffffffffffffffffffffffffffffffffffffffff160217905550348015620003b857600080fd5b50604051620031ed380380620031ed8339818101604052810190620003de9190620007e5565b620003fe620003f2620006af60201b60201c565b620006b760201b60201c565b600160146000601160009054906101000a900473ffffffffffffffffffffffffffffffffffffffff1673ffffffffffffffffffffffffffffffffffffffff1673ffffffffffffffffffffffffffffffffffffffff16815260200190815260200160002060006101000a81548160ff021916908315150217905550600860009054906101000a900473ffffffffffffffffffffffffffffffffffffffff16600160006101000a81548173ffffffffffffffffffffffffffffffffffffffff021916908373ffffffffffffffffffffffffffffffffffffffff160217905550600960009054906101000a900473ffffffffffffffffffffffffffffffffffffffff16600260006101000a81548173ffffffffffffffffffffffffffffffffffffffff021916908373ffffffffffffffffffffffffffffffffffffffff160217905550600a60009054906101000a900473ffffffffffffffffffffffffffffffffffffffff16600360006101000a81548173ffffffffffffffffffffffffffffffffffffffff021916908373ffffffffffffffffffffffffffffffffffffffff160217905550600b60009054906101000a900473ffffffffffffffffffffffffffffffffffffffff16600460006101000a81548173ffffffffffffffffffffffffffffffffffffffff021916908373ffffffffffffffffffffffffffffffffffffffff160217905550600c60009054906101000a900473ffffffffffffffffffffffffffffffffffffffff16600560006101000a81548173ffffffffffffffffffffffffffffffffffffffff021916908373ffffffffffffffffffffffffffffffffffffffff16021790555080600660006101000a81548173ffffffffffffffffffffffffffffffffffffffff021916908373ffffffffffffffffffffffffffffffffffffffff1602179055505062000817565b600033905090565b60008060009054906101000a900473ffffffffffffffffffffffffffffffffffffffff169050816000806101000a81548173ffffffffffffffffffffffffffffffffffffffff021916908373ffffffffffffffffffffffffffffffffffffffff1602179055508173ffffffffffffffffffffffffffffffffffffffff168173ffffffffffffffffffffffffffffffffffffffff167f8be0079c531659141344cd1fd0a4f28419497f9722a3daafe3b4186f6b6457e060405160405180910390a35050565b600080fd5b600073ffffffffffffffffffffffffffffffffffffffff82169050919050565b6000620007ad8262000780565b9050919050565b620007bf81620007a0565b8114620007cb57600080fd5b50565b600081519050620007df81620007b4565b92915050565b600060208284031215620007fe57620007fd6200077b565b5b60006200080e84828501620007ce565b91505092915050565b6129c680620008276000396000f3fe608060405234801561001057600080fd5b50600436106101215760003560e01c80635aeee3f0116100ad578063b2413bef11610071578063b2413bef146102d4578063ea45efbf146102f2578063eead6fd81461030e578063f11283a21461032a578063f2fde38b1461034657610121565b80635aeee3f01461024c5780636064024914610256578063715018a61461027457806384a1c2331461027e5780638da5cb5b146102b657610121565b8063335bafa2116100f4578063335bafa2146101ac578063381ea9c5146101c857806343dafdbe146101e45780634b8cc80d146102005780634e5581271461023057610121565b806314c2ce58146101265780631dfe08191461014257806325a9760514610172578063291839681461018e575b600080fd5b610140600480360381019061013b9190611d1d565b610362565b005b61015c60048036038101906101579190611de5565b610411565b6040516101699190611e74565b60405180910390f35b61018c60048036038101906101879190611d1d565b610665565b005b610196610714565b6040516101a39190611e9e565b60405180910390f35b6101c660048036038101906101c19190611d1d565b61075b565b005b6101e260048036038101906101dd9190611d1d565b61080a565b005b6101fe60048036038101906101f99190611d1d565b610856565b005b61021a60048036038101906102159190611eb9565b6108a2565b6040516102279190611f7d565b60405180910390f35b61024a60048036038101906102459190611d1d565b6108dd565b005b61025461098c565b005b61025e610ae0565b60405161026b9190611e9e565b60405180910390f35b61027c610b8e565b005b610298600480360381019061029391906120d9565b610ba2565b6040516102ad99989796959493929190612131565b60405180910390f35b6102be610c33565b6040516102cb91906121be565b60405180910390f35b6102dc610c5c565b6040516102e99190611e9e565b60405180910390f35b61030c60048036038101906103079190611d1d565b610d0a565b005b61032860048036038101906103239190611d1d565b610db9565b005b610344600480360381019061033f9190611d1d565b610e68565b005b610360600480360381019061035b9190611d1d565b610ecb565b005b61036a610f4e565b80600d60006101000a81548173ffffffffffffffffffffffffffffffffffffffff021916908373ffffffffffffffffffffffffffffffffffffffff160217905550600d60009054906101000a900473ffffffffffffffffffffffffffffffffffffffff16600660006101000a81548173ffffffffffffffffffffffffffffffffffffffff021916908373ffffffffffffffffffffffffffffffffffffffff16021790555050565b6000601460003373ffffffffffffffffffffffffffffffffffffffff1673ffffffffffffffffffffffffffffffffffffffff16815260200190815260200160002060009054906101000a900460ff1661049f576040517f08c379a00000000000000000000000000000000000000000000000000000000081526004016104969061225c565b60405180910390fd5b674563918244f400008210156104ea576040517f08c379a00000000000000000000000000000000000000000000000000000000081526004016104e1906122c8565b60405180910390fd5b6104f685858585610fcc565b6000610504868686866110bb565b9050806105225761051786868686611174565b50600091505061065d565b6000806105318888878861126c565b915091508115806105425750600081145b156105605761055388888888611174565b506000935050505061065d565b6000806000806105718c8c876113e9565b9350935093509350831580610584575082155b8061058f5750600082145b156105b1576105a08c8c8c8c611174565b50600097505050505050505061065d565b60006105bf8d8d85856116ab565b9050806105e4576105d28d8d8d8d611174565b5060009850505050505050505061065d565b60028a6105f19190612346565b600760008d73ffffffffffffffffffffffffffffffffffffffff1673ffffffffffffffffffffffffffffffffffffffff168152602001908152602001600020600082825461063f9190612377565b925050819055506106508d8d61186e565b6001985050505050505050505b949350505050565b61066d610f4e565b80600a60006101000a81548173ffffffffffffffffffffffffffffffffffffffff021916908373ffffffffffffffffffffffffffffffffffffffff160217905550600a60009054906101000a900473ffffffffffffffffffffffffffffffffffffffff16600360006101000a81548173ffffffffffffffffffffffffffffffffffffffff021916908373ffffffffffffffffffffffffffffffffffffffff16021790555050565b6000600760003373ffffffffffffffffffffffffffffffffffffffff1673ffffffffffffffffffffffffffffffffffffffff16815260200190815260200160002054905090565b610763610f4e565b80600960006101000a81548173ffffffffffffffffffffffffffffffffffffffff021916908373ffffffffffffffffffffffffffffffffffffffff160217905550600960009054906101000a900473ffffffffffffffffffffffffffffffffffffffff16600260006101000a81548173ffffffffffffffffffffffffffffffffffffffff021916908373ffffffffffffffffffffffffffffffffffffffff16021790555050565b610812610f4e565b80601060006101000a81548173ffffffffffffffffffffffffffffffffffffffff021916908373ffffffffffffffffffffffffffffffffffffffff16021790555050565b61085e610f4e565b80601260006101000a81548173ffffffffffffffffffffffffffffffffffffffff021916908373ffffffffffffffffffffffffffffffffffffffff16021790555050565b6000601383836040516108b69291906123fd565b908152602001604051809103902060080160009054906101000a900460ff16905092915050565b6108e5610f4e565b80600860006101000a81548173ffffffffffffffffffffffffffffffffffffffff021916908373ffffffffffffffffffffffffffffffffffffffff160217905550600860009054906101000a900473ffffffffffffffffffffffffffffffffffffffff16600160006101000a81548173ffffffffffffffffffffffffffffffffffffffff021916908373ffffffffffffffffffffffffffffffffffffffff16021790555050565b6000600760003373ffffffffffffffffffffffffffffffffffffffff1673ffffffffffffffffffffffffffffffffffffffff1681526020019081526020016000205490506000600760003373ffffffffffffffffffffffffffffffffffffffff1673ffffffffffffffffffffffffffffffffffffffff16815260200190815260200160002081905550600660009054906101000a900473ffffffffffffffffffffffffffffffffffffffff1673ffffffffffffffffffffffffffffffffffffffff166340c10f1933836040518363ffffffff1660e01b8152600401610a72929190612416565b600060405180830381600087803b158015610a8c57600080fd5b505af1158015610aa0573d6000803e3d6000fd5b505050507f58cc09a5cd7d0483d99e31e50feb38f39841b055573f462989aea4ad8783c6da3382604051610ad5929190612416565b60405180910390a150565b600080600e60009054906101000a900473ffffffffffffffffffffffffffffffffffffffff1673ffffffffffffffffffffffffffffffffffffffff1663feaf968c6040518163ffffffff1660e01b815260040160a060405180830381865afa158015610b50573d6000803e3d6000fd5b505050506040513d601f19601f82011682018060405250810190610b7491906124cc565b5050509150506103e881610b889190612547565b91505090565b610b96610f4e565b610ba06000611941565b565b6013818051602081018201805184825260208301602085012081835280955050505050506000915090508060000160009054906101000a900473ffffffffffffffffffffffffffffffffffffffff16908060010154908060020154908060030154908060040154908060050154908060060154908060070154908060080160009054906101000a900460ff16905089565b60008060009054906101000a900473ffffffffffffffffffffffffffffffffffffffff16905090565b600080600f60009054906101000a900473ffffffffffffffffffffffffffffffffffffffff1673ffffffffffffffffffffffffffffffffffffffff1663feaf968c6040518163ffffffff1660e01b815260040160a060405180830381865afa158015610ccc573d6000803e3d6000fd5b505050506040513d601f19601f82011682018060405250810190610cf091906124cc565b5050509150506103e881610d049190612547565b91505090565b610d12610f4e565b80600b60006101000a81548173ffffffffffffffffffffffffffffffffffffffff021916908373ffffffffffffffffffffffffffffffffffffffff160217905550600b60009054906101000a900473ffffffffffffffffffffffffffffffffffffffff16600460006101000a81548173ffffffffffffffffffffffffffffffffffffffff021916908373ffffffffffffffffffffffffffffffffffffffff16021790555050565b610dc1610f4e565b80600c60006101000a81548173ffffffffffffffffffffffffffffffffffffffff021916908373ffffffffffffffffffffffffffffffffffffffff160217905550600c60009054906101000a900473ffffffffffffffffffffffffffffffffffffffff16600560006101000a81548173ffffffffffffffffffffffffffffffffffffffff021916908373ffffffffffffffffffffffffffffffffffffffff16021790555050565b610e70610f4e565b6001601460008373ffffffffffffffffffffffffffffffffffffffff1673ffffffffffffffffffffffffffffffffffffffff16815260200190815260200160002060006101000a81548160ff02191690831515021790555050565b610ed3610f4e565b600073ffffffffffffffffffffffffffffffffffffffff168173ffffffffffffffffffffffffffffffffffffffff1603610f42576040517f08c379a0000000000000000000000000000000000000000000000000000000008152600401610f3990612623565b60405180910390fd5b610f4b81611941565b50565b610f56611a05565b73ffffffffffffffffffffffffffffffffffffffff16610f74610c33565b73ffffffffffffffffffffffffffffffffffffffff1614610fca576040517f08c379a0000000000000000000000000000000000000000000000000000000008152600401610fc19061268f565b60405180910390fd5b565b8160138585604051610fdf9291906123fd565b908152602001604051809103902060000160006101000a81548173ffffffffffffffffffffffffffffffffffffffff021916908373ffffffffffffffffffffffffffffffffffffffff1602179055506000601385856040516110429291906123fd565b908152602001604051809103902060080160006101000a81548160ff0219169083600681111561107557611074611f06565b5b02179055507f9f99091afbc24bd9abfd7adca3533b5457ad5307a86351e337bcee2fb1f364de8484836040516110ad939291906126dc565b60405180910390a150505050565b6000600360009054906101000a900473ffffffffffffffffffffffffffffffffffffffff1673ffffffffffffffffffffffffffffffffffffffff166323b872dd8430856040518463ffffffff1660e01b815260040161111c9392919061270e565b6020604051808303816000875af115801561113b573d6000803e3d6000fd5b505050506040513d601f19601f8201168201806040525081019061115f9190612771565b905061116c858584611a0d565b949350505050565b600060066013868660405161118a9291906123fd565b908152602001604051809103902060080160006101000a81548160ff021916908360068111156111bd576111bc611f06565b5b0217905550600360009054906101000a900473ffffffffffffffffffffffffffffffffffffffff1673ffffffffffffffffffffffffffffffffffffffff1663a9059cbb84846040518363ffffffff1660e01b815260040161121f929190612416565b6020604051808303816000875af115801561123e573d6000803e3d6000fd5b505050506040513d601f19601f820116820180604052508101906112629190612771565b9050949350505050565b600080600360009054906101000a900473ffffffffffffffffffffffffffffffffffffffff1673ffffffffffffffffffffffffffffffffffffffff1663095ea7b3600860009054906101000a900473ffffffffffffffffffffffffffffffffffffffff16866040518363ffffffff1660e01b81526004016112ee929190612416565b6020604051808303816000875af115801561130d573d6000803e3d6000fd5b505050506040513d601f19601f820116820180604052508101906113319190612771565b9150600160009054906101000a900473ffffffffffffffffffffffffffffffffffffffff1673ffffffffffffffffffffffffffffffffffffffff166313bac82084306040518363ffffffff1660e01b815260040161139092919061279e565b6020604051808303816000875af11580156113af573d6000803e3d6000fd5b505050506040513d601f19601f820116820180604052508101906113d391906127c7565b90506113e0868683611a86565b94509492505050565b60008060008060006113f9610ae0565b90506000678ac7230489e80000828861141291906127f4565b61141c9190612346565b9050600460009054906101000a900473ffffffffffffffffffffffffffffffffffffffff1673ffffffffffffffffffffffffffffffffffffffff1663095ea7b3600960009054906101000a900473ffffffffffffffffffffffffffffffffffffffff16896040518363ffffffff1660e01b815260040161149d929190612416565b6020604051808303816000875af11580156114bc573d6000803e3d6000fd5b505050506040513d601f19601f820116820180604052508101906114e09190612771565b9550600560009054906101000a900473ffffffffffffffffffffffffffffffffffffffff1673ffffffffffffffffffffffffffffffffffffffff1663095ea7b3600960009054906101000a900473ffffffffffffffffffffffffffffffffffffffff16836040518363ffffffff1660e01b8152600401611561929190612416565b6020604051808303816000875af1158015611580573d6000803e3d6000fd5b505050506040513d601f19601f820116820180604052508101906115a49190612771565b945060006040518060800160405280898152602001838152602001601e426115cc9190612377565b81526020013073ffffffffffffffffffffffffffffffffffffffff168152509050600260009054906101000a900473ffffffffffffffffffffffffffffffffffffffff1673ffffffffffffffffffffffffffffffffffffffff1663525e6b11826040518263ffffffff1660e01b815260040161164891906128c1565b60408051808303816000875af1158015611666573d6000803e3d6000fd5b505050506040513d601f19601f8201168201806040525081019061168a91906128dc565b809550819650505061169f8a8a878688611aff565b50505093509350935093565b60008060006116ba8585611bca565b915091506000600560009054906101000a900473ffffffffffffffffffffffffffffffffffffffff1673ffffffffffffffffffffffffffffffffffffffff1663a9059cbb601260009054906101000a900473ffffffffffffffffffffffffffffffffffffffff16856040518363ffffffff1660e01b815260040161173f929190612416565b6020604051808303816000875af115801561175e573d6000803e3d6000fd5b505050506040513d601f19601f820116820180604052508101906117829190612771565b90506000600560009054906101000a900473ffffffffffffffffffffffffffffffffffffffff1673ffffffffffffffffffffffffffffffffffffffff1663a9059cbb601060009054906101000a900473ffffffffffffffffffffffffffffffffffffffff16856040518363ffffffff1660e01b8152600401611805929190612416565b6020604051808303816000875af1158015611824573d6000803e3d6000fd5b505050506040513d601f19601f820116820180604052508101906118489190612771565b905061185689898587611c09565b8080156118605750815b945050505050949350505050565b6005601383836040516118829291906123fd565b908152602001604051809103902060080160006101000a81548160ff021916908360068111156118b5576118b4611f06565b5b02179055507fb068bfa73b9623ba0d319b003df0377fa326e109678625e7ad23230855b856b48282601385856040516118ef9291906123fd565b908152602001604051809103902060050154601386866040516119139291906123fd565b908152602001604051809103902060060154604051611935949392919061291c565b60405180910390a15050565b60008060009054906101000a900473ffffffffffffffffffffffffffffffffffffffff169050816000806101000a81548173ffffffffffffffffffffffffffffffffffffffff021916908373ffffffffffffffffffffffffffffffffffffffff1602179055508173ffffffffffffffffffffffffffffffffffffffff168173ffffffffffffffffffffffffffffffffffffffff167f8be0079c531659141344cd1fd0a4f28419497f9722a3daafe3b4186f6b6457e060405160405180910390a35050565b600033905090565b600160138484604051611a219291906123fd565b908152602001604051809103902060080160006101000a81548160ff02191690836006811115611a5457611a53611f06565b5b02179055508060138484604051611a6c9291906123fd565b908152602001604051809103902060010181905550505050565b600260138484604051611a9a9291906123fd565b908152602001604051809103902060080160006101000a81548160ff02191690836006811115611acd57611acc611f06565b5b02179055508060138484604051611ae59291906123fd565b908152602001604051809103902060020181905550505050565b600360138686604051611b139291906123fd565b908152602001604051809103902060080160006101000a81548160ff02191690836006811115611b4657611b45611f06565b5b02179055508260138686604051611b5e9291906123fd565b9081526020016040518091039020600301819055508160138686604051611b869291906123fd565b9081526020016040518091039020600401819055508060138686604051611bae9291906123fd565b9081526020016040518091039020600701819055505050505050565b600080826103e8601386611bde91906127f4565b611be89190612346565b611bf2919061295c565b91508184611c00919061295c565b90509250929050565b600460138585604051611c1d9291906123fd565b908152602001604051809103902060080160006101000a81548160ff02191690836006811115611c5057611c4f611f06565b5b02179055508160138585604051611c689291906123fd565b9081526020016040518091039020600501819055508060138585604051611c909291906123fd565b90815260200160405180910390206006018190555050505050565b6000604051905090565b600080fd5b600080fd5b600073ffffffffffffffffffffffffffffffffffffffff82169050919050565b6000611cea82611cbf565b9050919050565b611cfa81611cdf565b8114611d0557600080fd5b50565b600081359050611d1781611cf1565b92915050565b600060208284031215611d3357611d32611cb5565b5b6000611d4184828501611d08565b91505092915050565b600080fd5b600080fd5b600080fd5b60008083601f840112611d6f57611d6e611d4a565b5b8235905067ffffffffffffffff811115611d8c57611d8b611d4f565b5b602083019150836001820283011115611da857611da7611d54565b5b9250929050565b6000819050919050565b611dc281611daf565b8114611dcd57600080fd5b50565b600081359050611ddf81611db9565b92915050565b60008060008060608587031215611dff57611dfe611cb5565b5b600085013567ffffffffffffffff811115611e1d57611e1c611cba565b5b611e2987828801611d59565b94509450506020611e3c87828801611d08565b9250506040611e4d87828801611dd0565b91505092959194509250565b60008115159050919050565b611e6e81611e59565b82525050565b6000602082019050611e896000830184611e65565b92915050565b611e9881611daf565b82525050565b6000602082019050611eb36000830184611e8f565b92915050565b60008060208385031215611ed057611ecf611cb5565b5b600083013567ffffffffffffffff811115611eee57611eed611cba565b5b611efa85828601611d59565b92509250509250929050565b7f4e487b7100000000000000000000000000000000000000000000000000000000600052602160045260246000fd5b60078110611f4657611f45611f06565b5b50565b6000819050611f5782611f35565b919050565b6000611f6782611f49565b9050919050565b611f7781611f5c565b82525050565b6000602082019050611f926000830184611f6e565b92915050565b600080fd5b6000601f19601f8301169050919050565b7f4e487b7100000000000000000000000000000000000000000000000000000000600052604160045260246000fd5b611fe682611f9d565b810181811067ffffffffffffffff8211171561200557612004611fae565b5b80604052505050565b6000612018611cab565b90506120248282611fdd565b919050565b600067ffffffffffffffff82111561204457612043611fae565b5b61204d82611f9d565b9050602081019050919050565b82818337600083830152505050565b600061207c61207784612029565b61200e565b90508281526020810184848401111561209857612097611f98565b5b6120a384828561205a565b509392505050565b600082601f8301126120c0576120bf611d4a565b5b81356120d0848260208601612069565b91505092915050565b6000602082840312156120ef576120ee611cb5565b5b600082013567ffffffffffffffff81111561210d5761210c611cba565b5b612119848285016120ab565b91505092915050565b61212b81611cdf565b82525050565b600061012082019050612147600083018c612122565b612154602083018b611e8f565b612161604083018a611e8f565b61216e6060830189611e8f565b61217b6080830188611e8f565b61218860a0830187611e8f565b61219560c0830186611e8f565b6121a260e0830185611e8f565b6121b0610100830184611f6e565b9a9950505050505050505050565b60006020820190506121d36000830184612122565b92915050565b600082825260208201905092915050565b7f596f7527726520616c6c6f77656420746f20696e69746961746520612074726160008201527f6e73666572000000000000000000000000000000000000000000000000000000602082015250565b60006122466025836121d9565b9150612251826121ea565b604082019050919050565b6000602082019050818103600083015261227581612239565b9050919050565b7f696e73756666696369656e7420616d6f756e7400000000000000000000000000600082015250565b60006122b26013836121d9565b91506122bd8261227c565b602082019050919050565b600060208201905081810360008301526122e1816122a5565b9050919050565b7f4e487b7100000000000000000000000000000000000000000000000000000000600052601260045260246000fd5b7f4e487b7100000000000000000000000000000000000000000000000000000000600052601160045260246000fd5b600061235182611daf565b915061235c83611daf565b92508261236c5761236b6122e8565b5b828204905092915050565b600061238282611daf565b915061238d83611daf565b9250827fffffffffffffffffffffffffffffffffffffffffffffffffffffffffffffffff038211156123c2576123c1612317565b5b828201905092915050565b600081905092915050565b60006123e483856123cd565b93506123f183858461205a565b82840190509392505050565b600061240a8284866123d8565b91508190509392505050565b600060408201905061242b6000830185612122565b6124386020830184611e8f565b9392505050565b600069ffffffffffffffffffff82169050919050565b61245e8161243f565b811461246957600080fd5b50565b60008151905061247b81612455565b92915050565b6000819050919050565b61249481612481565b811461249f57600080fd5b50565b6000815190506124b18161248b565b92915050565b6000815190506124c681611db9565b92915050565b600080600080600060a086880312156124e8576124e7611cb5565b5b60006124f68882890161246c565b9550506020612507888289016124a2565b9450506040612518888289016124b7565b9350506060612529888289016124b7565b925050608061253a8882890161246c565b9150509295509295909350565b600061255282612481565b915061255d83612481565b92508261256d5761256c6122e8565b5b600160000383147f8000000000000000000000000000000000000000000000000000000000000000831416156125a6576125a5612317565b5b828205905092915050565b7f4f776e61626c653a206e6577206f776e657220697320746865207a65726f206160008201527f6464726573730000000000000000000000000000000000000000000000000000602082015250565b600061260d6026836121d9565b9150612618826125b1565b604082019050919050565b6000602082019050818103600083015261263c81612600565b9050919050565b7f4f776e61626c653a2063616c6c6572206973206e6f7420746865206f776e6572600082015250565b60006126796020836121d9565b915061268482612643565b602082019050919050565b600060208201905081810360008301526126a88161266c565b9050919050565b60006126bb83856121d9565b93506126c883858461205a565b6126d183611f9d565b840190509392505050565b600060408201905081810360008301526126f78185876126af565b90506127066020830184611e8f565b949350505050565b60006060820190506127236000830186612122565b6127306020830185612122565b61273d6040830184611e8f565b949350505050565b61274e81611e59565b811461275957600080fd5b50565b60008151905061276b81612745565b92915050565b60006020828403121561278757612786611cb5565b5b60006127958482850161275c565b91505092915050565b60006040820190506127b36000830185611e8f565b6127c06020830184612122565b9392505050565b6000602082840312156127dd576127dc611cb5565b5b60006127eb848285016124b7565b91505092915050565b60006127ff82611daf565b915061280a83611daf565b9250817fffffffffffffffffffffffffffffffffffffffffffffffffffffffffffffffff048311821515161561284357612842612317565b5b828202905092915050565b61285781611daf565b82525050565b61286681611cdf565b82525050565b608082016000820151612882600085018261284e565b506020820151612895602085018261284e565b5060408201516128a8604085018261284e565b5060608201516128bb606085018261285d565b50505050565b60006080820190506128d6600083018461286c565b92915050565b600080604083850312156128f3576128f2611cb5565b5b6000612901858286016124b7565b9250506020612912858286016124b7565b9150509250929050565b600060608201905081810360008301526129378186886126af565b90506129466020830185611e8f565b6129536040830184611e8f565b95945050505050565b600061296782611daf565b915061297283611daf565b92508282101561298557612984612317565b5b82820390509291505056fea26469706673582212206c721359317dbb25b5e18ed3acded3667ef3d02ba4272f52c5e5a2fed0e6dfbd64736f6c634300080e0033",
  "immutableReferences": {},
  "source": "// SPDX-License-Identifier: MIT\npragma solidity ^0.8.9;\n\nimport \"../node_modules/@chainlink/contracts/src/v0.8/interfaces/AggregatorV3Interface.sol\";\nimport \"../node_modules/@openzeppelin/contracts/access/Ownable.sol\";\nimport \"../node_modules/@openzeppelin/contracts/token/ERC20/IERC20.sol\";\nimport \"./interfaces/IFixedRateWrapper.sol\";\nimport \"./interfaces/ISynthereum.sol\";\nimport \"./BlockSendToken.sol\";\n\ncontract BlockSendRouter is Ownable {\n\n    IFixedRateWrapper private jarvisWrapper;\n    ISynthereum private jarvisSynthereum;\n    IERC20 private moneriumEURemoney;\n    IERC20 private jEURToken;\n    IERC20 private USDCToken;\n    BlockSendToken private BKSDToken;\n    mapping(address => uint256) private transferRewardsBalance;\n\n    address private WRAPPER_CONTRACT =\n        0xb07Cb016440331be4D2f532b20d892a420476AD0;\n    address private SYNTHEREUM_CONTRACT =\n        0x65a7b4Ff684C2d08c115D55a4B089bf4E92F5003;\n    address private EURE_TOKEN_CONTRACT =\n        0x18ec0A6E18E5bc3784fDd3a3634b31245ab704F6;\n    address private JEUR_TOKEN_CONTRACT =\n        0x4e3Decbb3645551B8A19f0eA1678079FCB33fB4c;\n    address private USDC_TOKEN_CONTRACT =\n        0x2791Bca1f2de4661ED88A30C99A7a9449Aa84174;\n    address private BKSD_TOKEN_CONTRACT =\n        0x4e3Decbb3645551B8A19f0eA1678079FCB33fB4c; // TODO: change this\n\n    address private EUR_USD_AGGREGATOR =\n        0x73366Fe0AA0Ded304479862808e02506FE556a98;\n    address private USDC_USD_AGGREGATOR =\n        0xfE4A8cc5b5B2366C1B58Bea3858e81843581b2F7;\n\n    address private HUB2_WALLET = 0xeD85CAeb52C34bD35dfeEB2d4e0bC936a0Db0923;\n    address private BLOCKSEND_BACKEND =\n        0x913Cd67dA3b17be7f66E865158cDF9a5c4F2a850;\n    address private BLOCKSEND_WALLET =\n        0x7f3eE84Fd13D815ff1005B7904Cd67084D8f353F;\n\n    mapping(string => Remittance) public transfers;\n    struct Remittance {\n        address sender;\n        uint256 amount_EURe;\n        uint256 amount_jEUR;\n        uint256 amount_USDC;\n        uint256 rate_EUR_USDC;\n        uint256 userAmount_USDC;\n        uint256 blocksendAmount_USDC;\n        uint256 jarvisFees_USDC;\n        TransferStatus status;\n    }\n\n    enum TransferStatus {\n        INITIALIZED,\n        EURE_RECEIVED,\n        JEUR_WRAPPED,\n        USDC_RECEIVED,\n        USDC_SENT,\n        FINALIZED,\n        TRANSFER_STUCK\n    }\n\n    mapping(address => bool) private allowed;\n\n    event TransferInitilized(string transferId, uint256 amount);\n    event TransferFinalized(\n        string transferId,\n        uint256 userAmount,\n        uint256 blocksendAmount\n    );\n    event ClaimTransferRewardEvent(address user, uint256 tokenAmount);\n\n    modifier onlyAllowed() {\n        require(allowed[msg.sender], \"You're allowed to initiate a transfer\");\n        _;\n    }\n\n    constructor(address _blocksSendTokenAdress) {\n        allowed[BLOCKSEND_BACKEND] = true;\n        jarvisWrapper = IFixedRateWrapper(WRAPPER_CONTRACT);\n        jarvisSynthereum = ISynthereum(SYNTHEREUM_CONTRACT);\n        moneriumEURemoney = IERC20(EURE_TOKEN_CONTRACT);\n        jEURToken = IERC20(JEUR_TOKEN_CONTRACT);\n        USDCToken = IERC20(USDC_TOKEN_CONTRACT);\n        BKSDToken = BlockSendToken(_blocksSendTokenAdress);\n    }\n\n    /**\n     * @notice Iinitialise a transfer of an amount of EURe\n     * @notice First Step: On-Ramp:\n     * @notice 1- Transfer EURe from user's wallet\n     * @notice 2- Wrap EURe to jEUR (Jarvis wrapper)\n     * @notice 3- Get jEUR/USDC Rate (Aggregator Chainlink)\n     * @notice 4- Redeem USDC from jEUR (Jarvis Redeem)\n     * @notice Secod Step: Calculate 1,9% of fees\n     * @notice Third Step: Off-Ramp: Using HUB2\n     * @notice if any error: Sent money to users wallet back\n     * @param transferId Input parameters transferId\n     * @param amount Input parameters for for transfered amount\n     * @param userWallet Input parameters for user wallet\n     * @return ok a boolean value indicating whether the operation succeeded.\n     *\n     * Emits a {TransferStatusChanged} event with the current status of the transfer.\n     */\n    function initializeTransfer(\n        string calldata transferId,\n        address userWallet,\n        uint256 amount\n    ) external onlyAllowed returns (bool ok) {\n        require(amount >= 5 * 10e17, \"insufficient amount\");\n\n        initilizeTransferData(transferId, userWallet, amount);\n\n        bool okGetEURe = transferFrom(transferId, userWallet, amount);\n        if (!okGetEURe) {\n            TransferStuck(transferId, userWallet, amount);\n            return false;\n        }\n\n        (bool okApproveWrap, uint256 amountJEUR) = routage_jEURfromEURe(\n            transferId,\n            amount,\n            amount\n        );\n        if (!okApproveWrap || amountJEUR == 0) {\n            TransferStuck(transferId, userWallet, amount);\n            return false;\n        }\n\n        (\n            bool okApprouveJEUR,\n            bool okApprouveUSDC,\n            uint256 collateralRedeemed,\n            uint256 feePaid\n        ) = routage_USDCfromjEUR(transferId, amountJEUR);\n        if (!okApprouveJEUR || !okApprouveUSDC || collateralRedeemed == 0) {\n            TransferStuck(transferId, userWallet, amount);\n            return false;\n        }\n\n        bool okTransferWallet = transferUSDC(\n            transferId,\n            collateralRedeemed,\n            feePaid\n        );\n        if (!okTransferWallet) {\n            TransferStuck(transferId, userWallet, amount);\n            return false;\n        }\n        \n        transferRewardsBalance[userWallet] += amount / 2;\n\n        finalizeTransfer(transferId);\n\n        return true;\n    }\n\n    function getMyTranferRewardsBalance()\n        external\n        view\n        returns (uint256)\n    {\n        return transferRewardsBalance[msg.sender];\n    }\n\n    function claimTransferRewards() external {\n        // TODO: Add a require if necessary to avoid claim small amount of BSKD\n        uint256 amount = transferRewardsBalance[msg.sender];\n        transferRewardsBalance[msg.sender] = 0;\n        BKSDToken.mint(msg.sender, amount);\n        emit ClaimTransferRewardEvent(msg.sender, amount);\n    }\n\n    /**\n     * Returns the current status of a specific remmitance.\n     */\n    function remittanceStatus(\n        string calldata _transferId\n    ) public view virtual returns (TransferStatus) {\n        return transfers[_transferId].status;\n    }\n\n    // *********************** Manage Status changed ************************************\n    function initilizeTransferData(\n        string calldata _transferId,\n        address _userWallet,\n        uint256 _amount\n    ) internal {\n        transfers[_transferId].sender = _userWallet;\n        transfers[_transferId].status = TransferStatus.INITIALIZED;\n\n        emit TransferInitilized(_transferId, _amount);\n    }\n\n    function finalizeTransfer(string calldata _transferId) internal {\n        transfers[_transferId].status = TransferStatus.FINALIZED;\n\n        emit TransferFinalized(\n            _transferId,\n            transfers[_transferId].userAmount_USDC,\n            transfers[_transferId].blocksendAmount_USDC\n        );\n    }\n\n    function amountReceived(\n        string calldata _transferId,\n        uint256 _amount\n    ) internal {\n        transfers[_transferId].status = TransferStatus.EURE_RECEIVED;\n        transfers[_transferId].amount_EURe = _amount;\n    }\n\n    function amountWrapped(\n        string calldata _transferId,\n        uint256 _amount\n    ) internal {\n        transfers[_transferId].status = TransferStatus.JEUR_WRAPPED;\n        transfers[_transferId].amount_jEUR = _amount;\n    }\n\n    function redeemCollateral(\n        string calldata _transferId,\n        uint256 _collateral,\n        uint256 _rate,\n        uint256 _feePaid\n    ) internal {\n        transfers[_transferId].status = TransferStatus.USDC_RECEIVED;\n        transfers[_transferId].amount_USDC = _collateral;\n        transfers[_transferId].rate_EUR_USDC = _rate;\n        transfers[_transferId].jarvisFees_USDC = _feePaid;\n    }\n\n    function collateralSent(\n        string calldata _transferId,\n        uint256 _userAmount,\n        uint256 _blockSendAmount\n    ) internal {\n        transfers[_transferId].status = TransferStatus.USDC_SENT;\n        transfers[_transferId].userAmount_USDC = _userAmount;\n        transfers[_transferId].blocksendAmount_USDC = _blockSendAmount;\n    }\n\n    function TransferStuck(\n        string calldata _transferId,\n        address _userWallet,\n        uint256 _amount\n    ) internal returns (bool ok) {\n        transfers[_transferId].status = TransferStatus.TRANSFER_STUCK;\n\n        ok = moneriumEURemoney.transfer(_userWallet, _amount);\n    }\n\n    // *********************************************************************************\n\n    // *********************** GET EURe from user's wallet *****************************\n    function transferFrom(\n        string calldata _transferId,\n        address _userWallet,\n        uint256 _amount\n    ) internal returns (bool ok) {\n        ok = moneriumEURemoney.transferFrom(\n            _userWallet,\n            address(this),\n            _amount\n        );\n\n        amountReceived(_transferId, _amount);\n    }\n\n    // *********************************************************************************\n\n    // *********************** Wrap EURe to JEUR ***************************************\n    function routage_jEURfromEURe(\n        string calldata _transferId,\n        uint256 _amount,\n        uint256 _collateral\n    ) internal returns (bool ok, uint256 amountTokens) {\n        ok = moneriumEURemoney.approve(WRAPPER_CONTRACT, _amount);\n        amountTokens = jarvisWrapper.wrap(_collateral, address(this));\n\n        amountWrapped(_transferId, amountTokens);\n    }\n\n    // *********************************************************************************\n\n    // *********************** Wurn & Mint (Redeem) UCDS from JEUR *********************\n    function routage_USDCfromjEUR(\n        string calldata _transferId,\n        uint256 _numToken\n    )\n        internal\n        returns (\n            bool okApprouveJEUR,\n            bool okApprouveUSDC,\n            uint256 collateralRedeemed,\n            uint256 feePaid\n        )\n    {\n        uint256 price = get_EUR_USD_LatestPrice();\n        uint256 collateralUSDC = uint256((_numToken * price) / 10e18);\n\n        okApprouveJEUR = jEURToken.approve(SYNTHEREUM_CONTRACT, _numToken);\n        okApprouveUSDC = USDCToken.approve(SYNTHEREUM_CONTRACT, collateralUSDC);\n\n        ISynthereum.RedeemParams memory params = ISynthereum.RedeemParams({\n            numTokens: _numToken,\n            minCollateral: collateralUSDC,\n            expiration: block.timestamp + 30,\n            recipient: address(this)\n        });\n\n        (collateralRedeemed, feePaid) = jarvisSynthereum.redeem(params);\n\n        redeemCollateral(_transferId, collateralRedeemed, price, feePaid);\n    }\n\n    // *********************************************************************************\n\n    // *********************** Transfer USDC to HUB2 Wallet & BlockSend Wallet *********\n    function transferUSDC(\n        string calldata _transferId,\n        uint256 _collateralRedeemed,\n        uint256 _feePaid\n    ) internal returns (bool ok) {\n        (uint256 blocksendAmount, uint256 userAmount) = calculateBlockSendFees(\n            _collateralRedeemed,\n            _feePaid\n        );\n\n        bool okBlocksend = USDCToken.transfer(\n            BLOCKSEND_WALLET,\n            blocksendAmount\n        );\n        bool okHUB2 = USDCToken.transfer(HUB2_WALLET, userAmount);\n\n        collateralSent(_transferId, userAmount, blocksendAmount);\n\n        return okHUB2 && okBlocksend;\n    }\n\n    // *********************************************************************************\n\n    // *********************** Calculate 1,9% fees *************************************\n    function calculateBlockSendFees(\n        uint256 _amount,\n        uint256 _feePaid\n    ) internal pure returns (uint256 blocksendAmount, uint256 userAmount) {\n        blocksendAmount = ((_amount * 19) / 1000) - _feePaid;\n        userAmount = _amount - blocksendAmount;\n    }\n\n    // *********************************************************************************\n\n    // *********************** Update Contracts Addresses ******************************\n    function setWrapperContract(address _newAddress) external onlyOwner {\n        WRAPPER_CONTRACT = _newAddress;\n        jarvisWrapper = IFixedRateWrapper(WRAPPER_CONTRACT);\n    }\n\n    function setSyntheriumContract(address _newAddress) external onlyOwner {\n        SYNTHEREUM_CONTRACT = _newAddress;\n        jarvisSynthereum = ISynthereum(SYNTHEREUM_CONTRACT);\n    }\n\n    function setEURETokenContract(address _newAddress) external onlyOwner {\n        EURE_TOKEN_CONTRACT = _newAddress;\n        moneriumEURemoney = IERC20(EURE_TOKEN_CONTRACT);\n    }\n\n    function setJEURToken_Contract(address _newAddress) external onlyOwner {\n        JEUR_TOKEN_CONTRACT = _newAddress;\n        jEURToken = IERC20(JEUR_TOKEN_CONTRACT);\n    }\n\n    function setBKSDTokenContract(address _newAddress) external onlyOwner {\n        BKSD_TOKEN_CONTRACT = _newAddress;\n        BKSDToken = BlockSendToken(BKSD_TOKEN_CONTRACT);\n    }\n\n    function setUSDCTokenContract(address _newAddress) external onlyOwner {\n        USDC_TOKEN_CONTRACT = _newAddress;\n        USDCToken = IERC20(USDC_TOKEN_CONTRACT);\n    }\n\n    function setHUB2Wallet(address _newAddress) external onlyOwner {\n        HUB2_WALLET = _newAddress;\n    }\n\n    function setBlockSend_Wallet(address _newAddress) external onlyOwner {\n        BLOCKSEND_WALLET = _newAddress;\n    }\n\n    function AllowAddress(address _addr) external onlyOwner {\n        allowed[_addr] = true;\n    }\n\n    // *********************************************************************************\n\n    // *********************** Get the latest rate *************************************\n    function get_EUR_USD_LatestPrice() public view returns (uint256) {\n        (, int256 price, , , ) = AggregatorV3Interface(EUR_USD_AGGREGATOR).latestRoundData();\n        return uint256(price / 1000);\n    }\n    function get_USDC_USD_LatestPrice() public view returns (uint256) {\n        (, int256 price, , , ) = AggregatorV3Interface(USDC_USD_AGGREGATOR).latestRoundData();\n        return uint256(price / 1000);\n    }\n    // *********************************************************************************\n}\n",
  "sourcePath": "/Users/fabricepayet/Workspace/blocksend/blocksend/truffle/contracts/BlockSendRouter.sol",
  "compiler": {
    "name": "solc",
    "version": "0.8.14+commit.80d49f37.Emscripten.clang"
  },
  "schemaVersion": "3.4.10",
  "updatedAt": "2022-12-10T10:14:01.015Z",
  "devdoc": {
    "kind": "dev",
    "methods": {
      "initializeTransfer(string,address,uint256)": {
        "params": {
          "amount": "Input parameters for for transfered amount",
          "transferId": "Input parameters transferId",
          "userWallet": "Input parameters for user wallet"
        },
        "returns": {
          "ok": "a boolean value indicating whether the operation succeeded. Emits a {TransferStatusChanged} event with the current status of the transfer."
        }
      },
      "owner()": {
        "details": "Returns the address of the current owner."
      },
      "renounceOwnership()": {
        "details": "Leaves the contract without owner. It will not be possible to call `onlyOwner` functions anymore. Can only be called by the current owner. NOTE: Renouncing ownership will leave the contract without an owner, thereby removing any functionality that is only available to the owner."
      },
      "transferOwnership(address)": {
        "details": "Transfers ownership of the contract to a new account (`newOwner`). Can only be called by the current owner."
      }
    },
    "version": 1
  },
  "userdoc": {
    "kind": "user",
    "methods": {
      "initializeTransfer(string,address,uint256)": {
        "notice": "Iinitialise a transfer of an amount of EUReFirst Step: On-Ramp:1- Transfer EURe from user's wallet2- Wrap EURe to jEUR (Jarvis wrapper)3- Get jEUR/USDC Rate (Aggregator Chainlink)4- Redeem USDC from jEUR (Jarvis Redeem)Secod Step: Calculate 1,9% of feesThird Step: Off-Ramp: Using HUB2if any error: Sent money to users wallet back"
      },
      "remittanceStatus(string)": {
        "notice": "Returns the current status of a specific remmitance."
      }
    },
    "version": 1
  }
}