{
  "contractName": "BlockSendRouter",
  "abi": [
    {
      "inputs": [
        {
          "internalType": "address",
          "name": "_blocksSendTokenAdress",
          "type": "address"
        }
      ],
      "stateMutability": "nonpayable",
      "type": "constructor"
    },
    {
      "anonymous": false,
      "inputs": [
        {
          "indexed": false,
          "internalType": "address",
          "name": "user",
          "type": "address"
        },
        {
          "indexed": false,
          "internalType": "uint256",
          "name": "tokenAmount",
          "type": "uint256"
        }
      ],
      "name": "ClaimTransferRewardEvent",
      "type": "event"
    },
    {
      "anonymous": false,
      "inputs": [
        {
          "indexed": true,
          "internalType": "address",
          "name": "previousOwner",
          "type": "address"
        },
        {
          "indexed": true,
          "internalType": "address",
          "name": "newOwner",
          "type": "address"
        }
      ],
      "name": "OwnershipTransferred",
      "type": "event"
    },
    {
      "anonymous": false,
      "inputs": [
        {
          "indexed": false,
          "internalType": "string",
          "name": "transferId",
          "type": "string"
        },
        {
          "indexed": false,
          "internalType": "uint256",
          "name": "userAmount",
          "type": "uint256"
        },
        {
          "indexed": false,
          "internalType": "uint256",
          "name": "blocksendAmount",
          "type": "uint256"
        }
      ],
      "name": "TransferFinalized",
      "type": "event"
    },
    {
      "anonymous": false,
      "inputs": [
        {
          "indexed": false,
          "internalType": "string",
          "name": "transferId",
          "type": "string"
        },
        {
          "indexed": false,
          "internalType": "uint256",
          "name": "amount",
          "type": "uint256"
        }
      ],
      "name": "TransferInitilized",
      "type": "event"
    },
    {
      "anonymous": false,
      "inputs": [
        {
          "indexed": false,
          "internalType": "string",
          "name": "transferId",
          "type": "string"
        },
        {
          "indexed": false,
          "internalType": "enum BlockSendRouter.TransferStatus",
          "name": "currentStatus",
          "type": "uint8"
        },
        {
          "indexed": false,
          "internalType": "string",
          "name": "errorMsg",
          "type": "string"
        }
      ],
      "name": "TransferStatusChanged",
      "type": "event"
    },
    {
      "inputs": [],
      "name": "owner",
      "outputs": [
        {
          "internalType": "address",
          "name": "",
          "type": "address"
        }
      ],
      "stateMutability": "view",
      "type": "function"
    },
    {
      "inputs": [],
      "name": "renounceOwnership",
      "outputs": [],
      "stateMutability": "nonpayable",
      "type": "function"
    },
    {
      "inputs": [
        {
          "internalType": "address",
          "name": "newOwner",
          "type": "address"
        }
      ],
      "name": "transferOwnership",
      "outputs": [],
      "stateMutability": "nonpayable",
      "type": "function"
    },
    {
      "inputs": [
        {
          "internalType": "string",
          "name": "",
          "type": "string"
        }
      ],
      "name": "transfers",
      "outputs": [
        {
          "internalType": "address",
          "name": "sender",
          "type": "address"
        },
        {
          "internalType": "uint256",
          "name": "amount_EURe",
          "type": "uint256"
        },
        {
          "internalType": "uint256",
          "name": "amount_jEUR",
          "type": "uint256"
        },
        {
          "internalType": "uint256",
          "name": "amount_USDC",
          "type": "uint256"
        },
        {
          "internalType": "uint256",
          "name": "userAmount_USDC",
          "type": "uint256"
        },
        {
          "internalType": "uint256",
          "name": "blocksendAmount_USDC",
          "type": "uint256"
        },
        {
          "internalType": "enum BlockSendRouter.TransferStatus",
          "name": "status",
          "type": "uint8"
        }
      ],
      "stateMutability": "view",
      "type": "function"
    },
    {
      "inputs": [
        {
          "internalType": "string",
          "name": "transferId",
          "type": "string"
        },
        {
          "internalType": "address",
          "name": "userWallet",
          "type": "address"
        },
        {
          "internalType": "uint256",
          "name": "amount",
          "type": "uint256"
        }
      ],
      "name": "initializeTransfer",
      "outputs": [
        {
          "internalType": "bool",
          "name": "ok",
          "type": "bool"
        }
      ],
      "stateMutability": "nonpayable",
      "type": "function"
    },
    {
      "inputs": [],
      "name": "getMyTranferRewardsBalance",
      "outputs": [
        {
          "internalType": "uint256",
          "name": "",
          "type": "uint256"
        }
      ],
      "stateMutability": "view",
      "type": "function"
    },
    {
      "inputs": [],
      "name": "claimTransferRewards",
      "outputs": [],
      "stateMutability": "nonpayable",
      "type": "function"
    },
    {
      "inputs": [
        {
          "internalType": "string",
          "name": "transferId",
          "type": "string"
        }
      ],
      "name": "remittanceStatus",
      "outputs": [
        {
          "internalType": "enum BlockSendRouter.TransferStatus",
          "name": "",
          "type": "uint8"
        }
      ],
      "stateMutability": "view",
      "type": "function"
    },
    {
      "inputs": [
        {
          "internalType": "address",
          "name": "newAddress",
          "type": "address"
        }
      ],
      "name": "setWrapperContract",
      "outputs": [],
      "stateMutability": "nonpayable",
      "type": "function"
    },
    {
      "inputs": [
        {
          "internalType": "address",
          "name": "newAddress",
          "type": "address"
        }
      ],
      "name": "setSyntheriumContract",
      "outputs": [],
      "stateMutability": "nonpayable",
      "type": "function"
    },
    {
      "inputs": [
        {
          "internalType": "address",
          "name": "newAddress",
          "type": "address"
        }
      ],
      "name": "setEURETokenContract",
      "outputs": [],
      "stateMutability": "nonpayable",
      "type": "function"
    },
    {
      "inputs": [
        {
          "internalType": "address",
          "name": "newAddress",
          "type": "address"
        }
      ],
      "name": "setJEURToken_Contract",
      "outputs": [],
      "stateMutability": "nonpayable",
      "type": "function"
    },
    {
      "inputs": [
        {
          "internalType": "address",
          "name": "newAddress",
          "type": "address"
        }
      ],
      "name": "setBKSDTokenContract",
      "outputs": [],
      "stateMutability": "nonpayable",
      "type": "function"
    },
    {
      "inputs": [
        {
          "internalType": "address",
          "name": "newAddress",
          "type": "address"
        }
      ],
      "name": "setUSDCTokenContract",
      "outputs": [],
      "stateMutability": "nonpayable",
      "type": "function"
    },
    {
      "inputs": [
        {
          "internalType": "address",
          "name": "newAddress",
          "type": "address"
        }
      ],
      "name": "setEUR_USD_Aggregator",
      "outputs": [],
      "stateMutability": "nonpayable",
      "type": "function"
    },
    {
      "inputs": [
        {
          "internalType": "address",
          "name": "newAddress",
          "type": "address"
        }
      ],
      "name": "setHUB2Wallet",
      "outputs": [],
      "stateMutability": "nonpayable",
      "type": "function"
    },
    {
      "inputs": [
        {
          "internalType": "address",
          "name": "newAddress",
          "type": "address"
        }
      ],
      "name": "setBlockSend_Wallet",
      "outputs": [],
      "stateMutability": "nonpayable",
      "type": "function"
    },
    {
      "inputs": [
        {
          "internalType": "address",
          "name": "_addr",
          "type": "address"
        }
      ],
      "name": "AllowAddress",
      "outputs": [],
      "stateMutability": "nonpayable",
      "type": "function"
    },
    {
      "inputs": [],
      "name": "getLatestPrice",
      "outputs": [
        {
          "internalType": "uint256",
          "name": "",
          "type": "uint256"
        }
      ],
      "stateMutability": "view",
      "type": "function"
    }
  ],
  "bytecode": "0x608060405273b07cb016440331be4d2f532b20d892a420476ad0600960006101000a81548173ffffffffffffffffffffffffffffffffffffffff021916908373ffffffffffffffffffffffffffffffffffffffff1602179055507365a7b4ff684c2d08c115d55a4b089bf4e92f5003600a60006101000a81548173ffffffffffffffffffffffffffffffffffffffff021916908373ffffffffffffffffffffffffffffffffffffffff1602179055507318ec0a6e18e5bc3784fdd3a3634b31245ab704f6600b60006101000a81548173ffffffffffffffffffffffffffffffffffffffff021916908373ffffffffffffffffffffffffffffffffffffffff160217905550734e3decbb3645551b8a19f0ea1678079fcb33fb4c600c60006101000a81548173ffffffffffffffffffffffffffffffffffffffff021916908373ffffffffffffffffffffffffffffffffffffffff160217905550732791bca1f2de4661ed88a30c99a7a9449aa84174600d60006101000a81548173ffffffffffffffffffffffffffffffffffffffff021916908373ffffffffffffffffffffffffffffffffffffffff160217905550734e3decbb3645551b8a19f0ea1678079fcb33fb4c600e60006101000a81548173ffffffffffffffffffffffffffffffffffffffff021916908373ffffffffffffffffffffffffffffffffffffffff1602179055507373366fe0aa0ded304479862808e02506fe556a98600f60006101000a81548173ffffffffffffffffffffffffffffffffffffffff021916908373ffffffffffffffffffffffffffffffffffffffff16021790555073ed85caeb52c34bd35dfeeb2d4e0bc936a0db0923601060006101000a81548173ffffffffffffffffffffffffffffffffffffffff021916908373ffffffffffffffffffffffffffffffffffffffff16021790555073913cd67da3b17be7f66e865158cdf9a5c4f2a850601160006101000a81548173ffffffffffffffffffffffffffffffffffffffff021916908373ffffffffffffffffffffffffffffffffffffffff160217905550737f3ee84fd13d815ff1005b7904cd67084d8f353f601260006101000a81548173ffffffffffffffffffffffffffffffffffffffff021916908373ffffffffffffffffffffffffffffffffffffffff1602179055503480156200036357600080fd5b50604051620032fa380380620032fa8339818101604052810190620003899190620007f3565b620003a96200039d620006bd60201b60201c565b620006c560201b60201c565b600160146000601160009054906101000a900473ffffffffffffffffffffffffffffffffffffffff1673ffffffffffffffffffffffffffffffffffffffff1673ffffffffffffffffffffffffffffffffffffffff16815260200190815260200160002060006101000a81548160ff021916908315150217905550600960009054906101000a900473ffffffffffffffffffffffffffffffffffffffff16600260006101000a81548173ffffffffffffffffffffffffffffffffffffffff021916908373ffffffffffffffffffffffffffffffffffffffff160217905550600a60009054906101000a900473ffffffffffffffffffffffffffffffffffffffff16600360006101000a81548173ffffffffffffffffffffffffffffffffffffffff021916908373ffffffffffffffffffffffffffffffffffffffff160217905550600b60009054906101000a900473ffffffffffffffffffffffffffffffffffffffff16600460006101000a81548173ffffffffffffffffffffffffffffffffffffffff021916908373ffffffffffffffffffffffffffffffffffffffff160217905550600c60009054906101000a900473ffffffffffffffffffffffffffffffffffffffff16600560006101000a81548173ffffffffffffffffffffffffffffffffffffffff021916908373ffffffffffffffffffffffffffffffffffffffff160217905550600d60009054906101000a900473ffffffffffffffffffffffffffffffffffffffff16600660006101000a81548173ffffffffffffffffffffffffffffffffffffffff021916908373ffffffffffffffffffffffffffffffffffffffff160217905550600f60009054906101000a900473ffffffffffffffffffffffffffffffffffffffff16600160006101000a81548173ffffffffffffffffffffffffffffffffffffffff021916908373ffffffffffffffffffffffffffffffffffffffff16021790555080600760006101000a81548173ffffffffffffffffffffffffffffffffffffffff021916908373ffffffffffffffffffffffffffffffffffffffff1602179055505062000825565b600033905090565b60008060009054906101000a900473ffffffffffffffffffffffffffffffffffffffff169050816000806101000a81548173ffffffffffffffffffffffffffffffffffffffff021916908373ffffffffffffffffffffffffffffffffffffffff1602179055508173ffffffffffffffffffffffffffffffffffffffff168173ffffffffffffffffffffffffffffffffffffffff167f8be0079c531659141344cd1fd0a4f28419497f9722a3daafe3b4186f6b6457e060405160405180910390a35050565b600080fd5b600073ffffffffffffffffffffffffffffffffffffffff82169050919050565b6000620007bb826200078e565b9050919050565b620007cd81620007ae565b8114620007d957600080fd5b50565b600081519050620007ed81620007c2565b92915050565b6000602082840312156200080c576200080b62000789565b5b60006200081c84828501620007dc565b91505092915050565b612ac580620008356000396000f3fe608060405234801561001057600080fd5b50600436106101215760003560e01c80634e558127116100ad5780638e15f473116100715780638e15f473146102d0578063ea45efbf146102ee578063eead6fd81461030a578063f11283a214610326578063f2fde38b1461034257610121565b80634e5581271461024c5780635aeee3f014610268578063715018a61461027257806384a1c2331461027c5780638da5cb5b146102b257610121565b806329183968116100f457806329183968146101aa578063335bafa2146101c8578063381ea9c5146101e457806343dafdbe146102005780634b8cc80d1461021c57610121565b806312ee45b71461012657806314c2ce58146101425780631dfe08191461015e57806325a976051461018e575b600080fd5b610140600480360381019061013b9190611d7d565b61035e565b005b61015c60048036038101906101579190611d7d565b61040d565b005b61017860048036038101906101739190611e45565b610459565b6040516101859190611ed4565b60405180910390f35b6101a860048036038101906101a39190611d7d565b6106e2565b005b6101b2610791565b6040516101bf9190611efe565b60405180910390f35b6101e260048036038101906101dd9190611d7d565b6107d8565b005b6101fe60048036038101906101f99190611d7d565b610887565b005b61021a60048036038101906102159190611d7d565b6108d3565b005b61023660048036038101906102319190611f19565b61091f565b6040516102439190611fdd565b60405180910390f35b61026660048036038101906102619190611d7d565b61095a565b005b610270610a09565b005b61027a610b5d565b005b61029660048036038101906102919190612139565b610b71565b6040516102a99796959493929190612191565b60405180910390f35b6102ba610bf6565b6040516102c79190612200565b60405180910390f35b6102d8610c1f565b6040516102e59190611efe565b60405180910390f35b61030860048036038101906103039190611d7d565b610ccd565b005b610324600480360381019061031f9190611d7d565b610d7c565b005b610340600480360381019061033b9190611d7d565b610e2b565b005b61035c60048036038101906103579190611d7d565b610e8e565b005b610366610f11565b80600f60006101000a81548173ffffffffffffffffffffffffffffffffffffffff021916908373ffffffffffffffffffffffffffffffffffffffff160217905550600f60009054906101000a900473ffffffffffffffffffffffffffffffffffffffff16600160006101000a81548173ffffffffffffffffffffffffffffffffffffffff021916908373ffffffffffffffffffffffffffffffffffffffff16021790555050565b610415610f11565b80600760006101000a81548173ffffffffffffffffffffffffffffffffffffffff021916908373ffffffffffffffffffffffffffffffffffffffff16021790555050565b6000601460003373ffffffffffffffffffffffffffffffffffffffff1673ffffffffffffffffffffffffffffffffffffffff16815260200190815260200160002060009054906101000a900460ff166104e7576040517f08c379a00000000000000000000000000000000000000000000000000000000081526004016104de9061229e565b60405180910390fd5b6104f385858585610f8f565b600282610500919061231c565b600860008573ffffffffffffffffffffffffffffffffffffffff1673ffffffffffffffffffffffffffffffffffffffff168152602001908152602001600020600082825461054e919061234d565b9250508190555060006105638686868661107e565b905080610591576105868686868660405180602001604052806000815250611137565b5060009150506106da565b6000806105a08888878861126e565b915091508115806105b15750600081145b156105df576105d28888888860405180602001604052806000815250611137565b50600093505050506106da565b60006105e9610c1f565b90506000678ac7230489e80000828461060291906123a3565b61060c919061231c565b90506000806000806106208e8e89886113eb565b9350935093509350831580610633575082155b8061063e5750600082145b806106495750600081145b1561067d5761066a8e8e8e8e60405180602001604052806000815250611137565b50600099505050505050505050506106da565b600061068a8f8f8561167c565b9050806106c1576106ad8f8f8f8f60405180602001604052806000815250611137565b5060009a50505050505050505050506106da565b6106cb8f8f61183d565b60019a50505050505050505050505b949350505050565b6106ea610f11565b80600b60006101000a81548173ffffffffffffffffffffffffffffffffffffffff021916908373ffffffffffffffffffffffffffffffffffffffff160217905550600b60009054906101000a900473ffffffffffffffffffffffffffffffffffffffff16600460006101000a81548173ffffffffffffffffffffffffffffffffffffffff021916908373ffffffffffffffffffffffffffffffffffffffff16021790555050565b6000600860003373ffffffffffffffffffffffffffffffffffffffff1673ffffffffffffffffffffffffffffffffffffffff16815260200190815260200160002054905090565b6107e0610f11565b80600a60006101000a81548173ffffffffffffffffffffffffffffffffffffffff021916908373ffffffffffffffffffffffffffffffffffffffff160217905550600a60009054906101000a900473ffffffffffffffffffffffffffffffffffffffff16600360006101000a81548173ffffffffffffffffffffffffffffffffffffffff021916908373ffffffffffffffffffffffffffffffffffffffff16021790555050565b61088f610f11565b80601060006101000a81548173ffffffffffffffffffffffffffffffffffffffff021916908373ffffffffffffffffffffffffffffffffffffffff16021790555050565b6108db610f11565b80601260006101000a81548173ffffffffffffffffffffffffffffffffffffffff021916908373ffffffffffffffffffffffffffffffffffffffff16021790555050565b60006013838360405161093392919061242d565b908152602001604051809103902060060160009054906101000a900460ff16905092915050565b610962610f11565b80600960006101000a81548173ffffffffffffffffffffffffffffffffffffffff021916908373ffffffffffffffffffffffffffffffffffffffff160217905550600960009054906101000a900473ffffffffffffffffffffffffffffffffffffffff16600260006101000a81548173ffffffffffffffffffffffffffffffffffffffff021916908373ffffffffffffffffffffffffffffffffffffffff16021790555050565b6000600860003373ffffffffffffffffffffffffffffffffffffffff1673ffffffffffffffffffffffffffffffffffffffff1681526020019081526020016000205490506000600860003373ffffffffffffffffffffffffffffffffffffffff1673ffffffffffffffffffffffffffffffffffffffff16815260200190815260200160002081905550600760009054906101000a900473ffffffffffffffffffffffffffffffffffffffff1673ffffffffffffffffffffffffffffffffffffffff166340c10f1933836040518363ffffffff1660e01b8152600401610aef929190612446565b600060405180830381600087803b158015610b0957600080fd5b505af1158015610b1d573d6000803e3d6000fd5b505050507f58cc09a5cd7d0483d99e31e50feb38f39841b055573f462989aea4ad8783c6da3382604051610b52929190612446565b60405180910390a150565b610b65610f11565b610b6f6000611910565b565b6013818051602081018201805184825260208301602085012081835280955050505050506000915090508060000160009054906101000a900473ffffffffffffffffffffffffffffffffffffffff16908060010154908060020154908060030154908060040154908060050154908060060160009054906101000a900460ff16905087565b60008060009054906101000a900473ffffffffffffffffffffffffffffffffffffffff16905090565b600080600160009054906101000a900473ffffffffffffffffffffffffffffffffffffffff1673ffffffffffffffffffffffffffffffffffffffff1663feaf968c6040518163ffffffff1660e01b815260040160a060405180830381865afa158015610c8f573d6000803e3d6000fd5b505050506040513d601f19601f82011682018060405250810190610cb391906124fc565b5050509150506103e881610cc79190612577565b91505090565b610cd5610f11565b80600c60006101000a81548173ffffffffffffffffffffffffffffffffffffffff021916908373ffffffffffffffffffffffffffffffffffffffff160217905550600c60009054906101000a900473ffffffffffffffffffffffffffffffffffffffff16600560006101000a81548173ffffffffffffffffffffffffffffffffffffffff021916908373ffffffffffffffffffffffffffffffffffffffff16021790555050565b610d84610f11565b80600d60006101000a81548173ffffffffffffffffffffffffffffffffffffffff021916908373ffffffffffffffffffffffffffffffffffffffff160217905550600d60009054906101000a900473ffffffffffffffffffffffffffffffffffffffff16600660006101000a81548173ffffffffffffffffffffffffffffffffffffffff021916908373ffffffffffffffffffffffffffffffffffffffff16021790555050565b610e33610f11565b6001601460008373ffffffffffffffffffffffffffffffffffffffff1673ffffffffffffffffffffffffffffffffffffffff16815260200190815260200160002060006101000a81548160ff02191690831515021790555050565b610e96610f11565b600073ffffffffffffffffffffffffffffffffffffffff168173ffffffffffffffffffffffffffffffffffffffff1603610f05576040517f08c379a0000000000000000000000000000000000000000000000000000000008152600401610efc90612653565b60405180910390fd5b610f0e81611910565b50565b610f196119d4565b73ffffffffffffffffffffffffffffffffffffffff16610f37610bf6565b73ffffffffffffffffffffffffffffffffffffffff1614610f8d576040517f08c379a0000000000000000000000000000000000000000000000000000000008152600401610f84906126bf565b60405180910390fd5b565b8160138585604051610fa292919061242d565b908152602001604051809103902060000160006101000a81548173ffffffffffffffffffffffffffffffffffffffff021916908373ffffffffffffffffffffffffffffffffffffffff16021790555060006013858560405161100592919061242d565b908152602001604051809103902060060160006101000a81548160ff0219169083600681111561103857611037611f66565b5b02179055507f9f99091afbc24bd9abfd7adca3533b5457ad5307a86351e337bcee2fb1f364de8484836040516110709392919061270c565b60405180910390a150505050565b6000600460009054906101000a900473ffffffffffffffffffffffffffffffffffffffff1673ffffffffffffffffffffffffffffffffffffffff166323b872dd8430856040518463ffffffff1660e01b81526004016110df9392919061273e565b6020604051808303816000875af11580156110fe573d6000803e3d6000fd5b505050506040513d601f19601f8201168201806040525081019061112291906127a1565b905061112f8585846119dc565b949350505050565b600060066013878760405161114d92919061242d565b908152602001604051809103902060060160006101000a81548160ff021916908360068111156111805761117f611f66565b5b0217905550600460009054906101000a900473ffffffffffffffffffffffffffffffffffffffff1673ffffffffffffffffffffffffffffffffffffffff1663a9059cbb85856040518363ffffffff1660e01b81526004016111e2929190612446565b6020604051808303816000875af1158015611201573d6000803e3d6000fd5b505050506040513d601f19601f8201168201806040525081019061122591906127a1565b90507fb77f853b6da055bd331fe04b2ad64875bc05489c96278fc68860d6b4305f8dce868660068560405161125d9493929190612845565b60405180910390a195945050505050565b600080600460009054906101000a900473ffffffffffffffffffffffffffffffffffffffff1673ffffffffffffffffffffffffffffffffffffffff1663095ea7b3600960009054906101000a900473ffffffffffffffffffffffffffffffffffffffff16866040518363ffffffff1660e01b81526004016112f0929190612446565b6020604051808303816000875af115801561130f573d6000803e3d6000fd5b505050506040513d601f19601f8201168201806040525081019061133391906127a1565b9150600260009054906101000a900473ffffffffffffffffffffffffffffffffffffffff1673ffffffffffffffffffffffffffffffffffffffff166313bac82084306040518363ffffffff1660e01b815260040161139292919061288c565b6020604051808303816000875af11580156113b1573d6000803e3d6000fd5b505050506040513d601f19601f820116820180604052508101906113d591906128b5565b90506113e2868683611a91565b94509492505050565b600080600080600560009054906101000a900473ffffffffffffffffffffffffffffffffffffffff1673ffffffffffffffffffffffffffffffffffffffff1663095ea7b3600a60009054906101000a900473ffffffffffffffffffffffffffffffffffffffff16886040518363ffffffff1660e01b8152600401611470929190612446565b6020604051808303816000875af115801561148f573d6000803e3d6000fd5b505050506040513d601f19601f820116820180604052508101906114b391906127a1565b9350600660009054906101000a900473ffffffffffffffffffffffffffffffffffffffff1673ffffffffffffffffffffffffffffffffffffffff1663095ea7b3600a60009054906101000a900473ffffffffffffffffffffffffffffffffffffffff16876040518363ffffffff1660e01b8152600401611534929190612446565b6020604051808303816000875af1158015611553573d6000803e3d6000fd5b505050506040513d601f19601f8201168201806040525081019061157791906127a1565b925060006040518060800160405280888152602001878152602001601e4261159f919061234d565b81526020013073ffffffffffffffffffffffffffffffffffffffff168152509050600360009054906101000a900473ffffffffffffffffffffffffffffffffffffffff1673ffffffffffffffffffffffffffffffffffffffff1663525e6b11826040518263ffffffff1660e01b815260040161161b9190612955565b60408051808303816000875af1158015611639573d6000803e3d6000fd5b505050506040513d601f19601f8201168201806040525081019061165d9190612970565b8093508194505050611670898985611b46565b50945094509450949050565b600080600061168a84611bfb565b915091506000600660009054906101000a900473ffffffffffffffffffffffffffffffffffffffff1673ffffffffffffffffffffffffffffffffffffffff1663a9059cbb601260009054906101000a900473ffffffffffffffffffffffffffffffffffffffff16856040518363ffffffff1660e01b815260040161170f929190612446565b6020604051808303816000875af115801561172e573d6000803e3d6000fd5b505050506040513d601f19601f8201168201806040525081019061175291906127a1565b90506000600660009054906101000a900473ffffffffffffffffffffffffffffffffffffffff1673ffffffffffffffffffffffffffffffffffffffff1663a9059cbb601060009054906101000a900473ffffffffffffffffffffffffffffffffffffffff16856040518363ffffffff1660e01b81526004016117d5929190612446565b6020604051808303816000875af11580156117f4573d6000803e3d6000fd5b505050506040513d601f19601f8201168201806040525081019061181891906127a1565b905061182688888587611c2d565b8080156118305750815b9450505050509392505050565b60056013838360405161185192919061242d565b908152602001604051809103902060060160006101000a81548160ff0219169083600681111561188457611883611f66565b5b02179055507fb068bfa73b9623ba0d319b003df0377fa326e109678625e7ad23230855b856b48282601385856040516118be92919061242d565b908152602001604051809103902060040154601386866040516118e292919061242d565b90815260200160405180910390206005015460405161190494939291906129b0565b60405180910390a15050565b60008060009054906101000a900473ffffffffffffffffffffffffffffffffffffffff169050816000806101000a81548173ffffffffffffffffffffffffffffffffffffffff021916908373ffffffffffffffffffffffffffffffffffffffff1602179055508173ffffffffffffffffffffffffffffffffffffffff168173ffffffffffffffffffffffffffffffffffffffff167f8be0079c531659141344cd1fd0a4f28419497f9722a3daafe3b4186f6b6457e060405160405180910390a35050565b600033905090565b6001601384846040516119f092919061242d565b908152602001604051809103902060060160006101000a81548160ff02191690836006811115611a2357611a22611f66565b5b02179055508060138484604051611a3b92919061242d565b9081526020016040518091039020600101819055507fb77f853b6da055bd331fe04b2ad64875bc05489c96278fc68860d6b4305f8dce83836001604051611a8493929190612a16565b60405180910390a1505050565b600260138484604051611aa592919061242d565b908152602001604051809103902060060160006101000a81548160ff02191690836006811115611ad857611ad7611f66565b5b02179055508060138484604051611af092919061242d565b9081526020016040518091039020600201819055507fb77f853b6da055bd331fe04b2ad64875bc05489c96278fc68860d6b4305f8dce83836002604051611b3993929190612a16565b60405180910390a1505050565b600360138484604051611b5a92919061242d565b908152602001604051809103902060060160006101000a81548160ff02191690836006811115611b8d57611b8c611f66565b5b02179055508060138484604051611ba592919061242d565b9081526020016040518091039020600301819055507fb77f853b6da055bd331fe04b2ad64875bc05489c96278fc68860d6b4305f8dce83836003604051611bee93929190612a16565b60405180910390a1505050565b6000806103e8601384611c0e91906123a3565b611c18919061231c565b91508183611c269190612a5b565b9050915091565b600460138585604051611c4192919061242d565b908152602001604051809103902060060160006101000a81548160ff02191690836006811115611c7457611c73611f66565b5b02179055508160138585604051611c8c92919061242d565b9081526020016040518091039020600401819055508060138585604051611cb492919061242d565b9081526020016040518091039020600501819055507fb77f853b6da055bd331fe04b2ad64875bc05489c96278fc68860d6b4305f8dce84846004604051611cfd93929190612a16565b60405180910390a150505050565b6000604051905090565b600080fd5b600080fd5b600073ffffffffffffffffffffffffffffffffffffffff82169050919050565b6000611d4a82611d1f565b9050919050565b611d5a81611d3f565b8114611d6557600080fd5b50565b600081359050611d7781611d51565b92915050565b600060208284031215611d9357611d92611d15565b5b6000611da184828501611d68565b91505092915050565b600080fd5b600080fd5b600080fd5b60008083601f840112611dcf57611dce611daa565b5b8235905067ffffffffffffffff811115611dec57611deb611daf565b5b602083019150836001820283011115611e0857611e07611db4565b5b9250929050565b6000819050919050565b611e2281611e0f565b8114611e2d57600080fd5b50565b600081359050611e3f81611e19565b92915050565b60008060008060608587031215611e5f57611e5e611d15565b5b600085013567ffffffffffffffff811115611e7d57611e7c611d1a565b5b611e8987828801611db9565b94509450506020611e9c87828801611d68565b9250506040611ead87828801611e30565b91505092959194509250565b60008115159050919050565b611ece81611eb9565b82525050565b6000602082019050611ee96000830184611ec5565b92915050565b611ef881611e0f565b82525050565b6000602082019050611f136000830184611eef565b92915050565b60008060208385031215611f3057611f2f611d15565b5b600083013567ffffffffffffffff811115611f4e57611f4d611d1a565b5b611f5a85828601611db9565b92509250509250929050565b7f4e487b7100000000000000000000000000000000000000000000000000000000600052602160045260246000fd5b60078110611fa657611fa5611f66565b5b50565b6000819050611fb782611f95565b919050565b6000611fc782611fa9565b9050919050565b611fd781611fbc565b82525050565b6000602082019050611ff26000830184611fce565b92915050565b600080fd5b6000601f19601f8301169050919050565b7f4e487b7100000000000000000000000000000000000000000000000000000000600052604160045260246000fd5b61204682611ffd565b810181811067ffffffffffffffff821117156120655761206461200e565b5b80604052505050565b6000612078611d0b565b9050612084828261203d565b919050565b600067ffffffffffffffff8211156120a4576120a361200e565b5b6120ad82611ffd565b9050602081019050919050565b82818337600083830152505050565b60006120dc6120d784612089565b61206e565b9050828152602081018484840111156120f8576120f7611ff8565b5b6121038482856120ba565b509392505050565b600082601f8301126121205761211f611daa565b5b81356121308482602086016120c9565b91505092915050565b60006020828403121561214f5761214e611d15565b5b600082013567ffffffffffffffff81111561216d5761216c611d1a565b5b6121798482850161210b565b91505092915050565b61218b81611d3f565b82525050565b600060e0820190506121a6600083018a612182565b6121b36020830189611eef565b6121c06040830188611eef565b6121cd6060830187611eef565b6121da6080830186611eef565b6121e760a0830185611eef565b6121f460c0830184611fce565b98975050505050505050565b60006020820190506122156000830184612182565b92915050565b600082825260208201905092915050565b7f596f7527726520616c6c6f77656420746f20696e69746961746520612074726160008201527f6e73666572000000000000000000000000000000000000000000000000000000602082015250565b600061228860258361221b565b91506122938261222c565b604082019050919050565b600060208201905081810360008301526122b78161227b565b9050919050565b7f4e487b7100000000000000000000000000000000000000000000000000000000600052601260045260246000fd5b7f4e487b7100000000000000000000000000000000000000000000000000000000600052601160045260246000fd5b600061232782611e0f565b915061233283611e0f565b925082612342576123416122be565b5b828204905092915050565b600061235882611e0f565b915061236383611e0f565b9250827fffffffffffffffffffffffffffffffffffffffffffffffffffffffffffffffff03821115612398576123976122ed565b5b828201905092915050565b60006123ae82611e0f565b91506123b983611e0f565b9250817fffffffffffffffffffffffffffffffffffffffffffffffffffffffffffffffff04831182151516156123f2576123f16122ed565b5b828202905092915050565b600081905092915050565b600061241483856123fd565b93506124218385846120ba565b82840190509392505050565b600061243a828486612408565b91508190509392505050565b600060408201905061245b6000830185612182565b6124686020830184611eef565b9392505050565b600069ffffffffffffffffffff82169050919050565b61248e8161246f565b811461249957600080fd5b50565b6000815190506124ab81612485565b92915050565b6000819050919050565b6124c4816124b1565b81146124cf57600080fd5b50565b6000815190506124e1816124bb565b92915050565b6000815190506124f681611e19565b92915050565b600080600080600060a0868803121561251857612517611d15565b5b60006125268882890161249c565b9550506020612537888289016124d2565b9450506040612548888289016124e7565b9350506060612559888289016124e7565b925050608061256a8882890161249c565b9150509295509295909350565b6000612582826124b1565b915061258d836124b1565b92508261259d5761259c6122be565b5b600160000383147f8000000000000000000000000000000000000000000000000000000000000000831416156125d6576125d56122ed565b5b828205905092915050565b7f4f776e61626c653a206e6577206f776e657220697320746865207a65726f206160008201527f6464726573730000000000000000000000000000000000000000000000000000602082015250565b600061263d60268361221b565b9150612648826125e1565b604082019050919050565b6000602082019050818103600083015261266c81612630565b9050919050565b7f4f776e61626c653a2063616c6c6572206973206e6f7420746865206f776e6572600082015250565b60006126a960208361221b565b91506126b482612673565b602082019050919050565b600060208201905081810360008301526126d88161269c565b9050919050565b60006126eb838561221b565b93506126f88385846120ba565b61270183611ffd565b840190509392505050565b600060408201905081810360008301526127278185876126df565b90506127366020830184611eef565b949350505050565b60006060820190506127536000830186612182565b6127606020830185612182565b61276d6040830184611eef565b949350505050565b61277e81611eb9565b811461278957600080fd5b50565b60008151905061279b81612775565b92915050565b6000602082840312156127b7576127b6611d15565b5b60006127c58482850161278c565b91505092915050565b600081519050919050565b60005b838110156127f75780820151818401526020810190506127dc565b83811115612806576000848401525b50505050565b6000612817826127ce565b612821818561221b565b93506128318185602086016127d9565b61283a81611ffd565b840191505092915050565b600060608201905081810360008301526128608186886126df565b905061286f6020830185611fce565b8181036040830152612881818461280c565b905095945050505050565b60006040820190506128a16000830185611eef565b6128ae6020830184612182565b9392505050565b6000602082840312156128cb576128ca611d15565b5b60006128d9848285016124e7565b91505092915050565b6128eb81611e0f565b82525050565b6128fa81611d3f565b82525050565b60808201600082015161291660008501826128e2565b50602082015161292960208501826128e2565b50604082015161293c60408501826128e2565b50606082015161294f60608501826128f1565b50505050565b600060808201905061296a6000830184612900565b92915050565b6000806040838503121561298757612986611d15565b5b6000612995858286016124e7565b92505060206129a6858286016124e7565b9150509250929050565b600060608201905081810360008301526129cb8186886126df565b90506129da6020830185611eef565b6129e76040830184611eef565b95945050505050565b50565b6000612a0060008361221b565b9150612a0b826129f0565b600082019050919050565b60006060820190508181036000830152612a318185876126df565b9050612a406020830184611fce565b8181036040830152612a51816129f3565b9050949350505050565b6000612a6682611e0f565b9150612a7183611e0f565b925082821015612a8457612a836122ed565b5b82820390509291505056fea2646970667358221220f9d145338be9d8165b320e1e67c86299d14e9b0bfb1ea41ec3a61cfe24f03cb764736f6c634300080e0033",
  "immutableReferences": {},
  "source": "// SPDX-License-Identifier: MIT\npragma solidity ^0.8.9;\n\nimport \"../node_modules/@chainlink/contracts/src/v0.8/interfaces/AggregatorV3Interface.sol\";\nimport \"../node_modules/@openzeppelin/contracts/access/Ownable.sol\";\nimport \"../node_modules/@openzeppelin/contracts/token/ERC20/IERC20.sol\";\nimport \"./interfaces/IFixedRateWrapper.sol\";\nimport \"./interfaces/ISynthereum.sol\";\nimport \"./BlockSendToken.sol\";\n\ncontract BlockSendRouter is Ownable {\n    AggregatorV3Interface private priceFeed;\n\n    IFixedRateWrapper private jarvisWrapper;\n    ISynthereum private jarvisSynthereum;\n    IERC20 private moneriumEURemoney;\n    IERC20 private jEURToken;\n    IERC20 private USDCToken;\n    BlockSendToken private BKSDToken;\n    mapping(address => uint256) private transferRewardsBalance;\n\n    address private WRAPPER_CONTRACT =\n        0xb07Cb016440331be4D2f532b20d892a420476AD0;\n    address private SYNTHEREUM_CONTRACT =\n        0x65a7b4Ff684C2d08c115D55a4B089bf4E92F5003;\n    address private EURE_TOKEN_CONTRACT =\n        0x18ec0A6E18E5bc3784fDd3a3634b31245ab704F6;\n    address private JEUR_TOKEN_CONTRACT =\n        0x4e3Decbb3645551B8A19f0eA1678079FCB33fB4c;\n    address private USDC_TOKEN_CONTRACT =\n        0x2791Bca1f2de4661ED88A30C99A7a9449Aa84174;\n    address private BKSD_TOKEN_CONTRACT =\n        0x4e3Decbb3645551B8A19f0eA1678079FCB33fB4c; // TODO: change this\n\n    address private EUR_USD_AGGREGATOR =\n        0x73366Fe0AA0Ded304479862808e02506FE556a98;\n    address private HUB2_WALLET = 0xeD85CAeb52C34bD35dfeEB2d4e0bC936a0Db0923;\n    address private BLOCKSEND_BACKEND =\n        0x913Cd67dA3b17be7f66E865158cDF9a5c4F2a850;\n    address private BLOCKSEND_WALLET =\n        0x7f3eE84Fd13D815ff1005B7904Cd67084D8f353F;\n\n    mapping(string => Remittance) public transfers;\n    struct Remittance {\n        address sender;\n        uint256 amount_EURe;\n        uint256 amount_jEUR;\n        uint256 amount_USDC;\n        uint256 userAmount_USDC;\n        uint256 blocksendAmount_USDC;\n        TransferStatus status;\n    }\n\n    enum TransferStatus {\n        INITIALIZED,\n        EURE_RECEIVED,\n        JEUR_WRAPPED,\n        USDC_RECEIVED,\n        USDC_SENT,\n        FINALIZED,\n        TRANSFER_STUCK\n    }\n\n    mapping(address => bool) private allowed;\n\n    event TransferInitilized(string transferId, uint256 amount);\n    event TransferStatusChanged(\n        string transferId,\n        TransferStatus currentStatus,\n        string errorMsg\n    );\n    event TransferFinalized(\n        string transferId,\n        uint256 userAmount,\n        uint256 blocksendAmount\n    );\n    event ClaimTransferRewardEvent(address user, uint256 tokenAmount);\n\n    modifier onlyAllowed() {\n        require(allowed[msg.sender], \"You're allowed to initiate a transfer\");\n        _;\n    }\n\n    constructor(address _blocksSendTokenAdress) {\n        allowed[BLOCKSEND_BACKEND] = true;\n        jarvisWrapper = IFixedRateWrapper(WRAPPER_CONTRACT);\n        jarvisSynthereum = ISynthereum(SYNTHEREUM_CONTRACT);\n        moneriumEURemoney = IERC20(EURE_TOKEN_CONTRACT);\n        jEURToken = IERC20(JEUR_TOKEN_CONTRACT);\n        USDCToken = IERC20(USDC_TOKEN_CONTRACT);\n        priceFeed = AggregatorV3Interface(EUR_USD_AGGREGATOR);\n        BKSDToken = BlockSendToken(_blocksSendTokenAdress);\n    }\n\n    /**\n     * @notice Iinitialise a transfer of an amount of EURe\n     * @notice First Step: On-Ramp:\n     * @notice 1- Transfer EURe from user's wallet\n     * @notice 2- Wrap EURe to jEUR (Jarvis wrapper)\n     * @notice 3- Get jEUR/USDC Rate (Aggregator Chainlink)\n     * @notice 4- Redeem USDC from jEUR (Jarvis Redeem)\n     * @notice Secod Step: Calculate 1,9% of fees\n     * @notice Third Step: Off-Ramp: Using HUB2\n     * @notice if any error: Sent money to users wallet back\n     * @param transferId Input parameters transferId\n     * @param amount Input parameters for for transfered amount\n     * @param userWallet Input parameters for user wallet\n     * @return ok a boolean value indicating whether the operation succeeded.\n     *\n     * Emits a {TransferStatusChanged} event with the current status of the transfer.\n     */\n    function initializeTransfer(\n        string calldata transferId,\n        address userWallet,\n        uint256 amount\n    ) external onlyAllowed returns (bool ok) {\n        initilizeTransferData(transferId, userWallet, amount);\n\n        // TODO: check the minimal amount here\n        // TODO: Remove useless events\n        // TODO: Add a function to expose rate EUR/USDC to the frontend\n        // TODO: Add a function to expose rate USDC/XOF to the frontend\n\n        transferRewardsBalance[userWallet] += amount / 2;\n\n        bool okGetEURe = transferFrom(transferId, userWallet, amount);\n        if (!okGetEURe) {\n            TransferStuck(transferId, userWallet, amount, \"\");\n            return false;\n        }\n\n        (bool okApproveWrap, uint256 amountJEUR) = routage_jEURfromEURe(\n            transferId,\n            amount,\n            amount\n        );\n        if (!okApproveWrap || amountJEUR == 0) {\n            TransferStuck(transferId, userWallet, amount, \"\");\n            return false;\n        }\n\n        uint256 price = getLatestPrice();\n        uint256 collateralUSDC = uint256((amountJEUR * price) / 10e18);\n\n        (\n            bool okApprouveJEUR,\n            bool okApprouveUSDC,\n            uint256 collateralRedeemed,\n            uint256 feePaid\n        ) = routage_USDCfromjEUR(transferId, amountJEUR, collateralUSDC);\n        if (\n            !okApprouveJEUR ||\n            !okApprouveUSDC ||\n            collateralRedeemed == 0 ||\n            feePaid == 0\n        ) {\n            TransferStuck(transferId, userWallet, amount, \"\");\n            return false;\n        }\n\n        bool okTransferWallet = transferUSDC(transferId, collateralRedeemed);\n        if (!okTransferWallet) {\n            TransferStuck(transferId, userWallet, amount, \"\");\n            return false;\n        }\n\n        finalizeTransfer(transferId);\n\n        return true;\n    }\n\n    function getMyTranferRewardsBalance()\n        external\n        view\n        returns (uint256)\n    {\n        return transferRewardsBalance[msg.sender];\n    }\n\n    function claimTransferRewards() external {\n        // TODO: Add a require if necessary to avoid claim small amount of BSKD\n        uint256 amount = transferRewardsBalance[msg.sender];\n        transferRewardsBalance[msg.sender] = 0;\n        BKSDToken.mint(msg.sender, amount);\n        emit ClaimTransferRewardEvent(msg.sender, amount);\n    }\n\n    /**\n     * Returns the current status of a specific remmitance.\n     */\n    function remittanceStatus(string calldata transferId)\n        public\n        view\n        virtual\n        returns (TransferStatus)\n    {\n        return transfers[transferId].status;\n    }\n\n    // *********************** Manage Status changed ************************************\n    function initilizeTransferData(\n        string calldata transferId,\n        address userWallet,\n        uint256 amount\n    ) internal {\n        transfers[transferId].sender = userWallet;\n        transfers[transferId].status = TransferStatus.INITIALIZED;\n\n        emit TransferInitilized(transferId, amount);\n    }\n\n    function finalizeTransfer(string calldata transferId) internal {\n        transfers[transferId].status = TransferStatus.FINALIZED;\n\n        emit TransferFinalized(\n            transferId,\n            transfers[transferId].userAmount_USDC,\n            transfers[transferId].blocksendAmount_USDC\n        );\n    }\n\n    function amountReceived(string calldata transferId, uint256 amount)\n        internal\n    {\n        transfers[transferId].status = TransferStatus.EURE_RECEIVED;\n        transfers[transferId].amount_EURe = amount;\n\n        emit TransferStatusChanged(\n            transferId,\n            TransferStatus.EURE_RECEIVED,\n            \"\"\n        );\n    }\n\n    function amountWrapped(string calldata transferId, uint256 amount)\n        internal\n    {\n        transfers[transferId].status = TransferStatus.JEUR_WRAPPED;\n        transfers[transferId].amount_jEUR = amount;\n\n        emit TransferStatusChanged(transferId, TransferStatus.JEUR_WRAPPED, \"\");\n    }\n\n    function redeemCollateral(string calldata transferId, uint256 collateral)\n        internal\n    {\n        transfers[transferId].status = TransferStatus.USDC_RECEIVED;\n        transfers[transferId].amount_USDC = collateral;\n\n        emit TransferStatusChanged(\n            transferId,\n            TransferStatus.USDC_RECEIVED,\n            \"\"\n        );\n    }\n\n    function collateralSent(\n        string calldata transferId,\n        uint256 userAmount,\n        uint256 blocksendAmount\n    ) internal {\n        transfers[transferId].status = TransferStatus.USDC_SENT;\n        transfers[transferId].userAmount_USDC = userAmount;\n        transfers[transferId].blocksendAmount_USDC = blocksendAmount;\n\n        emit TransferStatusChanged(transferId, TransferStatus.USDC_SENT, \"\");\n    }\n\n    function TransferStuck(\n        string calldata transferId,\n        address userWallet,\n        uint256 amount,\n        string memory errorMsg\n    ) internal returns (bool ok) {\n        transfers[transferId].status = TransferStatus.TRANSFER_STUCK;\n\n        ok = moneriumEURemoney.transfer(userWallet, amount);\n\n        emit TransferStatusChanged(\n            transferId,\n            TransferStatus.TRANSFER_STUCK,\n            errorMsg\n        );\n    }\n\n    // *********************************************************************************\n\n    // *********************** GET EURe from user's wallet *****************************\n    function transferFrom(\n        string calldata transferId,\n        address userWallet,\n        uint256 amount\n    ) internal returns (bool ok) {\n        ok = moneriumEURemoney.transferFrom(userWallet, address(this), amount);\n\n        amountReceived(transferId, amount);\n    }\n\n    // *********************************************************************************\n\n    // *********************** Wrap EURe to JEUR ***************************************\n    function routage_jEURfromEURe(\n        string calldata transferId,\n        uint256 amount,\n        uint256 collateral\n    ) internal returns (bool ok, uint256 amountTokens) {\n        ok = moneriumEURemoney.approve(WRAPPER_CONTRACT, amount);\n        amountTokens = jarvisWrapper.wrap(collateral, address(this));\n\n        amountWrapped(transferId, amountTokens);\n    }\n\n    // *********************************************************************************\n\n    // *********************** Wurn & Mint (Redeem) UCDS from JEUR *********************\n    function routage_USDCfromjEUR(\n        string calldata transferId,\n        uint256 _numToken,\n        uint256 _minCollateral\n    )\n        internal\n        returns (\n            bool okApprouveJEUR,\n            bool okApprouveUSDC,\n            uint256 collateralRedeemed,\n            uint256 feePaid\n        )\n    {\n        okApprouveJEUR = jEURToken.approve(SYNTHEREUM_CONTRACT, _numToken);\n        okApprouveUSDC = USDCToken.approve(SYNTHEREUM_CONTRACT, _minCollateral);\n\n        ISynthereum.RedeemParams memory params = ISynthereum.RedeemParams({\n            numTokens: _numToken,\n            minCollateral: _minCollateral,\n            expiration: block.timestamp + 30,\n            recipient: address(this)\n        });\n\n        (collateralRedeemed, feePaid) = jarvisSynthereum.redeem(params);\n\n        redeemCollateral(transferId, collateralRedeemed);\n    }\n\n    // *********************************************************************************\n\n    // *********************** Transfer USDC to HUB2 Wallet & BlockSend Wallet *********\n    function transferUSDC(\n        string calldata transferId,\n        uint256 collateralRedeemed\n    ) internal returns (bool ok) {\n        (uint256 blocksendAmount, uint256 userAmount) = calculateFees(\n            collateralRedeemed\n        );\n\n        bool okBlocksend = USDCToken.transfer(\n            BLOCKSEND_WALLET,\n            blocksendAmount\n        );\n        bool okHUB2 = USDCToken.transfer(HUB2_WALLET, userAmount);\n\n        collateralSent(transferId, userAmount, blocksendAmount);\n\n        return okHUB2 && okBlocksend;\n    }\n\n    // *********************************************************************************\n\n    // *********************** Calculate 1,9% fees *************************************\n    function calculateFees(uint256 amount)\n        internal\n        pure\n        returns (uint256 blocksendAmount, uint256 userAmount)\n    {\n        blocksendAmount = (amount * 19) / 1000;\n        userAmount = amount - blocksendAmount;\n    }\n\n    // *********************************************************************************\n\n    // *********************** Update Contracts Addresses ******************************\n    function setWrapperContract(address newAddress) external onlyOwner {\n        WRAPPER_CONTRACT = newAddress;\n        jarvisWrapper = IFixedRateWrapper(WRAPPER_CONTRACT);\n    }\n\n    function setSyntheriumContract(address newAddress) external onlyOwner {\n        SYNTHEREUM_CONTRACT = newAddress;\n        jarvisSynthereum = ISynthereum(SYNTHEREUM_CONTRACT);\n    }\n\n    function setEURETokenContract(address newAddress) external onlyOwner {\n        EURE_TOKEN_CONTRACT = newAddress;\n        moneriumEURemoney = IERC20(EURE_TOKEN_CONTRACT);\n    }\n\n    function setJEURToken_Contract(address newAddress) external onlyOwner {\n        JEUR_TOKEN_CONTRACT = newAddress;\n        jEURToken = IERC20(JEUR_TOKEN_CONTRACT);\n    }\n\n    function setBKSDTokenContract(address newAddress) external onlyOwner {\n        BKSDToken = BlockSendToken(newAddress);\n    }\n\n    function setUSDCTokenContract(address newAddress) external onlyOwner {\n        USDC_TOKEN_CONTRACT = newAddress;\n        USDCToken = IERC20(USDC_TOKEN_CONTRACT);\n    }\n\n    function setEUR_USD_Aggregator(address newAddress) external onlyOwner {\n        EUR_USD_AGGREGATOR = newAddress;\n        priceFeed = AggregatorV3Interface(EUR_USD_AGGREGATOR);\n    }\n\n    function setHUB2Wallet(address newAddress) external onlyOwner {\n        HUB2_WALLET = newAddress;\n    }\n\n    function setBlockSend_Wallet(address newAddress) external onlyOwner {\n        BLOCKSEND_WALLET = newAddress;\n    }\n\n    function AllowAddress(address _addr) external onlyOwner {\n        allowed[_addr] = true;\n    }\n\n    // *********************************************************************************\n\n    // *********************** Get the latest rate *************************************\n    function getLatestPrice() public view returns (uint256) {\n        (, int256 price, , , ) = priceFeed.latestRoundData();\n        return uint256(price / 1000);\n    }\n    // *********************************************************************************\n}\n",
  "sourcePath": "/Users/fabricepayet/Workspace/blocksend/blocksend/truffle/contracts/BlockSendRouter.sol",
  "compiler": {
    "name": "solc",
    "version": "0.8.14+commit.80d49f37.Emscripten.clang"
  },
  "schemaVersion": "3.4.10",
  "updatedAt": "2022-12-10T07:53:20.455Z",
  "devdoc": {
    "kind": "dev",
    "methods": {
      "initializeTransfer(string,address,uint256)": {
        "params": {
          "amount": "Input parameters for for transfered amount",
          "transferId": "Input parameters transferId",
          "userWallet": "Input parameters for user wallet"
        },
        "returns": {
          "ok": "a boolean value indicating whether the operation succeeded. Emits a {TransferStatusChanged} event with the current status of the transfer."
        }
      },
      "owner()": {
        "details": "Returns the address of the current owner."
      },
      "renounceOwnership()": {
        "details": "Leaves the contract without owner. It will not be possible to call `onlyOwner` functions anymore. Can only be called by the current owner. NOTE: Renouncing ownership will leave the contract without an owner, thereby removing any functionality that is only available to the owner."
      },
      "transferOwnership(address)": {
        "details": "Transfers ownership of the contract to a new account (`newOwner`). Can only be called by the current owner."
      }
    },
    "version": 1
  },
  "userdoc": {
    "kind": "user",
    "methods": {
      "initializeTransfer(string,address,uint256)": {
        "notice": "Iinitialise a transfer of an amount of EUReFirst Step: On-Ramp:1- Transfer EURe from user's wallet2- Wrap EURe to jEUR (Jarvis wrapper)3- Get jEUR/USDC Rate (Aggregator Chainlink)4- Redeem USDC from jEUR (Jarvis Redeem)Secod Step: Calculate 1,9% of feesThird Step: Off-Ramp: Using HUB2if any error: Sent money to users wallet back"
      },
      "remittanceStatus(string)": {
        "notice": "Returns the current status of a specific remmitance."
      }
    },
    "version": 1
  }
}