{
  "contractName": "BlockSendTransfer",
  "abi": [
    {
      "inputs": [],
      "stateMutability": "nonpayable",
      "type": "constructor"
    },
    {
      "anonymous": false,
      "inputs": [
        {
          "indexed": true,
          "internalType": "address",
          "name": "previousOwner",
          "type": "address"
        },
        {
          "indexed": true,
          "internalType": "address",
          "name": "newOwner",
          "type": "address"
        }
      ],
      "name": "OwnershipTransferred",
      "type": "event"
    },
    {
      "anonymous": false,
      "inputs": [
        {
          "indexed": false,
          "internalType": "string",
          "name": "transferId",
          "type": "string"
        },
        {
          "indexed": false,
          "internalType": "uint256",
          "name": "userAmount",
          "type": "uint256"
        },
        {
          "indexed": false,
          "internalType": "uint256",
          "name": "blocksendAmount",
          "type": "uint256"
        }
      ],
      "name": "TransferFinalized",
      "type": "event"
    },
    {
      "anonymous": false,
      "inputs": [
        {
          "indexed": false,
          "internalType": "string",
          "name": "transferId",
          "type": "string"
        },
        {
          "indexed": false,
          "internalType": "uint256",
          "name": "amount",
          "type": "uint256"
        }
      ],
      "name": "TransferInitilized",
      "type": "event"
    },
    {
      "anonymous": false,
      "inputs": [
        {
          "indexed": false,
          "internalType": "string",
          "name": "transferId",
          "type": "string"
        },
        {
          "indexed": false,
          "internalType": "enum BlockSendTransfer.TransferStatus",
          "name": "currentStatus",
          "type": "uint8"
        },
        {
          "indexed": false,
          "internalType": "string",
          "name": "errorMsg",
          "type": "string"
        }
      ],
      "name": "TransferStatusChanged",
      "type": "event"
    },
    {
      "inputs": [],
      "name": "owner",
      "outputs": [
        {
          "internalType": "address",
          "name": "",
          "type": "address"
        }
      ],
      "stateMutability": "view",
      "type": "function"
    },
    {
      "inputs": [],
      "name": "renounceOwnership",
      "outputs": [],
      "stateMutability": "nonpayable",
      "type": "function"
    },
    {
      "inputs": [
        {
          "internalType": "address",
          "name": "newOwner",
          "type": "address"
        }
      ],
      "name": "transferOwnership",
      "outputs": [],
      "stateMutability": "nonpayable",
      "type": "function"
    },
    {
      "inputs": [
        {
          "internalType": "string",
          "name": "",
          "type": "string"
        }
      ],
      "name": "transfers",
      "outputs": [
        {
          "internalType": "address",
          "name": "sender",
          "type": "address"
        },
        {
          "internalType": "uint256",
          "name": "amount_EURe",
          "type": "uint256"
        },
        {
          "internalType": "uint256",
          "name": "amount_jEUR",
          "type": "uint256"
        },
        {
          "internalType": "uint256",
          "name": "amount_USDC",
          "type": "uint256"
        },
        {
          "internalType": "uint256",
          "name": "userAmount_USDC",
          "type": "uint256"
        },
        {
          "internalType": "uint256",
          "name": "blocksendAmount_USDC",
          "type": "uint256"
        },
        {
          "internalType": "enum BlockSendTransfer.TransferStatus",
          "name": "status",
          "type": "uint8"
        }
      ],
      "stateMutability": "view",
      "type": "function"
    },
    {
      "inputs": [
        {
          "internalType": "string",
          "name": "transferId",
          "type": "string"
        },
        {
          "internalType": "address",
          "name": "userWallet",
          "type": "address"
        },
        {
          "internalType": "uint256",
          "name": "amount",
          "type": "uint256"
        }
      ],
      "name": "initializeTransfer",
      "outputs": [
        {
          "internalType": "bool",
          "name": "ok",
          "type": "bool"
        }
      ],
      "stateMutability": "nonpayable",
      "type": "function"
    },
    {
      "inputs": [
        {
          "internalType": "string",
          "name": "transferId",
          "type": "string"
        }
      ],
      "name": "remittanceStatus",
      "outputs": [
        {
          "internalType": "enum BlockSendTransfer.TransferStatus",
          "name": "",
          "type": "uint8"
        }
      ],
      "stateMutability": "view",
      "type": "function"
    },
    {
      "inputs": [
        {
          "internalType": "address",
          "name": "newAddress",
          "type": "address"
        }
      ],
      "name": "setWrapperContract",
      "outputs": [],
      "stateMutability": "nonpayable",
      "type": "function"
    },
    {
      "inputs": [
        {
          "internalType": "address",
          "name": "newAddress",
          "type": "address"
        }
      ],
      "name": "setSyntheriumContract",
      "outputs": [],
      "stateMutability": "nonpayable",
      "type": "function"
    },
    {
      "inputs": [
        {
          "internalType": "address",
          "name": "newAddress",
          "type": "address"
        }
      ],
      "name": "setEURETokenContract",
      "outputs": [],
      "stateMutability": "nonpayable",
      "type": "function"
    },
    {
      "inputs": [
        {
          "internalType": "address",
          "name": "newAddress",
          "type": "address"
        }
      ],
      "name": "setJEURToken_Contract",
      "outputs": [],
      "stateMutability": "nonpayable",
      "type": "function"
    },
    {
      "inputs": [
        {
          "internalType": "address",
          "name": "newAddress",
          "type": "address"
        }
      ],
      "name": "setUSDCTokenContract",
      "outputs": [],
      "stateMutability": "nonpayable",
      "type": "function"
    },
    {
      "inputs": [
        {
          "internalType": "address",
          "name": "newAddress",
          "type": "address"
        }
      ],
      "name": "setEUR_USD_Aggregator",
      "outputs": [],
      "stateMutability": "nonpayable",
      "type": "function"
    },
    {
      "inputs": [
        {
          "internalType": "address",
          "name": "newAddress",
          "type": "address"
        }
      ],
      "name": "setHUB2Wallet",
      "outputs": [],
      "stateMutability": "nonpayable",
      "type": "function"
    },
    {
      "inputs": [
        {
          "internalType": "address",
          "name": "newAddress",
          "type": "address"
        }
      ],
      "name": "setBlockSend_Wallet",
      "outputs": [],
      "stateMutability": "nonpayable",
      "type": "function"
    },
    {
      "inputs": [
        {
          "internalType": "address",
          "name": "_addr",
          "type": "address"
        }
      ],
      "name": "AllowAddress",
      "outputs": [],
      "stateMutability": "nonpayable",
      "type": "function"
    },
    {
      "inputs": [],
      "name": "getLatestPrice",
      "outputs": [
        {
          "internalType": "uint256",
          "name": "",
          "type": "uint256"
        }
      ],
      "stateMutability": "view",
      "type": "function"
    }
  ],
  "bytecode": "0x608060405273b07cb016440331be4d2f532b20d892a420476ad0600760006101000a81548173ffffffffffffffffffffffffffffffffffffffff021916908373ffffffffffffffffffffffffffffffffffffffff1602179055507365a7b4ff684c2d08c115d55a4b089bf4e92f5003600860006101000a81548173ffffffffffffffffffffffffffffffffffffffff021916908373ffffffffffffffffffffffffffffffffffffffff1602179055507318ec0a6e18e5bc3784fdd3a3634b31245ab704f6600960006101000a81548173ffffffffffffffffffffffffffffffffffffffff021916908373ffffffffffffffffffffffffffffffffffffffff160217905550734e3decbb3645551b8a19f0ea1678079fcb33fb4c600a60006101000a81548173ffffffffffffffffffffffffffffffffffffffff021916908373ffffffffffffffffffffffffffffffffffffffff160217905550732791bca1f2de4661ed88a30c99a7a9449aa84174600b60006101000a81548173ffffffffffffffffffffffffffffffffffffffff021916908373ffffffffffffffffffffffffffffffffffffffff1602179055507373366fe0aa0ded304479862808e02506fe556a98600c60006101000a81548173ffffffffffffffffffffffffffffffffffffffff021916908373ffffffffffffffffffffffffffffffffffffffff16021790555073ed85caeb52c34bd35dfeeb2d4e0bc936a0db0923600d60006101000a81548173ffffffffffffffffffffffffffffffffffffffff021916908373ffffffffffffffffffffffffffffffffffffffff16021790555073913cd67da3b17be7f66e865158cdf9a5c4f2a850600e60006101000a81548173ffffffffffffffffffffffffffffffffffffffff021916908373ffffffffffffffffffffffffffffffffffffffff160217905550737f3ee84fd13d815ff1005b7904cd67084d8f353f600f60006101000a81548173ffffffffffffffffffffffffffffffffffffffff021916908373ffffffffffffffffffffffffffffffffffffffff1602179055503480156200030e57600080fd5b506200032f620003236200060160201b60201c565b6200060960201b60201c565b600160116000600e60009054906101000a900473ffffffffffffffffffffffffffffffffffffffff1673ffffffffffffffffffffffffffffffffffffffff1673ffffffffffffffffffffffffffffffffffffffff16815260200190815260200160002060006101000a81548160ff021916908315150217905550600760009054906101000a900473ffffffffffffffffffffffffffffffffffffffff16600260006101000a81548173ffffffffffffffffffffffffffffffffffffffff021916908373ffffffffffffffffffffffffffffffffffffffff160217905550600860009054906101000a900473ffffffffffffffffffffffffffffffffffffffff16600360006101000a81548173ffffffffffffffffffffffffffffffffffffffff021916908373ffffffffffffffffffffffffffffffffffffffff160217905550600960009054906101000a900473ffffffffffffffffffffffffffffffffffffffff16600460006101000a81548173ffffffffffffffffffffffffffffffffffffffff021916908373ffffffffffffffffffffffffffffffffffffffff160217905550600a60009054906101000a900473ffffffffffffffffffffffffffffffffffffffff16600560006101000a81548173ffffffffffffffffffffffffffffffffffffffff021916908373ffffffffffffffffffffffffffffffffffffffff160217905550600b60009054906101000a900473ffffffffffffffffffffffffffffffffffffffff16600660006101000a81548173ffffffffffffffffffffffffffffffffffffffff021916908373ffffffffffffffffffffffffffffffffffffffff160217905550600c60009054906101000a900473ffffffffffffffffffffffffffffffffffffffff16600160006101000a81548173ffffffffffffffffffffffffffffffffffffffff021916908373ffffffffffffffffffffffffffffffffffffffff160217905550620006cd565b600033905090565b60008060009054906101000a900473ffffffffffffffffffffffffffffffffffffffff169050816000806101000a81548173ffffffffffffffffffffffffffffffffffffffff021916908373ffffffffffffffffffffffffffffffffffffffff1602179055508173ffffffffffffffffffffffffffffffffffffffff168173ffffffffffffffffffffffffffffffffffffffff167f8be0079c531659141344cd1fd0a4f28419497f9722a3daafe3b4186f6b6457e060405160405180910390a35050565b61281780620006dd6000396000f3fe608060405234801561001057600080fd5b50600436106101005760003560e01c8063715018a611610097578063ea45efbf11610066578063ea45efbf14610289578063eead6fd8146102a5578063f11283a2146102c1578063f2fde38b146102dd57610100565b8063715018a61461020d57806384a1c233146102175780638da5cb5b1461024d5780638e15f4731461026b57610100565b8063381ea9c5116100d3578063381ea9c51461018957806343dafdbe146101a55780634b8cc80d146101c15780634e558127146101f157610100565b806312ee45b7146101055780631dfe08191461012157806325a9760514610151578063335bafa21461016d575b600080fd5b61011f600480360381019061011a9190611acf565b6102f9565b005b61013b60048036038101906101369190611b97565b6103a8565b6040516101489190611c26565b60405180910390f35b61016b60048036038101906101669190611acf565b6105cf565b005b61018760048036038101906101829190611acf565b61067e565b005b6101a3600480360381019061019e9190611acf565b61072d565b005b6101bf60048036038101906101ba9190611acf565b610779565b005b6101db60048036038101906101d69190611c41565b6107c5565b6040516101e89190611d05565b60405180910390f35b61020b60048036038101906102069190611acf565b610800565b005b6102156108af565b005b610231600480360381019061022c9190611e61565b6108c3565b6040516102449796959493929190611ec8565b60405180910390f35b610255610948565b6040516102629190611f37565b60405180910390f35b610273610971565b6040516102809190611f52565b60405180910390f35b6102a3600480360381019061029e9190611acf565b610a1f565b005b6102bf60048036038101906102ba9190611acf565b610ace565b005b6102db60048036038101906102d69190611acf565b610b7d565b005b6102f760048036038101906102f29190611acf565b610be0565b005b610301610c63565b80600c60006101000a81548173ffffffffffffffffffffffffffffffffffffffff021916908373ffffffffffffffffffffffffffffffffffffffff160217905550600c60009054906101000a900473ffffffffffffffffffffffffffffffffffffffff16600160006101000a81548173ffffffffffffffffffffffffffffffffffffffff021916908373ffffffffffffffffffffffffffffffffffffffff16021790555050565b6000601160003373ffffffffffffffffffffffffffffffffffffffff1673ffffffffffffffffffffffffffffffffffffffff16815260200190815260200160002060009054906101000a900460ff16610436576040517f08c379a000000000000000000000000000000000000000000000000000000000815260040161042d90611ff0565b60405180910390fd5b61044285858585610ce1565b600061045086868686610dd0565b90508061047e576104738686868660405180602001604052806000815250610e89565b5060009150506105c7565b60008061048d88888788610fc0565b9150915081158061049e5750600081145b156104cc576104bf8888888860405180602001604052806000815250610e89565b50600093505050506105c7565b60006104d6610971565b90506000678ac7230489e8000082846104ef919061203f565b6104f991906120c8565b905060008060008061050d8e8e898861113d565b9350935093509350831580610520575082155b8061052b5750600082145b806105365750600081145b1561056a576105578e8e8e8e60405180602001604052806000815250610e89565b50600099505050505050505050506105c7565b60006105778f8f856113ce565b9050806105ae5761059a8f8f8f8f60405180602001604052806000815250610e89565b5060009a50505050505050505050506105c7565b6105b88f8f61158f565b60019a50505050505050505050505b949350505050565b6105d7610c63565b80600960006101000a81548173ffffffffffffffffffffffffffffffffffffffff021916908373ffffffffffffffffffffffffffffffffffffffff160217905550600960009054906101000a900473ffffffffffffffffffffffffffffffffffffffff16600460006101000a81548173ffffffffffffffffffffffffffffffffffffffff021916908373ffffffffffffffffffffffffffffffffffffffff16021790555050565b610686610c63565b80600860006101000a81548173ffffffffffffffffffffffffffffffffffffffff021916908373ffffffffffffffffffffffffffffffffffffffff160217905550600860009054906101000a900473ffffffffffffffffffffffffffffffffffffffff16600360006101000a81548173ffffffffffffffffffffffffffffffffffffffff021916908373ffffffffffffffffffffffffffffffffffffffff16021790555050565b610735610c63565b80600d60006101000a81548173ffffffffffffffffffffffffffffffffffffffff021916908373ffffffffffffffffffffffffffffffffffffffff16021790555050565b610781610c63565b80600f60006101000a81548173ffffffffffffffffffffffffffffffffffffffff021916908373ffffffffffffffffffffffffffffffffffffffff16021790555050565b6000601083836040516107d9929190612129565b908152602001604051809103902060060160009054906101000a900460ff16905092915050565b610808610c63565b80600760006101000a81548173ffffffffffffffffffffffffffffffffffffffff021916908373ffffffffffffffffffffffffffffffffffffffff160217905550600760009054906101000a900473ffffffffffffffffffffffffffffffffffffffff16600260006101000a81548173ffffffffffffffffffffffffffffffffffffffff021916908373ffffffffffffffffffffffffffffffffffffffff16021790555050565b6108b7610c63565b6108c16000611662565b565b6010818051602081018201805184825260208301602085012081835280955050505050506000915090508060000160009054906101000a900473ffffffffffffffffffffffffffffffffffffffff16908060010154908060020154908060030154908060040154908060050154908060060160009054906101000a900460ff16905087565b60008060009054906101000a900473ffffffffffffffffffffffffffffffffffffffff16905090565b600080600160009054906101000a900473ffffffffffffffffffffffffffffffffffffffff1673ffffffffffffffffffffffffffffffffffffffff1663feaf968c6040518163ffffffff1660e01b815260040160a060405180830381865afa1580156109e1573d6000803e3d6000fd5b505050506040513d601f19601f82011682018060405250810190610a0591906121cf565b5050509150506103e881610a19919061224a565b91505090565b610a27610c63565b80600a60006101000a81548173ffffffffffffffffffffffffffffffffffffffff021916908373ffffffffffffffffffffffffffffffffffffffff160217905550600a60009054906101000a900473ffffffffffffffffffffffffffffffffffffffff16600560006101000a81548173ffffffffffffffffffffffffffffffffffffffff021916908373ffffffffffffffffffffffffffffffffffffffff16021790555050565b610ad6610c63565b80600b60006101000a81548173ffffffffffffffffffffffffffffffffffffffff021916908373ffffffffffffffffffffffffffffffffffffffff160217905550600b60009054906101000a900473ffffffffffffffffffffffffffffffffffffffff16600660006101000a81548173ffffffffffffffffffffffffffffffffffffffff021916908373ffffffffffffffffffffffffffffffffffffffff16021790555050565b610b85610c63565b6001601160008373ffffffffffffffffffffffffffffffffffffffff1673ffffffffffffffffffffffffffffffffffffffff16815260200190815260200160002060006101000a81548160ff02191690831515021790555050565b610be8610c63565b600073ffffffffffffffffffffffffffffffffffffffff168173ffffffffffffffffffffffffffffffffffffffff1603610c57576040517f08c379a0000000000000000000000000000000000000000000000000000000008152600401610c4e90612326565b60405180910390fd5b610c6081611662565b50565b610c6b611726565b73ffffffffffffffffffffffffffffffffffffffff16610c89610948565b73ffffffffffffffffffffffffffffffffffffffff1614610cdf576040517f08c379a0000000000000000000000000000000000000000000000000000000008152600401610cd690612392565b60405180910390fd5b565b8160108585604051610cf4929190612129565b908152602001604051809103902060000160006101000a81548173ffffffffffffffffffffffffffffffffffffffff021916908373ffffffffffffffffffffffffffffffffffffffff160217905550600060108585604051610d57929190612129565b908152602001604051809103902060060160006101000a81548160ff02191690836006811115610d8a57610d89611c8e565b5b02179055507f9f99091afbc24bd9abfd7adca3533b5457ad5307a86351e337bcee2fb1f364de848483604051610dc2939291906123df565b60405180910390a150505050565b6000600460009054906101000a900473ffffffffffffffffffffffffffffffffffffffff1673ffffffffffffffffffffffffffffffffffffffff166323b872dd8430856040518463ffffffff1660e01b8152600401610e3193929190612411565b6020604051808303816000875af1158015610e50573d6000803e3d6000fd5b505050506040513d601f19601f82011682018060405250810190610e749190612474565b9050610e8185858461172e565b949350505050565b6000600660108787604051610e9f929190612129565b908152602001604051809103902060060160006101000a81548160ff02191690836006811115610ed257610ed1611c8e565b5b0217905550600460009054906101000a900473ffffffffffffffffffffffffffffffffffffffff1673ffffffffffffffffffffffffffffffffffffffff1663a9059cbb85856040518363ffffffff1660e01b8152600401610f349291906124a1565b6020604051808303816000875af1158015610f53573d6000803e3d6000fd5b505050506040513d601f19601f82011682018060405250810190610f779190612474565b90507fb77f853b6da055bd331fe04b2ad64875bc05489c96278fc68860d6b4305f8dce8686600685604051610faf9493929190612541565b60405180910390a195945050505050565b600080600460009054906101000a900473ffffffffffffffffffffffffffffffffffffffff1673ffffffffffffffffffffffffffffffffffffffff1663095ea7b3600760009054906101000a900473ffffffffffffffffffffffffffffffffffffffff16866040518363ffffffff1660e01b81526004016110429291906124a1565b6020604051808303816000875af1158015611061573d6000803e3d6000fd5b505050506040513d601f19601f820116820180604052508101906110859190612474565b9150600260009054906101000a900473ffffffffffffffffffffffffffffffffffffffff1673ffffffffffffffffffffffffffffffffffffffff166313bac82084306040518363ffffffff1660e01b81526004016110e4929190612588565b6020604051808303816000875af1158015611103573d6000803e3d6000fd5b505050506040513d601f19601f8201168201806040525081019061112791906125b1565b90506111348686836117e3565b94509492505050565b600080600080600560009054906101000a900473ffffffffffffffffffffffffffffffffffffffff1673ffffffffffffffffffffffffffffffffffffffff1663095ea7b3600860009054906101000a900473ffffffffffffffffffffffffffffffffffffffff16886040518363ffffffff1660e01b81526004016111c29291906124a1565b6020604051808303816000875af11580156111e1573d6000803e3d6000fd5b505050506040513d601f19601f820116820180604052508101906112059190612474565b9350600660009054906101000a900473ffffffffffffffffffffffffffffffffffffffff1673ffffffffffffffffffffffffffffffffffffffff1663095ea7b3600860009054906101000a900473ffffffffffffffffffffffffffffffffffffffff16876040518363ffffffff1660e01b81526004016112869291906124a1565b6020604051808303816000875af11580156112a5573d6000803e3d6000fd5b505050506040513d601f19601f820116820180604052508101906112c99190612474565b925060006040518060800160405280888152602001878152602001601e426112f191906125de565b81526020013073ffffffffffffffffffffffffffffffffffffffff168152509050600360009054906101000a900473ffffffffffffffffffffffffffffffffffffffff1673ffffffffffffffffffffffffffffffffffffffff1663525e6b11826040518263ffffffff1660e01b815260040161136d91906126a7565b60408051808303816000875af115801561138b573d6000803e3d6000fd5b505050506040513d601f19601f820116820180604052508101906113af91906126c2565b80935081945050506113c2898985611898565b50945094509450949050565b60008060006113dc8461194d565b915091506000600660009054906101000a900473ffffffffffffffffffffffffffffffffffffffff1673ffffffffffffffffffffffffffffffffffffffff1663a9059cbb600f60009054906101000a900473ffffffffffffffffffffffffffffffffffffffff16856040518363ffffffff1660e01b81526004016114619291906124a1565b6020604051808303816000875af1158015611480573d6000803e3d6000fd5b505050506040513d601f19601f820116820180604052508101906114a49190612474565b90506000600660009054906101000a900473ffffffffffffffffffffffffffffffffffffffff1673ffffffffffffffffffffffffffffffffffffffff1663a9059cbb600d60009054906101000a900473ffffffffffffffffffffffffffffffffffffffff16856040518363ffffffff1660e01b81526004016115279291906124a1565b6020604051808303816000875af1158015611546573d6000803e3d6000fd5b505050506040513d601f19601f8201168201806040525081019061156a9190612474565b90506115788888858761197f565b8080156115825750815b9450505050509392505050565b6005601083836040516115a3929190612129565b908152602001604051809103902060060160006101000a81548160ff021916908360068111156115d6576115d5611c8e565b5b02179055507fb068bfa73b9623ba0d319b003df0377fa326e109678625e7ad23230855b856b4828260108585604051611610929190612129565b90815260200160405180910390206004015460108686604051611634929190612129565b9081526020016040518091039020600501546040516116569493929190612702565b60405180910390a15050565b60008060009054906101000a900473ffffffffffffffffffffffffffffffffffffffff169050816000806101000a81548173ffffffffffffffffffffffffffffffffffffffff021916908373ffffffffffffffffffffffffffffffffffffffff1602179055508173ffffffffffffffffffffffffffffffffffffffff168173ffffffffffffffffffffffffffffffffffffffff167f8be0079c531659141344cd1fd0a4f28419497f9722a3daafe3b4186f6b6457e060405160405180910390a35050565b600033905090565b600160108484604051611742929190612129565b908152602001604051809103902060060160006101000a81548160ff0219169083600681111561177557611774611c8e565b5b0217905550806010848460405161178d929190612129565b9081526020016040518091039020600101819055507fb77f853b6da055bd331fe04b2ad64875bc05489c96278fc68860d6b4305f8dce838360016040516117d693929190612768565b60405180910390a1505050565b6002601084846040516117f7929190612129565b908152602001604051809103902060060160006101000a81548160ff0219169083600681111561182a57611829611c8e565b5b02179055508060108484604051611842929190612129565b9081526020016040518091039020600201819055507fb77f853b6da055bd331fe04b2ad64875bc05489c96278fc68860d6b4305f8dce8383600260405161188b93929190612768565b60405180910390a1505050565b6003601084846040516118ac929190612129565b908152602001604051809103902060060160006101000a81548160ff021916908360068111156118df576118de611c8e565b5b021790555080601084846040516118f7929190612129565b9081526020016040518091039020600301819055507fb77f853b6da055bd331fe04b2ad64875bc05489c96278fc68860d6b4305f8dce8383600360405161194093929190612768565b60405180910390a1505050565b6000806103e8601384611960919061203f565b61196a91906120c8565b9150818361197891906127ad565b9050915091565b600460108585604051611993929190612129565b908152602001604051809103902060060160006101000a81548160ff021916908360068111156119c6576119c5611c8e565b5b021790555081601085856040516119de929190612129565b9081526020016040518091039020600401819055508060108585604051611a06929190612129565b9081526020016040518091039020600501819055507fb77f853b6da055bd331fe04b2ad64875bc05489c96278fc68860d6b4305f8dce84846004604051611a4f93929190612768565b60405180910390a150505050565b6000604051905090565b600080fd5b600080fd5b600073ffffffffffffffffffffffffffffffffffffffff82169050919050565b6000611a9c82611a71565b9050919050565b611aac81611a91565b8114611ab757600080fd5b50565b600081359050611ac981611aa3565b92915050565b600060208284031215611ae557611ae4611a67565b5b6000611af384828501611aba565b91505092915050565b600080fd5b600080fd5b600080fd5b60008083601f840112611b2157611b20611afc565b5b8235905067ffffffffffffffff811115611b3e57611b3d611b01565b5b602083019150836001820283011115611b5a57611b59611b06565b5b9250929050565b6000819050919050565b611b7481611b61565b8114611b7f57600080fd5b50565b600081359050611b9181611b6b565b92915050565b60008060008060608587031215611bb157611bb0611a67565b5b600085013567ffffffffffffffff811115611bcf57611bce611a6c565b5b611bdb87828801611b0b565b94509450506020611bee87828801611aba565b9250506040611bff87828801611b82565b91505092959194509250565b60008115159050919050565b611c2081611c0b565b82525050565b6000602082019050611c3b6000830184611c17565b92915050565b60008060208385031215611c5857611c57611a67565b5b600083013567ffffffffffffffff811115611c7657611c75611a6c565b5b611c8285828601611b0b565b92509250509250929050565b7f4e487b7100000000000000000000000000000000000000000000000000000000600052602160045260246000fd5b60078110611cce57611ccd611c8e565b5b50565b6000819050611cdf82611cbd565b919050565b6000611cef82611cd1565b9050919050565b611cff81611ce4565b82525050565b6000602082019050611d1a6000830184611cf6565b92915050565b600080fd5b6000601f19601f8301169050919050565b7f4e487b7100000000000000000000000000000000000000000000000000000000600052604160045260246000fd5b611d6e82611d25565b810181811067ffffffffffffffff82111715611d8d57611d8c611d36565b5b80604052505050565b6000611da0611a5d565b9050611dac8282611d65565b919050565b600067ffffffffffffffff821115611dcc57611dcb611d36565b5b611dd582611d25565b9050602081019050919050565b82818337600083830152505050565b6000611e04611dff84611db1565b611d96565b905082815260208101848484011115611e2057611e1f611d20565b5b611e2b848285611de2565b509392505050565b600082601f830112611e4857611e47611afc565b5b8135611e58848260208601611df1565b91505092915050565b600060208284031215611e7757611e76611a67565b5b600082013567ffffffffffffffff811115611e9557611e94611a6c565b5b611ea184828501611e33565b91505092915050565b611eb381611a91565b82525050565b611ec281611b61565b82525050565b600060e082019050611edd600083018a611eaa565b611eea6020830189611eb9565b611ef76040830188611eb9565b611f046060830187611eb9565b611f116080830186611eb9565b611f1e60a0830185611eb9565b611f2b60c0830184611cf6565b98975050505050505050565b6000602082019050611f4c6000830184611eaa565b92915050565b6000602082019050611f676000830184611eb9565b92915050565b600082825260208201905092915050565b7f596f7527726520616c6c6f77656420746f20696e69746961746520612074726160008201527f6e73666572000000000000000000000000000000000000000000000000000000602082015250565b6000611fda602583611f6d565b9150611fe582611f7e565b604082019050919050565b6000602082019050818103600083015261200981611fcd565b9050919050565b7f4e487b7100000000000000000000000000000000000000000000000000000000600052601160045260246000fd5b600061204a82611b61565b915061205583611b61565b9250817fffffffffffffffffffffffffffffffffffffffffffffffffffffffffffffffff048311821515161561208e5761208d612010565b5b828202905092915050565b7f4e487b7100000000000000000000000000000000000000000000000000000000600052601260045260246000fd5b60006120d382611b61565b91506120de83611b61565b9250826120ee576120ed612099565b5b828204905092915050565b600081905092915050565b600061211083856120f9565b935061211d838584611de2565b82840190509392505050565b6000612136828486612104565b91508190509392505050565b600069ffffffffffffffffffff82169050919050565b61216181612142565b811461216c57600080fd5b50565b60008151905061217e81612158565b92915050565b6000819050919050565b61219781612184565b81146121a257600080fd5b50565b6000815190506121b48161218e565b92915050565b6000815190506121c981611b6b565b92915050565b600080600080600060a086880312156121eb576121ea611a67565b5b60006121f98882890161216f565b955050602061220a888289016121a5565b945050604061221b888289016121ba565b935050606061222c888289016121ba565b925050608061223d8882890161216f565b9150509295509295909350565b600061225582612184565b915061226083612184565b9250826122705761226f612099565b5b600160000383147f8000000000000000000000000000000000000000000000000000000000000000831416156122a9576122a8612010565b5b828205905092915050565b7f4f776e61626c653a206e6577206f776e657220697320746865207a65726f206160008201527f6464726573730000000000000000000000000000000000000000000000000000602082015250565b6000612310602683611f6d565b915061231b826122b4565b604082019050919050565b6000602082019050818103600083015261233f81612303565b9050919050565b7f4f776e61626c653a2063616c6c6572206973206e6f7420746865206f776e6572600082015250565b600061237c602083611f6d565b915061238782612346565b602082019050919050565b600060208201905081810360008301526123ab8161236f565b9050919050565b60006123be8385611f6d565b93506123cb838584611de2565b6123d483611d25565b840190509392505050565b600060408201905081810360008301526123fa8185876123b2565b90506124096020830184611eb9565b949350505050565b60006060820190506124266000830186611eaa565b6124336020830185611eaa565b6124406040830184611eb9565b949350505050565b61245181611c0b565b811461245c57600080fd5b50565b60008151905061246e81612448565b92915050565b60006020828403121561248a57612489611a67565b5b60006124988482850161245f565b91505092915050565b60006040820190506124b66000830185611eaa565b6124c36020830184611eb9565b9392505050565b600081519050919050565b60005b838110156124f35780820151818401526020810190506124d8565b83811115612502576000848401525b50505050565b6000612513826124ca565b61251d8185611f6d565b935061252d8185602086016124d5565b61253681611d25565b840191505092915050565b6000606082019050818103600083015261255c8186886123b2565b905061256b6020830185611cf6565b818103604083015261257d8184612508565b905095945050505050565b600060408201905061259d6000830185611eb9565b6125aa6020830184611eaa565b9392505050565b6000602082840312156125c7576125c6611a67565b5b60006125d5848285016121ba565b91505092915050565b60006125e982611b61565b91506125f483611b61565b9250827fffffffffffffffffffffffffffffffffffffffffffffffffffffffffffffffff0382111561262957612628612010565b5b828201905092915050565b61263d81611b61565b82525050565b61264c81611a91565b82525050565b6080820160008201516126686000850182612634565b50602082015161267b6020850182612634565b50604082015161268e6040850182612634565b5060608201516126a16060850182612643565b50505050565b60006080820190506126bc6000830184612652565b92915050565b600080604083850312156126d9576126d8611a67565b5b60006126e7858286016121ba565b92505060206126f8858286016121ba565b9150509250929050565b6000606082019050818103600083015261271d8186886123b2565b905061272c6020830185611eb9565b6127396040830184611eb9565b95945050505050565b50565b6000612752600083611f6d565b915061275d82612742565b600082019050919050565b600060608201905081810360008301526127838185876123b2565b90506127926020830184611cf6565b81810360408301526127a381612745565b9050949350505050565b60006127b882611b61565b91506127c383611b61565b9250828210156127d6576127d5612010565b5b82820390509291505056fea264697066735822122094d0a0d5c931541b9493cca6d1ad7acaf05589d9a032d1f2b7ac01b13c0a3ba164736f6c634300080e0033",
  "immutableReferences": {},
  "source": "// SPDX-License-Identifier: MIT\npragma solidity ^0.8.9;\n\nimport \"../node_modules/@chainlink/contracts/src/v0.8/interfaces/AggregatorV3Interface.sol\";\nimport \"../node_modules/@openzeppelin/contracts/access/Ownable.sol\";\nimport \"../node_modules/@openzeppelin/contracts/token/ERC20/IERC20.sol\";\nimport \"./interfaces/IFixedRateWrapper.sol\";\nimport \"./interfaces/ISynthereum.sol\";\n\ncontract BlockSendTransfer is Ownable {\n    AggregatorV3Interface private priceFeed;\n\n    IFixedRateWrapper private jarvisWrapper;\n    ISynthereum private jarvisSynthereum;\n    IERC20 private moneriumEURemoney;\n    IERC20 private jEURToken;\n    IERC20 private uSDCToken;\n\n    address private WRAPPER_CONTRACT = 0xb07Cb016440331be4D2f532b20d892a420476AD0;\n    address private SYNTHEREUM_CONTRACT = 0x65a7b4Ff684C2d08c115D55a4B089bf4E92F5003;\n    address private EURE_TOKEN_CONTRACT = 0x18ec0A6E18E5bc3784fDd3a3634b31245ab704F6;\n    address private JEUR_TOKEN_CONTRACT = 0x4e3Decbb3645551B8A19f0eA1678079FCB33fB4c;\n    address private USDC_TOKEN_CONTRACT = 0x2791Bca1f2de4661ED88A30C99A7a9449Aa84174;\n    address private EUR_USD_AGGREGATOR = 0x73366Fe0AA0Ded304479862808e02506FE556a98;\n    address private HUB2_WALLET = 0xeD85CAeb52C34bD35dfeEB2d4e0bC936a0Db0923;\n    address private BLOCKSEND_BACKEND = 0x913Cd67dA3b17be7f66E865158cDF9a5c4F2a850;\n    address private BLOCKSEND_WALLET = 0x7f3eE84Fd13D815ff1005B7904Cd67084D8f353F;\n\n    mapping(string => Remittance) public transfers;\n    struct Remittance {\n        address sender;\n        uint amount_EURe;\n        uint amount_jEUR;\n        uint amount_USDC;\n        uint userAmount_USDC;\n        uint blocksendAmount_USDC;\n        TransferStatus status;\n    }\n\n    enum TransferStatus {\n        INITIALIZED,\n        EURE_RECEIVED,\n        JEUR_WRAPPED,\n        USDC_RECEIVED,\n        USDC_SENT,\n        FINALIZED,\n        TRANSFER_STUCK\n    }\n\n    mapping(address => bool) private allowed;\n\n    event TransferInitilized(string transferId, uint amount);\n    event TransferStatusChanged(string transferId, TransferStatus currentStatus, string errorMsg);\n    event TransferFinalized(string transferId, uint userAmount, uint blocksendAmount);\n\n    modifier onlyBlockSendBakend() {\n        require(allowed[msg.sender], \"You're allowed to initiate a transfer\");\n        _;\n    }\n\n    constructor() {\n        allowed[BLOCKSEND_BACKEND] = true;\n        jarvisWrapper = IFixedRateWrapper(WRAPPER_CONTRACT);\n        jarvisSynthereum = ISynthereum(SYNTHEREUM_CONTRACT);\n        moneriumEURemoney = IERC20(EURE_TOKEN_CONTRACT);\n        jEURToken = IERC20(JEUR_TOKEN_CONTRACT);\n        uSDCToken = IERC20(USDC_TOKEN_CONTRACT);\n        priceFeed = AggregatorV3Interface(EUR_USD_AGGREGATOR);\n    }\n\n    /**\n     * @notice Iinitialise a transfer of an amount of EURe\n     * @notice First Step: On-Ramp:\n     * @notice 1- Transfer EURe from user's wallet\n     * @notice 2- Wrap EURe to jEUR (Jarvis wrapper)\n     * @notice 3- Get jEUR/USDC Rate (Aggregator Chainlink)\n     * @notice 4- Redeem USDC from jEUR (Jarvis Redeem)\n     * @notice Secod Step: Calculate 1,9% of fees\n     * @notice Third Step: Off-Ramp: Using HUB2\n     * @notice if any error: Sent money to users wallet back\n     * @param transferId Input parameters transferId\n     * @param amount Input parameters for for transfered amount\n     * @param userWallet Input parameters for user wallet\n     * @return ok a boolean value indicating whether the operation succeeded.\n     *\n     * Emits a {TransferStatusChanged} event with the current status of the transfer.\n     */\n    function initializeTransfer(\n        string calldata transferId,\n        address userWallet,\n        uint256 amount\n    ) external onlyBlockSendBakend returns (bool ok) {\n        initilizeTransferData(transferId, userWallet, amount);\n\n        bool okGetEURe = transferFrom(transferId, userWallet, amount);\n        if (!okGetEURe) {\n            TransferStuck(transferId, userWallet, amount, \"\");\n            return false;\n        }\n\n        (bool okApproveWrap, uint256 amountJEUR) = routage_jEURfromEURe(\n            transferId,\n            amount,\n            amount\n        );\n        if (!okApproveWrap || amountJEUR == 0) {\n            TransferStuck(transferId, userWallet, amount, \"\");\n            return false;\n        }\n\n        uint price = getLatestPrice();\n        uint collateralUSDC = uint((amountJEUR * price) / 10e18);\n\n        (\n            bool okApprouveJEUR,\n            bool okApprouveUSDC,\n            uint256 collateralRedeemed,\n            uint256 feePaid\n        ) = routage_USDCfromjEUR(transferId, amountJEUR, collateralUSDC);\n        if (\n            !okApprouveJEUR ||\n            !okApprouveUSDC ||\n            collateralRedeemed == 0 ||\n            feePaid == 0\n        ) {\n            TransferStuck(transferId, userWallet, amount, \"\");\n            return false;\n        }\n\n        bool okTransferWallet = transferUSDC(transferId, collateralRedeemed);\n        if (!okTransferWallet) {\n            TransferStuck(transferId, userWallet, amount, \"\");\n            return false;\n        }\n\n        finalizeTransfer(transferId);\n\n        return true;\n    }\n\n    /**\n     * Returns the current status of a specific remmitance.\n     */\n    function remittanceStatus(\n        string calldata transferId\n    ) public view virtual returns (TransferStatus) {\n        return transfers[transferId].status;\n    }\n\n    // *********************** Manage Status changed ************************************\n    function initilizeTransferData(\n        string calldata transferId,\n        address userWallet,\n        uint amount\n    ) internal {\n        transfers[transferId].sender = userWallet;\n        transfers[transferId].status = TransferStatus.INITIALIZED;\n\n        emit TransferInitilized(transferId, amount);\n    }\n\n    function finalizeTransfer(string calldata transferId) internal {\n        transfers[transferId].status = TransferStatus.FINALIZED;\n        \n        emit TransferFinalized(\n            transferId,\n            transfers[transferId].userAmount_USDC,\n            transfers[transferId].blocksendAmount_USDC\n        );\n    }\n\n    function amountReceived(string calldata transferId, uint amount) internal {\n        transfers[transferId].status = TransferStatus.EURE_RECEIVED;\n        transfers[transferId].amount_EURe = amount;\n\n        emit TransferStatusChanged(\n            transferId,\n            TransferStatus.EURE_RECEIVED,\n            \"\"\n        );\n    }\n\n    function amountWrapped(string calldata transferId, uint amount) internal {\n        transfers[transferId].status = TransferStatus.JEUR_WRAPPED;\n        transfers[transferId].amount_jEUR = amount;\n\n        emit TransferStatusChanged(transferId, TransferStatus.JEUR_WRAPPED, \"\");\n    }\n\n    function redeemCollateral(\n        string calldata transferId,\n        uint collateral\n    ) internal {\n        transfers[transferId].status = TransferStatus.USDC_RECEIVED;\n        transfers[transferId].amount_USDC = collateral;\n\n        emit TransferStatusChanged(\n            transferId,\n            TransferStatus.USDC_RECEIVED,\n            \"\"\n        );\n    }\n\n    function collateralSent(\n        string calldata transferId,\n        uint userAmount,\n        uint blocksendAmount\n    ) internal {\n        transfers[transferId].status = TransferStatus.USDC_SENT;\n        transfers[transferId].userAmount_USDC = userAmount;\n        transfers[transferId].blocksendAmount_USDC = blocksendAmount;\n\n        emit TransferStatusChanged(transferId, TransferStatus.USDC_SENT, \"\");\n    }\n\n    function TransferStuck(\n        string calldata transferId,\n        address userWallet,\n        uint amount,\n        string memory errorMsg\n    ) internal returns (bool ok) {\n        transfers[transferId].status = TransferStatus.TRANSFER_STUCK;\n\n        ok = moneriumEURemoney.transfer(userWallet, amount);\n\n        emit TransferStatusChanged(\n            transferId,\n            TransferStatus.TRANSFER_STUCK,\n            errorMsg\n        );\n    }\n\n    // *********************************************************************************\n\n    // *********************** GET EURe from user's wallet *****************************\n    function transferFrom(\n        string calldata transferId,\n        address userWallet,\n        uint256 amount\n    ) internal returns (bool ok) {\n        ok = moneriumEURemoney.transferFrom(userWallet, address(this), amount);\n\n        amountReceived(transferId, amount);\n    }\n\n    // *********************************************************************************\n\n    // *********************** Wrap EURe to JEUR ***************************************\n    function routage_jEURfromEURe(\n        string calldata transferId,\n        uint256 amount,\n        uint256 collateral\n    ) internal returns (bool ok, uint256 amountTokens) {\n        ok = moneriumEURemoney.approve(WRAPPER_CONTRACT, amount);\n        amountTokens = jarvisWrapper.wrap(collateral, address(this));\n\n        amountWrapped(transferId, amountTokens);\n    }\n\n    // *********************************************************************************\n\n    // *********************** Wurn & Mint (Redeem) UCDS from JEUR *********************\n    function routage_USDCfromjEUR(\n        string calldata transferId,\n        uint256 _numToken,\n        uint256 _minCollateral\n    )\n        internal\n        returns (\n            bool okApprouveJEUR,\n            bool okApprouveUSDC,\n            uint256 collateralRedeemed,\n            uint256 feePaid\n        )\n    {\n        okApprouveJEUR = jEURToken.approve(SYNTHEREUM_CONTRACT, _numToken);\n        okApprouveUSDC = uSDCToken.approve(SYNTHEREUM_CONTRACT, _minCollateral);\n\n        ISynthereum.RedeemParams memory params = ISynthereum.RedeemParams({\n            numTokens: _numToken,\n            minCollateral: _minCollateral,\n            expiration: block.timestamp + 30,\n            recipient: address(this)\n        });\n\n        (collateralRedeemed, feePaid) = jarvisSynthereum.redeem(params);\n\n        redeemCollateral(transferId, collateralRedeemed);\n    }\n\n    // *********************************************************************************\n\n    // *********************** Transfer USDC to HUB2 Wallet & BlockSend Wallet *********\n    function transferUSDC(\n        string calldata transferId,\n        uint collateralRedeemed\n    ) internal returns (bool ok) {\n        (uint blocksendAmount, uint userAmount) = calculateFees(\n            collateralRedeemed\n        );\n\n        bool okBlocksend = uSDCToken.transfer(\n            BLOCKSEND_WALLET,\n            blocksendAmount\n        );\n        bool okHUB2 = uSDCToken.transfer(HUB2_WALLET, userAmount);\n\n        collateralSent(transferId, userAmount, blocksendAmount);\n\n        return okHUB2 && okBlocksend;\n    }\n\n    // *********************************************************************************\n\n    // *********************** Calculate 1,9% fees *************************************\n    function calculateFees(\n        uint256 amount\n    ) internal pure returns (uint blocksendAmount, uint userAmount) {\n        blocksendAmount = (amount * 19) / 1000;\n        userAmount = amount - blocksendAmount;\n    }\n\n    // *********************************************************************************\n\n    // *********************** Update Contracts Addresses ******************************\n    function setWrapperContract(address newAddress) external onlyOwner {\n        WRAPPER_CONTRACT = newAddress;\n        jarvisWrapper = IFixedRateWrapper(WRAPPER_CONTRACT);\n    }\n\n    function setSyntheriumContract(address newAddress) external onlyOwner {\n        SYNTHEREUM_CONTRACT = newAddress;\n        jarvisSynthereum = ISynthereum(SYNTHEREUM_CONTRACT);\n    }\n\n    function setEURETokenContract(address newAddress) external onlyOwner {\n        EURE_TOKEN_CONTRACT = newAddress;\n        moneriumEURemoney = IERC20(EURE_TOKEN_CONTRACT);\n    }\n\n    function setJEURToken_Contract(address newAddress) external onlyOwner {\n        JEUR_TOKEN_CONTRACT = newAddress;\n        jEURToken = IERC20(JEUR_TOKEN_CONTRACT);\n    }\n\n    function setUSDCTokenContract(address newAddress) external onlyOwner {\n        USDC_TOKEN_CONTRACT = newAddress;\n        uSDCToken = IERC20(USDC_TOKEN_CONTRACT);\n    }\n\n    function setEUR_USD_Aggregator(address newAddress) external onlyOwner {\n        EUR_USD_AGGREGATOR = newAddress;\n        priceFeed = AggregatorV3Interface(EUR_USD_AGGREGATOR);\n    }\n\n    function setHUB2Wallet(address newAddress) external onlyOwner {\n        HUB2_WALLET = newAddress;\n    }\n\n    function setBlockSend_Wallet(address newAddress) external onlyOwner {\n        BLOCKSEND_WALLET = newAddress;\n    }\n\n    function AllowAddress(address _addr) external onlyOwner {\n        allowed[_addr] = true;\n    }\n\n    // *********************************************************************************\n\n    // *********************** Get the latest rate *************************************\n    function getLatestPrice() public view returns (uint) {\n        (, int price, , , ) = priceFeed.latestRoundData();\n        return uint(price / 1000);\n    }\n    // *********************************************************************************\n}\n",
  "sourcePath": "/Users/fabricepayet/Workspace/blocksend/blocksend/truffle/contracts/BlockSendTransfer.sol",
  "compiler": {
    "name": "solc",
    "version": "0.8.14+commit.80d49f37.Emscripten.clang"
  },
  "schemaVersion": "3.4.10",
  "updatedAt": "2022-12-07T18:16:18.596Z",
  "devdoc": {
    "kind": "dev",
    "methods": {
      "initializeTransfer(string,address,uint256)": {
        "params": {
          "amount": "Input parameters for for transfered amount",
          "transferId": "Input parameters transferId",
          "userWallet": "Input parameters for user wallet"
        },
        "returns": {
          "ok": "a boolean value indicating whether the operation succeeded. Emits a {TransferStatusChanged} event with the current status of the transfer."
        }
      },
      "owner()": {
        "details": "Returns the address of the current owner."
      },
      "renounceOwnership()": {
        "details": "Leaves the contract without owner. It will not be possible to call `onlyOwner` functions anymore. Can only be called by the current owner. NOTE: Renouncing ownership will leave the contract without an owner, thereby removing any functionality that is only available to the owner."
      },
      "transferOwnership(address)": {
        "details": "Transfers ownership of the contract to a new account (`newOwner`). Can only be called by the current owner."
      }
    },
    "version": 1
  },
  "userdoc": {
    "kind": "user",
    "methods": {
      "initializeTransfer(string,address,uint256)": {
        "notice": "Iinitialise a transfer of an amount of EUReFirst Step: On-Ramp:1- Transfer EURe from user's wallet2- Wrap EURe to jEUR (Jarvis wrapper)3- Get jEUR/USDC Rate (Aggregator Chainlink)4- Redeem USDC from jEUR (Jarvis Redeem)Secod Step: Calculate 1,9% of feesThird Step: Off-Ramp: Using HUB2if any error: Sent money to users wallet back"
      },
      "remittanceStatus(string)": {
        "notice": "Returns the current status of a specific remmitance."
      }
    },
    "version": 1
  }
}